                                      1 ;--------------------------------------------------------
                                      2 ; File Created by SDCC : free open source ANSI-C Compiler
                                      3 ; Version 3.6.0 #9615 (MINGW64)
                                      4 ;--------------------------------------------------------
                                      5 	.module easyax5043
                                      6 	.optsdcc -mmcs51 --model-large
                                      7 	
                                      8 ;--------------------------------------------------------
                                      9 ; Public variables in this module
                                     10 ;--------------------------------------------------------
                                     11 	.globl _ax5043_init_registers_rx
                                     12 	.globl _ax5043_init_registers_tx
                                     13 	.globl _BEACON_decoding
                                     14 	.globl _dbglink_writenum16
                                     15 	.globl _dbglink_writestr
                                     16 	.globl _dbglink_tx
                                     17 	.globl _memset
                                     18 	.globl _memcpy
                                     19 	.globl _wtimer_remove_callback
                                     20 	.globl _wtimer_add_callback
                                     21 	.globl _wtimer_remove
                                     22 	.globl _wtimer1_addrelative
                                     23 	.globl _wtimer0_addrelative
                                     24 	.globl _wtimer0_addabsolute
                                     25 	.globl _wtimer0_curtime
                                     26 	.globl _wtimer_runcallbacks
                                     27 	.globl _wtimer_idle
                                     28 	.globl _ax5043_writefifo
                                     29 	.globl _ax5043_readfifo
                                     30 	.globl _ax5043_wakeup_deepsleep
                                     31 	.globl _ax5043_enter_deepsleep
                                     32 	.globl _ax5043_reset
                                     33 	.globl _radio_read24
                                     34 	.globl _radio_read16
                                     35 	.globl _pn9_buffer
                                     36 	.globl _pn9_advance_byte
                                     37 	.globl _pn9_advance_bits
                                     38 	.globl _axradio_framing_append_crc
                                     39 	.globl _axradio_framing_check_crc
                                     40 	.globl _ax5043_set_registers_rxcont_singleparamset
                                     41 	.globl _ax5043_set_registers_rxcont
                                     42 	.globl _ax5043_set_registers_rxwor
                                     43 	.globl _ax5043_set_registers_rx
                                     44 	.globl _ax5043_set_registers_tx
                                     45 	.globl _ax5043_set_registers
                                     46 	.globl _axradio_conv_freq_fromreg
                                     47 	.globl _axradio_statuschange
                                     48 	.globl _axradio_conv_timeinterval_totimer0
                                     49 	.globl _checksignedlimit32
                                     50 	.globl _checksignedlimit16
                                     51 	.globl _signedlimit16
                                     52 	.globl _signextend24
                                     53 	.globl _signextend20
                                     54 	.globl _signextend16
                                     55 	.globl _PORTC_7
                                     56 	.globl _PORTC_6
                                     57 	.globl _PORTC_5
                                     58 	.globl _PORTC_4
                                     59 	.globl _PORTC_3
                                     60 	.globl _PORTC_2
                                     61 	.globl _PORTC_1
                                     62 	.globl _PORTC_0
                                     63 	.globl _PORTB_7
                                     64 	.globl _PORTB_6
                                     65 	.globl _PORTB_5
                                     66 	.globl _PORTB_4
                                     67 	.globl _PORTB_3
                                     68 	.globl _PORTB_2
                                     69 	.globl _PORTB_1
                                     70 	.globl _PORTB_0
                                     71 	.globl _PORTA_7
                                     72 	.globl _PORTA_6
                                     73 	.globl _PORTA_5
                                     74 	.globl _PORTA_4
                                     75 	.globl _PORTA_3
                                     76 	.globl _PORTA_2
                                     77 	.globl _PORTA_1
                                     78 	.globl _PORTA_0
                                     79 	.globl _PINC_7
                                     80 	.globl _PINC_6
                                     81 	.globl _PINC_5
                                     82 	.globl _PINC_4
                                     83 	.globl _PINC_3
                                     84 	.globl _PINC_2
                                     85 	.globl _PINC_1
                                     86 	.globl _PINC_0
                                     87 	.globl _PINB_7
                                     88 	.globl _PINB_6
                                     89 	.globl _PINB_5
                                     90 	.globl _PINB_4
                                     91 	.globl _PINB_3
                                     92 	.globl _PINB_2
                                     93 	.globl _PINB_1
                                     94 	.globl _PINB_0
                                     95 	.globl _PINA_7
                                     96 	.globl _PINA_6
                                     97 	.globl _PINA_5
                                     98 	.globl _PINA_4
                                     99 	.globl _PINA_3
                                    100 	.globl _PINA_2
                                    101 	.globl _PINA_1
                                    102 	.globl _PINA_0
                                    103 	.globl _CY
                                    104 	.globl _AC
                                    105 	.globl _F0
                                    106 	.globl _RS1
                                    107 	.globl _RS0
                                    108 	.globl _OV
                                    109 	.globl _F1
                                    110 	.globl _P
                                    111 	.globl _IP_7
                                    112 	.globl _IP_6
                                    113 	.globl _IP_5
                                    114 	.globl _IP_4
                                    115 	.globl _IP_3
                                    116 	.globl _IP_2
                                    117 	.globl _IP_1
                                    118 	.globl _IP_0
                                    119 	.globl _EA
                                    120 	.globl _IE_7
                                    121 	.globl _IE_6
                                    122 	.globl _IE_5
                                    123 	.globl _IE_4
                                    124 	.globl _IE_3
                                    125 	.globl _IE_2
                                    126 	.globl _IE_1
                                    127 	.globl _IE_0
                                    128 	.globl _EIP_7
                                    129 	.globl _EIP_6
                                    130 	.globl _EIP_5
                                    131 	.globl _EIP_4
                                    132 	.globl _EIP_3
                                    133 	.globl _EIP_2
                                    134 	.globl _EIP_1
                                    135 	.globl _EIP_0
                                    136 	.globl _EIE_7
                                    137 	.globl _EIE_6
                                    138 	.globl _EIE_5
                                    139 	.globl _EIE_4
                                    140 	.globl _EIE_3
                                    141 	.globl _EIE_2
                                    142 	.globl _EIE_1
                                    143 	.globl _EIE_0
                                    144 	.globl _E2IP_7
                                    145 	.globl _E2IP_6
                                    146 	.globl _E2IP_5
                                    147 	.globl _E2IP_4
                                    148 	.globl _E2IP_3
                                    149 	.globl _E2IP_2
                                    150 	.globl _E2IP_1
                                    151 	.globl _E2IP_0
                                    152 	.globl _E2IE_7
                                    153 	.globl _E2IE_6
                                    154 	.globl _E2IE_5
                                    155 	.globl _E2IE_4
                                    156 	.globl _E2IE_3
                                    157 	.globl _E2IE_2
                                    158 	.globl _E2IE_1
                                    159 	.globl _E2IE_0
                                    160 	.globl _B_7
                                    161 	.globl _B_6
                                    162 	.globl _B_5
                                    163 	.globl _B_4
                                    164 	.globl _B_3
                                    165 	.globl _B_2
                                    166 	.globl _B_1
                                    167 	.globl _B_0
                                    168 	.globl _ACC_7
                                    169 	.globl _ACC_6
                                    170 	.globl _ACC_5
                                    171 	.globl _ACC_4
                                    172 	.globl _ACC_3
                                    173 	.globl _ACC_2
                                    174 	.globl _ACC_1
                                    175 	.globl _ACC_0
                                    176 	.globl _WTSTAT
                                    177 	.globl _WTIRQEN
                                    178 	.globl _WTEVTD
                                    179 	.globl _WTEVTD1
                                    180 	.globl _WTEVTD0
                                    181 	.globl _WTEVTC
                                    182 	.globl _WTEVTC1
                                    183 	.globl _WTEVTC0
                                    184 	.globl _WTEVTB
                                    185 	.globl _WTEVTB1
                                    186 	.globl _WTEVTB0
                                    187 	.globl _WTEVTA
                                    188 	.globl _WTEVTA1
                                    189 	.globl _WTEVTA0
                                    190 	.globl _WTCNTR1
                                    191 	.globl _WTCNTB
                                    192 	.globl _WTCNTB1
                                    193 	.globl _WTCNTB0
                                    194 	.globl _WTCNTA
                                    195 	.globl _WTCNTA1
                                    196 	.globl _WTCNTA0
                                    197 	.globl _WTCFGB
                                    198 	.globl _WTCFGA
                                    199 	.globl _WDTRESET
                                    200 	.globl _WDTCFG
                                    201 	.globl _U1STATUS
                                    202 	.globl _U1SHREG
                                    203 	.globl _U1MODE
                                    204 	.globl _U1CTRL
                                    205 	.globl _U0STATUS
                                    206 	.globl _U0SHREG
                                    207 	.globl _U0MODE
                                    208 	.globl _U0CTRL
                                    209 	.globl _T2STATUS
                                    210 	.globl _T2PERIOD
                                    211 	.globl _T2PERIOD1
                                    212 	.globl _T2PERIOD0
                                    213 	.globl _T2MODE
                                    214 	.globl _T2CNT
                                    215 	.globl _T2CNT1
                                    216 	.globl _T2CNT0
                                    217 	.globl _T2CLKSRC
                                    218 	.globl _T1STATUS
                                    219 	.globl _T1PERIOD
                                    220 	.globl _T1PERIOD1
                                    221 	.globl _T1PERIOD0
                                    222 	.globl _T1MODE
                                    223 	.globl _T1CNT
                                    224 	.globl _T1CNT1
                                    225 	.globl _T1CNT0
                                    226 	.globl _T1CLKSRC
                                    227 	.globl _T0STATUS
                                    228 	.globl _T0PERIOD
                                    229 	.globl _T0PERIOD1
                                    230 	.globl _T0PERIOD0
                                    231 	.globl _T0MODE
                                    232 	.globl _T0CNT
                                    233 	.globl _T0CNT1
                                    234 	.globl _T0CNT0
                                    235 	.globl _T0CLKSRC
                                    236 	.globl _SPSTATUS
                                    237 	.globl _SPSHREG
                                    238 	.globl _SPMODE
                                    239 	.globl _SPCLKSRC
                                    240 	.globl _RADIOSTAT
                                    241 	.globl _RADIOSTAT1
                                    242 	.globl _RADIOSTAT0
                                    243 	.globl _RADIODATA
                                    244 	.globl _RADIODATA3
                                    245 	.globl _RADIODATA2
                                    246 	.globl _RADIODATA1
                                    247 	.globl _RADIODATA0
                                    248 	.globl _RADIOADDR
                                    249 	.globl _RADIOADDR1
                                    250 	.globl _RADIOADDR0
                                    251 	.globl _RADIOACC
                                    252 	.globl _OC1STATUS
                                    253 	.globl _OC1PIN
                                    254 	.globl _OC1MODE
                                    255 	.globl _OC1COMP
                                    256 	.globl _OC1COMP1
                                    257 	.globl _OC1COMP0
                                    258 	.globl _OC0STATUS
                                    259 	.globl _OC0PIN
                                    260 	.globl _OC0MODE
                                    261 	.globl _OC0COMP
                                    262 	.globl _OC0COMP1
                                    263 	.globl _OC0COMP0
                                    264 	.globl _NVSTATUS
                                    265 	.globl _NVKEY
                                    266 	.globl _NVDATA
                                    267 	.globl _NVDATA1
                                    268 	.globl _NVDATA0
                                    269 	.globl _NVADDR
                                    270 	.globl _NVADDR1
                                    271 	.globl _NVADDR0
                                    272 	.globl _IC1STATUS
                                    273 	.globl _IC1MODE
                                    274 	.globl _IC1CAPT
                                    275 	.globl _IC1CAPT1
                                    276 	.globl _IC1CAPT0
                                    277 	.globl _IC0STATUS
                                    278 	.globl _IC0MODE
                                    279 	.globl _IC0CAPT
                                    280 	.globl _IC0CAPT1
                                    281 	.globl _IC0CAPT0
                                    282 	.globl _PORTR
                                    283 	.globl _PORTC
                                    284 	.globl _PORTB
                                    285 	.globl _PORTA
                                    286 	.globl _PINR
                                    287 	.globl _PINC
                                    288 	.globl _PINB
                                    289 	.globl _PINA
                                    290 	.globl _DIRR
                                    291 	.globl _DIRC
                                    292 	.globl _DIRB
                                    293 	.globl _DIRA
                                    294 	.globl _DBGLNKSTAT
                                    295 	.globl _DBGLNKBUF
                                    296 	.globl _CODECONFIG
                                    297 	.globl _CLKSTAT
                                    298 	.globl _CLKCON
                                    299 	.globl _ANALOGCOMP
                                    300 	.globl _ADCCONV
                                    301 	.globl _ADCCLKSRC
                                    302 	.globl _ADCCH3CONFIG
                                    303 	.globl _ADCCH2CONFIG
                                    304 	.globl _ADCCH1CONFIG
                                    305 	.globl _ADCCH0CONFIG
                                    306 	.globl __XPAGE
                                    307 	.globl _XPAGE
                                    308 	.globl _SP
                                    309 	.globl _PSW
                                    310 	.globl _PCON
                                    311 	.globl _IP
                                    312 	.globl _IE
                                    313 	.globl _EIP
                                    314 	.globl _EIE
                                    315 	.globl _E2IP
                                    316 	.globl _E2IE
                                    317 	.globl _DPS
                                    318 	.globl _DPTR1
                                    319 	.globl _DPTR0
                                    320 	.globl _DPL1
                                    321 	.globl _DPL
                                    322 	.globl _DPH1
                                    323 	.globl _DPH
                                    324 	.globl _B
                                    325 	.globl _ACC
                                    326 	.globl _f33_saved
                                    327 	.globl _f32_saved
                                    328 	.globl _f31_saved
                                    329 	.globl _f30_saved
                                    330 	.globl _axradio_transmit_PARM_3
                                    331 	.globl _axradio_transmit_PARM_2
                                    332 	.globl _axradio_timer
                                    333 	.globl _axradio_cb_transmitdata
                                    334 	.globl _axradio_cb_transmitend
                                    335 	.globl _axradio_cb_transmitstart
                                    336 	.globl _axradio_cb_channelstate
                                    337 	.globl _axradio_cb_receivesfd
                                    338 	.globl _axradio_cb_receive
                                    339 	.globl _axradio_rxbuffer
                                    340 	.globl _axradio_txbuffer
                                    341 	.globl _axradio_default_remoteaddr
                                    342 	.globl _axradio_localaddr
                                    343 	.globl _axradio_timeanchor
                                    344 	.globl _axradio_sync_periodcorr
                                    345 	.globl _axradio_sync_time
                                    346 	.globl _axradio_ack_seqnr
                                    347 	.globl _axradio_ack_count
                                    348 	.globl _axradio_curfreqoffset
                                    349 	.globl _axradio_curchannel
                                    350 	.globl _axradio_txbuffer_cnt
                                    351 	.globl _axradio_txbuffer_len
                                    352 	.globl _axradio_syncstate
                                    353 	.globl _aligned_alloc_PARM_2
                                    354 	.globl _AX5043_XTALAMPL
                                    355 	.globl _AX5043_XTALOSC
                                    356 	.globl _AX5043_MODCFGP
                                    357 	.globl _AX5043_POWCTRL1
                                    358 	.globl _AX5043_REF
                                    359 	.globl _AX5043_0xF44
                                    360 	.globl _AX5043_0xF35
                                    361 	.globl _AX5043_0xF34
                                    362 	.globl _AX5043_0xF33
                                    363 	.globl _AX5043_0xF32
                                    364 	.globl _AX5043_0xF31
                                    365 	.globl _AX5043_0xF30
                                    366 	.globl _AX5043_0xF26
                                    367 	.globl _AX5043_0xF23
                                    368 	.globl _AX5043_0xF22
                                    369 	.globl _AX5043_0xF21
                                    370 	.globl _AX5043_0xF1C
                                    371 	.globl _AX5043_0xF18
                                    372 	.globl _AX5043_0xF11
                                    373 	.globl _AX5043_0xF10
                                    374 	.globl _AX5043_0xF0C
                                    375 	.globl _AX5043_0xF00
                                    376 	.globl _AX5043_TIMEGAIN3NB
                                    377 	.globl _AX5043_TIMEGAIN2NB
                                    378 	.globl _AX5043_TIMEGAIN1NB
                                    379 	.globl _AX5043_TIMEGAIN0NB
                                    380 	.globl _AX5043_RXPARAMSETSNB
                                    381 	.globl _AX5043_RXPARAMCURSETNB
                                    382 	.globl _AX5043_PKTMAXLENNB
                                    383 	.globl _AX5043_PKTLENOFFSETNB
                                    384 	.globl _AX5043_PKTLENCFGNB
                                    385 	.globl _AX5043_PKTADDRMASK3NB
                                    386 	.globl _AX5043_PKTADDRMASK2NB
                                    387 	.globl _AX5043_PKTADDRMASK1NB
                                    388 	.globl _AX5043_PKTADDRMASK0NB
                                    389 	.globl _AX5043_PKTADDRCFGNB
                                    390 	.globl _AX5043_PKTADDR3NB
                                    391 	.globl _AX5043_PKTADDR2NB
                                    392 	.globl _AX5043_PKTADDR1NB
                                    393 	.globl _AX5043_PKTADDR0NB
                                    394 	.globl _AX5043_PHASEGAIN3NB
                                    395 	.globl _AX5043_PHASEGAIN2NB
                                    396 	.globl _AX5043_PHASEGAIN1NB
                                    397 	.globl _AX5043_PHASEGAIN0NB
                                    398 	.globl _AX5043_FREQUENCYLEAKNB
                                    399 	.globl _AX5043_FREQUENCYGAIND3NB
                                    400 	.globl _AX5043_FREQUENCYGAIND2NB
                                    401 	.globl _AX5043_FREQUENCYGAIND1NB
                                    402 	.globl _AX5043_FREQUENCYGAIND0NB
                                    403 	.globl _AX5043_FREQUENCYGAINC3NB
                                    404 	.globl _AX5043_FREQUENCYGAINC2NB
                                    405 	.globl _AX5043_FREQUENCYGAINC1NB
                                    406 	.globl _AX5043_FREQUENCYGAINC0NB
                                    407 	.globl _AX5043_FREQUENCYGAINB3NB
                                    408 	.globl _AX5043_FREQUENCYGAINB2NB
                                    409 	.globl _AX5043_FREQUENCYGAINB1NB
                                    410 	.globl _AX5043_FREQUENCYGAINB0NB
                                    411 	.globl _AX5043_FREQUENCYGAINA3NB
                                    412 	.globl _AX5043_FREQUENCYGAINA2NB
                                    413 	.globl _AX5043_FREQUENCYGAINA1NB
                                    414 	.globl _AX5043_FREQUENCYGAINA0NB
                                    415 	.globl _AX5043_FREQDEV13NB
                                    416 	.globl _AX5043_FREQDEV12NB
                                    417 	.globl _AX5043_FREQDEV11NB
                                    418 	.globl _AX5043_FREQDEV10NB
                                    419 	.globl _AX5043_FREQDEV03NB
                                    420 	.globl _AX5043_FREQDEV02NB
                                    421 	.globl _AX5043_FREQDEV01NB
                                    422 	.globl _AX5043_FREQDEV00NB
                                    423 	.globl _AX5043_FOURFSK3NB
                                    424 	.globl _AX5043_FOURFSK2NB
                                    425 	.globl _AX5043_FOURFSK1NB
                                    426 	.globl _AX5043_FOURFSK0NB
                                    427 	.globl _AX5043_DRGAIN3NB
                                    428 	.globl _AX5043_DRGAIN2NB
                                    429 	.globl _AX5043_DRGAIN1NB
                                    430 	.globl _AX5043_DRGAIN0NB
                                    431 	.globl _AX5043_BBOFFSRES3NB
                                    432 	.globl _AX5043_BBOFFSRES2NB
                                    433 	.globl _AX5043_BBOFFSRES1NB
                                    434 	.globl _AX5043_BBOFFSRES0NB
                                    435 	.globl _AX5043_AMPLITUDEGAIN3NB
                                    436 	.globl _AX5043_AMPLITUDEGAIN2NB
                                    437 	.globl _AX5043_AMPLITUDEGAIN1NB
                                    438 	.globl _AX5043_AMPLITUDEGAIN0NB
                                    439 	.globl _AX5043_AGCTARGET3NB
                                    440 	.globl _AX5043_AGCTARGET2NB
                                    441 	.globl _AX5043_AGCTARGET1NB
                                    442 	.globl _AX5043_AGCTARGET0NB
                                    443 	.globl _AX5043_AGCMINMAX3NB
                                    444 	.globl _AX5043_AGCMINMAX2NB
                                    445 	.globl _AX5043_AGCMINMAX1NB
                                    446 	.globl _AX5043_AGCMINMAX0NB
                                    447 	.globl _AX5043_AGCGAIN3NB
                                    448 	.globl _AX5043_AGCGAIN2NB
                                    449 	.globl _AX5043_AGCGAIN1NB
                                    450 	.globl _AX5043_AGCGAIN0NB
                                    451 	.globl _AX5043_AGCAHYST3NB
                                    452 	.globl _AX5043_AGCAHYST2NB
                                    453 	.globl _AX5043_AGCAHYST1NB
                                    454 	.globl _AX5043_AGCAHYST0NB
                                    455 	.globl _AX5043_0xF44NB
                                    456 	.globl _AX5043_0xF35NB
                                    457 	.globl _AX5043_0xF34NB
                                    458 	.globl _AX5043_0xF33NB
                                    459 	.globl _AX5043_0xF32NB
                                    460 	.globl _AX5043_0xF31NB
                                    461 	.globl _AX5043_0xF30NB
                                    462 	.globl _AX5043_0xF26NB
                                    463 	.globl _AX5043_0xF23NB
                                    464 	.globl _AX5043_0xF22NB
                                    465 	.globl _AX5043_0xF21NB
                                    466 	.globl _AX5043_0xF1CNB
                                    467 	.globl _AX5043_0xF18NB
                                    468 	.globl _AX5043_0xF0CNB
                                    469 	.globl _AX5043_0xF00NB
                                    470 	.globl _AX5043_XTALSTATUSNB
                                    471 	.globl _AX5043_XTALOSCNB
                                    472 	.globl _AX5043_XTALCAPNB
                                    473 	.globl _AX5043_XTALAMPLNB
                                    474 	.globl _AX5043_WAKEUPXOEARLYNB
                                    475 	.globl _AX5043_WAKEUPTIMER1NB
                                    476 	.globl _AX5043_WAKEUPTIMER0NB
                                    477 	.globl _AX5043_WAKEUPFREQ1NB
                                    478 	.globl _AX5043_WAKEUPFREQ0NB
                                    479 	.globl _AX5043_WAKEUP1NB
                                    480 	.globl _AX5043_WAKEUP0NB
                                    481 	.globl _AX5043_TXRATE2NB
                                    482 	.globl _AX5043_TXRATE1NB
                                    483 	.globl _AX5043_TXRATE0NB
                                    484 	.globl _AX5043_TXPWRCOEFFE1NB
                                    485 	.globl _AX5043_TXPWRCOEFFE0NB
                                    486 	.globl _AX5043_TXPWRCOEFFD1NB
                                    487 	.globl _AX5043_TXPWRCOEFFD0NB
                                    488 	.globl _AX5043_TXPWRCOEFFC1NB
                                    489 	.globl _AX5043_TXPWRCOEFFC0NB
                                    490 	.globl _AX5043_TXPWRCOEFFB1NB
                                    491 	.globl _AX5043_TXPWRCOEFFB0NB
                                    492 	.globl _AX5043_TXPWRCOEFFA1NB
                                    493 	.globl _AX5043_TXPWRCOEFFA0NB
                                    494 	.globl _AX5043_TRKRFFREQ2NB
                                    495 	.globl _AX5043_TRKRFFREQ1NB
                                    496 	.globl _AX5043_TRKRFFREQ0NB
                                    497 	.globl _AX5043_TRKPHASE1NB
                                    498 	.globl _AX5043_TRKPHASE0NB
                                    499 	.globl _AX5043_TRKFSKDEMOD1NB
                                    500 	.globl _AX5043_TRKFSKDEMOD0NB
                                    501 	.globl _AX5043_TRKFREQ1NB
                                    502 	.globl _AX5043_TRKFREQ0NB
                                    503 	.globl _AX5043_TRKDATARATE2NB
                                    504 	.globl _AX5043_TRKDATARATE1NB
                                    505 	.globl _AX5043_TRKDATARATE0NB
                                    506 	.globl _AX5043_TRKAMPLITUDE1NB
                                    507 	.globl _AX5043_TRKAMPLITUDE0NB
                                    508 	.globl _AX5043_TRKAFSKDEMOD1NB
                                    509 	.globl _AX5043_TRKAFSKDEMOD0NB
                                    510 	.globl _AX5043_TMGTXSETTLENB
                                    511 	.globl _AX5043_TMGTXBOOSTNB
                                    512 	.globl _AX5043_TMGRXSETTLENB
                                    513 	.globl _AX5043_TMGRXRSSINB
                                    514 	.globl _AX5043_TMGRXPREAMBLE3NB
                                    515 	.globl _AX5043_TMGRXPREAMBLE2NB
                                    516 	.globl _AX5043_TMGRXPREAMBLE1NB
                                    517 	.globl _AX5043_TMGRXOFFSACQNB
                                    518 	.globl _AX5043_TMGRXCOARSEAGCNB
                                    519 	.globl _AX5043_TMGRXBOOSTNB
                                    520 	.globl _AX5043_TMGRXAGCNB
                                    521 	.globl _AX5043_TIMER2NB
                                    522 	.globl _AX5043_TIMER1NB
                                    523 	.globl _AX5043_TIMER0NB
                                    524 	.globl _AX5043_SILICONREVISIONNB
                                    525 	.globl _AX5043_SCRATCHNB
                                    526 	.globl _AX5043_RXDATARATE2NB
                                    527 	.globl _AX5043_RXDATARATE1NB
                                    528 	.globl _AX5043_RXDATARATE0NB
                                    529 	.globl _AX5043_RSSIREFERENCENB
                                    530 	.globl _AX5043_RSSIABSTHRNB
                                    531 	.globl _AX5043_RSSINB
                                    532 	.globl _AX5043_REFNB
                                    533 	.globl _AX5043_RADIOSTATENB
                                    534 	.globl _AX5043_RADIOEVENTREQ1NB
                                    535 	.globl _AX5043_RADIOEVENTREQ0NB
                                    536 	.globl _AX5043_RADIOEVENTMASK1NB
                                    537 	.globl _AX5043_RADIOEVENTMASK0NB
                                    538 	.globl _AX5043_PWRMODENB
                                    539 	.globl _AX5043_PWRAMPNB
                                    540 	.globl _AX5043_POWSTICKYSTATNB
                                    541 	.globl _AX5043_POWSTATNB
                                    542 	.globl _AX5043_POWIRQMASKNB
                                    543 	.globl _AX5043_POWCTRL1NB
                                    544 	.globl _AX5043_PLLVCOIRNB
                                    545 	.globl _AX5043_PLLVCOINB
                                    546 	.globl _AX5043_PLLVCODIVNB
                                    547 	.globl _AX5043_PLLRNGCLKNB
                                    548 	.globl _AX5043_PLLRANGINGBNB
                                    549 	.globl _AX5043_PLLRANGINGANB
                                    550 	.globl _AX5043_PLLLOOPBOOSTNB
                                    551 	.globl _AX5043_PLLLOOPNB
                                    552 	.globl _AX5043_PLLLOCKDETNB
                                    553 	.globl _AX5043_PLLCPIBOOSTNB
                                    554 	.globl _AX5043_PLLCPINB
                                    555 	.globl _AX5043_PKTSTOREFLAGSNB
                                    556 	.globl _AX5043_PKTMISCFLAGSNB
                                    557 	.globl _AX5043_PKTCHUNKSIZENB
                                    558 	.globl _AX5043_PKTACCEPTFLAGSNB
                                    559 	.globl _AX5043_PINSTATENB
                                    560 	.globl _AX5043_PINFUNCSYSCLKNB
                                    561 	.globl _AX5043_PINFUNCPWRAMPNB
                                    562 	.globl _AX5043_PINFUNCIRQNB
                                    563 	.globl _AX5043_PINFUNCDCLKNB
                                    564 	.globl _AX5043_PINFUNCDATANB
                                    565 	.globl _AX5043_PINFUNCANTSELNB
                                    566 	.globl _AX5043_MODULATIONNB
                                    567 	.globl _AX5043_MODCFGPNB
                                    568 	.globl _AX5043_MODCFGFNB
                                    569 	.globl _AX5043_MODCFGANB
                                    570 	.globl _AX5043_MAXRFOFFSET2NB
                                    571 	.globl _AX5043_MAXRFOFFSET1NB
                                    572 	.globl _AX5043_MAXRFOFFSET0NB
                                    573 	.globl _AX5043_MAXDROFFSET2NB
                                    574 	.globl _AX5043_MAXDROFFSET1NB
                                    575 	.globl _AX5043_MAXDROFFSET0NB
                                    576 	.globl _AX5043_MATCH1PAT1NB
                                    577 	.globl _AX5043_MATCH1PAT0NB
                                    578 	.globl _AX5043_MATCH1MINNB
                                    579 	.globl _AX5043_MATCH1MAXNB
                                    580 	.globl _AX5043_MATCH1LENNB
                                    581 	.globl _AX5043_MATCH0PAT3NB
                                    582 	.globl _AX5043_MATCH0PAT2NB
                                    583 	.globl _AX5043_MATCH0PAT1NB
                                    584 	.globl _AX5043_MATCH0PAT0NB
                                    585 	.globl _AX5043_MATCH0MINNB
                                    586 	.globl _AX5043_MATCH0MAXNB
                                    587 	.globl _AX5043_MATCH0LENNB
                                    588 	.globl _AX5043_LPOSCSTATUSNB
                                    589 	.globl _AX5043_LPOSCREF1NB
                                    590 	.globl _AX5043_LPOSCREF0NB
                                    591 	.globl _AX5043_LPOSCPER1NB
                                    592 	.globl _AX5043_LPOSCPER0NB
                                    593 	.globl _AX5043_LPOSCKFILT1NB
                                    594 	.globl _AX5043_LPOSCKFILT0NB
                                    595 	.globl _AX5043_LPOSCFREQ1NB
                                    596 	.globl _AX5043_LPOSCFREQ0NB
                                    597 	.globl _AX5043_LPOSCCONFIGNB
                                    598 	.globl _AX5043_IRQREQUEST1NB
                                    599 	.globl _AX5043_IRQREQUEST0NB
                                    600 	.globl _AX5043_IRQMASK1NB
                                    601 	.globl _AX5043_IRQMASK0NB
                                    602 	.globl _AX5043_IRQINVERSION1NB
                                    603 	.globl _AX5043_IRQINVERSION0NB
                                    604 	.globl _AX5043_IFFREQ1NB
                                    605 	.globl _AX5043_IFFREQ0NB
                                    606 	.globl _AX5043_GPADCPERIODNB
                                    607 	.globl _AX5043_GPADCCTRLNB
                                    608 	.globl _AX5043_GPADC13VALUE1NB
                                    609 	.globl _AX5043_GPADC13VALUE0NB
                                    610 	.globl _AX5043_FSKDMIN1NB
                                    611 	.globl _AX5043_FSKDMIN0NB
                                    612 	.globl _AX5043_FSKDMAX1NB
                                    613 	.globl _AX5043_FSKDMAX0NB
                                    614 	.globl _AX5043_FSKDEV2NB
                                    615 	.globl _AX5043_FSKDEV1NB
                                    616 	.globl _AX5043_FSKDEV0NB
                                    617 	.globl _AX5043_FREQB3NB
                                    618 	.globl _AX5043_FREQB2NB
                                    619 	.globl _AX5043_FREQB1NB
                                    620 	.globl _AX5043_FREQB0NB
                                    621 	.globl _AX5043_FREQA3NB
                                    622 	.globl _AX5043_FREQA2NB
                                    623 	.globl _AX5043_FREQA1NB
                                    624 	.globl _AX5043_FREQA0NB
                                    625 	.globl _AX5043_FRAMINGNB
                                    626 	.globl _AX5043_FIFOTHRESH1NB
                                    627 	.globl _AX5043_FIFOTHRESH0NB
                                    628 	.globl _AX5043_FIFOSTATNB
                                    629 	.globl _AX5043_FIFOFREE1NB
                                    630 	.globl _AX5043_FIFOFREE0NB
                                    631 	.globl _AX5043_FIFODATANB
                                    632 	.globl _AX5043_FIFOCOUNT1NB
                                    633 	.globl _AX5043_FIFOCOUNT0NB
                                    634 	.globl _AX5043_FECSYNCNB
                                    635 	.globl _AX5043_FECSTATUSNB
                                    636 	.globl _AX5043_FECNB
                                    637 	.globl _AX5043_ENCODINGNB
                                    638 	.globl _AX5043_DIVERSITYNB
                                    639 	.globl _AX5043_DECIMATIONNB
                                    640 	.globl _AX5043_DACVALUE1NB
                                    641 	.globl _AX5043_DACVALUE0NB
                                    642 	.globl _AX5043_DACCONFIGNB
                                    643 	.globl _AX5043_CRCINIT3NB
                                    644 	.globl _AX5043_CRCINIT2NB
                                    645 	.globl _AX5043_CRCINIT1NB
                                    646 	.globl _AX5043_CRCINIT0NB
                                    647 	.globl _AX5043_BGNDRSSITHRNB
                                    648 	.globl _AX5043_BGNDRSSIGAINNB
                                    649 	.globl _AX5043_BGNDRSSINB
                                    650 	.globl _AX5043_BBTUNENB
                                    651 	.globl _AX5043_BBOFFSCAPNB
                                    652 	.globl _AX5043_AMPLFILTERNB
                                    653 	.globl _AX5043_AGCCOUNTERNB
                                    654 	.globl _AX5043_AFSKSPACE1NB
                                    655 	.globl _AX5043_AFSKSPACE0NB
                                    656 	.globl _AX5043_AFSKMARK1NB
                                    657 	.globl _AX5043_AFSKMARK0NB
                                    658 	.globl _AX5043_AFSKCTRLNB
                                    659 	.globl _AX5043_TIMEGAIN3
                                    660 	.globl _AX5043_TIMEGAIN2
                                    661 	.globl _AX5043_TIMEGAIN1
                                    662 	.globl _AX5043_TIMEGAIN0
                                    663 	.globl _AX5043_RXPARAMSETS
                                    664 	.globl _AX5043_RXPARAMCURSET
                                    665 	.globl _AX5043_PKTMAXLEN
                                    666 	.globl _AX5043_PKTLENOFFSET
                                    667 	.globl _AX5043_PKTLENCFG
                                    668 	.globl _AX5043_PKTADDRMASK3
                                    669 	.globl _AX5043_PKTADDRMASK2
                                    670 	.globl _AX5043_PKTADDRMASK1
                                    671 	.globl _AX5043_PKTADDRMASK0
                                    672 	.globl _AX5043_PKTADDRCFG
                                    673 	.globl _AX5043_PKTADDR3
                                    674 	.globl _AX5043_PKTADDR2
                                    675 	.globl _AX5043_PKTADDR1
                                    676 	.globl _AX5043_PKTADDR0
                                    677 	.globl _AX5043_PHASEGAIN3
                                    678 	.globl _AX5043_PHASEGAIN2
                                    679 	.globl _AX5043_PHASEGAIN1
                                    680 	.globl _AX5043_PHASEGAIN0
                                    681 	.globl _AX5043_FREQUENCYLEAK
                                    682 	.globl _AX5043_FREQUENCYGAIND3
                                    683 	.globl _AX5043_FREQUENCYGAIND2
                                    684 	.globl _AX5043_FREQUENCYGAIND1
                                    685 	.globl _AX5043_FREQUENCYGAIND0
                                    686 	.globl _AX5043_FREQUENCYGAINC3
                                    687 	.globl _AX5043_FREQUENCYGAINC2
                                    688 	.globl _AX5043_FREQUENCYGAINC1
                                    689 	.globl _AX5043_FREQUENCYGAINC0
                                    690 	.globl _AX5043_FREQUENCYGAINB3
                                    691 	.globl _AX5043_FREQUENCYGAINB2
                                    692 	.globl _AX5043_FREQUENCYGAINB1
                                    693 	.globl _AX5043_FREQUENCYGAINB0
                                    694 	.globl _AX5043_FREQUENCYGAINA3
                                    695 	.globl _AX5043_FREQUENCYGAINA2
                                    696 	.globl _AX5043_FREQUENCYGAINA1
                                    697 	.globl _AX5043_FREQUENCYGAINA0
                                    698 	.globl _AX5043_FREQDEV13
                                    699 	.globl _AX5043_FREQDEV12
                                    700 	.globl _AX5043_FREQDEV11
                                    701 	.globl _AX5043_FREQDEV10
                                    702 	.globl _AX5043_FREQDEV03
                                    703 	.globl _AX5043_FREQDEV02
                                    704 	.globl _AX5043_FREQDEV01
                                    705 	.globl _AX5043_FREQDEV00
                                    706 	.globl _AX5043_FOURFSK3
                                    707 	.globl _AX5043_FOURFSK2
                                    708 	.globl _AX5043_FOURFSK1
                                    709 	.globl _AX5043_FOURFSK0
                                    710 	.globl _AX5043_DRGAIN3
                                    711 	.globl _AX5043_DRGAIN2
                                    712 	.globl _AX5043_DRGAIN1
                                    713 	.globl _AX5043_DRGAIN0
                                    714 	.globl _AX5043_BBOFFSRES3
                                    715 	.globl _AX5043_BBOFFSRES2
                                    716 	.globl _AX5043_BBOFFSRES1
                                    717 	.globl _AX5043_BBOFFSRES0
                                    718 	.globl _AX5043_AMPLITUDEGAIN3
                                    719 	.globl _AX5043_AMPLITUDEGAIN2
                                    720 	.globl _AX5043_AMPLITUDEGAIN1
                                    721 	.globl _AX5043_AMPLITUDEGAIN0
                                    722 	.globl _AX5043_AGCTARGET3
                                    723 	.globl _AX5043_AGCTARGET2
                                    724 	.globl _AX5043_AGCTARGET1
                                    725 	.globl _AX5043_AGCTARGET0
                                    726 	.globl _AX5043_AGCMINMAX3
                                    727 	.globl _AX5043_AGCMINMAX2
                                    728 	.globl _AX5043_AGCMINMAX1
                                    729 	.globl _AX5043_AGCMINMAX0
                                    730 	.globl _AX5043_AGCGAIN3
                                    731 	.globl _AX5043_AGCGAIN2
                                    732 	.globl _AX5043_AGCGAIN1
                                    733 	.globl _AX5043_AGCGAIN0
                                    734 	.globl _AX5043_AGCAHYST3
                                    735 	.globl _AX5043_AGCAHYST2
                                    736 	.globl _AX5043_AGCAHYST1
                                    737 	.globl _AX5043_AGCAHYST0
                                    738 	.globl _AX5043_XTALSTATUS
                                    739 	.globl _AX5043_XTALCAP
                                    740 	.globl _AX5043_WAKEUPXOEARLY
                                    741 	.globl _AX5043_WAKEUPTIMER1
                                    742 	.globl _AX5043_WAKEUPTIMER0
                                    743 	.globl _AX5043_WAKEUPFREQ1
                                    744 	.globl _AX5043_WAKEUPFREQ0
                                    745 	.globl _AX5043_WAKEUP1
                                    746 	.globl _AX5043_WAKEUP0
                                    747 	.globl _AX5043_TXRATE2
                                    748 	.globl _AX5043_TXRATE1
                                    749 	.globl _AX5043_TXRATE0
                                    750 	.globl _AX5043_TXPWRCOEFFE1
                                    751 	.globl _AX5043_TXPWRCOEFFE0
                                    752 	.globl _AX5043_TXPWRCOEFFD1
                                    753 	.globl _AX5043_TXPWRCOEFFD0
                                    754 	.globl _AX5043_TXPWRCOEFFC1
                                    755 	.globl _AX5043_TXPWRCOEFFC0
                                    756 	.globl _AX5043_TXPWRCOEFFB1
                                    757 	.globl _AX5043_TXPWRCOEFFB0
                                    758 	.globl _AX5043_TXPWRCOEFFA1
                                    759 	.globl _AX5043_TXPWRCOEFFA0
                                    760 	.globl _AX5043_TRKRFFREQ2
                                    761 	.globl _AX5043_TRKRFFREQ1
                                    762 	.globl _AX5043_TRKRFFREQ0
                                    763 	.globl _AX5043_TRKPHASE1
                                    764 	.globl _AX5043_TRKPHASE0
                                    765 	.globl _AX5043_TRKFSKDEMOD1
                                    766 	.globl _AX5043_TRKFSKDEMOD0
                                    767 	.globl _AX5043_TRKFREQ1
                                    768 	.globl _AX5043_TRKFREQ0
                                    769 	.globl _AX5043_TRKDATARATE2
                                    770 	.globl _AX5043_TRKDATARATE1
                                    771 	.globl _AX5043_TRKDATARATE0
                                    772 	.globl _AX5043_TRKAMPLITUDE1
                                    773 	.globl _AX5043_TRKAMPLITUDE0
                                    774 	.globl _AX5043_TRKAFSKDEMOD1
                                    775 	.globl _AX5043_TRKAFSKDEMOD0
                                    776 	.globl _AX5043_TMGTXSETTLE
                                    777 	.globl _AX5043_TMGTXBOOST
                                    778 	.globl _AX5043_TMGRXSETTLE
                                    779 	.globl _AX5043_TMGRXRSSI
                                    780 	.globl _AX5043_TMGRXPREAMBLE3
                                    781 	.globl _AX5043_TMGRXPREAMBLE2
                                    782 	.globl _AX5043_TMGRXPREAMBLE1
                                    783 	.globl _AX5043_TMGRXOFFSACQ
                                    784 	.globl _AX5043_TMGRXCOARSEAGC
                                    785 	.globl _AX5043_TMGRXBOOST
                                    786 	.globl _AX5043_TMGRXAGC
                                    787 	.globl _AX5043_TIMER2
                                    788 	.globl _AX5043_TIMER1
                                    789 	.globl _AX5043_TIMER0
                                    790 	.globl _AX5043_SILICONREVISION
                                    791 	.globl _AX5043_SCRATCH
                                    792 	.globl _AX5043_RXDATARATE2
                                    793 	.globl _AX5043_RXDATARATE1
                                    794 	.globl _AX5043_RXDATARATE0
                                    795 	.globl _AX5043_RSSIREFERENCE
                                    796 	.globl _AX5043_RSSIABSTHR
                                    797 	.globl _AX5043_RSSI
                                    798 	.globl _AX5043_RADIOSTATE
                                    799 	.globl _AX5043_RADIOEVENTREQ1
                                    800 	.globl _AX5043_RADIOEVENTREQ0
                                    801 	.globl _AX5043_RADIOEVENTMASK1
                                    802 	.globl _AX5043_RADIOEVENTMASK0
                                    803 	.globl _AX5043_PWRMODE
                                    804 	.globl _AX5043_PWRAMP
                                    805 	.globl _AX5043_POWSTICKYSTAT
                                    806 	.globl _AX5043_POWSTAT
                                    807 	.globl _AX5043_POWIRQMASK
                                    808 	.globl _AX5043_PLLVCOIR
                                    809 	.globl _AX5043_PLLVCOI
                                    810 	.globl _AX5043_PLLVCODIV
                                    811 	.globl _AX5043_PLLRNGCLK
                                    812 	.globl _AX5043_PLLRANGINGB
                                    813 	.globl _AX5043_PLLRANGINGA
                                    814 	.globl _AX5043_PLLLOOPBOOST
                                    815 	.globl _AX5043_PLLLOOP
                                    816 	.globl _AX5043_PLLLOCKDET
                                    817 	.globl _AX5043_PLLCPIBOOST
                                    818 	.globl _AX5043_PLLCPI
                                    819 	.globl _AX5043_PKTSTOREFLAGS
                                    820 	.globl _AX5043_PKTMISCFLAGS
                                    821 	.globl _AX5043_PKTCHUNKSIZE
                                    822 	.globl _AX5043_PKTACCEPTFLAGS
                                    823 	.globl _AX5043_PINSTATE
                                    824 	.globl _AX5043_PINFUNCSYSCLK
                                    825 	.globl _AX5043_PINFUNCPWRAMP
                                    826 	.globl _AX5043_PINFUNCIRQ
                                    827 	.globl _AX5043_PINFUNCDCLK
                                    828 	.globl _AX5043_PINFUNCDATA
                                    829 	.globl _AX5043_PINFUNCANTSEL
                                    830 	.globl _AX5043_MODULATION
                                    831 	.globl _AX5043_MODCFGF
                                    832 	.globl _AX5043_MODCFGA
                                    833 	.globl _AX5043_MAXRFOFFSET2
                                    834 	.globl _AX5043_MAXRFOFFSET1
                                    835 	.globl _AX5043_MAXRFOFFSET0
                                    836 	.globl _AX5043_MAXDROFFSET2
                                    837 	.globl _AX5043_MAXDROFFSET1
                                    838 	.globl _AX5043_MAXDROFFSET0
                                    839 	.globl _AX5043_MATCH1PAT1
                                    840 	.globl _AX5043_MATCH1PAT0
                                    841 	.globl _AX5043_MATCH1MIN
                                    842 	.globl _AX5043_MATCH1MAX
                                    843 	.globl _AX5043_MATCH1LEN
                                    844 	.globl _AX5043_MATCH0PAT3
                                    845 	.globl _AX5043_MATCH0PAT2
                                    846 	.globl _AX5043_MATCH0PAT1
                                    847 	.globl _AX5043_MATCH0PAT0
                                    848 	.globl _AX5043_MATCH0MIN
                                    849 	.globl _AX5043_MATCH0MAX
                                    850 	.globl _AX5043_MATCH0LEN
                                    851 	.globl _AX5043_LPOSCSTATUS
                                    852 	.globl _AX5043_LPOSCREF1
                                    853 	.globl _AX5043_LPOSCREF0
                                    854 	.globl _AX5043_LPOSCPER1
                                    855 	.globl _AX5043_LPOSCPER0
                                    856 	.globl _AX5043_LPOSCKFILT1
                                    857 	.globl _AX5043_LPOSCKFILT0
                                    858 	.globl _AX5043_LPOSCFREQ1
                                    859 	.globl _AX5043_LPOSCFREQ0
                                    860 	.globl _AX5043_LPOSCCONFIG
                                    861 	.globl _AX5043_IRQREQUEST1
                                    862 	.globl _AX5043_IRQREQUEST0
                                    863 	.globl _AX5043_IRQMASK1
                                    864 	.globl _AX5043_IRQMASK0
                                    865 	.globl _AX5043_IRQINVERSION1
                                    866 	.globl _AX5043_IRQINVERSION0
                                    867 	.globl _AX5043_IFFREQ1
                                    868 	.globl _AX5043_IFFREQ0
                                    869 	.globl _AX5043_GPADCPERIOD
                                    870 	.globl _AX5043_GPADCCTRL
                                    871 	.globl _AX5043_GPADC13VALUE1
                                    872 	.globl _AX5043_GPADC13VALUE0
                                    873 	.globl _AX5043_FSKDMIN1
                                    874 	.globl _AX5043_FSKDMIN0
                                    875 	.globl _AX5043_FSKDMAX1
                                    876 	.globl _AX5043_FSKDMAX0
                                    877 	.globl _AX5043_FSKDEV2
                                    878 	.globl _AX5043_FSKDEV1
                                    879 	.globl _AX5043_FSKDEV0
                                    880 	.globl _AX5043_FREQB3
                                    881 	.globl _AX5043_FREQB2
                                    882 	.globl _AX5043_FREQB1
                                    883 	.globl _AX5043_FREQB0
                                    884 	.globl _AX5043_FREQA3
                                    885 	.globl _AX5043_FREQA2
                                    886 	.globl _AX5043_FREQA1
                                    887 	.globl _AX5043_FREQA0
                                    888 	.globl _AX5043_FRAMING
                                    889 	.globl _AX5043_FIFOTHRESH1
                                    890 	.globl _AX5043_FIFOTHRESH0
                                    891 	.globl _AX5043_FIFOSTAT
                                    892 	.globl _AX5043_FIFOFREE1
                                    893 	.globl _AX5043_FIFOFREE0
                                    894 	.globl _AX5043_FIFODATA
                                    895 	.globl _AX5043_FIFOCOUNT1
                                    896 	.globl _AX5043_FIFOCOUNT0
                                    897 	.globl _AX5043_FECSYNC
                                    898 	.globl _AX5043_FECSTATUS
                                    899 	.globl _AX5043_FEC
                                    900 	.globl _AX5043_ENCODING
                                    901 	.globl _AX5043_DIVERSITY
                                    902 	.globl _AX5043_DECIMATION
                                    903 	.globl _AX5043_DACVALUE1
                                    904 	.globl _AX5043_DACVALUE0
                                    905 	.globl _AX5043_DACCONFIG
                                    906 	.globl _AX5043_CRCINIT3
                                    907 	.globl _AX5043_CRCINIT2
                                    908 	.globl _AX5043_CRCINIT1
                                    909 	.globl _AX5043_CRCINIT0
                                    910 	.globl _AX5043_BGNDRSSITHR
                                    911 	.globl _AX5043_BGNDRSSIGAIN
                                    912 	.globl _AX5043_BGNDRSSI
                                    913 	.globl _AX5043_BBTUNE
                                    914 	.globl _AX5043_BBOFFSCAP
                                    915 	.globl _AX5043_AMPLFILTER
                                    916 	.globl _AX5043_AGCCOUNTER
                                    917 	.globl _AX5043_AFSKSPACE1
                                    918 	.globl _AX5043_AFSKSPACE0
                                    919 	.globl _AX5043_AFSKMARK1
                                    920 	.globl _AX5043_AFSKMARK0
                                    921 	.globl _AX5043_AFSKCTRL
                                    922 	.globl _XWTSTAT
                                    923 	.globl _XWTIRQEN
                                    924 	.globl _XWTEVTD
                                    925 	.globl _XWTEVTD1
                                    926 	.globl _XWTEVTD0
                                    927 	.globl _XWTEVTC
                                    928 	.globl _XWTEVTC1
                                    929 	.globl _XWTEVTC0
                                    930 	.globl _XWTEVTB
                                    931 	.globl _XWTEVTB1
                                    932 	.globl _XWTEVTB0
                                    933 	.globl _XWTEVTA
                                    934 	.globl _XWTEVTA1
                                    935 	.globl _XWTEVTA0
                                    936 	.globl _XWTCNTR1
                                    937 	.globl _XWTCNTB
                                    938 	.globl _XWTCNTB1
                                    939 	.globl _XWTCNTB0
                                    940 	.globl _XWTCNTA
                                    941 	.globl _XWTCNTA1
                                    942 	.globl _XWTCNTA0
                                    943 	.globl _XWTCFGB
                                    944 	.globl _XWTCFGA
                                    945 	.globl _XWDTRESET
                                    946 	.globl _XWDTCFG
                                    947 	.globl _XU1STATUS
                                    948 	.globl _XU1SHREG
                                    949 	.globl _XU1MODE
                                    950 	.globl _XU1CTRL
                                    951 	.globl _XU0STATUS
                                    952 	.globl _XU0SHREG
                                    953 	.globl _XU0MODE
                                    954 	.globl _XU0CTRL
                                    955 	.globl _XT2STATUS
                                    956 	.globl _XT2PERIOD
                                    957 	.globl _XT2PERIOD1
                                    958 	.globl _XT2PERIOD0
                                    959 	.globl _XT2MODE
                                    960 	.globl _XT2CNT
                                    961 	.globl _XT2CNT1
                                    962 	.globl _XT2CNT0
                                    963 	.globl _XT2CLKSRC
                                    964 	.globl _XT1STATUS
                                    965 	.globl _XT1PERIOD
                                    966 	.globl _XT1PERIOD1
                                    967 	.globl _XT1PERIOD0
                                    968 	.globl _XT1MODE
                                    969 	.globl _XT1CNT
                                    970 	.globl _XT1CNT1
                                    971 	.globl _XT1CNT0
                                    972 	.globl _XT1CLKSRC
                                    973 	.globl _XT0STATUS
                                    974 	.globl _XT0PERIOD
                                    975 	.globl _XT0PERIOD1
                                    976 	.globl _XT0PERIOD0
                                    977 	.globl _XT0MODE
                                    978 	.globl _XT0CNT
                                    979 	.globl _XT0CNT1
                                    980 	.globl _XT0CNT0
                                    981 	.globl _XT0CLKSRC
                                    982 	.globl _XSPSTATUS
                                    983 	.globl _XSPSHREG
                                    984 	.globl _XSPMODE
                                    985 	.globl _XSPCLKSRC
                                    986 	.globl _XRADIOSTAT
                                    987 	.globl _XRADIOSTAT1
                                    988 	.globl _XRADIOSTAT0
                                    989 	.globl _XRADIODATA3
                                    990 	.globl _XRADIODATA2
                                    991 	.globl _XRADIODATA1
                                    992 	.globl _XRADIODATA0
                                    993 	.globl _XRADIOADDR1
                                    994 	.globl _XRADIOADDR0
                                    995 	.globl _XRADIOACC
                                    996 	.globl _XOC1STATUS
                                    997 	.globl _XOC1PIN
                                    998 	.globl _XOC1MODE
                                    999 	.globl _XOC1COMP
                                   1000 	.globl _XOC1COMP1
                                   1001 	.globl _XOC1COMP0
                                   1002 	.globl _XOC0STATUS
                                   1003 	.globl _XOC0PIN
                                   1004 	.globl _XOC0MODE
                                   1005 	.globl _XOC0COMP
                                   1006 	.globl _XOC0COMP1
                                   1007 	.globl _XOC0COMP0
                                   1008 	.globl _XNVSTATUS
                                   1009 	.globl _XNVKEY
                                   1010 	.globl _XNVDATA
                                   1011 	.globl _XNVDATA1
                                   1012 	.globl _XNVDATA0
                                   1013 	.globl _XNVADDR
                                   1014 	.globl _XNVADDR1
                                   1015 	.globl _XNVADDR0
                                   1016 	.globl _XIC1STATUS
                                   1017 	.globl _XIC1MODE
                                   1018 	.globl _XIC1CAPT
                                   1019 	.globl _XIC1CAPT1
                                   1020 	.globl _XIC1CAPT0
                                   1021 	.globl _XIC0STATUS
                                   1022 	.globl _XIC0MODE
                                   1023 	.globl _XIC0CAPT
                                   1024 	.globl _XIC0CAPT1
                                   1025 	.globl _XIC0CAPT0
                                   1026 	.globl _XPORTR
                                   1027 	.globl _XPORTC
                                   1028 	.globl _XPORTB
                                   1029 	.globl _XPORTA
                                   1030 	.globl _XPINR
                                   1031 	.globl _XPINC
                                   1032 	.globl _XPINB
                                   1033 	.globl _XPINA
                                   1034 	.globl _XDIRR
                                   1035 	.globl _XDIRC
                                   1036 	.globl _XDIRB
                                   1037 	.globl _XDIRA
                                   1038 	.globl _XDBGLNKSTAT
                                   1039 	.globl _XDBGLNKBUF
                                   1040 	.globl _XCODECONFIG
                                   1041 	.globl _XCLKSTAT
                                   1042 	.globl _XCLKCON
                                   1043 	.globl _XANALOGCOMP
                                   1044 	.globl _XADCCONV
                                   1045 	.globl _XADCCLKSRC
                                   1046 	.globl _XADCCH3CONFIG
                                   1047 	.globl _XADCCH2CONFIG
                                   1048 	.globl _XADCCH1CONFIG
                                   1049 	.globl _XADCCH0CONFIG
                                   1050 	.globl _XPCON
                                   1051 	.globl _XIP
                                   1052 	.globl _XIE
                                   1053 	.globl _XDPTR1
                                   1054 	.globl _XDPTR0
                                   1055 	.globl _XTALREADY
                                   1056 	.globl _XTALOSC
                                   1057 	.globl _XTALAMPL
                                   1058 	.globl _SILICONREV
                                   1059 	.globl _SCRATCH3
                                   1060 	.globl _SCRATCH2
                                   1061 	.globl _SCRATCH1
                                   1062 	.globl _SCRATCH0
                                   1063 	.globl _RADIOMUX
                                   1064 	.globl _RADIOFSTATADDR
                                   1065 	.globl _RADIOFSTATADDR1
                                   1066 	.globl _RADIOFSTATADDR0
                                   1067 	.globl _RADIOFDATAADDR
                                   1068 	.globl _RADIOFDATAADDR1
                                   1069 	.globl _RADIOFDATAADDR0
                                   1070 	.globl _OSCRUN
                                   1071 	.globl _OSCREADY
                                   1072 	.globl _OSCFORCERUN
                                   1073 	.globl _OSCCALIB
                                   1074 	.globl _MISCCTRL
                                   1075 	.globl _LPXOSCGM
                                   1076 	.globl _LPOSCREF
                                   1077 	.globl _LPOSCREF1
                                   1078 	.globl _LPOSCREF0
                                   1079 	.globl _LPOSCPER
                                   1080 	.globl _LPOSCPER1
                                   1081 	.globl _LPOSCPER0
                                   1082 	.globl _LPOSCKFILT
                                   1083 	.globl _LPOSCKFILT1
                                   1084 	.globl _LPOSCKFILT0
                                   1085 	.globl _LPOSCFREQ
                                   1086 	.globl _LPOSCFREQ1
                                   1087 	.globl _LPOSCFREQ0
                                   1088 	.globl _LPOSCCONFIG
                                   1089 	.globl _PINSEL
                                   1090 	.globl _PINCHGC
                                   1091 	.globl _PINCHGB
                                   1092 	.globl _PINCHGA
                                   1093 	.globl _PALTRADIO
                                   1094 	.globl _PALTC
                                   1095 	.globl _PALTB
                                   1096 	.globl _PALTA
                                   1097 	.globl _INTCHGC
                                   1098 	.globl _INTCHGB
                                   1099 	.globl _INTCHGA
                                   1100 	.globl _EXTIRQ
                                   1101 	.globl _GPIOENABLE
                                   1102 	.globl _ANALOGA
                                   1103 	.globl _FRCOSCREF
                                   1104 	.globl _FRCOSCREF1
                                   1105 	.globl _FRCOSCREF0
                                   1106 	.globl _FRCOSCPER
                                   1107 	.globl _FRCOSCPER1
                                   1108 	.globl _FRCOSCPER0
                                   1109 	.globl _FRCOSCKFILT
                                   1110 	.globl _FRCOSCKFILT1
                                   1111 	.globl _FRCOSCKFILT0
                                   1112 	.globl _FRCOSCFREQ
                                   1113 	.globl _FRCOSCFREQ1
                                   1114 	.globl _FRCOSCFREQ0
                                   1115 	.globl _FRCOSCCTRL
                                   1116 	.globl _FRCOSCCONFIG
                                   1117 	.globl _DMA1CONFIG
                                   1118 	.globl _DMA1ADDR
                                   1119 	.globl _DMA1ADDR1
                                   1120 	.globl _DMA1ADDR0
                                   1121 	.globl _DMA0CONFIG
                                   1122 	.globl _DMA0ADDR
                                   1123 	.globl _DMA0ADDR1
                                   1124 	.globl _DMA0ADDR0
                                   1125 	.globl _ADCTUNE2
                                   1126 	.globl _ADCTUNE1
                                   1127 	.globl _ADCTUNE0
                                   1128 	.globl _ADCCH3VAL
                                   1129 	.globl _ADCCH3VAL1
                                   1130 	.globl _ADCCH3VAL0
                                   1131 	.globl _ADCCH2VAL
                                   1132 	.globl _ADCCH2VAL1
                                   1133 	.globl _ADCCH2VAL0
                                   1134 	.globl _ADCCH1VAL
                                   1135 	.globl _ADCCH1VAL1
                                   1136 	.globl _ADCCH1VAL0
                                   1137 	.globl _ADCCH0VAL
                                   1138 	.globl _ADCCH0VAL1
                                   1139 	.globl _ADCCH0VAL0
                                   1140 	.globl _axradio_trxstate
                                   1141 	.globl _axradio_mode
                                   1142 	.globl _axradio_conv_time_totimer0
                                   1143 	.globl _axradio_isr
                                   1144 	.globl _ax5043_receiver_on_continuous
                                   1145 	.globl _ax5043_receiver_on_wor
                                   1146 	.globl _ax5043_prepare_tx
                                   1147 	.globl _ax5043_off
                                   1148 	.globl _ax5043_off_xtal
                                   1149 	.globl _axradio_wait_for_xtal
                                   1150 	.globl _axradio_init
                                   1151 	.globl _axradio_cansleep
                                   1152 	.globl _axradio_set_mode
                                   1153 	.globl _axradio_get_mode
                                   1154 	.globl _axradio_set_channel
                                   1155 	.globl _axradio_get_channel
                                   1156 	.globl _axradio_get_pllrange
                                   1157 	.globl _axradio_get_pllvcoi
                                   1158 	.globl _axradio_set_freqoffset
                                   1159 	.globl _axradio_get_freqoffset
                                   1160 	.globl _axradio_set_local_address
                                   1161 	.globl _axradio_get_local_address
                                   1162 	.globl _axradio_set_default_remote_address
                                   1163 	.globl _axradio_get_default_remote_address
                                   1164 	.globl _axradio_transmit
                                   1165 	.globl _axradio_agc_freeze
                                   1166 	.globl _axradio_agc_thaw
                                   1167 ;--------------------------------------------------------
                                   1168 ; special function registers
                                   1169 ;--------------------------------------------------------
                                   1170 	.area RSEG    (ABS,DATA)
      000000                       1171 	.org 0x0000
                           0000E0  1172 _ACC	=	0x00e0
                           0000F0  1173 _B	=	0x00f0
                           000083  1174 _DPH	=	0x0083
                           000085  1175 _DPH1	=	0x0085
                           000082  1176 _DPL	=	0x0082
                           000084  1177 _DPL1	=	0x0084
                           008382  1178 _DPTR0	=	0x8382
                           008584  1179 _DPTR1	=	0x8584
                           000086  1180 _DPS	=	0x0086
                           0000A0  1181 _E2IE	=	0x00a0
                           0000C0  1182 _E2IP	=	0x00c0
                           000098  1183 _EIE	=	0x0098
                           0000B0  1184 _EIP	=	0x00b0
                           0000A8  1185 _IE	=	0x00a8
                           0000B8  1186 _IP	=	0x00b8
                           000087  1187 _PCON	=	0x0087
                           0000D0  1188 _PSW	=	0x00d0
                           000081  1189 _SP	=	0x0081
                           0000D9  1190 _XPAGE	=	0x00d9
                           0000D9  1191 __XPAGE	=	0x00d9
                           0000CA  1192 _ADCCH0CONFIG	=	0x00ca
                           0000CB  1193 _ADCCH1CONFIG	=	0x00cb
                           0000D2  1194 _ADCCH2CONFIG	=	0x00d2
                           0000D3  1195 _ADCCH3CONFIG	=	0x00d3
                           0000D1  1196 _ADCCLKSRC	=	0x00d1
                           0000C9  1197 _ADCCONV	=	0x00c9
                           0000E1  1198 _ANALOGCOMP	=	0x00e1
                           0000C6  1199 _CLKCON	=	0x00c6
                           0000C7  1200 _CLKSTAT	=	0x00c7
                           000097  1201 _CODECONFIG	=	0x0097
                           0000E3  1202 _DBGLNKBUF	=	0x00e3
                           0000E2  1203 _DBGLNKSTAT	=	0x00e2
                           000089  1204 _DIRA	=	0x0089
                           00008A  1205 _DIRB	=	0x008a
                           00008B  1206 _DIRC	=	0x008b
                           00008E  1207 _DIRR	=	0x008e
                           0000C8  1208 _PINA	=	0x00c8
                           0000E8  1209 _PINB	=	0x00e8
                           0000F8  1210 _PINC	=	0x00f8
                           00008D  1211 _PINR	=	0x008d
                           000080  1212 _PORTA	=	0x0080
                           000088  1213 _PORTB	=	0x0088
                           000090  1214 _PORTC	=	0x0090
                           00008C  1215 _PORTR	=	0x008c
                           0000CE  1216 _IC0CAPT0	=	0x00ce
                           0000CF  1217 _IC0CAPT1	=	0x00cf
                           00CFCE  1218 _IC0CAPT	=	0xcfce
                           0000CC  1219 _IC0MODE	=	0x00cc
                           0000CD  1220 _IC0STATUS	=	0x00cd
                           0000D6  1221 _IC1CAPT0	=	0x00d6
                           0000D7  1222 _IC1CAPT1	=	0x00d7
                           00D7D6  1223 _IC1CAPT	=	0xd7d6
                           0000D4  1224 _IC1MODE	=	0x00d4
                           0000D5  1225 _IC1STATUS	=	0x00d5
                           000092  1226 _NVADDR0	=	0x0092
                           000093  1227 _NVADDR1	=	0x0093
                           009392  1228 _NVADDR	=	0x9392
                           000094  1229 _NVDATA0	=	0x0094
                           000095  1230 _NVDATA1	=	0x0095
                           009594  1231 _NVDATA	=	0x9594
                           000096  1232 _NVKEY	=	0x0096
                           000091  1233 _NVSTATUS	=	0x0091
                           0000BC  1234 _OC0COMP0	=	0x00bc
                           0000BD  1235 _OC0COMP1	=	0x00bd
                           00BDBC  1236 _OC0COMP	=	0xbdbc
                           0000B9  1237 _OC0MODE	=	0x00b9
                           0000BA  1238 _OC0PIN	=	0x00ba
                           0000BB  1239 _OC0STATUS	=	0x00bb
                           0000C4  1240 _OC1COMP0	=	0x00c4
                           0000C5  1241 _OC1COMP1	=	0x00c5
                           00C5C4  1242 _OC1COMP	=	0xc5c4
                           0000C1  1243 _OC1MODE	=	0x00c1
                           0000C2  1244 _OC1PIN	=	0x00c2
                           0000C3  1245 _OC1STATUS	=	0x00c3
                           0000B1  1246 _RADIOACC	=	0x00b1
                           0000B3  1247 _RADIOADDR0	=	0x00b3
                           0000B2  1248 _RADIOADDR1	=	0x00b2
                           00B2B3  1249 _RADIOADDR	=	0xb2b3
                           0000B7  1250 _RADIODATA0	=	0x00b7
                           0000B6  1251 _RADIODATA1	=	0x00b6
                           0000B5  1252 _RADIODATA2	=	0x00b5
                           0000B4  1253 _RADIODATA3	=	0x00b4
                           B4B5B6B7  1254 _RADIODATA	=	0xb4b5b6b7
                           0000BE  1255 _RADIOSTAT0	=	0x00be
                           0000BF  1256 _RADIOSTAT1	=	0x00bf
                           00BFBE  1257 _RADIOSTAT	=	0xbfbe
                           0000DF  1258 _SPCLKSRC	=	0x00df
                           0000DC  1259 _SPMODE	=	0x00dc
                           0000DE  1260 _SPSHREG	=	0x00de
                           0000DD  1261 _SPSTATUS	=	0x00dd
                           00009A  1262 _T0CLKSRC	=	0x009a
                           00009C  1263 _T0CNT0	=	0x009c
                           00009D  1264 _T0CNT1	=	0x009d
                           009D9C  1265 _T0CNT	=	0x9d9c
                           000099  1266 _T0MODE	=	0x0099
                           00009E  1267 _T0PERIOD0	=	0x009e
                           00009F  1268 _T0PERIOD1	=	0x009f
                           009F9E  1269 _T0PERIOD	=	0x9f9e
                           00009B  1270 _T0STATUS	=	0x009b
                           0000A2  1271 _T1CLKSRC	=	0x00a2
                           0000A4  1272 _T1CNT0	=	0x00a4
                           0000A5  1273 _T1CNT1	=	0x00a5
                           00A5A4  1274 _T1CNT	=	0xa5a4
                           0000A1  1275 _T1MODE	=	0x00a1
                           0000A6  1276 _T1PERIOD0	=	0x00a6
                           0000A7  1277 _T1PERIOD1	=	0x00a7
                           00A7A6  1278 _T1PERIOD	=	0xa7a6
                           0000A3  1279 _T1STATUS	=	0x00a3
                           0000AA  1280 _T2CLKSRC	=	0x00aa
                           0000AC  1281 _T2CNT0	=	0x00ac
                           0000AD  1282 _T2CNT1	=	0x00ad
                           00ADAC  1283 _T2CNT	=	0xadac
                           0000A9  1284 _T2MODE	=	0x00a9
                           0000AE  1285 _T2PERIOD0	=	0x00ae
                           0000AF  1286 _T2PERIOD1	=	0x00af
                           00AFAE  1287 _T2PERIOD	=	0xafae
                           0000AB  1288 _T2STATUS	=	0x00ab
                           0000E4  1289 _U0CTRL	=	0x00e4
                           0000E7  1290 _U0MODE	=	0x00e7
                           0000E6  1291 _U0SHREG	=	0x00e6
                           0000E5  1292 _U0STATUS	=	0x00e5
                           0000EC  1293 _U1CTRL	=	0x00ec
                           0000EF  1294 _U1MODE	=	0x00ef
                           0000EE  1295 _U1SHREG	=	0x00ee
                           0000ED  1296 _U1STATUS	=	0x00ed
                           0000DA  1297 _WDTCFG	=	0x00da
                           0000DB  1298 _WDTRESET	=	0x00db
                           0000F1  1299 _WTCFGA	=	0x00f1
                           0000F9  1300 _WTCFGB	=	0x00f9
                           0000F2  1301 _WTCNTA0	=	0x00f2
                           0000F3  1302 _WTCNTA1	=	0x00f3
                           00F3F2  1303 _WTCNTA	=	0xf3f2
                           0000FA  1304 _WTCNTB0	=	0x00fa
                           0000FB  1305 _WTCNTB1	=	0x00fb
                           00FBFA  1306 _WTCNTB	=	0xfbfa
                           0000EB  1307 _WTCNTR1	=	0x00eb
                           0000F4  1308 _WTEVTA0	=	0x00f4
                           0000F5  1309 _WTEVTA1	=	0x00f5
                           00F5F4  1310 _WTEVTA	=	0xf5f4
                           0000F6  1311 _WTEVTB0	=	0x00f6
                           0000F7  1312 _WTEVTB1	=	0x00f7
                           00F7F6  1313 _WTEVTB	=	0xf7f6
                           0000FC  1314 _WTEVTC0	=	0x00fc
                           0000FD  1315 _WTEVTC1	=	0x00fd
                           00FDFC  1316 _WTEVTC	=	0xfdfc
                           0000FE  1317 _WTEVTD0	=	0x00fe
                           0000FF  1318 _WTEVTD1	=	0x00ff
                           00FFFE  1319 _WTEVTD	=	0xfffe
                           0000E9  1320 _WTIRQEN	=	0x00e9
                           0000EA  1321 _WTSTAT	=	0x00ea
                                   1322 ;--------------------------------------------------------
                                   1323 ; special function bits
                                   1324 ;--------------------------------------------------------
                                   1325 	.area RSEG    (ABS,DATA)
      000000                       1326 	.org 0x0000
                           0000E0  1327 _ACC_0	=	0x00e0
                           0000E1  1328 _ACC_1	=	0x00e1
                           0000E2  1329 _ACC_2	=	0x00e2
                           0000E3  1330 _ACC_3	=	0x00e3
                           0000E4  1331 _ACC_4	=	0x00e4
                           0000E5  1332 _ACC_5	=	0x00e5
                           0000E6  1333 _ACC_6	=	0x00e6
                           0000E7  1334 _ACC_7	=	0x00e7
                           0000F0  1335 _B_0	=	0x00f0
                           0000F1  1336 _B_1	=	0x00f1
                           0000F2  1337 _B_2	=	0x00f2
                           0000F3  1338 _B_3	=	0x00f3
                           0000F4  1339 _B_4	=	0x00f4
                           0000F5  1340 _B_5	=	0x00f5
                           0000F6  1341 _B_6	=	0x00f6
                           0000F7  1342 _B_7	=	0x00f7
                           0000A0  1343 _E2IE_0	=	0x00a0
                           0000A1  1344 _E2IE_1	=	0x00a1
                           0000A2  1345 _E2IE_2	=	0x00a2
                           0000A3  1346 _E2IE_3	=	0x00a3
                           0000A4  1347 _E2IE_4	=	0x00a4
                           0000A5  1348 _E2IE_5	=	0x00a5
                           0000A6  1349 _E2IE_6	=	0x00a6
                           0000A7  1350 _E2IE_7	=	0x00a7
                           0000C0  1351 _E2IP_0	=	0x00c0
                           0000C1  1352 _E2IP_1	=	0x00c1
                           0000C2  1353 _E2IP_2	=	0x00c2
                           0000C3  1354 _E2IP_3	=	0x00c3
                           0000C4  1355 _E2IP_4	=	0x00c4
                           0000C5  1356 _E2IP_5	=	0x00c5
                           0000C6  1357 _E2IP_6	=	0x00c6
                           0000C7  1358 _E2IP_7	=	0x00c7
                           000098  1359 _EIE_0	=	0x0098
                           000099  1360 _EIE_1	=	0x0099
                           00009A  1361 _EIE_2	=	0x009a
                           00009B  1362 _EIE_3	=	0x009b
                           00009C  1363 _EIE_4	=	0x009c
                           00009D  1364 _EIE_5	=	0x009d
                           00009E  1365 _EIE_6	=	0x009e
                           00009F  1366 _EIE_7	=	0x009f
                           0000B0  1367 _EIP_0	=	0x00b0
                           0000B1  1368 _EIP_1	=	0x00b1
                           0000B2  1369 _EIP_2	=	0x00b2
                           0000B3  1370 _EIP_3	=	0x00b3
                           0000B4  1371 _EIP_4	=	0x00b4
                           0000B5  1372 _EIP_5	=	0x00b5
                           0000B6  1373 _EIP_6	=	0x00b6
                           0000B7  1374 _EIP_7	=	0x00b7
                           0000A8  1375 _IE_0	=	0x00a8
                           0000A9  1376 _IE_1	=	0x00a9
                           0000AA  1377 _IE_2	=	0x00aa
                           0000AB  1378 _IE_3	=	0x00ab
                           0000AC  1379 _IE_4	=	0x00ac
                           0000AD  1380 _IE_5	=	0x00ad
                           0000AE  1381 _IE_6	=	0x00ae
                           0000AF  1382 _IE_7	=	0x00af
                           0000AF  1383 _EA	=	0x00af
                           0000B8  1384 _IP_0	=	0x00b8
                           0000B9  1385 _IP_1	=	0x00b9
                           0000BA  1386 _IP_2	=	0x00ba
                           0000BB  1387 _IP_3	=	0x00bb
                           0000BC  1388 _IP_4	=	0x00bc
                           0000BD  1389 _IP_5	=	0x00bd
                           0000BE  1390 _IP_6	=	0x00be
                           0000BF  1391 _IP_7	=	0x00bf
                           0000D0  1392 _P	=	0x00d0
                           0000D1  1393 _F1	=	0x00d1
                           0000D2  1394 _OV	=	0x00d2
                           0000D3  1395 _RS0	=	0x00d3
                           0000D4  1396 _RS1	=	0x00d4
                           0000D5  1397 _F0	=	0x00d5
                           0000D6  1398 _AC	=	0x00d6
                           0000D7  1399 _CY	=	0x00d7
                           0000C8  1400 _PINA_0	=	0x00c8
                           0000C9  1401 _PINA_1	=	0x00c9
                           0000CA  1402 _PINA_2	=	0x00ca
                           0000CB  1403 _PINA_3	=	0x00cb
                           0000CC  1404 _PINA_4	=	0x00cc
                           0000CD  1405 _PINA_5	=	0x00cd
                           0000CE  1406 _PINA_6	=	0x00ce
                           0000CF  1407 _PINA_7	=	0x00cf
                           0000E8  1408 _PINB_0	=	0x00e8
                           0000E9  1409 _PINB_1	=	0x00e9
                           0000EA  1410 _PINB_2	=	0x00ea
                           0000EB  1411 _PINB_3	=	0x00eb
                           0000EC  1412 _PINB_4	=	0x00ec
                           0000ED  1413 _PINB_5	=	0x00ed
                           0000EE  1414 _PINB_6	=	0x00ee
                           0000EF  1415 _PINB_7	=	0x00ef
                           0000F8  1416 _PINC_0	=	0x00f8
                           0000F9  1417 _PINC_1	=	0x00f9
                           0000FA  1418 _PINC_2	=	0x00fa
                           0000FB  1419 _PINC_3	=	0x00fb
                           0000FC  1420 _PINC_4	=	0x00fc
                           0000FD  1421 _PINC_5	=	0x00fd
                           0000FE  1422 _PINC_6	=	0x00fe
                           0000FF  1423 _PINC_7	=	0x00ff
                           000080  1424 _PORTA_0	=	0x0080
                           000081  1425 _PORTA_1	=	0x0081
                           000082  1426 _PORTA_2	=	0x0082
                           000083  1427 _PORTA_3	=	0x0083
                           000084  1428 _PORTA_4	=	0x0084
                           000085  1429 _PORTA_5	=	0x0085
                           000086  1430 _PORTA_6	=	0x0086
                           000087  1431 _PORTA_7	=	0x0087
                           000088  1432 _PORTB_0	=	0x0088
                           000089  1433 _PORTB_1	=	0x0089
                           00008A  1434 _PORTB_2	=	0x008a
                           00008B  1435 _PORTB_3	=	0x008b
                           00008C  1436 _PORTB_4	=	0x008c
                           00008D  1437 _PORTB_5	=	0x008d
                           00008E  1438 _PORTB_6	=	0x008e
                           00008F  1439 _PORTB_7	=	0x008f
                           000090  1440 _PORTC_0	=	0x0090
                           000091  1441 _PORTC_1	=	0x0091
                           000092  1442 _PORTC_2	=	0x0092
                           000093  1443 _PORTC_3	=	0x0093
                           000094  1444 _PORTC_4	=	0x0094
                           000095  1445 _PORTC_5	=	0x0095
                           000096  1446 _PORTC_6	=	0x0096
                           000097  1447 _PORTC_7	=	0x0097
                                   1448 ;--------------------------------------------------------
                                   1449 ; overlayable register banks
                                   1450 ;--------------------------------------------------------
                                   1451 	.area REG_BANK_0	(REL,OVR,DATA)
      000000                       1452 	.ds 8
                                   1453 ;--------------------------------------------------------
                                   1454 ; overlayable bit register bank
                                   1455 ;--------------------------------------------------------
                                   1456 	.area BIT_BANK	(REL,OVR,DATA)
      000021                       1457 bits:
      000021                       1458 	.ds 1
                           008000  1459 	b0 = bits[0]
                           008100  1460 	b1 = bits[1]
                           008200  1461 	b2 = bits[2]
                           008300  1462 	b3 = bits[3]
                           008400  1463 	b4 = bits[4]
                           008500  1464 	b5 = bits[5]
                           008600  1465 	b6 = bits[6]
                           008700  1466 	b7 = bits[7]
                                   1467 ;--------------------------------------------------------
                                   1468 ; internal ram data
                                   1469 ;--------------------------------------------------------
                                   1470 	.area DSEG    (DATA)
      00000B                       1471 _axradio_mode::
      00000B                       1472 	.ds 1
      00000C                       1473 _axradio_trxstate::
      00000C                       1474 	.ds 1
                                   1475 ;--------------------------------------------------------
                                   1476 ; overlayable items in internal ram 
                                   1477 ;--------------------------------------------------------
                                   1478 	.area	OSEG    (OVR,DATA)
                                   1479 	.area	OSEG    (OVR,DATA)
      000043                       1480 _axradio_set_channel_rng_1_426:
      000043                       1481 	.ds 1
                                   1482 ;--------------------------------------------------------
                                   1483 ; indirectly addressable internal ram data
                                   1484 ;--------------------------------------------------------
                                   1485 	.area ISEG    (DATA)
                                   1486 ;--------------------------------------------------------
                                   1487 ; absolute internal ram data
                                   1488 ;--------------------------------------------------------
                                   1489 	.area IABS    (ABS,DATA)
                                   1490 	.area IABS    (ABS,DATA)
                                   1491 ;--------------------------------------------------------
                                   1492 ; bit data
                                   1493 ;--------------------------------------------------------
                                   1494 	.area BSEG    (BIT)
      000001                       1495 _axradio_timer_callback_sloc0_1_0:
      000001                       1496 	.ds 1
      000002                       1497 _axradio_init_sloc0_1_0:
      000002                       1498 	.ds 1
                                   1499 ;--------------------------------------------------------
                                   1500 ; paged external ram data
                                   1501 ;--------------------------------------------------------
                                   1502 	.area PSEG    (PAG,XDATA)
                                   1503 ;--------------------------------------------------------
                                   1504 ; external ram data
                                   1505 ;--------------------------------------------------------
                                   1506 	.area XSEG    (XDATA)
                           007020  1507 _ADCCH0VAL0	=	0x7020
                           007021  1508 _ADCCH0VAL1	=	0x7021
                           007020  1509 _ADCCH0VAL	=	0x7020
                           007022  1510 _ADCCH1VAL0	=	0x7022
                           007023  1511 _ADCCH1VAL1	=	0x7023
                           007022  1512 _ADCCH1VAL	=	0x7022
                           007024  1513 _ADCCH2VAL0	=	0x7024
                           007025  1514 _ADCCH2VAL1	=	0x7025
                           007024  1515 _ADCCH2VAL	=	0x7024
                           007026  1516 _ADCCH3VAL0	=	0x7026
                           007027  1517 _ADCCH3VAL1	=	0x7027
                           007026  1518 _ADCCH3VAL	=	0x7026
                           007028  1519 _ADCTUNE0	=	0x7028
                           007029  1520 _ADCTUNE1	=	0x7029
                           00702A  1521 _ADCTUNE2	=	0x702a
                           007010  1522 _DMA0ADDR0	=	0x7010
                           007011  1523 _DMA0ADDR1	=	0x7011
                           007010  1524 _DMA0ADDR	=	0x7010
                           007014  1525 _DMA0CONFIG	=	0x7014
                           007012  1526 _DMA1ADDR0	=	0x7012
                           007013  1527 _DMA1ADDR1	=	0x7013
                           007012  1528 _DMA1ADDR	=	0x7012
                           007015  1529 _DMA1CONFIG	=	0x7015
                           007070  1530 _FRCOSCCONFIG	=	0x7070
                           007071  1531 _FRCOSCCTRL	=	0x7071
                           007076  1532 _FRCOSCFREQ0	=	0x7076
                           007077  1533 _FRCOSCFREQ1	=	0x7077
                           007076  1534 _FRCOSCFREQ	=	0x7076
                           007072  1535 _FRCOSCKFILT0	=	0x7072
                           007073  1536 _FRCOSCKFILT1	=	0x7073
                           007072  1537 _FRCOSCKFILT	=	0x7072
                           007078  1538 _FRCOSCPER0	=	0x7078
                           007079  1539 _FRCOSCPER1	=	0x7079
                           007078  1540 _FRCOSCPER	=	0x7078
                           007074  1541 _FRCOSCREF0	=	0x7074
                           007075  1542 _FRCOSCREF1	=	0x7075
                           007074  1543 _FRCOSCREF	=	0x7074
                           007007  1544 _ANALOGA	=	0x7007
                           00700C  1545 _GPIOENABLE	=	0x700c
                           007003  1546 _EXTIRQ	=	0x7003
                           007000  1547 _INTCHGA	=	0x7000
                           007001  1548 _INTCHGB	=	0x7001
                           007002  1549 _INTCHGC	=	0x7002
                           007008  1550 _PALTA	=	0x7008
                           007009  1551 _PALTB	=	0x7009
                           00700A  1552 _PALTC	=	0x700a
                           007046  1553 _PALTRADIO	=	0x7046
                           007004  1554 _PINCHGA	=	0x7004
                           007005  1555 _PINCHGB	=	0x7005
                           007006  1556 _PINCHGC	=	0x7006
                           00700B  1557 _PINSEL	=	0x700b
                           007060  1558 _LPOSCCONFIG	=	0x7060
                           007066  1559 _LPOSCFREQ0	=	0x7066
                           007067  1560 _LPOSCFREQ1	=	0x7067
                           007066  1561 _LPOSCFREQ	=	0x7066
                           007062  1562 _LPOSCKFILT0	=	0x7062
                           007063  1563 _LPOSCKFILT1	=	0x7063
                           007062  1564 _LPOSCKFILT	=	0x7062
                           007068  1565 _LPOSCPER0	=	0x7068
                           007069  1566 _LPOSCPER1	=	0x7069
                           007068  1567 _LPOSCPER	=	0x7068
                           007064  1568 _LPOSCREF0	=	0x7064
                           007065  1569 _LPOSCREF1	=	0x7065
                           007064  1570 _LPOSCREF	=	0x7064
                           007054  1571 _LPXOSCGM	=	0x7054
                           007F01  1572 _MISCCTRL	=	0x7f01
                           007053  1573 _OSCCALIB	=	0x7053
                           007050  1574 _OSCFORCERUN	=	0x7050
                           007052  1575 _OSCREADY	=	0x7052
                           007051  1576 _OSCRUN	=	0x7051
                           007040  1577 _RADIOFDATAADDR0	=	0x7040
                           007041  1578 _RADIOFDATAADDR1	=	0x7041
                           007040  1579 _RADIOFDATAADDR	=	0x7040
                           007042  1580 _RADIOFSTATADDR0	=	0x7042
                           007043  1581 _RADIOFSTATADDR1	=	0x7043
                           007042  1582 _RADIOFSTATADDR	=	0x7042
                           007044  1583 _RADIOMUX	=	0x7044
                           007084  1584 _SCRATCH0	=	0x7084
                           007085  1585 _SCRATCH1	=	0x7085
                           007086  1586 _SCRATCH2	=	0x7086
                           007087  1587 _SCRATCH3	=	0x7087
                           007F00  1588 _SILICONREV	=	0x7f00
                           007F19  1589 _XTALAMPL	=	0x7f19
                           007F18  1590 _XTALOSC	=	0x7f18
                           007F1A  1591 _XTALREADY	=	0x7f1a
                           003F82  1592 _XDPTR0	=	0x3f82
                           003F84  1593 _XDPTR1	=	0x3f84
                           003FA8  1594 _XIE	=	0x3fa8
                           003FB8  1595 _XIP	=	0x3fb8
                           003F87  1596 _XPCON	=	0x3f87
                           003FCA  1597 _XADCCH0CONFIG	=	0x3fca
                           003FCB  1598 _XADCCH1CONFIG	=	0x3fcb
                           003FD2  1599 _XADCCH2CONFIG	=	0x3fd2
                           003FD3  1600 _XADCCH3CONFIG	=	0x3fd3
                           003FD1  1601 _XADCCLKSRC	=	0x3fd1
                           003FC9  1602 _XADCCONV	=	0x3fc9
                           003FE1  1603 _XANALOGCOMP	=	0x3fe1
                           003FC6  1604 _XCLKCON	=	0x3fc6
                           003FC7  1605 _XCLKSTAT	=	0x3fc7
                           003F97  1606 _XCODECONFIG	=	0x3f97
                           003FE3  1607 _XDBGLNKBUF	=	0x3fe3
                           003FE2  1608 _XDBGLNKSTAT	=	0x3fe2
                           003F89  1609 _XDIRA	=	0x3f89
                           003F8A  1610 _XDIRB	=	0x3f8a
                           003F8B  1611 _XDIRC	=	0x3f8b
                           003F8E  1612 _XDIRR	=	0x3f8e
                           003FC8  1613 _XPINA	=	0x3fc8
                           003FE8  1614 _XPINB	=	0x3fe8
                           003FF8  1615 _XPINC	=	0x3ff8
                           003F8D  1616 _XPINR	=	0x3f8d
                           003F80  1617 _XPORTA	=	0x3f80
                           003F88  1618 _XPORTB	=	0x3f88
                           003F90  1619 _XPORTC	=	0x3f90
                           003F8C  1620 _XPORTR	=	0x3f8c
                           003FCE  1621 _XIC0CAPT0	=	0x3fce
                           003FCF  1622 _XIC0CAPT1	=	0x3fcf
                           003FCE  1623 _XIC0CAPT	=	0x3fce
                           003FCC  1624 _XIC0MODE	=	0x3fcc
                           003FCD  1625 _XIC0STATUS	=	0x3fcd
                           003FD6  1626 _XIC1CAPT0	=	0x3fd6
                           003FD7  1627 _XIC1CAPT1	=	0x3fd7
                           003FD6  1628 _XIC1CAPT	=	0x3fd6
                           003FD4  1629 _XIC1MODE	=	0x3fd4
                           003FD5  1630 _XIC1STATUS	=	0x3fd5
                           003F92  1631 _XNVADDR0	=	0x3f92
                           003F93  1632 _XNVADDR1	=	0x3f93
                           003F92  1633 _XNVADDR	=	0x3f92
                           003F94  1634 _XNVDATA0	=	0x3f94
                           003F95  1635 _XNVDATA1	=	0x3f95
                           003F94  1636 _XNVDATA	=	0x3f94
                           003F96  1637 _XNVKEY	=	0x3f96
                           003F91  1638 _XNVSTATUS	=	0x3f91
                           003FBC  1639 _XOC0COMP0	=	0x3fbc
                           003FBD  1640 _XOC0COMP1	=	0x3fbd
                           003FBC  1641 _XOC0COMP	=	0x3fbc
                           003FB9  1642 _XOC0MODE	=	0x3fb9
                           003FBA  1643 _XOC0PIN	=	0x3fba
                           003FBB  1644 _XOC0STATUS	=	0x3fbb
                           003FC4  1645 _XOC1COMP0	=	0x3fc4
                           003FC5  1646 _XOC1COMP1	=	0x3fc5
                           003FC4  1647 _XOC1COMP	=	0x3fc4
                           003FC1  1648 _XOC1MODE	=	0x3fc1
                           003FC2  1649 _XOC1PIN	=	0x3fc2
                           003FC3  1650 _XOC1STATUS	=	0x3fc3
                           003FB1  1651 _XRADIOACC	=	0x3fb1
                           003FB3  1652 _XRADIOADDR0	=	0x3fb3
                           003FB2  1653 _XRADIOADDR1	=	0x3fb2
                           003FB7  1654 _XRADIODATA0	=	0x3fb7
                           003FB6  1655 _XRADIODATA1	=	0x3fb6
                           003FB5  1656 _XRADIODATA2	=	0x3fb5
                           003FB4  1657 _XRADIODATA3	=	0x3fb4
                           003FBE  1658 _XRADIOSTAT0	=	0x3fbe
                           003FBF  1659 _XRADIOSTAT1	=	0x3fbf
                           003FBE  1660 _XRADIOSTAT	=	0x3fbe
                           003FDF  1661 _XSPCLKSRC	=	0x3fdf
                           003FDC  1662 _XSPMODE	=	0x3fdc
                           003FDE  1663 _XSPSHREG	=	0x3fde
                           003FDD  1664 _XSPSTATUS	=	0x3fdd
                           003F9A  1665 _XT0CLKSRC	=	0x3f9a
                           003F9C  1666 _XT0CNT0	=	0x3f9c
                           003F9D  1667 _XT0CNT1	=	0x3f9d
                           003F9C  1668 _XT0CNT	=	0x3f9c
                           003F99  1669 _XT0MODE	=	0x3f99
                           003F9E  1670 _XT0PERIOD0	=	0x3f9e
                           003F9F  1671 _XT0PERIOD1	=	0x3f9f
                           003F9E  1672 _XT0PERIOD	=	0x3f9e
                           003F9B  1673 _XT0STATUS	=	0x3f9b
                           003FA2  1674 _XT1CLKSRC	=	0x3fa2
                           003FA4  1675 _XT1CNT0	=	0x3fa4
                           003FA5  1676 _XT1CNT1	=	0x3fa5
                           003FA4  1677 _XT1CNT	=	0x3fa4
                           003FA1  1678 _XT1MODE	=	0x3fa1
                           003FA6  1679 _XT1PERIOD0	=	0x3fa6
                           003FA7  1680 _XT1PERIOD1	=	0x3fa7
                           003FA6  1681 _XT1PERIOD	=	0x3fa6
                           003FA3  1682 _XT1STATUS	=	0x3fa3
                           003FAA  1683 _XT2CLKSRC	=	0x3faa
                           003FAC  1684 _XT2CNT0	=	0x3fac
                           003FAD  1685 _XT2CNT1	=	0x3fad
                           003FAC  1686 _XT2CNT	=	0x3fac
                           003FA9  1687 _XT2MODE	=	0x3fa9
                           003FAE  1688 _XT2PERIOD0	=	0x3fae
                           003FAF  1689 _XT2PERIOD1	=	0x3faf
                           003FAE  1690 _XT2PERIOD	=	0x3fae
                           003FAB  1691 _XT2STATUS	=	0x3fab
                           003FE4  1692 _XU0CTRL	=	0x3fe4
                           003FE7  1693 _XU0MODE	=	0x3fe7
                           003FE6  1694 _XU0SHREG	=	0x3fe6
                           003FE5  1695 _XU0STATUS	=	0x3fe5
                           003FEC  1696 _XU1CTRL	=	0x3fec
                           003FEF  1697 _XU1MODE	=	0x3fef
                           003FEE  1698 _XU1SHREG	=	0x3fee
                           003FED  1699 _XU1STATUS	=	0x3fed
                           003FDA  1700 _XWDTCFG	=	0x3fda
                           003FDB  1701 _XWDTRESET	=	0x3fdb
                           003FF1  1702 _XWTCFGA	=	0x3ff1
                           003FF9  1703 _XWTCFGB	=	0x3ff9
                           003FF2  1704 _XWTCNTA0	=	0x3ff2
                           003FF3  1705 _XWTCNTA1	=	0x3ff3
                           003FF2  1706 _XWTCNTA	=	0x3ff2
                           003FFA  1707 _XWTCNTB0	=	0x3ffa
                           003FFB  1708 _XWTCNTB1	=	0x3ffb
                           003FFA  1709 _XWTCNTB	=	0x3ffa
                           003FEB  1710 _XWTCNTR1	=	0x3feb
                           003FF4  1711 _XWTEVTA0	=	0x3ff4
                           003FF5  1712 _XWTEVTA1	=	0x3ff5
                           003FF4  1713 _XWTEVTA	=	0x3ff4
                           003FF6  1714 _XWTEVTB0	=	0x3ff6
                           003FF7  1715 _XWTEVTB1	=	0x3ff7
                           003FF6  1716 _XWTEVTB	=	0x3ff6
                           003FFC  1717 _XWTEVTC0	=	0x3ffc
                           003FFD  1718 _XWTEVTC1	=	0x3ffd
                           003FFC  1719 _XWTEVTC	=	0x3ffc
                           003FFE  1720 _XWTEVTD0	=	0x3ffe
                           003FFF  1721 _XWTEVTD1	=	0x3fff
                           003FFE  1722 _XWTEVTD	=	0x3ffe
                           003FE9  1723 _XWTIRQEN	=	0x3fe9
                           003FEA  1724 _XWTSTAT	=	0x3fea
                           004114  1725 _AX5043_AFSKCTRL	=	0x4114
                           004113  1726 _AX5043_AFSKMARK0	=	0x4113
                           004112  1727 _AX5043_AFSKMARK1	=	0x4112
                           004111  1728 _AX5043_AFSKSPACE0	=	0x4111
                           004110  1729 _AX5043_AFSKSPACE1	=	0x4110
                           004043  1730 _AX5043_AGCCOUNTER	=	0x4043
                           004115  1731 _AX5043_AMPLFILTER	=	0x4115
                           004189  1732 _AX5043_BBOFFSCAP	=	0x4189
                           004188  1733 _AX5043_BBTUNE	=	0x4188
                           004041  1734 _AX5043_BGNDRSSI	=	0x4041
                           00422E  1735 _AX5043_BGNDRSSIGAIN	=	0x422e
                           00422F  1736 _AX5043_BGNDRSSITHR	=	0x422f
                           004017  1737 _AX5043_CRCINIT0	=	0x4017
                           004016  1738 _AX5043_CRCINIT1	=	0x4016
                           004015  1739 _AX5043_CRCINIT2	=	0x4015
                           004014  1740 _AX5043_CRCINIT3	=	0x4014
                           004332  1741 _AX5043_DACCONFIG	=	0x4332
                           004331  1742 _AX5043_DACVALUE0	=	0x4331
                           004330  1743 _AX5043_DACVALUE1	=	0x4330
                           004102  1744 _AX5043_DECIMATION	=	0x4102
                           004042  1745 _AX5043_DIVERSITY	=	0x4042
                           004011  1746 _AX5043_ENCODING	=	0x4011
                           004018  1747 _AX5043_FEC	=	0x4018
                           00401A  1748 _AX5043_FECSTATUS	=	0x401a
                           004019  1749 _AX5043_FECSYNC	=	0x4019
                           00402B  1750 _AX5043_FIFOCOUNT0	=	0x402b
                           00402A  1751 _AX5043_FIFOCOUNT1	=	0x402a
                           004029  1752 _AX5043_FIFODATA	=	0x4029
                           00402D  1753 _AX5043_FIFOFREE0	=	0x402d
                           00402C  1754 _AX5043_FIFOFREE1	=	0x402c
                           004028  1755 _AX5043_FIFOSTAT	=	0x4028
                           00402F  1756 _AX5043_FIFOTHRESH0	=	0x402f
                           00402E  1757 _AX5043_FIFOTHRESH1	=	0x402e
                           004012  1758 _AX5043_FRAMING	=	0x4012
                           004037  1759 _AX5043_FREQA0	=	0x4037
                           004036  1760 _AX5043_FREQA1	=	0x4036
                           004035  1761 _AX5043_FREQA2	=	0x4035
                           004034  1762 _AX5043_FREQA3	=	0x4034
                           00403F  1763 _AX5043_FREQB0	=	0x403f
                           00403E  1764 _AX5043_FREQB1	=	0x403e
                           00403D  1765 _AX5043_FREQB2	=	0x403d
                           00403C  1766 _AX5043_FREQB3	=	0x403c
                           004163  1767 _AX5043_FSKDEV0	=	0x4163
                           004162  1768 _AX5043_FSKDEV1	=	0x4162
                           004161  1769 _AX5043_FSKDEV2	=	0x4161
                           00410D  1770 _AX5043_FSKDMAX0	=	0x410d
                           00410C  1771 _AX5043_FSKDMAX1	=	0x410c
                           00410F  1772 _AX5043_FSKDMIN0	=	0x410f
                           00410E  1773 _AX5043_FSKDMIN1	=	0x410e
                           004309  1774 _AX5043_GPADC13VALUE0	=	0x4309
                           004308  1775 _AX5043_GPADC13VALUE1	=	0x4308
                           004300  1776 _AX5043_GPADCCTRL	=	0x4300
                           004301  1777 _AX5043_GPADCPERIOD	=	0x4301
                           004101  1778 _AX5043_IFFREQ0	=	0x4101
                           004100  1779 _AX5043_IFFREQ1	=	0x4100
                           00400B  1780 _AX5043_IRQINVERSION0	=	0x400b
                           00400A  1781 _AX5043_IRQINVERSION1	=	0x400a
                           004007  1782 _AX5043_IRQMASK0	=	0x4007
                           004006  1783 _AX5043_IRQMASK1	=	0x4006
                           00400D  1784 _AX5043_IRQREQUEST0	=	0x400d
                           00400C  1785 _AX5043_IRQREQUEST1	=	0x400c
                           004310  1786 _AX5043_LPOSCCONFIG	=	0x4310
                           004317  1787 _AX5043_LPOSCFREQ0	=	0x4317
                           004316  1788 _AX5043_LPOSCFREQ1	=	0x4316
                           004313  1789 _AX5043_LPOSCKFILT0	=	0x4313
                           004312  1790 _AX5043_LPOSCKFILT1	=	0x4312
                           004319  1791 _AX5043_LPOSCPER0	=	0x4319
                           004318  1792 _AX5043_LPOSCPER1	=	0x4318
                           004315  1793 _AX5043_LPOSCREF0	=	0x4315
                           004314  1794 _AX5043_LPOSCREF1	=	0x4314
                           004311  1795 _AX5043_LPOSCSTATUS	=	0x4311
                           004214  1796 _AX5043_MATCH0LEN	=	0x4214
                           004216  1797 _AX5043_MATCH0MAX	=	0x4216
                           004215  1798 _AX5043_MATCH0MIN	=	0x4215
                           004213  1799 _AX5043_MATCH0PAT0	=	0x4213
                           004212  1800 _AX5043_MATCH0PAT1	=	0x4212
                           004211  1801 _AX5043_MATCH0PAT2	=	0x4211
                           004210  1802 _AX5043_MATCH0PAT3	=	0x4210
                           00421C  1803 _AX5043_MATCH1LEN	=	0x421c
                           00421E  1804 _AX5043_MATCH1MAX	=	0x421e
                           00421D  1805 _AX5043_MATCH1MIN	=	0x421d
                           004219  1806 _AX5043_MATCH1PAT0	=	0x4219
                           004218  1807 _AX5043_MATCH1PAT1	=	0x4218
                           004108  1808 _AX5043_MAXDROFFSET0	=	0x4108
                           004107  1809 _AX5043_MAXDROFFSET1	=	0x4107
                           004106  1810 _AX5043_MAXDROFFSET2	=	0x4106
                           00410B  1811 _AX5043_MAXRFOFFSET0	=	0x410b
                           00410A  1812 _AX5043_MAXRFOFFSET1	=	0x410a
                           004109  1813 _AX5043_MAXRFOFFSET2	=	0x4109
                           004164  1814 _AX5043_MODCFGA	=	0x4164
                           004160  1815 _AX5043_MODCFGF	=	0x4160
                           004010  1816 _AX5043_MODULATION	=	0x4010
                           004025  1817 _AX5043_PINFUNCANTSEL	=	0x4025
                           004023  1818 _AX5043_PINFUNCDATA	=	0x4023
                           004022  1819 _AX5043_PINFUNCDCLK	=	0x4022
                           004024  1820 _AX5043_PINFUNCIRQ	=	0x4024
                           004026  1821 _AX5043_PINFUNCPWRAMP	=	0x4026
                           004021  1822 _AX5043_PINFUNCSYSCLK	=	0x4021
                           004020  1823 _AX5043_PINSTATE	=	0x4020
                           004233  1824 _AX5043_PKTACCEPTFLAGS	=	0x4233
                           004230  1825 _AX5043_PKTCHUNKSIZE	=	0x4230
                           004231  1826 _AX5043_PKTMISCFLAGS	=	0x4231
                           004232  1827 _AX5043_PKTSTOREFLAGS	=	0x4232
                           004031  1828 _AX5043_PLLCPI	=	0x4031
                           004039  1829 _AX5043_PLLCPIBOOST	=	0x4039
                           004182  1830 _AX5043_PLLLOCKDET	=	0x4182
                           004030  1831 _AX5043_PLLLOOP	=	0x4030
                           004038  1832 _AX5043_PLLLOOPBOOST	=	0x4038
                           004033  1833 _AX5043_PLLRANGINGA	=	0x4033
                           00403B  1834 _AX5043_PLLRANGINGB	=	0x403b
                           004183  1835 _AX5043_PLLRNGCLK	=	0x4183
                           004032  1836 _AX5043_PLLVCODIV	=	0x4032
                           004180  1837 _AX5043_PLLVCOI	=	0x4180
                           004181  1838 _AX5043_PLLVCOIR	=	0x4181
                           004005  1839 _AX5043_POWIRQMASK	=	0x4005
                           004003  1840 _AX5043_POWSTAT	=	0x4003
                           004004  1841 _AX5043_POWSTICKYSTAT	=	0x4004
                           004027  1842 _AX5043_PWRAMP	=	0x4027
                           004002  1843 _AX5043_PWRMODE	=	0x4002
                           004009  1844 _AX5043_RADIOEVENTMASK0	=	0x4009
                           004008  1845 _AX5043_RADIOEVENTMASK1	=	0x4008
                           00400F  1846 _AX5043_RADIOEVENTREQ0	=	0x400f
                           00400E  1847 _AX5043_RADIOEVENTREQ1	=	0x400e
                           00401C  1848 _AX5043_RADIOSTATE	=	0x401c
                           004040  1849 _AX5043_RSSI	=	0x4040
                           00422D  1850 _AX5043_RSSIABSTHR	=	0x422d
                           00422C  1851 _AX5043_RSSIREFERENCE	=	0x422c
                           004105  1852 _AX5043_RXDATARATE0	=	0x4105
                           004104  1853 _AX5043_RXDATARATE1	=	0x4104
                           004103  1854 _AX5043_RXDATARATE2	=	0x4103
                           004001  1855 _AX5043_SCRATCH	=	0x4001
                           004000  1856 _AX5043_SILICONREVISION	=	0x4000
                           00405B  1857 _AX5043_TIMER0	=	0x405b
                           00405A  1858 _AX5043_TIMER1	=	0x405a
                           004059  1859 _AX5043_TIMER2	=	0x4059
                           004227  1860 _AX5043_TMGRXAGC	=	0x4227
                           004223  1861 _AX5043_TMGRXBOOST	=	0x4223
                           004226  1862 _AX5043_TMGRXCOARSEAGC	=	0x4226
                           004225  1863 _AX5043_TMGRXOFFSACQ	=	0x4225
                           004229  1864 _AX5043_TMGRXPREAMBLE1	=	0x4229
                           00422A  1865 _AX5043_TMGRXPREAMBLE2	=	0x422a
                           00422B  1866 _AX5043_TMGRXPREAMBLE3	=	0x422b
                           004228  1867 _AX5043_TMGRXRSSI	=	0x4228
                           004224  1868 _AX5043_TMGRXSETTLE	=	0x4224
                           004220  1869 _AX5043_TMGTXBOOST	=	0x4220
                           004221  1870 _AX5043_TMGTXSETTLE	=	0x4221
                           004055  1871 _AX5043_TRKAFSKDEMOD0	=	0x4055
                           004054  1872 _AX5043_TRKAFSKDEMOD1	=	0x4054
                           004049  1873 _AX5043_TRKAMPLITUDE0	=	0x4049
                           004048  1874 _AX5043_TRKAMPLITUDE1	=	0x4048
                           004047  1875 _AX5043_TRKDATARATE0	=	0x4047
                           004046  1876 _AX5043_TRKDATARATE1	=	0x4046
                           004045  1877 _AX5043_TRKDATARATE2	=	0x4045
                           004051  1878 _AX5043_TRKFREQ0	=	0x4051
                           004050  1879 _AX5043_TRKFREQ1	=	0x4050
                           004053  1880 _AX5043_TRKFSKDEMOD0	=	0x4053
                           004052  1881 _AX5043_TRKFSKDEMOD1	=	0x4052
                           00404B  1882 _AX5043_TRKPHASE0	=	0x404b
                           00404A  1883 _AX5043_TRKPHASE1	=	0x404a
                           00404F  1884 _AX5043_TRKRFFREQ0	=	0x404f
                           00404E  1885 _AX5043_TRKRFFREQ1	=	0x404e
                           00404D  1886 _AX5043_TRKRFFREQ2	=	0x404d
                           004169  1887 _AX5043_TXPWRCOEFFA0	=	0x4169
                           004168  1888 _AX5043_TXPWRCOEFFA1	=	0x4168
                           00416B  1889 _AX5043_TXPWRCOEFFB0	=	0x416b
                           00416A  1890 _AX5043_TXPWRCOEFFB1	=	0x416a
                           00416D  1891 _AX5043_TXPWRCOEFFC0	=	0x416d
                           00416C  1892 _AX5043_TXPWRCOEFFC1	=	0x416c
                           00416F  1893 _AX5043_TXPWRCOEFFD0	=	0x416f
                           00416E  1894 _AX5043_TXPWRCOEFFD1	=	0x416e
                           004171  1895 _AX5043_TXPWRCOEFFE0	=	0x4171
                           004170  1896 _AX5043_TXPWRCOEFFE1	=	0x4170
                           004167  1897 _AX5043_TXRATE0	=	0x4167
                           004166  1898 _AX5043_TXRATE1	=	0x4166
                           004165  1899 _AX5043_TXRATE2	=	0x4165
                           00406B  1900 _AX5043_WAKEUP0	=	0x406b
                           00406A  1901 _AX5043_WAKEUP1	=	0x406a
                           00406D  1902 _AX5043_WAKEUPFREQ0	=	0x406d
                           00406C  1903 _AX5043_WAKEUPFREQ1	=	0x406c
                           004069  1904 _AX5043_WAKEUPTIMER0	=	0x4069
                           004068  1905 _AX5043_WAKEUPTIMER1	=	0x4068
                           00406E  1906 _AX5043_WAKEUPXOEARLY	=	0x406e
                           004184  1907 _AX5043_XTALCAP	=	0x4184
                           00401D  1908 _AX5043_XTALSTATUS	=	0x401d
                           004122  1909 _AX5043_AGCAHYST0	=	0x4122
                           004132  1910 _AX5043_AGCAHYST1	=	0x4132
                           004142  1911 _AX5043_AGCAHYST2	=	0x4142
                           004152  1912 _AX5043_AGCAHYST3	=	0x4152
                           004120  1913 _AX5043_AGCGAIN0	=	0x4120
                           004130  1914 _AX5043_AGCGAIN1	=	0x4130
                           004140  1915 _AX5043_AGCGAIN2	=	0x4140
                           004150  1916 _AX5043_AGCGAIN3	=	0x4150
                           004123  1917 _AX5043_AGCMINMAX0	=	0x4123
                           004133  1918 _AX5043_AGCMINMAX1	=	0x4133
                           004143  1919 _AX5043_AGCMINMAX2	=	0x4143
                           004153  1920 _AX5043_AGCMINMAX3	=	0x4153
                           004121  1921 _AX5043_AGCTARGET0	=	0x4121
                           004131  1922 _AX5043_AGCTARGET1	=	0x4131
                           004141  1923 _AX5043_AGCTARGET2	=	0x4141
                           004151  1924 _AX5043_AGCTARGET3	=	0x4151
                           00412B  1925 _AX5043_AMPLITUDEGAIN0	=	0x412b
                           00413B  1926 _AX5043_AMPLITUDEGAIN1	=	0x413b
                           00414B  1927 _AX5043_AMPLITUDEGAIN2	=	0x414b
                           00415B  1928 _AX5043_AMPLITUDEGAIN3	=	0x415b
                           00412F  1929 _AX5043_BBOFFSRES0	=	0x412f
                           00413F  1930 _AX5043_BBOFFSRES1	=	0x413f
                           00414F  1931 _AX5043_BBOFFSRES2	=	0x414f
                           00415F  1932 _AX5043_BBOFFSRES3	=	0x415f
                           004125  1933 _AX5043_DRGAIN0	=	0x4125
                           004135  1934 _AX5043_DRGAIN1	=	0x4135
                           004145  1935 _AX5043_DRGAIN2	=	0x4145
                           004155  1936 _AX5043_DRGAIN3	=	0x4155
                           00412E  1937 _AX5043_FOURFSK0	=	0x412e
                           00413E  1938 _AX5043_FOURFSK1	=	0x413e
                           00414E  1939 _AX5043_FOURFSK2	=	0x414e
                           00415E  1940 _AX5043_FOURFSK3	=	0x415e
                           00412D  1941 _AX5043_FREQDEV00	=	0x412d
                           00413D  1942 _AX5043_FREQDEV01	=	0x413d
                           00414D  1943 _AX5043_FREQDEV02	=	0x414d
                           00415D  1944 _AX5043_FREQDEV03	=	0x415d
                           00412C  1945 _AX5043_FREQDEV10	=	0x412c
                           00413C  1946 _AX5043_FREQDEV11	=	0x413c
                           00414C  1947 _AX5043_FREQDEV12	=	0x414c
                           00415C  1948 _AX5043_FREQDEV13	=	0x415c
                           004127  1949 _AX5043_FREQUENCYGAINA0	=	0x4127
                           004137  1950 _AX5043_FREQUENCYGAINA1	=	0x4137
                           004147  1951 _AX5043_FREQUENCYGAINA2	=	0x4147
                           004157  1952 _AX5043_FREQUENCYGAINA3	=	0x4157
                           004128  1953 _AX5043_FREQUENCYGAINB0	=	0x4128
                           004138  1954 _AX5043_FREQUENCYGAINB1	=	0x4138
                           004148  1955 _AX5043_FREQUENCYGAINB2	=	0x4148
                           004158  1956 _AX5043_FREQUENCYGAINB3	=	0x4158
                           004129  1957 _AX5043_FREQUENCYGAINC0	=	0x4129
                           004139  1958 _AX5043_FREQUENCYGAINC1	=	0x4139
                           004149  1959 _AX5043_FREQUENCYGAINC2	=	0x4149
                           004159  1960 _AX5043_FREQUENCYGAINC3	=	0x4159
                           00412A  1961 _AX5043_FREQUENCYGAIND0	=	0x412a
                           00413A  1962 _AX5043_FREQUENCYGAIND1	=	0x413a
                           00414A  1963 _AX5043_FREQUENCYGAIND2	=	0x414a
                           00415A  1964 _AX5043_FREQUENCYGAIND3	=	0x415a
                           004116  1965 _AX5043_FREQUENCYLEAK	=	0x4116
                           004126  1966 _AX5043_PHASEGAIN0	=	0x4126
                           004136  1967 _AX5043_PHASEGAIN1	=	0x4136
                           004146  1968 _AX5043_PHASEGAIN2	=	0x4146
                           004156  1969 _AX5043_PHASEGAIN3	=	0x4156
                           004207  1970 _AX5043_PKTADDR0	=	0x4207
                           004206  1971 _AX5043_PKTADDR1	=	0x4206
                           004205  1972 _AX5043_PKTADDR2	=	0x4205
                           004204  1973 _AX5043_PKTADDR3	=	0x4204
                           004200  1974 _AX5043_PKTADDRCFG	=	0x4200
                           00420B  1975 _AX5043_PKTADDRMASK0	=	0x420b
                           00420A  1976 _AX5043_PKTADDRMASK1	=	0x420a
                           004209  1977 _AX5043_PKTADDRMASK2	=	0x4209
                           004208  1978 _AX5043_PKTADDRMASK3	=	0x4208
                           004201  1979 _AX5043_PKTLENCFG	=	0x4201
                           004202  1980 _AX5043_PKTLENOFFSET	=	0x4202
                           004203  1981 _AX5043_PKTMAXLEN	=	0x4203
                           004118  1982 _AX5043_RXPARAMCURSET	=	0x4118
                           004117  1983 _AX5043_RXPARAMSETS	=	0x4117
                           004124  1984 _AX5043_TIMEGAIN0	=	0x4124
                           004134  1985 _AX5043_TIMEGAIN1	=	0x4134
                           004144  1986 _AX5043_TIMEGAIN2	=	0x4144
                           004154  1987 _AX5043_TIMEGAIN3	=	0x4154
                           005114  1988 _AX5043_AFSKCTRLNB	=	0x5114
                           005113  1989 _AX5043_AFSKMARK0NB	=	0x5113
                           005112  1990 _AX5043_AFSKMARK1NB	=	0x5112
                           005111  1991 _AX5043_AFSKSPACE0NB	=	0x5111
                           005110  1992 _AX5043_AFSKSPACE1NB	=	0x5110
                           005043  1993 _AX5043_AGCCOUNTERNB	=	0x5043
                           005115  1994 _AX5043_AMPLFILTERNB	=	0x5115
                           005189  1995 _AX5043_BBOFFSCAPNB	=	0x5189
                           005188  1996 _AX5043_BBTUNENB	=	0x5188
                           005041  1997 _AX5043_BGNDRSSINB	=	0x5041
                           00522E  1998 _AX5043_BGNDRSSIGAINNB	=	0x522e
                           00522F  1999 _AX5043_BGNDRSSITHRNB	=	0x522f
                           005017  2000 _AX5043_CRCINIT0NB	=	0x5017
                           005016  2001 _AX5043_CRCINIT1NB	=	0x5016
                           005015  2002 _AX5043_CRCINIT2NB	=	0x5015
                           005014  2003 _AX5043_CRCINIT3NB	=	0x5014
                           005332  2004 _AX5043_DACCONFIGNB	=	0x5332
                           005331  2005 _AX5043_DACVALUE0NB	=	0x5331
                           005330  2006 _AX5043_DACVALUE1NB	=	0x5330
                           005102  2007 _AX5043_DECIMATIONNB	=	0x5102
                           005042  2008 _AX5043_DIVERSITYNB	=	0x5042
                           005011  2009 _AX5043_ENCODINGNB	=	0x5011
                           005018  2010 _AX5043_FECNB	=	0x5018
                           00501A  2011 _AX5043_FECSTATUSNB	=	0x501a
                           005019  2012 _AX5043_FECSYNCNB	=	0x5019
                           00502B  2013 _AX5043_FIFOCOUNT0NB	=	0x502b
                           00502A  2014 _AX5043_FIFOCOUNT1NB	=	0x502a
                           005029  2015 _AX5043_FIFODATANB	=	0x5029
                           00502D  2016 _AX5043_FIFOFREE0NB	=	0x502d
                           00502C  2017 _AX5043_FIFOFREE1NB	=	0x502c
                           005028  2018 _AX5043_FIFOSTATNB	=	0x5028
                           00502F  2019 _AX5043_FIFOTHRESH0NB	=	0x502f
                           00502E  2020 _AX5043_FIFOTHRESH1NB	=	0x502e
                           005012  2021 _AX5043_FRAMINGNB	=	0x5012
                           005037  2022 _AX5043_FREQA0NB	=	0x5037
                           005036  2023 _AX5043_FREQA1NB	=	0x5036
                           005035  2024 _AX5043_FREQA2NB	=	0x5035
                           005034  2025 _AX5043_FREQA3NB	=	0x5034
                           00503F  2026 _AX5043_FREQB0NB	=	0x503f
                           00503E  2027 _AX5043_FREQB1NB	=	0x503e
                           00503D  2028 _AX5043_FREQB2NB	=	0x503d
                           00503C  2029 _AX5043_FREQB3NB	=	0x503c
                           005163  2030 _AX5043_FSKDEV0NB	=	0x5163
                           005162  2031 _AX5043_FSKDEV1NB	=	0x5162
                           005161  2032 _AX5043_FSKDEV2NB	=	0x5161
                           00510D  2033 _AX5043_FSKDMAX0NB	=	0x510d
                           00510C  2034 _AX5043_FSKDMAX1NB	=	0x510c
                           00510F  2035 _AX5043_FSKDMIN0NB	=	0x510f
                           00510E  2036 _AX5043_FSKDMIN1NB	=	0x510e
                           005309  2037 _AX5043_GPADC13VALUE0NB	=	0x5309
                           005308  2038 _AX5043_GPADC13VALUE1NB	=	0x5308
                           005300  2039 _AX5043_GPADCCTRLNB	=	0x5300
                           005301  2040 _AX5043_GPADCPERIODNB	=	0x5301
                           005101  2041 _AX5043_IFFREQ0NB	=	0x5101
                           005100  2042 _AX5043_IFFREQ1NB	=	0x5100
                           00500B  2043 _AX5043_IRQINVERSION0NB	=	0x500b
                           00500A  2044 _AX5043_IRQINVERSION1NB	=	0x500a
                           005007  2045 _AX5043_IRQMASK0NB	=	0x5007
                           005006  2046 _AX5043_IRQMASK1NB	=	0x5006
                           00500D  2047 _AX5043_IRQREQUEST0NB	=	0x500d
                           00500C  2048 _AX5043_IRQREQUEST1NB	=	0x500c
                           005310  2049 _AX5043_LPOSCCONFIGNB	=	0x5310
                           005317  2050 _AX5043_LPOSCFREQ0NB	=	0x5317
                           005316  2051 _AX5043_LPOSCFREQ1NB	=	0x5316
                           005313  2052 _AX5043_LPOSCKFILT0NB	=	0x5313
                           005312  2053 _AX5043_LPOSCKFILT1NB	=	0x5312
                           005319  2054 _AX5043_LPOSCPER0NB	=	0x5319
                           005318  2055 _AX5043_LPOSCPER1NB	=	0x5318
                           005315  2056 _AX5043_LPOSCREF0NB	=	0x5315
                           005314  2057 _AX5043_LPOSCREF1NB	=	0x5314
                           005311  2058 _AX5043_LPOSCSTATUSNB	=	0x5311
                           005214  2059 _AX5043_MATCH0LENNB	=	0x5214
                           005216  2060 _AX5043_MATCH0MAXNB	=	0x5216
                           005215  2061 _AX5043_MATCH0MINNB	=	0x5215
                           005213  2062 _AX5043_MATCH0PAT0NB	=	0x5213
                           005212  2063 _AX5043_MATCH0PAT1NB	=	0x5212
                           005211  2064 _AX5043_MATCH0PAT2NB	=	0x5211
                           005210  2065 _AX5043_MATCH0PAT3NB	=	0x5210
                           00521C  2066 _AX5043_MATCH1LENNB	=	0x521c
                           00521E  2067 _AX5043_MATCH1MAXNB	=	0x521e
                           00521D  2068 _AX5043_MATCH1MINNB	=	0x521d
                           005219  2069 _AX5043_MATCH1PAT0NB	=	0x5219
                           005218  2070 _AX5043_MATCH1PAT1NB	=	0x5218
                           005108  2071 _AX5043_MAXDROFFSET0NB	=	0x5108
                           005107  2072 _AX5043_MAXDROFFSET1NB	=	0x5107
                           005106  2073 _AX5043_MAXDROFFSET2NB	=	0x5106
                           00510B  2074 _AX5043_MAXRFOFFSET0NB	=	0x510b
                           00510A  2075 _AX5043_MAXRFOFFSET1NB	=	0x510a
                           005109  2076 _AX5043_MAXRFOFFSET2NB	=	0x5109
                           005164  2077 _AX5043_MODCFGANB	=	0x5164
                           005160  2078 _AX5043_MODCFGFNB	=	0x5160
                           005F5F  2079 _AX5043_MODCFGPNB	=	0x5f5f
                           005010  2080 _AX5043_MODULATIONNB	=	0x5010
                           005025  2081 _AX5043_PINFUNCANTSELNB	=	0x5025
                           005023  2082 _AX5043_PINFUNCDATANB	=	0x5023
                           005022  2083 _AX5043_PINFUNCDCLKNB	=	0x5022
                           005024  2084 _AX5043_PINFUNCIRQNB	=	0x5024
                           005026  2085 _AX5043_PINFUNCPWRAMPNB	=	0x5026
                           005021  2086 _AX5043_PINFUNCSYSCLKNB	=	0x5021
                           005020  2087 _AX5043_PINSTATENB	=	0x5020
                           005233  2088 _AX5043_PKTACCEPTFLAGSNB	=	0x5233
                           005230  2089 _AX5043_PKTCHUNKSIZENB	=	0x5230
                           005231  2090 _AX5043_PKTMISCFLAGSNB	=	0x5231
                           005232  2091 _AX5043_PKTSTOREFLAGSNB	=	0x5232
                           005031  2092 _AX5043_PLLCPINB	=	0x5031
                           005039  2093 _AX5043_PLLCPIBOOSTNB	=	0x5039
                           005182  2094 _AX5043_PLLLOCKDETNB	=	0x5182
                           005030  2095 _AX5043_PLLLOOPNB	=	0x5030
                           005038  2096 _AX5043_PLLLOOPBOOSTNB	=	0x5038
                           005033  2097 _AX5043_PLLRANGINGANB	=	0x5033
                           00503B  2098 _AX5043_PLLRANGINGBNB	=	0x503b
                           005183  2099 _AX5043_PLLRNGCLKNB	=	0x5183
                           005032  2100 _AX5043_PLLVCODIVNB	=	0x5032
                           005180  2101 _AX5043_PLLVCOINB	=	0x5180
                           005181  2102 _AX5043_PLLVCOIRNB	=	0x5181
                           005F08  2103 _AX5043_POWCTRL1NB	=	0x5f08
                           005005  2104 _AX5043_POWIRQMASKNB	=	0x5005
                           005003  2105 _AX5043_POWSTATNB	=	0x5003
                           005004  2106 _AX5043_POWSTICKYSTATNB	=	0x5004
                           005027  2107 _AX5043_PWRAMPNB	=	0x5027
                           005002  2108 _AX5043_PWRMODENB	=	0x5002
                           005009  2109 _AX5043_RADIOEVENTMASK0NB	=	0x5009
                           005008  2110 _AX5043_RADIOEVENTMASK1NB	=	0x5008
                           00500F  2111 _AX5043_RADIOEVENTREQ0NB	=	0x500f
                           00500E  2112 _AX5043_RADIOEVENTREQ1NB	=	0x500e
                           00501C  2113 _AX5043_RADIOSTATENB	=	0x501c
                           005F0D  2114 _AX5043_REFNB	=	0x5f0d
                           005040  2115 _AX5043_RSSINB	=	0x5040
                           00522D  2116 _AX5043_RSSIABSTHRNB	=	0x522d
                           00522C  2117 _AX5043_RSSIREFERENCENB	=	0x522c
                           005105  2118 _AX5043_RXDATARATE0NB	=	0x5105
                           005104  2119 _AX5043_RXDATARATE1NB	=	0x5104
                           005103  2120 _AX5043_RXDATARATE2NB	=	0x5103
                           005001  2121 _AX5043_SCRATCHNB	=	0x5001
                           005000  2122 _AX5043_SILICONREVISIONNB	=	0x5000
                           00505B  2123 _AX5043_TIMER0NB	=	0x505b
                           00505A  2124 _AX5043_TIMER1NB	=	0x505a
                           005059  2125 _AX5043_TIMER2NB	=	0x5059
                           005227  2126 _AX5043_TMGRXAGCNB	=	0x5227
                           005223  2127 _AX5043_TMGRXBOOSTNB	=	0x5223
                           005226  2128 _AX5043_TMGRXCOARSEAGCNB	=	0x5226
                           005225  2129 _AX5043_TMGRXOFFSACQNB	=	0x5225
                           005229  2130 _AX5043_TMGRXPREAMBLE1NB	=	0x5229
                           00522A  2131 _AX5043_TMGRXPREAMBLE2NB	=	0x522a
                           00522B  2132 _AX5043_TMGRXPREAMBLE3NB	=	0x522b
                           005228  2133 _AX5043_TMGRXRSSINB	=	0x5228
                           005224  2134 _AX5043_TMGRXSETTLENB	=	0x5224
                           005220  2135 _AX5043_TMGTXBOOSTNB	=	0x5220
                           005221  2136 _AX5043_TMGTXSETTLENB	=	0x5221
                           005055  2137 _AX5043_TRKAFSKDEMOD0NB	=	0x5055
                           005054  2138 _AX5043_TRKAFSKDEMOD1NB	=	0x5054
                           005049  2139 _AX5043_TRKAMPLITUDE0NB	=	0x5049
                           005048  2140 _AX5043_TRKAMPLITUDE1NB	=	0x5048
                           005047  2141 _AX5043_TRKDATARATE0NB	=	0x5047
                           005046  2142 _AX5043_TRKDATARATE1NB	=	0x5046
                           005045  2143 _AX5043_TRKDATARATE2NB	=	0x5045
                           005051  2144 _AX5043_TRKFREQ0NB	=	0x5051
                           005050  2145 _AX5043_TRKFREQ1NB	=	0x5050
                           005053  2146 _AX5043_TRKFSKDEMOD0NB	=	0x5053
                           005052  2147 _AX5043_TRKFSKDEMOD1NB	=	0x5052
                           00504B  2148 _AX5043_TRKPHASE0NB	=	0x504b
                           00504A  2149 _AX5043_TRKPHASE1NB	=	0x504a
                           00504F  2150 _AX5043_TRKRFFREQ0NB	=	0x504f
                           00504E  2151 _AX5043_TRKRFFREQ1NB	=	0x504e
                           00504D  2152 _AX5043_TRKRFFREQ2NB	=	0x504d
                           005169  2153 _AX5043_TXPWRCOEFFA0NB	=	0x5169
                           005168  2154 _AX5043_TXPWRCOEFFA1NB	=	0x5168
                           00516B  2155 _AX5043_TXPWRCOEFFB0NB	=	0x516b
                           00516A  2156 _AX5043_TXPWRCOEFFB1NB	=	0x516a
                           00516D  2157 _AX5043_TXPWRCOEFFC0NB	=	0x516d
                           00516C  2158 _AX5043_TXPWRCOEFFC1NB	=	0x516c
                           00516F  2159 _AX5043_TXPWRCOEFFD0NB	=	0x516f
                           00516E  2160 _AX5043_TXPWRCOEFFD1NB	=	0x516e
                           005171  2161 _AX5043_TXPWRCOEFFE0NB	=	0x5171
                           005170  2162 _AX5043_TXPWRCOEFFE1NB	=	0x5170
                           005167  2163 _AX5043_TXRATE0NB	=	0x5167
                           005166  2164 _AX5043_TXRATE1NB	=	0x5166
                           005165  2165 _AX5043_TXRATE2NB	=	0x5165
                           00506B  2166 _AX5043_WAKEUP0NB	=	0x506b
                           00506A  2167 _AX5043_WAKEUP1NB	=	0x506a
                           00506D  2168 _AX5043_WAKEUPFREQ0NB	=	0x506d
                           00506C  2169 _AX5043_WAKEUPFREQ1NB	=	0x506c
                           005069  2170 _AX5043_WAKEUPTIMER0NB	=	0x5069
                           005068  2171 _AX5043_WAKEUPTIMER1NB	=	0x5068
                           00506E  2172 _AX5043_WAKEUPXOEARLYNB	=	0x506e
                           005F11  2173 _AX5043_XTALAMPLNB	=	0x5f11
                           005184  2174 _AX5043_XTALCAPNB	=	0x5184
                           005F10  2175 _AX5043_XTALOSCNB	=	0x5f10
                           00501D  2176 _AX5043_XTALSTATUSNB	=	0x501d
                           005F00  2177 _AX5043_0xF00NB	=	0x5f00
                           005F0C  2178 _AX5043_0xF0CNB	=	0x5f0c
                           005F18  2179 _AX5043_0xF18NB	=	0x5f18
                           005F1C  2180 _AX5043_0xF1CNB	=	0x5f1c
                           005F21  2181 _AX5043_0xF21NB	=	0x5f21
                           005F22  2182 _AX5043_0xF22NB	=	0x5f22
                           005F23  2183 _AX5043_0xF23NB	=	0x5f23
                           005F26  2184 _AX5043_0xF26NB	=	0x5f26
                           005F30  2185 _AX5043_0xF30NB	=	0x5f30
                           005F31  2186 _AX5043_0xF31NB	=	0x5f31
                           005F32  2187 _AX5043_0xF32NB	=	0x5f32
                           005F33  2188 _AX5043_0xF33NB	=	0x5f33
                           005F34  2189 _AX5043_0xF34NB	=	0x5f34
                           005F35  2190 _AX5043_0xF35NB	=	0x5f35
                           005F44  2191 _AX5043_0xF44NB	=	0x5f44
                           005122  2192 _AX5043_AGCAHYST0NB	=	0x5122
                           005132  2193 _AX5043_AGCAHYST1NB	=	0x5132
                           005142  2194 _AX5043_AGCAHYST2NB	=	0x5142
                           005152  2195 _AX5043_AGCAHYST3NB	=	0x5152
                           005120  2196 _AX5043_AGCGAIN0NB	=	0x5120
                           005130  2197 _AX5043_AGCGAIN1NB	=	0x5130
                           005140  2198 _AX5043_AGCGAIN2NB	=	0x5140
                           005150  2199 _AX5043_AGCGAIN3NB	=	0x5150
                           005123  2200 _AX5043_AGCMINMAX0NB	=	0x5123
                           005133  2201 _AX5043_AGCMINMAX1NB	=	0x5133
                           005143  2202 _AX5043_AGCMINMAX2NB	=	0x5143
                           005153  2203 _AX5043_AGCMINMAX3NB	=	0x5153
                           005121  2204 _AX5043_AGCTARGET0NB	=	0x5121
                           005131  2205 _AX5043_AGCTARGET1NB	=	0x5131
                           005141  2206 _AX5043_AGCTARGET2NB	=	0x5141
                           005151  2207 _AX5043_AGCTARGET3NB	=	0x5151
                           00512B  2208 _AX5043_AMPLITUDEGAIN0NB	=	0x512b
                           00513B  2209 _AX5043_AMPLITUDEGAIN1NB	=	0x513b
                           00514B  2210 _AX5043_AMPLITUDEGAIN2NB	=	0x514b
                           00515B  2211 _AX5043_AMPLITUDEGAIN3NB	=	0x515b
                           00512F  2212 _AX5043_BBOFFSRES0NB	=	0x512f
                           00513F  2213 _AX5043_BBOFFSRES1NB	=	0x513f
                           00514F  2214 _AX5043_BBOFFSRES2NB	=	0x514f
                           00515F  2215 _AX5043_BBOFFSRES3NB	=	0x515f
                           005125  2216 _AX5043_DRGAIN0NB	=	0x5125
                           005135  2217 _AX5043_DRGAIN1NB	=	0x5135
                           005145  2218 _AX5043_DRGAIN2NB	=	0x5145
                           005155  2219 _AX5043_DRGAIN3NB	=	0x5155
                           00512E  2220 _AX5043_FOURFSK0NB	=	0x512e
                           00513E  2221 _AX5043_FOURFSK1NB	=	0x513e
                           00514E  2222 _AX5043_FOURFSK2NB	=	0x514e
                           00515E  2223 _AX5043_FOURFSK3NB	=	0x515e
                           00512D  2224 _AX5043_FREQDEV00NB	=	0x512d
                           00513D  2225 _AX5043_FREQDEV01NB	=	0x513d
                           00514D  2226 _AX5043_FREQDEV02NB	=	0x514d
                           00515D  2227 _AX5043_FREQDEV03NB	=	0x515d
                           00512C  2228 _AX5043_FREQDEV10NB	=	0x512c
                           00513C  2229 _AX5043_FREQDEV11NB	=	0x513c
                           00514C  2230 _AX5043_FREQDEV12NB	=	0x514c
                           00515C  2231 _AX5043_FREQDEV13NB	=	0x515c
                           005127  2232 _AX5043_FREQUENCYGAINA0NB	=	0x5127
                           005137  2233 _AX5043_FREQUENCYGAINA1NB	=	0x5137
                           005147  2234 _AX5043_FREQUENCYGAINA2NB	=	0x5147
                           005157  2235 _AX5043_FREQUENCYGAINA3NB	=	0x5157
                           005128  2236 _AX5043_FREQUENCYGAINB0NB	=	0x5128
                           005138  2237 _AX5043_FREQUENCYGAINB1NB	=	0x5138
                           005148  2238 _AX5043_FREQUENCYGAINB2NB	=	0x5148
                           005158  2239 _AX5043_FREQUENCYGAINB3NB	=	0x5158
                           005129  2240 _AX5043_FREQUENCYGAINC0NB	=	0x5129
                           005139  2241 _AX5043_FREQUENCYGAINC1NB	=	0x5139
                           005149  2242 _AX5043_FREQUENCYGAINC2NB	=	0x5149
                           005159  2243 _AX5043_FREQUENCYGAINC3NB	=	0x5159
                           00512A  2244 _AX5043_FREQUENCYGAIND0NB	=	0x512a
                           00513A  2245 _AX5043_FREQUENCYGAIND1NB	=	0x513a
                           00514A  2246 _AX5043_FREQUENCYGAIND2NB	=	0x514a
                           00515A  2247 _AX5043_FREQUENCYGAIND3NB	=	0x515a
                           005116  2248 _AX5043_FREQUENCYLEAKNB	=	0x5116
                           005126  2249 _AX5043_PHASEGAIN0NB	=	0x5126
                           005136  2250 _AX5043_PHASEGAIN1NB	=	0x5136
                           005146  2251 _AX5043_PHASEGAIN2NB	=	0x5146
                           005156  2252 _AX5043_PHASEGAIN3NB	=	0x5156
                           005207  2253 _AX5043_PKTADDR0NB	=	0x5207
                           005206  2254 _AX5043_PKTADDR1NB	=	0x5206
                           005205  2255 _AX5043_PKTADDR2NB	=	0x5205
                           005204  2256 _AX5043_PKTADDR3NB	=	0x5204
                           005200  2257 _AX5043_PKTADDRCFGNB	=	0x5200
                           00520B  2258 _AX5043_PKTADDRMASK0NB	=	0x520b
                           00520A  2259 _AX5043_PKTADDRMASK1NB	=	0x520a
                           005209  2260 _AX5043_PKTADDRMASK2NB	=	0x5209
                           005208  2261 _AX5043_PKTADDRMASK3NB	=	0x5208
                           005201  2262 _AX5043_PKTLENCFGNB	=	0x5201
                           005202  2263 _AX5043_PKTLENOFFSETNB	=	0x5202
                           005203  2264 _AX5043_PKTMAXLENNB	=	0x5203
                           005118  2265 _AX5043_RXPARAMCURSETNB	=	0x5118
                           005117  2266 _AX5043_RXPARAMSETSNB	=	0x5117
                           005124  2267 _AX5043_TIMEGAIN0NB	=	0x5124
                           005134  2268 _AX5043_TIMEGAIN1NB	=	0x5134
                           005144  2269 _AX5043_TIMEGAIN2NB	=	0x5144
                           005154  2270 _AX5043_TIMEGAIN3NB	=	0x5154
                           004F00  2271 _AX5043_0xF00	=	0x4f00
                           004F0C  2272 _AX5043_0xF0C	=	0x4f0c
                           004F10  2273 _AX5043_0xF10	=	0x4f10
                           004F11  2274 _AX5043_0xF11	=	0x4f11
                           004F18  2275 _AX5043_0xF18	=	0x4f18
                           004F1C  2276 _AX5043_0xF1C	=	0x4f1c
                           004F21  2277 _AX5043_0xF21	=	0x4f21
                           004F22  2278 _AX5043_0xF22	=	0x4f22
                           004F23  2279 _AX5043_0xF23	=	0x4f23
                           004F26  2280 _AX5043_0xF26	=	0x4f26
                           004F30  2281 _AX5043_0xF30	=	0x4f30
                           004F31  2282 _AX5043_0xF31	=	0x4f31
                           004F32  2283 _AX5043_0xF32	=	0x4f32
                           004F33  2284 _AX5043_0xF33	=	0x4f33
                           004F34  2285 _AX5043_0xF34	=	0x4f34
                           004F35  2286 _AX5043_0xF35	=	0x4f35
                           004F44  2287 _AX5043_0xF44	=	0x4f44
                           004F0D  2288 _AX5043_REF	=	0x4f0d
                           004F08  2289 _AX5043_POWCTRL1	=	0x4f08
                           004F5F  2290 _AX5043_MODCFGP	=	0x4f5f
                           004F10  2291 _AX5043_XTALOSC	=	0x4f10
                           004F11  2292 _AX5043_XTALAMPL	=	0x4f11
      0000A4                       2293 _aligned_alloc_PARM_2:
      0000A4                       2294 	.ds 2
      0000A6                       2295 _axradio_syncstate::
      0000A6                       2296 	.ds 1
      0000A7                       2297 _axradio_txbuffer_len::
      0000A7                       2298 	.ds 2
      0000A9                       2299 _axradio_txbuffer_cnt::
      0000A9                       2300 	.ds 2
      0000AB                       2301 _axradio_curchannel::
      0000AB                       2302 	.ds 1
      0000AC                       2303 _axradio_curfreqoffset::
      0000AC                       2304 	.ds 4
      0000B0                       2305 _axradio_ack_count::
      0000B0                       2306 	.ds 1
      0000B1                       2307 _axradio_ack_seqnr::
      0000B1                       2308 	.ds 1
      0000B2                       2309 _axradio_sync_time::
      0000B2                       2310 	.ds 4
      0000B6                       2311 _axradio_sync_periodcorr::
      0000B6                       2312 	.ds 2
      0000B8                       2313 _axradio_timeanchor::
      0000B8                       2314 	.ds 8
      0000C0                       2315 _axradio_localaddr::
      0000C0                       2316 	.ds 8
      0000C8                       2317 _axradio_default_remoteaddr::
      0000C8                       2318 	.ds 4
      0000CC                       2319 _axradio_txbuffer::
      0000CC                       2320 	.ds 260
      0001D0                       2321 _axradio_rxbuffer::
      0001D0                       2322 	.ds 260
      0002D4                       2323 _axradio_cb_receive::
      0002D4                       2324 	.ds 34
      0002F6                       2325 _axradio_cb_receivesfd::
      0002F6                       2326 	.ds 10
      000300                       2327 _axradio_cb_channelstate::
      000300                       2328 	.ds 13
      00030D                       2329 _axradio_cb_transmitstart::
      00030D                       2330 	.ds 10
      000317                       2331 _axradio_cb_transmitend::
      000317                       2332 	.ds 10
      000321                       2333 _axradio_cb_transmitdata::
      000321                       2334 	.ds 10
      00032B                       2335 _axradio_timer::
      00032B                       2336 	.ds 8
      000333                       2337 _receive_isr_BeaconRx_1_245:
      000333                       2338 	.ds 29
      000350                       2339 _axradio_init_x_3_396:
      000350                       2340 	.ds 1
      000351                       2341 _axradio_init_j_3_397:
      000351                       2342 	.ds 1
      000352                       2343 _axradio_init_x_6_401:
      000352                       2344 	.ds 1
      000353                       2345 _axradio_set_mode_mode_1_412:
      000353                       2346 	.ds 1
      000354                       2347 _axradio_set_channel_chnum_1_425:
      000354                       2348 	.ds 1
      000355                       2349 _axradio_get_pllvcoi_x_2_437:
      000355                       2350 	.ds 1
      000356                       2351 _axradio_set_curfreqoffset_offs_1_440:
      000356                       2352 	.ds 4
      00035A                       2353 _axradio_set_freqoffset_offs_1_442:
      00035A                       2354 	.ds 4
      00035E                       2355 _axradio_set_local_address_addr_1_447:
      00035E                       2356 	.ds 3
      000361                       2357 _axradio_get_local_address_addr_1_449:
      000361                       2358 	.ds 3
      000364                       2359 _axradio_set_default_remote_address_addr_1_451:
      000364                       2360 	.ds 3
      000367                       2361 _axradio_get_default_remote_address_addr_1_453:
      000367                       2362 	.ds 3
      00036A                       2363 _axradio_transmit_PARM_2:
      00036A                       2364 	.ds 3
      00036D                       2365 _axradio_transmit_PARM_3:
      00036D                       2366 	.ds 2
      00036F                       2367 _axradio_transmit_addr_1_455:
      00036F                       2368 	.ds 3
                                   2369 ;--------------------------------------------------------
                                   2370 ; absolute external ram data
                                   2371 ;--------------------------------------------------------
                                   2372 	.area XABS    (ABS,XDATA)
                                   2373 ;--------------------------------------------------------
                                   2374 ; external initialized ram data
                                   2375 ;--------------------------------------------------------
                                   2376 	.area XISEG   (XDATA)
      0009A5                       2377 _f30_saved::
      0009A5                       2378 	.ds 1
      0009A6                       2379 _f31_saved::
      0009A6                       2380 	.ds 1
      0009A7                       2381 _f32_saved::
      0009A7                       2382 	.ds 1
      0009A8                       2383 _f33_saved::
      0009A8                       2384 	.ds 1
                                   2385 	.area HOME    (CODE)
                                   2386 	.area GSINIT0 (CODE)
                                   2387 	.area GSINIT1 (CODE)
                                   2388 	.area GSINIT2 (CODE)
                                   2389 	.area GSINIT3 (CODE)
                                   2390 	.area GSINIT4 (CODE)
                                   2391 	.area GSINIT5 (CODE)
                                   2392 	.area GSINIT  (CODE)
                                   2393 	.area GSFINAL (CODE)
                                   2394 	.area CSEG    (CODE)
                                   2395 ;--------------------------------------------------------
                                   2396 ; global & static initialisations
                                   2397 ;--------------------------------------------------------
                                   2398 	.area HOME    (CODE)
                                   2399 	.area GSINIT  (CODE)
                                   2400 	.area GSFINAL (CODE)
                                   2401 	.area GSINIT  (CODE)
                                   2402 ;	COMMON\easyax5043.c:60: volatile uint8_t __data axradio_mode = AXRADIO_MODE_UNINIT;
      000391 75 0B 00         [24] 2403 	mov	_axradio_mode,#0x00
                                   2404 ;	COMMON\easyax5043.c:61: volatile axradio_trxstate_t __data axradio_trxstate = trxstate_off;
      000394 75 0C 00         [24] 2405 	mov	_axradio_trxstate,#0x00
                                   2406 ;--------------------------------------------------------
                                   2407 ; Home
                                   2408 ;--------------------------------------------------------
                                   2409 	.area HOME    (CODE)
                                   2410 	.area HOME    (CODE)
                                   2411 ;--------------------------------------------------------
                                   2412 ; code
                                   2413 ;--------------------------------------------------------
                                   2414 	.area CSEG    (CODE)
                                   2415 ;------------------------------------------------------------
                                   2416 ;Allocation info for local variables in function 'update_timeanchor'
                                   2417 ;------------------------------------------------------------
                                   2418 ;iesave                    Allocated to registers r7 
                                   2419 ;------------------------------------------------------------
                                   2420 ;	COMMON\easyax5043.c:239: static __reentrantb void update_timeanchor(void) __reentrant
                                   2421 ;	-----------------------------------------
                                   2422 ;	 function update_timeanchor
                                   2423 ;	-----------------------------------------
      001B43                       2424 _update_timeanchor:
                           000007  2425 	ar7 = 0x07
                           000006  2426 	ar6 = 0x06
                           000005  2427 	ar5 = 0x05
                           000004  2428 	ar4 = 0x04
                           000003  2429 	ar3 = 0x03
                           000002  2430 	ar2 = 0x02
                           000001  2431 	ar1 = 0x01
                           000000  2432 	ar0 = 0x00
                                   2433 ;	COMMON\easyax5043.c:241: uint8_t iesave = IE & 0x80;
      001B43 74 80            [12] 2434 	mov	a,#0x80
      001B45 55 A8            [12] 2435 	anl	a,_IE
      001B47 FF               [12] 2436 	mov	r7,a
                                   2437 ;	COMMON\easyax5043.c:242: EA = 0;
      001B48 C2 AF            [12] 2438 	clr	_EA
                                   2439 ;	COMMON\easyax5043.c:243: axradio_timeanchor.timer0 = wtimer0_curtime();
      001B4A C0 07            [24] 2440 	push	ar7
      001B4C 12 7D B7         [24] 2441 	lcall	_wtimer0_curtime
      001B4F AB 82            [24] 2442 	mov	r3,dpl
      001B51 AC 83            [24] 2443 	mov	r4,dph
      001B53 AD F0            [24] 2444 	mov	r5,b
      001B55 FE               [12] 2445 	mov	r6,a
      001B56 D0 07            [24] 2446 	pop	ar7
      001B58 90 00 B8         [24] 2447 	mov	dptr,#_axradio_timeanchor
      001B5B EB               [12] 2448 	mov	a,r3
      001B5C F0               [24] 2449 	movx	@dptr,a
      001B5D EC               [12] 2450 	mov	a,r4
      001B5E A3               [24] 2451 	inc	dptr
      001B5F F0               [24] 2452 	movx	@dptr,a
      001B60 ED               [12] 2453 	mov	a,r5
      001B61 A3               [24] 2454 	inc	dptr
      001B62 F0               [24] 2455 	movx	@dptr,a
      001B63 EE               [12] 2456 	mov	a,r6
      001B64 A3               [24] 2457 	inc	dptr
      001B65 F0               [24] 2458 	movx	@dptr,a
                                   2459 ;	COMMON\easyax5043.c:244: axradio_timeanchor.radiotimer = radio_read24((uint16_t)&AX5043_TIMER2);
      001B66 7D 59            [12] 2460 	mov	r5,#_AX5043_TIMER2
      001B68 7E 40            [12] 2461 	mov	r6,#(_AX5043_TIMER2 >> 8)
      001B6A 8D 82            [24] 2462 	mov	dpl,r5
      001B6C 8E 83            [24] 2463 	mov	dph,r6
      001B6E 12 6D E5         [24] 2464 	lcall	_radio_read24
      001B71 AB 82            [24] 2465 	mov	r3,dpl
      001B73 AC 83            [24] 2466 	mov	r4,dph
      001B75 AD F0            [24] 2467 	mov	r5,b
      001B77 FE               [12] 2468 	mov	r6,a
      001B78 90 00 BC         [24] 2469 	mov	dptr,#(_axradio_timeanchor + 0x0004)
      001B7B EB               [12] 2470 	mov	a,r3
      001B7C F0               [24] 2471 	movx	@dptr,a
      001B7D EC               [12] 2472 	mov	a,r4
      001B7E A3               [24] 2473 	inc	dptr
      001B7F F0               [24] 2474 	movx	@dptr,a
      001B80 ED               [12] 2475 	mov	a,r5
      001B81 A3               [24] 2476 	inc	dptr
      001B82 F0               [24] 2477 	movx	@dptr,a
      001B83 EE               [12] 2478 	mov	a,r6
      001B84 A3               [24] 2479 	inc	dptr
      001B85 F0               [24] 2480 	movx	@dptr,a
                                   2481 ;	COMMON\easyax5043.c:245: IE |= iesave;
      001B86 EF               [12] 2482 	mov	a,r7
      001B87 42 A8            [12] 2483 	orl	_IE,a
      001B89 22               [24] 2484 	ret
                                   2485 ;------------------------------------------------------------
                                   2486 ;Allocation info for local variables in function 'axradio_conv_time_totimer0'
                                   2487 ;------------------------------------------------------------
                                   2488 ;dt                        Allocated to registers r4 r5 r6 r7 
                                   2489 ;------------------------------------------------------------
                                   2490 ;	COMMON\easyax5043.c:248: __reentrantb uint32_t axradio_conv_time_totimer0(uint32_t dt) __reentrant
                                   2491 ;	-----------------------------------------
                                   2492 ;	 function axradio_conv_time_totimer0
                                   2493 ;	-----------------------------------------
      001B8A                       2494 _axradio_conv_time_totimer0:
      001B8A AC 82            [24] 2495 	mov	r4,dpl
      001B8C AD 83            [24] 2496 	mov	r5,dph
      001B8E AE F0            [24] 2497 	mov	r6,b
      001B90 FF               [12] 2498 	mov	r7,a
                                   2499 ;	COMMON\easyax5043.c:250: dt -= axradio_timeanchor.radiotimer;
      001B91 90 00 BC         [24] 2500 	mov	dptr,#(_axradio_timeanchor + 0x0004)
      001B94 E0               [24] 2501 	movx	a,@dptr
      001B95 F8               [12] 2502 	mov	r0,a
      001B96 A3               [24] 2503 	inc	dptr
      001B97 E0               [24] 2504 	movx	a,@dptr
      001B98 F9               [12] 2505 	mov	r1,a
      001B99 A3               [24] 2506 	inc	dptr
      001B9A E0               [24] 2507 	movx	a,@dptr
      001B9B FA               [12] 2508 	mov	r2,a
      001B9C A3               [24] 2509 	inc	dptr
      001B9D E0               [24] 2510 	movx	a,@dptr
      001B9E FB               [12] 2511 	mov	r3,a
      001B9F EC               [12] 2512 	mov	a,r4
      001BA0 C3               [12] 2513 	clr	c
      001BA1 98               [12] 2514 	subb	a,r0
      001BA2 FC               [12] 2515 	mov	r4,a
      001BA3 ED               [12] 2516 	mov	a,r5
      001BA4 99               [12] 2517 	subb	a,r1
      001BA5 FD               [12] 2518 	mov	r5,a
      001BA6 EE               [12] 2519 	mov	a,r6
      001BA7 9A               [12] 2520 	subb	a,r2
      001BA8 FE               [12] 2521 	mov	r6,a
      001BA9 EF               [12] 2522 	mov	a,r7
      001BAA 9B               [12] 2523 	subb	a,r3
                                   2524 ;	COMMON\easyax5043.c:251: dt = axradio_conv_timeinterval_totimer0(signextend24(dt));
      001BAB 8C 82            [24] 2525 	mov	dpl,r4
      001BAD 8D 83            [24] 2526 	mov	dph,r5
      001BAF 8E F0            [24] 2527 	mov	b,r6
      001BB1 12 7D 9E         [24] 2528 	lcall	_signextend24
      001BB4 12 17 78         [24] 2529 	lcall	_axradio_conv_timeinterval_totimer0
      001BB7 AC 82            [24] 2530 	mov	r4,dpl
      001BB9 AD 83            [24] 2531 	mov	r5,dph
      001BBB AE F0            [24] 2532 	mov	r6,b
      001BBD FF               [12] 2533 	mov	r7,a
                                   2534 ;	COMMON\easyax5043.c:252: dt += axradio_timeanchor.timer0;
      001BBE 90 00 B8         [24] 2535 	mov	dptr,#_axradio_timeanchor
      001BC1 E0               [24] 2536 	movx	a,@dptr
      001BC2 F8               [12] 2537 	mov	r0,a
      001BC3 A3               [24] 2538 	inc	dptr
      001BC4 E0               [24] 2539 	movx	a,@dptr
      001BC5 F9               [12] 2540 	mov	r1,a
      001BC6 A3               [24] 2541 	inc	dptr
      001BC7 E0               [24] 2542 	movx	a,@dptr
      001BC8 FA               [12] 2543 	mov	r2,a
      001BC9 A3               [24] 2544 	inc	dptr
      001BCA E0               [24] 2545 	movx	a,@dptr
      001BCB FB               [12] 2546 	mov	r3,a
      001BCC E8               [12] 2547 	mov	a,r0
      001BCD 2C               [12] 2548 	add	a,r4
      001BCE FC               [12] 2549 	mov	r4,a
      001BCF E9               [12] 2550 	mov	a,r1
      001BD0 3D               [12] 2551 	addc	a,r5
      001BD1 FD               [12] 2552 	mov	r5,a
      001BD2 EA               [12] 2553 	mov	a,r2
      001BD3 3E               [12] 2554 	addc	a,r6
      001BD4 FE               [12] 2555 	mov	r6,a
      001BD5 EB               [12] 2556 	mov	a,r3
      001BD6 3F               [12] 2557 	addc	a,r7
                                   2558 ;	COMMON\easyax5043.c:253: return dt;
      001BD7 8C 82            [24] 2559 	mov	dpl,r4
      001BD9 8D 83            [24] 2560 	mov	dph,r5
      001BDB 8E F0            [24] 2561 	mov	b,r6
      001BDD 22               [24] 2562 	ret
                                   2563 ;------------------------------------------------------------
                                   2564 ;Allocation info for local variables in function 'ax5043_init_registers_common'
                                   2565 ;------------------------------------------------------------
                                   2566 ;rng                       Allocated to registers r7 
                                   2567 ;------------------------------------------------------------
                                   2568 ;	COMMON\easyax5043.c:256: static __reentrantb uint8_t ax5043_init_registers_common(void) __reentrant
                                   2569 ;	-----------------------------------------
                                   2570 ;	 function ax5043_init_registers_common
                                   2571 ;	-----------------------------------------
      001BDE                       2572 _ax5043_init_registers_common:
                                   2573 ;	COMMON\easyax5043.c:258: uint8_t rng = axradio_phy_chanpllrng[axradio_curchannel];
      001BDE 90 00 AB         [24] 2574 	mov	dptr,#_axradio_curchannel
      001BE1 E0               [24] 2575 	movx	a,@dptr
      001BE2 24 A0            [12] 2576 	add	a,#_axradio_phy_chanpllrng
      001BE4 F5 82            [12] 2577 	mov	dpl,a
      001BE6 E4               [12] 2578 	clr	a
      001BE7 34 00            [12] 2579 	addc	a,#(_axradio_phy_chanpllrng >> 8)
      001BE9 F5 83            [12] 2580 	mov	dph,a
      001BEB E0               [24] 2581 	movx	a,@dptr
                                   2582 ;	COMMON\easyax5043.c:259: if (rng & 0x20)
      001BEC FF               [12] 2583 	mov	r7,a
      001BED 30 E5 04         [24] 2584 	jnb	acc.5,00102$
                                   2585 ;	COMMON\easyax5043.c:260: return AXRADIO_ERR_RANGING;
      001BF0 75 82 06         [24] 2586 	mov	dpl,#0x06
      001BF3 22               [24] 2587 	ret
      001BF4                       2588 00102$:
                                   2589 ;	COMMON\easyax5043.c:261: if (AX5043_PLLLOOP & 0x80) {
      001BF4 90 40 30         [24] 2590 	mov	dptr,#_AX5043_PLLLOOP
      001BF7 E0               [24] 2591 	movx	a,@dptr
      001BF8 FE               [12] 2592 	mov	r6,a
      001BF9 30 E7 09         [24] 2593 	jnb	acc.7,00104$
                                   2594 ;	COMMON\easyax5043.c:262: AX5043_PLLRANGINGB = rng & 0x0F;
      001BFC 90 40 3B         [24] 2595 	mov	dptr,#_AX5043_PLLRANGINGB
      001BFF 74 0F            [12] 2596 	mov	a,#0x0f
      001C01 5F               [12] 2597 	anl	a,r7
      001C02 F0               [24] 2598 	movx	@dptr,a
      001C03 80 07            [24] 2599 	sjmp	00105$
      001C05                       2600 00104$:
                                   2601 ;	COMMON\easyax5043.c:264: AX5043_PLLRANGINGA = rng & 0x0F;
      001C05 90 40 33         [24] 2602 	mov	dptr,#_AX5043_PLLRANGINGA
      001C08 74 0F            [12] 2603 	mov	a,#0x0f
      001C0A 5F               [12] 2604 	anl	a,r7
      001C0B F0               [24] 2605 	movx	@dptr,a
      001C0C                       2606 00105$:
                                   2607 ;	COMMON\easyax5043.c:266: rng = axradio_get_pllvcoi();
      001C0C 12 46 48         [24] 2608 	lcall	_axradio_get_pllvcoi
      001C0F AE 82            [24] 2609 	mov	r6,dpl
      001C11 8E 07            [24] 2610 	mov	ar7,r6
                                   2611 ;	COMMON\easyax5043.c:267: if (rng & 0x80)
      001C13 EF               [12] 2612 	mov	a,r7
      001C14 30 E7 05         [24] 2613 	jnb	acc.7,00107$
                                   2614 ;	COMMON\easyax5043.c:268: AX5043_PLLVCOI = rng;
      001C17 90 41 80         [24] 2615 	mov	dptr,#_AX5043_PLLVCOI
      001C1A EF               [12] 2616 	mov	a,r7
      001C1B F0               [24] 2617 	movx	@dptr,a
      001C1C                       2618 00107$:
                                   2619 ;	COMMON\easyax5043.c:269: return AXRADIO_ERR_NOERROR;
      001C1C 75 82 00         [24] 2620 	mov	dpl,#0x00
      001C1F 22               [24] 2621 	ret
                                   2622 ;------------------------------------------------------------
                                   2623 ;Allocation info for local variables in function 'ax5043_init_registers_tx'
                                   2624 ;------------------------------------------------------------
                                   2625 ;	COMMON\easyax5043.c:272: __reentrantb uint8_t ax5043_init_registers_tx(void) __reentrant
                                   2626 ;	-----------------------------------------
                                   2627 ;	 function ax5043_init_registers_tx
                                   2628 ;	-----------------------------------------
      001C20                       2629 _ax5043_init_registers_tx:
                                   2630 ;	COMMON\easyax5043.c:274: ax5043_set_registers_tx();
      001C20 12 15 24         [24] 2631 	lcall	_ax5043_set_registers_tx
                                   2632 ;	COMMON\easyax5043.c:275: return ax5043_init_registers_common();
      001C23 02 1B DE         [24] 2633 	ljmp	_ax5043_init_registers_common
                                   2634 ;------------------------------------------------------------
                                   2635 ;Allocation info for local variables in function 'ax5043_init_registers_rx'
                                   2636 ;------------------------------------------------------------
                                   2637 ;	COMMON\easyax5043.c:278: __reentrantb uint8_t ax5043_init_registers_rx(void) __reentrant
                                   2638 ;	-----------------------------------------
                                   2639 ;	 function ax5043_init_registers_rx
                                   2640 ;	-----------------------------------------
      001C26                       2641 _ax5043_init_registers_rx:
                                   2642 ;	COMMON\easyax5043.c:280: ax5043_set_registers_rx();
      001C26 12 15 48         [24] 2643 	lcall	_ax5043_set_registers_rx
                                   2644 ;	COMMON\easyax5043.c:281: return ax5043_init_registers_common();
      001C29 02 1B DE         [24] 2645 	ljmp	_ax5043_init_registers_common
                                   2646 ;------------------------------------------------------------
                                   2647 ;Allocation info for local variables in function 'receive_isr'
                                   2648 ;------------------------------------------------------------
                                   2649 ;fifo_cmd                  Allocated to registers r6 
                                   2650 ;flags                     Allocated to registers 
                                   2651 ;i                         Allocated to registers r6 
                                   2652 ;len                       Allocated to registers r7 
                                   2653 ;r                         Allocated to registers r6 
                                   2654 ;r                         Allocated to registers r6 
                                   2655 ;r                         Allocated to registers r6 
                                   2656 ;BeaconRx                  Allocated with name '_receive_isr_BeaconRx_1_245'
                                   2657 ;------------------------------------------------------------
                                   2658 ;	COMMON\easyax5043.c:284: static __reentrantb void receive_isr(void) __reentrant
                                   2659 ;	-----------------------------------------
                                   2660 ;	 function receive_isr
                                   2661 ;	-----------------------------------------
      001C2C                       2662 _receive_isr:
                                   2663 ;	COMMON\easyax5043.c:288: uint8_t len = AX5043_RADIOEVENTREQ0; // clear request so interrupt does not fire again. sync_rx enables interrupt on radio state changed in order to wake up on SDF detected
      001C2C 90 40 0F         [24] 2664 	mov	dptr,#_AX5043_RADIOEVENTREQ0
      001C2F E0               [24] 2665 	movx	a,@dptr
      001C30 FF               [12] 2666 	mov	r7,a
                                   2667 ;	COMMON\easyax5043.c:290: dbglink_writestr(" receive_isr ");
      001C31 90 80 EB         [24] 2668 	mov	dptr,#___str_0
      001C34 75 F0 80         [24] 2669 	mov	b,#0x80
      001C37 C0 07            [24] 2670 	push	ar7
      001C39 12 74 0A         [24] 2671 	lcall	_dbglink_writestr
      001C3C D0 07            [24] 2672 	pop	ar7
                                   2673 ;	COMMON\easyax5043.c:291: if ((len & 0x04) && AX5043_RADIOSTATE == 0x0F) {
      001C3E EF               [12] 2674 	mov	a,r7
      001C3F 30 E2 51         [24] 2675 	jnb	acc.2,00169$
      001C42 90 40 1C         [24] 2676 	mov	dptr,#_AX5043_RADIOSTATE
      001C45 E0               [24] 2677 	movx	a,@dptr
      001C46 FE               [12] 2678 	mov	r6,a
      001C47 BE 0F 49         [24] 2679 	cjne	r6,#0x0f,00169$
                                   2680 ;	COMMON\easyax5043.c:293: dbglink_writestr(" time anchor ");
      001C4A 90 80 F9         [24] 2681 	mov	dptr,#___str_1
      001C4D 75 F0 80         [24] 2682 	mov	b,#0x80
      001C50 12 74 0A         [24] 2683 	lcall	_dbglink_writestr
                                   2684 ;	COMMON\easyax5043.c:294: update_timeanchor();
      001C53 12 1B 43         [24] 2685 	lcall	_update_timeanchor
                                   2686 ;	COMMON\easyax5043.c:295: if(axradio_framing_enable_sfdcallback)
      001C56 90 7F F9         [24] 2687 	mov	dptr,#_axradio_framing_enable_sfdcallback
      001C59 E4               [12] 2688 	clr	a
      001C5A 93               [24] 2689 	movc	a,@a+dptr
      001C5B 60 36            [24] 2690 	jz	00169$
                                   2691 ;	COMMON\easyax5043.c:297: dbglink_writestr(" enable_sfdcallback ");
      001C5D 90 81 07         [24] 2692 	mov	dptr,#___str_2
      001C60 75 F0 80         [24] 2693 	mov	b,#0x80
      001C63 12 74 0A         [24] 2694 	lcall	_dbglink_writestr
                                   2695 ;	COMMON\easyax5043.c:298: wtimer_remove_callback(&axradio_cb_receivesfd.cb);
      001C66 90 02 F6         [24] 2696 	mov	dptr,#_axradio_cb_receivesfd
      001C69 12 78 A9         [24] 2697 	lcall	_wtimer_remove_callback
                                   2698 ;	COMMON\easyax5043.c:299: axradio_cb_receivesfd.st.error = AXRADIO_ERR_NOERROR;
      001C6C 90 02 FB         [24] 2699 	mov	dptr,#(_axradio_cb_receivesfd + 0x0005)
      001C6F E4               [12] 2700 	clr	a
      001C70 F0               [24] 2701 	movx	@dptr,a
                                   2702 ;	COMMON\easyax5043.c:300: axradio_cb_receivesfd.st.time.t = axradio_timeanchor.radiotimer;
      001C71 90 00 BC         [24] 2703 	mov	dptr,#(_axradio_timeanchor + 0x0004)
      001C74 E0               [24] 2704 	movx	a,@dptr
      001C75 FB               [12] 2705 	mov	r3,a
      001C76 A3               [24] 2706 	inc	dptr
      001C77 E0               [24] 2707 	movx	a,@dptr
      001C78 FC               [12] 2708 	mov	r4,a
      001C79 A3               [24] 2709 	inc	dptr
      001C7A E0               [24] 2710 	movx	a,@dptr
      001C7B FD               [12] 2711 	mov	r5,a
      001C7C A3               [24] 2712 	inc	dptr
      001C7D E0               [24] 2713 	movx	a,@dptr
      001C7E FE               [12] 2714 	mov	r6,a
      001C7F 90 02 FC         [24] 2715 	mov	dptr,#(_axradio_cb_receivesfd + 0x0006)
      001C82 EB               [12] 2716 	mov	a,r3
      001C83 F0               [24] 2717 	movx	@dptr,a
      001C84 EC               [12] 2718 	mov	a,r4
      001C85 A3               [24] 2719 	inc	dptr
      001C86 F0               [24] 2720 	movx	@dptr,a
      001C87 ED               [12] 2721 	mov	a,r5
      001C88 A3               [24] 2722 	inc	dptr
      001C89 F0               [24] 2723 	movx	@dptr,a
      001C8A EE               [12] 2724 	mov	a,r6
      001C8B A3               [24] 2725 	inc	dptr
      001C8C F0               [24] 2726 	movx	@dptr,a
                                   2727 ;	COMMON\easyax5043.c:301: wtimer_add_callback(&axradio_cb_receivesfd.cb);
      001C8D 90 02 F6         [24] 2728 	mov	dptr,#_axradio_cb_receivesfd
      001C90 12 6C C3         [24] 2729 	lcall	_wtimer_add_callback
                                   2730 ;	COMMON\easyax5043.c:313: while (AX5043_IRQREQUEST0 & 0x01) {    // while fifo not empty
      001C93                       2731 00169$:
      001C93                       2732 00153$:
      001C93 90 40 0D         [24] 2733 	mov	dptr,#_AX5043_IRQREQUEST0
      001C96 E0               [24] 2734 	movx	a,@dptr
      001C97 FE               [12] 2735 	mov	r6,a
      001C98 20 E0 01         [24] 2736 	jb	acc.0,00250$
      001C9B 22               [24] 2737 	ret
      001C9C                       2738 00250$:
                                   2739 ;	COMMON\easyax5043.c:315: fifo_cmd = AX5043_FIFODATA; // read command
      001C9C 90 40 29         [24] 2740 	mov	dptr,#_AX5043_FIFODATA
      001C9F E0               [24] 2741 	movx	a,@dptr
      001CA0 FE               [12] 2742 	mov	r6,a
                                   2743 ;	COMMON\easyax5043.c:316: len = (fifo_cmd & 0xE0) >> 5; // top 3 bits encode payload len
      001CA1 74 E0            [12] 2744 	mov	a,#0xe0
      001CA3 5E               [12] 2745 	anl	a,r6
      001CA4 FD               [12] 2746 	mov	r5,a
      001CA5 C4               [12] 2747 	swap	a
      001CA6 03               [12] 2748 	rr	a
      001CA7 54 07            [12] 2749 	anl	a,#0x07
      001CA9 FF               [12] 2750 	mov	r7,a
                                   2751 ;	COMMON\easyax5043.c:317: if (len == 7)
      001CAA BF 07 06         [24] 2752 	cjne	r7,#0x07,00107$
                                   2753 ;	COMMON\easyax5043.c:318: len = AX5043_FIFODATA; // 7 means variable length, -> get length byte
      001CAD 90 40 29         [24] 2754 	mov	dptr,#_AX5043_FIFODATA
      001CB0 E0               [24] 2755 	movx	a,@dptr
      001CB1 FD               [12] 2756 	mov	r5,a
      001CB2 FF               [12] 2757 	mov	r7,a
      001CB3                       2758 00107$:
                                   2759 ;	COMMON\easyax5043.c:319: fifo_cmd &= 0x1F;
      001CB3 53 06 1F         [24] 2760 	anl	ar6,#0x1f
                                   2761 ;	COMMON\easyax5043.c:320: switch (fifo_cmd) {
      001CB6 BE 01 02         [24] 2762 	cjne	r6,#0x01,00253$
      001CB9 80 21            [24] 2763 	sjmp	00108$
      001CBB                       2764 00253$:
      001CBB BE 10 03         [24] 2765 	cjne	r6,#0x10,00254$
      001CBE 02 1F 28         [24] 2766 	ljmp	00139$
      001CC1                       2767 00254$:
      001CC1 BE 11 03         [24] 2768 	cjne	r6,#0x11,00255$
      001CC4 02 1E FB         [24] 2769 	ljmp	00136$
      001CC7                       2770 00255$:
      001CC7 BE 12 03         [24] 2771 	cjne	r6,#0x12,00256$
      001CCA 02 1E AB         [24] 2772 	ljmp	00132$
      001CCD                       2773 00256$:
      001CCD BE 13 03         [24] 2774 	cjne	r6,#0x13,00257$
      001CD0 02 1E 64         [24] 2775 	ljmp	00128$
      001CD3                       2776 00257$:
      001CD3 BE 15 03         [24] 2777 	cjne	r6,#0x15,00258$
      001CD6 02 1F 51         [24] 2778 	ljmp	00142$
      001CD9                       2779 00258$:
      001CD9 02 1F C9         [24] 2780 	ljmp	00146$
                                   2781 ;	COMMON\easyax5043.c:321: case AX5043_FIFOCMD_DATA:
      001CDC                       2782 00108$:
                                   2783 ;	COMMON\easyax5043.c:323: if (!len)
      001CDC EF               [12] 2784 	mov	a,r7
      001CDD 60 B4            [24] 2785 	jz	00153$
                                   2786 ;	COMMON\easyax5043.c:326: flags = AX5043_FIFODATA;
      001CDF 90 40 29         [24] 2787 	mov	dptr,#_AX5043_FIFODATA
      001CE2 E0               [24] 2788 	movx	a,@dptr
                                   2789 ;	COMMON\easyax5043.c:327: --len;
      001CE3 1F               [12] 2790 	dec	r7
                                   2791 ;	COMMON\easyax5043.c:328: ax5043_readfifo(axradio_rxbuffer, len);
      001CE4 C0 07            [24] 2792 	push	ar7
      001CE6 C0 07            [24] 2793 	push	ar7
      001CE8 90 01 D0         [24] 2794 	mov	dptr,#_axradio_rxbuffer
      001CEB 75 F0 00         [24] 2795 	mov	b,#0x00
      001CEE 12 76 40         [24] 2796 	lcall	_ax5043_readfifo
      001CF1 15 81            [12] 2797 	dec	sp
      001CF3 D0 07            [24] 2798 	pop	ar7
                                   2799 ;	COMMON\easyax5043.c:329: if(axradio_mode == AXRADIO_MODE_WOR_RECEIVE || axradio_mode == AXRADIO_MODE_WOR_ACK_RECEIVE)
      001CF5 74 21            [12] 2800 	mov	a,#0x21
      001CF7 B5 0B 02         [24] 2801 	cjne	a,_axradio_mode,00260$
      001CFA 80 05            [24] 2802 	sjmp	00111$
      001CFC                       2803 00260$:
      001CFC 74 23            [12] 2804 	mov	a,#0x23
      001CFE B5 0B 21         [24] 2805 	cjne	a,_axradio_mode,00112$
      001D01                       2806 00111$:
                                   2807 ;	COMMON\easyax5043.c:331: f30_saved = AX5043_0xF30;
      001D01 90 4F 30         [24] 2808 	mov	dptr,#_AX5043_0xF30
      001D04 E0               [24] 2809 	movx	a,@dptr
      001D05 90 09 A5         [24] 2810 	mov	dptr,#_f30_saved
      001D08 F0               [24] 2811 	movx	@dptr,a
                                   2812 ;	COMMON\easyax5043.c:332: f31_saved = AX5043_0xF31;
      001D09 90 4F 31         [24] 2813 	mov	dptr,#_AX5043_0xF31
      001D0C E0               [24] 2814 	movx	a,@dptr
      001D0D 90 09 A6         [24] 2815 	mov	dptr,#_f31_saved
      001D10 F0               [24] 2816 	movx	@dptr,a
                                   2817 ;	COMMON\easyax5043.c:333: f32_saved = AX5043_0xF32;
      001D11 90 4F 32         [24] 2818 	mov	dptr,#_AX5043_0xF32
      001D14 E0               [24] 2819 	movx	a,@dptr
      001D15 90 09 A7         [24] 2820 	mov	dptr,#_f32_saved
      001D18 F0               [24] 2821 	movx	@dptr,a
                                   2822 ;	COMMON\easyax5043.c:334: f33_saved = AX5043_0xF33;
      001D19 90 4F 33         [24] 2823 	mov	dptr,#_AX5043_0xF33
      001D1C E0               [24] 2824 	movx	a,@dptr
      001D1D FE               [12] 2825 	mov	r6,a
      001D1E 90 09 A8         [24] 2826 	mov	dptr,#_f33_saved
      001D21 F0               [24] 2827 	movx	@dptr,a
      001D22                       2828 00112$:
                                   2829 ;	COMMON\easyax5043.c:336: if (axradio_mode == AXRADIO_MODE_WOR_RECEIVE ||
      001D22 74 21            [12] 2830 	mov	a,#0x21
      001D24 B5 0B 02         [24] 2831 	cjne	a,_axradio_mode,00263$
      001D27 80 05            [24] 2832 	sjmp	00114$
      001D29                       2833 00263$:
                                   2834 ;	COMMON\easyax5043.c:337: axradio_mode == AXRADIO_MODE_SYNC_SLAVE)
      001D29 74 32            [12] 2835 	mov	a,#0x32
      001D2B B5 0B 05         [24] 2836 	cjne	a,_axradio_mode,00115$
      001D2E                       2837 00114$:
                                   2838 ;	COMMON\easyax5043.c:338: AX5043_PWRMODE = AX5043_PWRSTATE_POWERDOWN;
      001D2E 90 40 02         [24] 2839 	mov	dptr,#_AX5043_PWRMODE
      001D31 E4               [12] 2840 	clr	a
      001D32 F0               [24] 2841 	movx	@dptr,a
      001D33                       2842 00115$:
                                   2843 ;	COMMON\easyax5043.c:339: AX5043_IRQMASK0 &= (uint8_t)~0x01; // disable FIFO not empty irq
      001D33 90 40 07         [24] 2844 	mov	dptr,#_AX5043_IRQMASK0
      001D36 E0               [24] 2845 	movx	a,@dptr
      001D37 FE               [12] 2846 	mov	r6,a
      001D38 74 FE            [12] 2847 	mov	a,#0xfe
      001D3A 5E               [12] 2848 	anl	a,r6
      001D3B F0               [24] 2849 	movx	@dptr,a
                                   2850 ;	COMMON\easyax5043.c:340: wtimer_remove_callback(&axradio_cb_receive.cb);
      001D3C 90 02 D4         [24] 2851 	mov	dptr,#_axradio_cb_receive
      001D3F C0 07            [24] 2852 	push	ar7
      001D41 12 78 A9         [24] 2853 	lcall	_wtimer_remove_callback
      001D44 D0 07            [24] 2854 	pop	ar7
                                   2855 ;	COMMON\easyax5043.c:341: axradio_cb_receive.st.error = AXRADIO_ERR_NOERROR;
      001D46 90 02 D9         [24] 2856 	mov	dptr,#(_axradio_cb_receive + 0x0005)
      001D49 E4               [12] 2857 	clr	a
      001D4A F0               [24] 2858 	movx	@dptr,a
                                   2859 ;	COMMON\easyax5043.c:343: axradio_cb_receive.st.rx.mac.raw = axradio_rxbuffer;
      001D4B 90 02 F0         [24] 2860 	mov	dptr,#(_axradio_cb_receive + 0x001c)
      001D4E 74 D0            [12] 2861 	mov	a,#_axradio_rxbuffer
      001D50 F0               [24] 2862 	movx	@dptr,a
      001D51 74 01            [12] 2863 	mov	a,#(_axradio_rxbuffer >> 8)
      001D53 A3               [24] 2864 	inc	dptr
      001D54 F0               [24] 2865 	movx	@dptr,a
                                   2866 ;	COMMON\easyax5043.c:344: if (AXRADIO_MODE_IS_STREAM_RECEIVE(axradio_mode)) {
      001D55 74 F8            [12] 2867 	mov	a,#0xf8
      001D57 55 0B            [12] 2868 	anl	a,_axradio_mode
      001D59 FE               [12] 2869 	mov	r6,a
      001D5A BE 28 02         [24] 2870 	cjne	r6,#0x28,00266$
      001D5D 80 03            [24] 2871 	sjmp	00267$
      001D5F                       2872 00266$:
      001D5F 02 1D F5         [24] 2873 	ljmp	00121$
      001D62                       2874 00267$:
                                   2875 ;	COMMON\easyax5043.c:345: axradio_cb_receive.st.rx.pktdata = axradio_rxbuffer;
      001D62 90 02 F2         [24] 2876 	mov	dptr,#(_axradio_cb_receive + 0x001e)
      001D65 74 D0            [12] 2877 	mov	a,#_axradio_rxbuffer
      001D67 F0               [24] 2878 	movx	@dptr,a
      001D68 74 01            [12] 2879 	mov	a,#(_axradio_rxbuffer >> 8)
      001D6A A3               [24] 2880 	inc	dptr
      001D6B F0               [24] 2881 	movx	@dptr,a
                                   2882 ;	COMMON\easyax5043.c:346: axradio_cb_receive.st.rx.pktlen = len;
      001D6C 8F 05            [24] 2883 	mov	ar5,r7
      001D6E 7E 00            [12] 2884 	mov	r6,#0x00
      001D70 90 02 F4         [24] 2885 	mov	dptr,#(_axradio_cb_receive + 0x0020)
      001D73 ED               [12] 2886 	mov	a,r5
      001D74 F0               [24] 2887 	movx	@dptr,a
      001D75 EE               [12] 2888 	mov	a,r6
      001D76 A3               [24] 2889 	inc	dptr
      001D77 F0               [24] 2890 	movx	@dptr,a
                                   2891 ;	COMMON\easyax5043.c:348: int8_t r = AX5043_RSSI;
      001D78 90 40 40         [24] 2892 	mov	dptr,#_AX5043_RSSI
      001D7B E0               [24] 2893 	movx	a,@dptr
                                   2894 ;	COMMON\easyax5043.c:349: axradio_cb_receive.st.rx.phy.rssi = r - (int16_t)axradio_phy_rssioffset;
      001D7C FE               [12] 2895 	mov	r6,a
      001D7D 33               [12] 2896 	rlc	a
      001D7E 95 E0            [12] 2897 	subb	a,acc
      001D80 FD               [12] 2898 	mov	r5,a
      001D81 90 7F D7         [24] 2899 	mov	dptr,#_axradio_phy_rssioffset
      001D84 E4               [12] 2900 	clr	a
      001D85 93               [24] 2901 	movc	a,@a+dptr
      001D86 FC               [12] 2902 	mov	r4,a
      001D87 33               [12] 2903 	rlc	a
      001D88 95 E0            [12] 2904 	subb	a,acc
      001D8A FB               [12] 2905 	mov	r3,a
      001D8B EE               [12] 2906 	mov	a,r6
      001D8C C3               [12] 2907 	clr	c
      001D8D 9C               [12] 2908 	subb	a,r4
      001D8E FE               [12] 2909 	mov	r6,a
      001D8F ED               [12] 2910 	mov	a,r5
      001D90 9B               [12] 2911 	subb	a,r3
      001D91 FD               [12] 2912 	mov	r5,a
      001D92 90 02 DE         [24] 2913 	mov	dptr,#(_axradio_cb_receive + 0x000a)
      001D95 EE               [12] 2914 	mov	a,r6
      001D96 F0               [24] 2915 	movx	@dptr,a
      001D97 ED               [12] 2916 	mov	a,r5
      001D98 A3               [24] 2917 	inc	dptr
      001D99 F0               [24] 2918 	movx	@dptr,a
                                   2919 ;	COMMON\easyax5043.c:351: if (axradio_phy_innerfreqloop)
      001D9A 90 7F C9         [24] 2920 	mov	dptr,#_axradio_phy_innerfreqloop
      001D9D E4               [12] 2921 	clr	a
      001D9E 93               [24] 2922 	movc	a,@a+dptr
      001D9F 60 28            [24] 2923 	jz	00118$
                                   2924 ;	COMMON\easyax5043.c:352: axradio_cb_receive.st.rx.phy.offset.o = axradio_conv_freq_fromreg(signextend16(radio_read16((uint16_t)&AX5043_TRKFREQ1)));
      001DA1 7D 50            [12] 2925 	mov	r5,#_AX5043_TRKFREQ1
      001DA3 7E 40            [12] 2926 	mov	r6,#(_AX5043_TRKFREQ1 >> 8)
      001DA5 8D 82            [24] 2927 	mov	dpl,r5
      001DA7 8E 83            [24] 2928 	mov	dph,r6
      001DA9 12 6F 1E         [24] 2929 	lcall	_radio_read16
      001DAC 12 7D DE         [24] 2930 	lcall	_signextend16
      001DAF 12 17 26         [24] 2931 	lcall	_axradio_conv_freq_fromreg
      001DB2 AB 82            [24] 2932 	mov	r3,dpl
      001DB4 AC 83            [24] 2933 	mov	r4,dph
      001DB6 AD F0            [24] 2934 	mov	r5,b
      001DB8 FE               [12] 2935 	mov	r6,a
      001DB9 90 02 E0         [24] 2936 	mov	dptr,#(_axradio_cb_receive + 0x000c)
      001DBC EB               [12] 2937 	mov	a,r3
      001DBD F0               [24] 2938 	movx	@dptr,a
      001DBE EC               [12] 2939 	mov	a,r4
      001DBF A3               [24] 2940 	inc	dptr
      001DC0 F0               [24] 2941 	movx	@dptr,a
      001DC1 ED               [12] 2942 	mov	a,r5
      001DC2 A3               [24] 2943 	inc	dptr
      001DC3 F0               [24] 2944 	movx	@dptr,a
      001DC4 EE               [12] 2945 	mov	a,r6
      001DC5 A3               [24] 2946 	inc	dptr
      001DC6 F0               [24] 2947 	movx	@dptr,a
      001DC7 80 23            [24] 2948 	sjmp	00119$
      001DC9                       2949 00118$:
                                   2950 ;	COMMON\easyax5043.c:354: axradio_cb_receive.st.rx.phy.offset.o = signextend20(radio_read24((uint16_t)&AX5043_TRKRFFREQ2));
      001DC9 7D 4D            [12] 2951 	mov	r5,#_AX5043_TRKRFFREQ2
      001DCB 7E 40            [12] 2952 	mov	r6,#(_AX5043_TRKRFFREQ2 >> 8)
      001DCD 8D 82            [24] 2953 	mov	dpl,r5
      001DCF 8E 83            [24] 2954 	mov	dph,r6
      001DD1 12 6D E5         [24] 2955 	lcall	_radio_read24
      001DD4 12 7C 67         [24] 2956 	lcall	_signextend20
      001DD7 AB 82            [24] 2957 	mov	r3,dpl
      001DD9 AC 83            [24] 2958 	mov	r4,dph
      001DDB AD F0            [24] 2959 	mov	r5,b
      001DDD FE               [12] 2960 	mov	r6,a
      001DDE 90 02 E0         [24] 2961 	mov	dptr,#(_axradio_cb_receive + 0x000c)
      001DE1 EB               [12] 2962 	mov	a,r3
      001DE2 F0               [24] 2963 	movx	@dptr,a
      001DE3 EC               [12] 2964 	mov	a,r4
      001DE4 A3               [24] 2965 	inc	dptr
      001DE5 F0               [24] 2966 	movx	@dptr,a
      001DE6 ED               [12] 2967 	mov	a,r5
      001DE7 A3               [24] 2968 	inc	dptr
      001DE8 F0               [24] 2969 	movx	@dptr,a
      001DE9 EE               [12] 2970 	mov	a,r6
      001DEA A3               [24] 2971 	inc	dptr
      001DEB F0               [24] 2972 	movx	@dptr,a
      001DEC                       2973 00119$:
                                   2974 ;	COMMON\easyax5043.c:355: wtimer_add_callback(&axradio_cb_receive.cb);
      001DEC 90 02 D4         [24] 2975 	mov	dptr,#_axradio_cb_receive
      001DEF 12 6C C3         [24] 2976 	lcall	_wtimer_add_callback
                                   2977 ;	COMMON\easyax5043.c:356: break;
      001DF2 02 1C 93         [24] 2978 	ljmp	00153$
      001DF5                       2979 00121$:
                                   2980 ;	COMMON\easyax5043.c:358: axradio_cb_receive.st.rx.pktdata = &axradio_rxbuffer[axradio_framing_maclen];
      001DF5 90 7F EB         [24] 2981 	mov	dptr,#_axradio_framing_maclen
      001DF8 E4               [12] 2982 	clr	a
      001DF9 93               [24] 2983 	movc	a,@a+dptr
      001DFA FE               [12] 2984 	mov	r6,a
      001DFB 24 D0            [12] 2985 	add	a,#_axradio_rxbuffer
      001DFD FC               [12] 2986 	mov	r4,a
      001DFE E4               [12] 2987 	clr	a
      001DFF 34 01            [12] 2988 	addc	a,#(_axradio_rxbuffer >> 8)
      001E01 FD               [12] 2989 	mov	r5,a
      001E02 90 02 F2         [24] 2990 	mov	dptr,#(_axradio_cb_receive + 0x001e)
      001E05 EC               [12] 2991 	mov	a,r4
      001E06 F0               [24] 2992 	movx	@dptr,a
      001E07 ED               [12] 2993 	mov	a,r5
      001E08 A3               [24] 2994 	inc	dptr
      001E09 F0               [24] 2995 	movx	@dptr,a
                                   2996 ;	COMMON\easyax5043.c:359: if (len < axradio_framing_maclen) {
      001E0A C3               [12] 2997 	clr	c
      001E0B EF               [12] 2998 	mov	a,r7
      001E0C 9E               [12] 2999 	subb	a,r6
      001E0D 50 0B            [24] 3000 	jnc	00126$
                                   3001 ;	COMMON\easyax5043.c:360: len = 0;
      001E0F 7F 00            [12] 3002 	mov	r7,#0x00
                                   3003 ;	COMMON\easyax5043.c:361: axradio_cb_receive.st.rx.pktlen = 0;
      001E11 90 02 F4         [24] 3004 	mov	dptr,#(_axradio_cb_receive + 0x0020)
      001E14 E4               [12] 3005 	clr	a
      001E15 F0               [24] 3006 	movx	@dptr,a
      001E16 A3               [24] 3007 	inc	dptr
      001E17 F0               [24] 3008 	movx	@dptr,a
      001E18 80 2F            [24] 3009 	sjmp	00127$
      001E1A                       3010 00126$:
                                   3011 ;	COMMON\easyax5043.c:363: len -= axradio_framing_maclen;
      001E1A EF               [12] 3012 	mov	a,r7
      001E1B C3               [12] 3013 	clr	c
      001E1C 9E               [12] 3014 	subb	a,r6
                                   3015 ;	COMMON\easyax5043.c:364: axradio_cb_receive.st.rx.pktlen = len;
      001E1D FF               [12] 3016 	mov	r7,a
      001E1E FD               [12] 3017 	mov	r5,a
      001E1F 7E 00            [12] 3018 	mov	r6,#0x00
      001E21 90 02 F4         [24] 3019 	mov	dptr,#(_axradio_cb_receive + 0x0020)
      001E24 ED               [12] 3020 	mov	a,r5
      001E25 F0               [24] 3021 	movx	@dptr,a
      001E26 EE               [12] 3022 	mov	a,r6
      001E27 A3               [24] 3023 	inc	dptr
      001E28 F0               [24] 3024 	movx	@dptr,a
                                   3025 ;	COMMON\easyax5043.c:365: wtimer_add_callback(&axradio_cb_receive.cb);
      001E29 90 02 D4         [24] 3026 	mov	dptr,#_axradio_cb_receive
      001E2C C0 07            [24] 3027 	push	ar7
      001E2E 12 6C C3         [24] 3028 	lcall	_wtimer_add_callback
      001E31 D0 07            [24] 3029 	pop	ar7
                                   3030 ;	COMMON\easyax5043.c:366: if (axradio_mode == AXRADIO_MODE_SYNC_SLAVE ||
      001E33 74 32            [12] 3031 	mov	a,#0x32
      001E35 B5 0B 02         [24] 3032 	cjne	a,_axradio_mode,00270$
      001E38 80 05            [24] 3033 	sjmp	00122$
      001E3A                       3034 00270$:
                                   3035 ;	COMMON\easyax5043.c:367: axradio_mode == AXRADIO_MODE_SYNC_ACK_SLAVE)
      001E3A 74 33            [12] 3036 	mov	a,#0x33
      001E3C B5 0B 0A         [24] 3037 	cjne	a,_axradio_mode,00127$
      001E3F                       3038 00122$:
                                   3039 ;	COMMON\easyax5043.c:368: wtimer_remove(&axradio_timer);
      001E3F 90 03 2B         [24] 3040 	mov	dptr,#_axradio_timer
      001E42 C0 07            [24] 3041 	push	ar7
      001E44 12 76 94         [24] 3042 	lcall	_wtimer_remove
      001E47 D0 07            [24] 3043 	pop	ar7
      001E49                       3044 00127$:
                                   3045 ;	COMMON\easyax5043.c:370: BEACON_decoding(axradio_rxbuffer+3,&BeaconRx,len);
      001E49 90 03 72         [24] 3046 	mov	dptr,#_BEACON_decoding_PARM_2
      001E4C 74 33            [12] 3047 	mov	a,#_receive_isr_BeaconRx_1_245
      001E4E F0               [24] 3048 	movx	@dptr,a
      001E4F 74 03            [12] 3049 	mov	a,#(_receive_isr_BeaconRx_1_245 >> 8)
      001E51 A3               [24] 3050 	inc	dptr
      001E52 F0               [24] 3051 	movx	@dptr,a
      001E53 90 03 74         [24] 3052 	mov	dptr,#_BEACON_decoding_PARM_3
      001E56 EF               [12] 3053 	mov	a,r7
      001E57 F0               [24] 3054 	movx	@dptr,a
      001E58 90 01 D3         [24] 3055 	mov	dptr,#(_axradio_rxbuffer + 0x0003)
      001E5B 75 F0 00         [24] 3056 	mov	b,#0x00
      001E5E 12 4C 78         [24] 3057 	lcall	_BEACON_decoding
                                   3058 ;	COMMON\easyax5043.c:371: break;
      001E61 02 1C 93         [24] 3059 	ljmp	00153$
                                   3060 ;	COMMON\easyax5043.c:373: case AX5043_FIFOCMD_RFFREQOFFS:
      001E64                       3061 00128$:
                                   3062 ;	COMMON\easyax5043.c:374: if (axradio_phy_innerfreqloop || len != 3)
      001E64 90 7F C9         [24] 3063 	mov	dptr,#_axradio_phy_innerfreqloop
      001E67 E4               [12] 3064 	clr	a
      001E68 93               [24] 3065 	movc	a,@a+dptr
      001E69 60 03            [24] 3066 	jz	00273$
      001E6B 02 1F C9         [24] 3067 	ljmp	00146$
      001E6E                       3068 00273$:
      001E6E BF 03 02         [24] 3069 	cjne	r7,#0x03,00274$
      001E71 80 03            [24] 3070 	sjmp	00275$
      001E73                       3071 00274$:
      001E73 02 1F C9         [24] 3072 	ljmp	00146$
      001E76                       3073 00275$:
                                   3074 ;	COMMON\easyax5043.c:376: i = AX5043_FIFODATA;
      001E76 90 40 29         [24] 3075 	mov	dptr,#_AX5043_FIFODATA
      001E79 E0               [24] 3076 	movx	a,@dptr
      001E7A FE               [12] 3077 	mov	r6,a
                                   3078 ;	COMMON\easyax5043.c:377: i &= 0x0F;
      001E7B 53 06 0F         [24] 3079 	anl	ar6,#0x0f
                                   3080 ;	COMMON\easyax5043.c:378: i |= 1 + (uint8_t)~(i & 0x08);
      001E7E 74 08            [12] 3081 	mov	a,#0x08
      001E80 5E               [12] 3082 	anl	a,r6
      001E81 F4               [12] 3083 	cpl	a
      001E82 FD               [12] 3084 	mov	r5,a
      001E83 0D               [12] 3085 	inc	r5
      001E84 ED               [12] 3086 	mov	a,r5
      001E85 42 06            [12] 3087 	orl	ar6,a
                                   3088 ;	COMMON\easyax5043.c:379: axradio_cb_receive.st.rx.phy.offset.b.b3 = ((int8_t)i) >> 8;
      001E87 8E 05            [24] 3089 	mov	ar5,r6
      001E89 ED               [12] 3090 	mov	a,r5
      001E8A 33               [12] 3091 	rlc	a
      001E8B 95 E0            [12] 3092 	subb	a,acc
      001E8D FD               [12] 3093 	mov	r5,a
      001E8E 90 02 E3         [24] 3094 	mov	dptr,#(_axradio_cb_receive + 0x000f)
      001E91 F0               [24] 3095 	movx	@dptr,a
                                   3096 ;	COMMON\easyax5043.c:380: axradio_cb_receive.st.rx.phy.offset.b.b2 = i;
      001E92 90 02 E2         [24] 3097 	mov	dptr,#(_axradio_cb_receive + 0x000e)
      001E95 EE               [12] 3098 	mov	a,r6
      001E96 F0               [24] 3099 	movx	@dptr,a
                                   3100 ;	COMMON\easyax5043.c:381: axradio_cb_receive.st.rx.phy.offset.b.b1 = AX5043_FIFODATA;
      001E97 90 40 29         [24] 3101 	mov	dptr,#_AX5043_FIFODATA
      001E9A E0               [24] 3102 	movx	a,@dptr
      001E9B 90 02 E1         [24] 3103 	mov	dptr,#(_axradio_cb_receive + 0x000d)
      001E9E F0               [24] 3104 	movx	@dptr,a
                                   3105 ;	COMMON\easyax5043.c:382: axradio_cb_receive.st.rx.phy.offset.b.b0 = AX5043_FIFODATA;
      001E9F 90 40 29         [24] 3106 	mov	dptr,#_AX5043_FIFODATA
      001EA2 E0               [24] 3107 	movx	a,@dptr
      001EA3 FE               [12] 3108 	mov	r6,a
      001EA4 90 02 E0         [24] 3109 	mov	dptr,#(_axradio_cb_receive + 0x000c)
