                                      1 ;--------------------------------------------------------
                                      2 ; File Created by SDCC : free open source ANSI-C Compiler
                                      3 ; Version 3.6.0 #9615 (MINGW64)
                                      4 ;--------------------------------------------------------
                                      5 	.module Beacon
                                      6 	.optsdcc -mmcs51 --model-large
                                      7 	
                                      8 ;--------------------------------------------------------
                                      9 ; Public variables in this module
                                     10 ;--------------------------------------------------------
                                     11 	.globl _memcpy
                                     12 	.globl _BEACON_decoding_PARM_3
                                     13 	.globl _BEACON_decoding_PARM_2
                                     14 	.globl _BEACON_decoding
                                     15 ;--------------------------------------------------------
                                     16 ; special function registers
                                     17 ;--------------------------------------------------------
                                     18 	.area RSEG    (ABS,DATA)
      000000                         19 	.org 0x0000
                                     20 ;--------------------------------------------------------
                                     21 ; special function bits
                                     22 ;--------------------------------------------------------
                                     23 	.area RSEG    (ABS,DATA)
      000000                         24 	.org 0x0000
                                     25 ;--------------------------------------------------------
                                     26 ; overlayable register banks
                                     27 ;--------------------------------------------------------
                                     28 	.area REG_BANK_0	(REL,OVR,DATA)
      000000                         29 	.ds 8
                                     30 ;--------------------------------------------------------
                                     31 ; internal ram data
                                     32 ;--------------------------------------------------------
                                     33 	.area DSEG    (DATA)
      000000                         34 _BEACON_decoding_sloc0_1_0:
      000000                         35 	.ds 2
      000002                         36 _BEACON_decoding_sloc1_1_0:
      000002                         37 	.ds 2
      000004                         38 _BEACON_decoding_sloc2_1_0:
      000004                         39 	.ds 2
      000006                         40 _BEACON_decoding_sloc3_1_0:
      000006                         41 	.ds 3
      000009                         42 _BEACON_decoding_sloc4_1_0:
      000009                         43 	.ds 3
      00000C                         44 _BEACON_decoding_sloc5_1_0:
      00000C                         45 	.ds 4
                                     46 ;--------------------------------------------------------
                                     47 ; overlayable items in internal ram 
                                     48 ;--------------------------------------------------------
                                     49 ;--------------------------------------------------------
                                     50 ; indirectly addressable internal ram data
                                     51 ;--------------------------------------------------------
                                     52 	.area ISEG    (DATA)
                                     53 ;--------------------------------------------------------
                                     54 ; absolute internal ram data
                                     55 ;--------------------------------------------------------
                                     56 	.area IABS    (ABS,DATA)
                                     57 	.area IABS    (ABS,DATA)
                                     58 ;--------------------------------------------------------
                                     59 ; bit data
                                     60 ;--------------------------------------------------------
                                     61 	.area BSEG    (BIT)
                                     62 ;--------------------------------------------------------
                                     63 ; paged external ram data
                                     64 ;--------------------------------------------------------
                                     65 	.area PSEG    (PAG,XDATA)
                                     66 ;--------------------------------------------------------
                                     67 ; external ram data
                                     68 ;--------------------------------------------------------
                                     69 	.area XSEG    (XDATA)
      000000                         70 _BEACON_decoding_PARM_2:
      000000                         71 	.ds 2
      000002                         72 _BEACON_decoding_PARM_3:
      000002                         73 	.ds 1
      000003                         74 _BEACON_decoding_Rxbuffer_1_79:
      000003                         75 	.ds 3
                                     76 ;--------------------------------------------------------
                                     77 ; absolute external ram data
                                     78 ;--------------------------------------------------------
                                     79 	.area XABS    (ABS,XDATA)
                                     80 ;--------------------------------------------------------
                                     81 ; external initialized ram data
                                     82 ;--------------------------------------------------------
                                     83 	.area XISEG   (XDATA)
                                     84 	.area HOME    (CODE)
                                     85 	.area GSINIT0 (CODE)
                                     86 	.area GSINIT1 (CODE)
                                     87 	.area GSINIT2 (CODE)
                                     88 	.area GSINIT3 (CODE)
                                     89 	.area GSINIT4 (CODE)
                                     90 	.area GSINIT5 (CODE)
                                     91 	.area GSINIT  (CODE)
                                     92 	.area GSFINAL (CODE)
                                     93 	.area CSEG    (CODE)
                                     94 ;--------------------------------------------------------
                                     95 ; global & static initialisations
                                     96 ;--------------------------------------------------------
                                     97 	.area HOME    (CODE)
                                     98 	.area GSINIT  (CODE)
                                     99 	.area GSFINAL (CODE)
                                    100 	.area GSINIT  (CODE)
                                    101 ;--------------------------------------------------------
                                    102 ; Home
                                    103 ;--------------------------------------------------------
                                    104 	.area HOME    (CODE)
                                    105 	.area HOME    (CODE)
                                    106 ;--------------------------------------------------------
                                    107 ; code
                                    108 ;--------------------------------------------------------
                                    109 	.area CSEG    (CODE)
                                    110 ;------------------------------------------------------------
                                    111 ;Allocation info for local variables in function 'BEACON_decoding'
                                    112 ;------------------------------------------------------------
                                    113 ;sloc0                     Allocated with name '_BEACON_decoding_sloc0_1_0'
                                    114 ;sloc1                     Allocated with name '_BEACON_decoding_sloc1_1_0'
                                    115 ;sloc2                     Allocated with name '_BEACON_decoding_sloc2_1_0'
                                    116 ;sloc3                     Allocated with name '_BEACON_decoding_sloc3_1_0'
                                    117 ;sloc4                     Allocated with name '_BEACON_decoding_sloc4_1_0'
                                    118 ;sloc5                     Allocated with name '_BEACON_decoding_sloc5_1_0'
                                    119 ;beacon                    Allocated with name '_BEACON_decoding_PARM_2'
                                    120 ;length                    Allocated with name '_BEACON_decoding_PARM_3'
                                    121 ;Rxbuffer                  Allocated with name '_BEACON_decoding_Rxbuffer_1_79'
                                    122 ;i                         Allocated with name '_BEACON_decoding_i_1_80'
                                    123 ;------------------------------------------------------------
                                    124 ;	peripherals\Beacon.c:29: __xdata void BEACON_decoding(uint8_t* Rxbuffer, RF_beacon_t* beacon, uint8_t length)
                                    125 ;	-----------------------------------------
                                    126 ;	 function BEACON_decoding
                                    127 ;	-----------------------------------------
      000000                        128 _BEACON_decoding:
                           000007   129 	ar7 = 0x07
                           000006   130 	ar6 = 0x06
                           000005   131 	ar5 = 0x05
                           000004   132 	ar4 = 0x04
                           000003   133 	ar3 = 0x03
                           000002   134 	ar2 = 0x02
                           000001   135 	ar1 = 0x01
                           000000   136 	ar0 = 0x00
      000000 AF F0            [24]  137 	mov	r7,b
      000002 AE 83            [24]  138 	mov	r6,dph
      000004 E5 82            [12]  139 	mov	a,dpl
      000006 90r00r03         [24]  140 	mov	dptr,#_BEACON_decoding_Rxbuffer_1_79
      000009 F0               [24]  141 	movx	@dptr,a
      00000A EE               [12]  142 	mov	a,r6
      00000B A3               [24]  143 	inc	dptr
      00000C F0               [24]  144 	movx	@dptr,a
      00000D EF               [12]  145 	mov	a,r7
      00000E A3               [24]  146 	inc	dptr
      00000F F0               [24]  147 	movx	@dptr,a
                                    148 ;	peripherals\Beacon.c:32: beacon->FlagReceived = VALID_BEACON;
      000010 90r00r00         [24]  149 	mov	dptr,#_BEACON_decoding_PARM_2
      000013 E0               [24]  150 	movx	a,@dptr
      000014 F5*04            [12]  151 	mov	_BEACON_decoding_sloc2_1_0,a
      000016 A3               [24]  152 	inc	dptr
      000017 E0               [24]  153 	movx	a,@dptr
      000018 F5*05            [12]  154 	mov	(_BEACON_decoding_sloc2_1_0 + 1),a
      00001A 85*04 82         [24]  155 	mov	dpl,_BEACON_decoding_sloc2_1_0
      00001D 85*05 83         [24]  156 	mov	dph,(_BEACON_decoding_sloc2_1_0 + 1)
      000020 74 01            [12]  157 	mov	a,#0x01
      000022 F0               [24]  158 	movx	@dptr,a
                                    159 ;	peripherals\Beacon.c:33: if(length == 23)
      000023 90r00r02         [24]  160 	mov	dptr,#_BEACON_decoding_PARM_3
      000026 E0               [24]  161 	movx	a,@dptr
      000027 FD               [12]  162 	mov	r5,a
      000028 BD 17 02         [24]  163 	cjne	r5,#0x17,00118$
      00002B 80 03            [24]  164 	sjmp	00119$
      00002D                        165 00118$:
      00002D 02r04rEA         [24]  166 	ljmp	00108$
      000030                        167 00119$:
                                    168 ;	peripherals\Beacon.c:35: beacon->SatId = *Rxbuffer <<8 | *(Rxbuffer+1);
      000030 74 01            [12]  169 	mov	a,#0x01
      000032 25*04            [12]  170 	add	a,_BEACON_decoding_sloc2_1_0
      000034 F5*00            [12]  171 	mov	_BEACON_decoding_sloc0_1_0,a
      000036 E4               [12]  172 	clr	a
      000037 35*05            [12]  173 	addc	a,(_BEACON_decoding_sloc2_1_0 + 1)
      000039 F5*01            [12]  174 	mov	(_BEACON_decoding_sloc0_1_0 + 1),a
      00003B 90r00r03         [24]  175 	mov	dptr,#_BEACON_decoding_Rxbuffer_1_79
      00003E E0               [24]  176 	movx	a,@dptr
      00003F F9               [12]  177 	mov	r1,a
      000040 A3               [24]  178 	inc	dptr
      000041 E0               [24]  179 	movx	a,@dptr
      000042 FA               [12]  180 	mov	r2,a
      000043 A3               [24]  181 	inc	dptr
      000044 E0               [24]  182 	movx	a,@dptr
      000045 FB               [12]  183 	mov	r3,a
      000046 89 82            [24]  184 	mov	dpl,r1
      000048 8A 83            [24]  185 	mov	dph,r2
      00004A 8B F0            [24]  186 	mov	b,r3
      00004C 12r00r00         [24]  187 	lcall	__gptrget
      00004F F8               [12]  188 	mov	r0,a
      000050 7D 00            [12]  189 	mov	r5,#0x00
      000052 88*03            [24]  190 	mov	(_BEACON_decoding_sloc1_1_0 + 1),r0
                                    191 ;	1-genFromRTrack replaced	mov	_BEACON_decoding_sloc1_1_0,#0x00
      000054 8D*02            [24]  192 	mov	_BEACON_decoding_sloc1_1_0,r5
      000056 74 01            [12]  193 	mov	a,#0x01
      000058 29               [12]  194 	add	a,r1
      000059 F8               [12]  195 	mov	r0,a
      00005A E4               [12]  196 	clr	a
      00005B 3A               [12]  197 	addc	a,r2
      00005C FC               [12]  198 	mov	r4,a
      00005D 8B 05            [24]  199 	mov	ar5,r3
      00005F 88 82            [24]  200 	mov	dpl,r0
      000061 8C 83            [24]  201 	mov	dph,r4
      000063 8D F0            [24]  202 	mov	b,r5
      000065 12r00r00         [24]  203 	lcall	__gptrget
      000068 F8               [12]  204 	mov	r0,a
      000069 7D 00            [12]  205 	mov	r5,#0x00
      00006B E5*02            [12]  206 	mov	a,_BEACON_decoding_sloc1_1_0
      00006D 42 00            [12]  207 	orl	ar0,a
      00006F E5*03            [12]  208 	mov	a,(_BEACON_decoding_sloc1_1_0 + 1)
      000071 42 05            [12]  209 	orl	ar5,a
      000073 85*00 82         [24]  210 	mov	dpl,_BEACON_decoding_sloc0_1_0
      000076 85*01 83         [24]  211 	mov	dph,(_BEACON_decoding_sloc0_1_0 + 1)
      000079 E8               [12]  212 	mov	a,r0
      00007A F0               [24]  213 	movx	@dptr,a
      00007B ED               [12]  214 	mov	a,r5
      00007C A3               [24]  215 	inc	dptr
      00007D F0               [24]  216 	movx	@dptr,a
                                    217 ;	peripherals\Beacon.c:36: beacon->BeaconID = (*(Rxbuffer+POS_BEACONID) & MASK_BEACONID)>> 4;
      00007E 74 03            [12]  218 	mov	a,#0x03
      000080 25*04            [12]  219 	add	a,_BEACON_decoding_sloc2_1_0
      000082 FC               [12]  220 	mov	r4,a
      000083 E4               [12]  221 	clr	a
      000084 35*05            [12]  222 	addc	a,(_BEACON_decoding_sloc2_1_0 + 1)
      000086 FD               [12]  223 	mov	r5,a
      000087 74 02            [12]  224 	mov	a,#0x02
      000089 29               [12]  225 	add	a,r1
      00008A F8               [12]  226 	mov	r0,a
      00008B E4               [12]  227 	clr	a
      00008C 3A               [12]  228 	addc	a,r2
      00008D FE               [12]  229 	mov	r6,a
      00008E 8B 07            [24]  230 	mov	ar7,r3
      000090 88 82            [24]  231 	mov	dpl,r0
      000092 8E 83            [24]  232 	mov	dph,r6
      000094 8F F0            [24]  233 	mov	b,r7
      000096 12r00r00         [24]  234 	lcall	__gptrget
      000099 54 F0            [12]  235 	anl	a,#0xf0
      00009B C4               [12]  236 	swap	a
      00009C 54 0F            [12]  237 	anl	a,#0x0f
      00009E F8               [12]  238 	mov	r0,a
      00009F 8C 82            [24]  239 	mov	dpl,r4
      0000A1 8D 83            [24]  240 	mov	dph,r5
      0000A3 F0               [24]  241 	movx	@dptr,a
                                    242 ;	peripherals\Beacon.c:39: if(beacon->BeaconID == UPLINK_BEACON)
      0000A4 B8 0C 35         [24]  243 	cjne	r0,#0x0c,00105$
                                    244 ;	peripherals\Beacon.c:41: beacon->NumPremSlots = *(Rxbuffer+POS_NUMPREM);
      0000A7 74 04            [12]  245 	mov	a,#0x04
      0000A9 25*04            [12]  246 	add	a,_BEACON_decoding_sloc2_1_0
      0000AB F5*02            [12]  247 	mov	_BEACON_decoding_sloc1_1_0,a
      0000AD E4               [12]  248 	clr	a
      0000AE 35*05            [12]  249 	addc	a,(_BEACON_decoding_sloc2_1_0 + 1)
      0000B0 F5*03            [12]  250 	mov	(_BEACON_decoding_sloc1_1_0 + 1),a
      0000B2 74 03            [12]  251 	mov	a,#0x03
      0000B4 29               [12]  252 	add	a,r1
      0000B5 F8               [12]  253 	mov	r0,a
      0000B6 E4               [12]  254 	clr	a
      0000B7 3A               [12]  255 	addc	a,r2
      0000B8 FE               [12]  256 	mov	r6,a
      0000B9 8B 07            [24]  257 	mov	ar7,r3
      0000BB 88 82            [24]  258 	mov	dpl,r0
      0000BD 8E 83            [24]  259 	mov	dph,r6
      0000BF 8F F0            [24]  260 	mov	b,r7
      0000C1 12r00r00         [24]  261 	lcall	__gptrget
      0000C4 F8               [12]  262 	mov	r0,a
      0000C5 85*02 82         [24]  263 	mov	dpl,_BEACON_decoding_sloc1_1_0
      0000C8 85*03 83         [24]  264 	mov	dph,(_BEACON_decoding_sloc1_1_0 + 1)
      0000CB F0               [24]  265 	movx	@dptr,a
                                    266 ;	peripherals\Beacon.c:42: beacon->NumACK = 0xFF; //invalid data
      0000CC 85*04 82         [24]  267 	mov	dpl,_BEACON_decoding_sloc2_1_0
      0000CF 85*05 83         [24]  268 	mov	dph,(_BEACON_decoding_sloc2_1_0 + 1)
      0000D2 A3               [24]  269 	inc	dptr
      0000D3 A3               [24]  270 	inc	dptr
      0000D4 A3               [24]  271 	inc	dptr
      0000D5 A3               [24]  272 	inc	dptr
      0000D6 A3               [24]  273 	inc	dptr
      0000D7 74 FF            [12]  274 	mov	a,#0xff
      0000D9 F0               [24]  275 	movx	@dptr,a
      0000DA 80 34            [24]  276 	sjmp	00106$
      0000DC                        277 00105$:
                                    278 ;	peripherals\Beacon.c:43: }else if(beacon->BeaconID = DOWNLINK_BEACON)
      0000DC 8C 82            [24]  279 	mov	dpl,r4
      0000DE 8D 83            [24]  280 	mov	dph,r5
      0000E0 74 0A            [12]  281 	mov	a,#0x0a
      0000E2 F0               [24]  282 	movx	@dptr,a
                                    283 ;	peripherals\Beacon.c:45: beacon->NumACK = *(Rxbuffer+POS_NUMPREM);
      0000E3 03               [12]  284 	rr	a
      0000E4 25*04            [12]  285 	add	a,_BEACON_decoding_sloc2_1_0
      0000E6 FE               [12]  286 	mov	r6,a
      0000E7 E4               [12]  287 	clr	a
      0000E8 35*05            [12]  288 	addc	a,(_BEACON_decoding_sloc2_1_0 + 1)
      0000EA FF               [12]  289 	mov	r7,a
      0000EB 74 03            [12]  290 	mov	a,#0x03
      0000ED 29               [12]  291 	add	a,r1
      0000EE F8               [12]  292 	mov	r0,a
      0000EF E4               [12]  293 	clr	a
      0000F0 3A               [12]  294 	addc	a,r2
      0000F1 FC               [12]  295 	mov	r4,a
      0000F2 8B 05            [24]  296 	mov	ar5,r3
      0000F4 88 82            [24]  297 	mov	dpl,r0
      0000F6 8C 83            [24]  298 	mov	dph,r4
      0000F8 8D F0            [24]  299 	mov	b,r5
      0000FA 12r00r00         [24]  300 	lcall	__gptrget
      0000FD F8               [12]  301 	mov	r0,a
      0000FE 8E 82            [24]  302 	mov	dpl,r6
      000100 8F 83            [24]  303 	mov	dph,r7
      000102 F0               [24]  304 	movx	@dptr,a
                                    305 ;	peripherals\Beacon.c:46: beacon->NumPremSlots = 0xFF; //invalid data
      000103 85*04 82         [24]  306 	mov	dpl,_BEACON_decoding_sloc2_1_0
      000106 85*05 83         [24]  307 	mov	dph,(_BEACON_decoding_sloc2_1_0 + 1)
      000109 A3               [24]  308 	inc	dptr
      00010A A3               [24]  309 	inc	dptr
      00010B A3               [24]  310 	inc	dptr
      00010C A3               [24]  311 	inc	dptr
      00010D 74 FF            [12]  312 	mov	a,#0xff
      00010F F0               [24]  313 	movx	@dptr,a
                                    314 ;	peripherals\Beacon.c:49: else beacon->FlagReceived = INVALID_BEACON;
      000110                        315 00106$:
                                    316 ;	peripherals\Beacon.c:51: beacon->HMAC_flag =(*(Rxbuffer+POS_SECURITY) & MASK_HMAC_FLAG)>>7;
      000110 74 06            [12]  317 	mov	a,#0x06
      000112 25*04            [12]  318 	add	a,_BEACON_decoding_sloc2_1_0
      000114 F5*02            [12]  319 	mov	_BEACON_decoding_sloc1_1_0,a
      000116 E4               [12]  320 	clr	a
      000117 35*05            [12]  321 	addc	a,(_BEACON_decoding_sloc2_1_0 + 1)
      000119 F5*03            [12]  322 	mov	(_BEACON_decoding_sloc1_1_0 + 1),a
      00011B 74 04            [12]  323 	mov	a,#0x04
      00011D 29               [12]  324 	add	a,r1
      00011E F8               [12]  325 	mov	r0,a
      00011F E4               [12]  326 	clr	a
      000120 3A               [12]  327 	addc	a,r2
      000121 FC               [12]  328 	mov	r4,a
      000122 8B 05            [24]  329 	mov	ar5,r3
      000124 88 82            [24]  330 	mov	dpl,r0
      000126 8C 83            [24]  331 	mov	dph,r4
      000128 8D F0            [24]  332 	mov	b,r5
      00012A 12r00r00         [24]  333 	lcall	__gptrget
      00012D 54 80            [12]  334 	anl	a,#0x80
      00012F 23               [12]  335 	rl	a
      000130 54 01            [12]  336 	anl	a,#0x01
      000132 85*02 82         [24]  337 	mov	dpl,_BEACON_decoding_sloc1_1_0
      000135 85*03 83         [24]  338 	mov	dph,(_BEACON_decoding_sloc1_1_0 + 1)
      000138 F0               [24]  339 	movx	@dptr,a
                                    340 ;	peripherals\Beacon.c:52: beacon->HMAC_type = (*(Rxbuffer+POS_SECURITY) & MASK_HMAC_TYPE)>>4;
      000139 74 07            [12]  341 	mov	a,#0x07
      00013B 25*04            [12]  342 	add	a,_BEACON_decoding_sloc2_1_0
      00013D F5*02            [12]  343 	mov	_BEACON_decoding_sloc1_1_0,a
      00013F E4               [12]  344 	clr	a
      000140 35*05            [12]  345 	addc	a,(_BEACON_decoding_sloc2_1_0 + 1)
      000142 F5*03            [12]  346 	mov	(_BEACON_decoding_sloc1_1_0 + 1),a
      000144 88 82            [24]  347 	mov	dpl,r0
      000146 8C 83            [24]  348 	mov	dph,r4
      000148 8D F0            [24]  349 	mov	b,r5
      00014A 12r00r00         [24]  350 	lcall	__gptrget
      00014D 54 70            [12]  351 	anl	a,#0x70
      00014F C4               [12]  352 	swap	a
      000150 54 0F            [12]  353 	anl	a,#0x0f
      000152 85*02 82         [24]  354 	mov	dpl,_BEACON_decoding_sloc1_1_0
      000155 85*03 83         [24]  355 	mov	dph,(_BEACON_decoding_sloc1_1_0 + 1)
      000158 F0               [24]  356 	movx	@dptr,a
                                    357 ;	peripherals\Beacon.c:53: beacon->Encryption_flag = (*(Rxbuffer+POS_SECURITY) & MASK_ENCRYPTION_FLAG)>>3;
      000159 74 08            [12]  358 	mov	a,#0x08
      00015B 25*04            [12]  359 	add	a,_BEACON_decoding_sloc2_1_0
      00015D F5*02            [12]  360 	mov	_BEACON_decoding_sloc1_1_0,a
      00015F E4               [12]  361 	clr	a
      000160 35*05            [12]  362 	addc	a,(_BEACON_decoding_sloc2_1_0 + 1)
      000162 F5*03            [12]  363 	mov	(_BEACON_decoding_sloc1_1_0 + 1),a
      000164 88 82            [24]  364 	mov	dpl,r0
      000166 8C 83            [24]  365 	mov	dph,r4
      000168 8D F0            [24]  366 	mov	b,r5
      00016A 12r00r00         [24]  367 	lcall	__gptrget
      00016D 54 08            [12]  368 	anl	a,#0x08
      00016F C4               [12]  369 	swap	a
      000170 23               [12]  370 	rl	a
      000171 54 1F            [12]  371 	anl	a,#0x1f
      000173 85*02 82         [24]  372 	mov	dpl,_BEACON_decoding_sloc1_1_0
      000176 85*03 83         [24]  373 	mov	dph,(_BEACON_decoding_sloc1_1_0 + 1)
      000179 F0               [24]  374 	movx	@dptr,a
                                    375 ;	peripherals\Beacon.c:54: beacon->Encryption_type = *(Rxbuffer+POS_SECURITY) & MASK_ENCRYPTION_TYPE;
      00017A 74 09            [12]  376 	mov	a,#0x09
      00017C 25*04            [12]  377 	add	a,_BEACON_decoding_sloc2_1_0
      00017E FE               [12]  378 	mov	r6,a
      00017F E4               [12]  379 	clr	a
      000180 35*05            [12]  380 	addc	a,(_BEACON_decoding_sloc2_1_0 + 1)
      000182 FF               [12]  381 	mov	r7,a
      000183 88 82            [24]  382 	mov	dpl,r0
      000185 8C 83            [24]  383 	mov	dph,r4
      000187 8D F0            [24]  384 	mov	b,r5
      000189 12r00r00         [24]  385 	lcall	__gptrget
      00018C F8               [12]  386 	mov	r0,a
      00018D 53 00 07         [24]  387 	anl	ar0,#0x07
      000190 8E 82            [24]  388 	mov	dpl,r6
      000192 8F 83            [24]  389 	mov	dph,r7
      000194 E8               [12]  390 	mov	a,r0
      000195 F0               [24]  391 	movx	@dptr,a
                                    392 ;	peripherals\Beacon.c:56: *(Rxbuffer+POS_NONCE)   = *(Rxbuffer+POS_NONCE) + *(Rxbuffer+POS_NONCE+1);
      000196 74 05            [12]  393 	mov	a,#0x05
      000198 29               [12]  394 	add	a,r1
      000199 F5*06            [12]  395 	mov	_BEACON_decoding_sloc3_1_0,a
      00019B E4               [12]  396 	clr	a
      00019C 3A               [12]  397 	addc	a,r2
      00019D F5*07            [12]  398 	mov	(_BEACON_decoding_sloc3_1_0 + 1),a
      00019F 8B*08            [24]  399 	mov	(_BEACON_decoding_sloc3_1_0 + 2),r3
      0001A1 85*06 82         [24]  400 	mov	dpl,_BEACON_decoding_sloc3_1_0
      0001A4 85*07 83         [24]  401 	mov	dph,(_BEACON_decoding_sloc3_1_0 + 1)
      0001A7 85*08 F0         [24]  402 	mov	b,(_BEACON_decoding_sloc3_1_0 + 2)
      0001AA 12r00r00         [24]  403 	lcall	__gptrget
      0001AD F5*02            [12]  404 	mov	_BEACON_decoding_sloc1_1_0,a
      0001AF 74 06            [12]  405 	mov	a,#0x06
      0001B1 29               [12]  406 	add	a,r1
      0001B2 F8               [12]  407 	mov	r0,a
      0001B3 E4               [12]  408 	clr	a
      0001B4 3A               [12]  409 	addc	a,r2
      0001B5 FC               [12]  410 	mov	r4,a
      0001B6 8B 07            [24]  411 	mov	ar7,r3
      0001B8 88 82            [24]  412 	mov	dpl,r0
      0001BA 8C 83            [24]  413 	mov	dph,r4
      0001BC 8F F0            [24]  414 	mov	b,r7
      0001BE 12r00r00         [24]  415 	lcall	__gptrget
      0001C1 25*02            [12]  416 	add	a,_BEACON_decoding_sloc1_1_0
      0001C3 FE               [12]  417 	mov	r6,a
      0001C4 85*06 82         [24]  418 	mov	dpl,_BEACON_decoding_sloc3_1_0
      0001C7 85*07 83         [24]  419 	mov	dph,(_BEACON_decoding_sloc3_1_0 + 1)
      0001CA 85*08 F0         [24]  420 	mov	b,(_BEACON_decoding_sloc3_1_0 + 2)
      0001CD 12r00r00         [24]  421 	lcall	__gptrput
                                    422 ;	peripherals\Beacon.c:57: *(Rxbuffer+POS_NONCE+1) = *(Rxbuffer+POS_NONCE) - *(Rxbuffer+POS_NONCE+1);
      0001D0 88 82            [24]  423 	mov	dpl,r0
      0001D2 8C 83            [24]  424 	mov	dph,r4
      0001D4 8F F0            [24]  425 	mov	b,r7
      0001D6 12r00r00         [24]  426 	lcall	__gptrget
      0001D9 FD               [12]  427 	mov	r5,a
      0001DA EE               [12]  428 	mov	a,r6
      0001DB C3               [12]  429 	clr	c
      0001DC 9D               [12]  430 	subb	a,r5
      0001DD FD               [12]  431 	mov	r5,a
      0001DE 88 82            [24]  432 	mov	dpl,r0
      0001E0 8C 83            [24]  433 	mov	dph,r4
      0001E2 8F F0            [24]  434 	mov	b,r7
      0001E4 12r00r00         [24]  435 	lcall	__gptrput
                                    436 ;	peripherals\Beacon.c:58: *(Rxbuffer+POS_NONCE)   = *(Rxbuffer+POS_NONCE) - *(Rxbuffer+POS_NONCE+1);
      0001E7 EE               [12]  437 	mov	a,r6
      0001E8 C3               [12]  438 	clr	c
      0001E9 9D               [12]  439 	subb	a,r5
      0001EA 85*06 82         [24]  440 	mov	dpl,_BEACON_decoding_sloc3_1_0
      0001ED 85*07 83         [24]  441 	mov	dph,(_BEACON_decoding_sloc3_1_0 + 1)
      0001F0 85*08 F0         [24]  442 	mov	b,(_BEACON_decoding_sloc3_1_0 + 2)
      0001F3 12r00r00         [24]  443 	lcall	__gptrput
                                    444 ;	peripherals\Beacon.c:60: memcpy(&beacon->Nonce,Rxbuffer+POS_NONCE,sizeof(uint16_t));
      0001F6 74 0A            [12]  445 	mov	a,#0x0a
      0001F8 25*04            [12]  446 	add	a,_BEACON_decoding_sloc2_1_0
      0001FA FE               [12]  447 	mov	r6,a
      0001FB E4               [12]  448 	clr	a
      0001FC 35*05            [12]  449 	addc	a,(_BEACON_decoding_sloc2_1_0 + 1)
      0001FE FF               [12]  450 	mov	r7,a
      0001FF 8E*09            [24]  451 	mov	_BEACON_decoding_sloc4_1_0,r6
      000201 8F*0A            [24]  452 	mov	(_BEACON_decoding_sloc4_1_0 + 1),r7
      000203 75*0B 00         [24]  453 	mov	(_BEACON_decoding_sloc4_1_0 + 2),#0x00
      000206 A8*06            [24]  454 	mov	r0,_BEACON_decoding_sloc3_1_0
      000208 AC*07            [24]  455 	mov	r4,(_BEACON_decoding_sloc3_1_0 + 1)
      00020A AF*08            [24]  456 	mov	r7,(_BEACON_decoding_sloc3_1_0 + 2)
      00020C 90r00r00         [24]  457 	mov	dptr,#_memcpy_PARM_2
      00020F E8               [12]  458 	mov	a,r0
      000210 F0               [24]  459 	movx	@dptr,a
      000211 EC               [12]  460 	mov	a,r4
      000212 A3               [24]  461 	inc	dptr
      000213 F0               [24]  462 	movx	@dptr,a
      000214 EF               [12]  463 	mov	a,r7
      000215 A3               [24]  464 	inc	dptr
      000216 F0               [24]  465 	movx	@dptr,a
      000217 90r00r00         [24]  466 	mov	dptr,#_memcpy_PARM_3
      00021A 74 02            [12]  467 	mov	a,#0x02
      00021C F0               [24]  468 	movx	@dptr,a
      00021D E4               [12]  469 	clr	a
      00021E A3               [24]  470 	inc	dptr
      00021F F0               [24]  471 	movx	@dptr,a
      000220 85*09 82         [24]  472 	mov	dpl,_BEACON_decoding_sloc4_1_0
      000223 85*0A 83         [24]  473 	mov	dph,(_BEACON_decoding_sloc4_1_0 + 1)
      000226 85*0B F0         [24]  474 	mov	b,(_BEACON_decoding_sloc4_1_0 + 2)
      000229 C0 03            [24]  475 	push	ar3
      00022B C0 02            [24]  476 	push	ar2
      00022D C0 01            [24]  477 	push	ar1
      00022F 12r00r00         [24]  478 	lcall	_memcpy
      000232 D0 01            [24]  479 	pop	ar1
      000234 D0 02            [24]  480 	pop	ar2
      000236 D0 03            [24]  481 	pop	ar3
                                    482 ;	peripherals\Beacon.c:62: memcpy(&beacon->reserved,Rxbuffer+POS_RESERVED,sizeof(uint8_t)*5);
      000238 74 0C            [12]  483 	mov	a,#0x0c
      00023A 25*04            [12]  484 	add	a,_BEACON_decoding_sloc2_1_0
      00023C FE               [12]  485 	mov	r6,a
      00023D E4               [12]  486 	clr	a
      00023E 35*05            [12]  487 	addc	a,(_BEACON_decoding_sloc2_1_0 + 1)
      000240 FF               [12]  488 	mov	r7,a
      000241 8E*09            [24]  489 	mov	_BEACON_decoding_sloc4_1_0,r6
      000243 8F*0A            [24]  490 	mov	(_BEACON_decoding_sloc4_1_0 + 1),r7
      000245 75*0B 00         [24]  491 	mov	(_BEACON_decoding_sloc4_1_0 + 2),#0x00
      000248 74 07            [12]  492 	mov	a,#0x07
      00024A 29               [12]  493 	add	a,r1
      00024B F8               [12]  494 	mov	r0,a
      00024C E4               [12]  495 	clr	a
      00024D 3A               [12]  496 	addc	a,r2
      00024E FC               [12]  497 	mov	r4,a
      00024F 8B 07            [24]  498 	mov	ar7,r3
      000251 90r00r00         [24]  499 	mov	dptr,#_memcpy_PARM_2
      000254 E8               [12]  500 	mov	a,r0
      000255 F0               [24]  501 	movx	@dptr,a
      000256 EC               [12]  502 	mov	a,r4
      000257 A3               [24]  503 	inc	dptr
      000258 F0               [24]  504 	movx	@dptr,a
      000259 EF               [12]  505 	mov	a,r7
      00025A A3               [24]  506 	inc	dptr
      00025B F0               [24]  507 	movx	@dptr,a
      00025C 90r00r00         [24]  508 	mov	dptr,#_memcpy_PARM_3
      00025F 74 05            [12]  509 	mov	a,#0x05
      000261 F0               [24]  510 	movx	@dptr,a
      000262 E4               [12]  511 	clr	a
      000263 A3               [24]  512 	inc	dptr
      000264 F0               [24]  513 	movx	@dptr,a
      000265 85*09 82         [24]  514 	mov	dpl,_BEACON_decoding_sloc4_1_0
      000268 85*0A 83         [24]  515 	mov	dph,(_BEACON_decoding_sloc4_1_0 + 1)
      00026B 85*0B F0         [24]  516 	mov	b,(_BEACON_decoding_sloc4_1_0 + 2)
      00026E C0 03            [24]  517 	push	ar3
      000270 C0 02            [24]  518 	push	ar2
      000272 C0 01            [24]  519 	push	ar1
      000274 12r00r00         [24]  520 	lcall	_memcpy
      000277 D0 01            [24]  521 	pop	ar1
      000279 D0 02            [24]  522 	pop	ar2
      00027B D0 03            [24]  523 	pop	ar3
                                    524 ;	peripherals\Beacon.c:64: beacon->CRC =  *(Rxbuffer+POS_CRC) <<8 | *(Rxbuffer+POS_CRC+1);
      00027D 74 11            [12]  525 	mov	a,#0x11
      00027F 25*04            [12]  526 	add	a,_BEACON_decoding_sloc2_1_0
      000281 F5*06            [12]  527 	mov	_BEACON_decoding_sloc3_1_0,a
      000283 E4               [12]  528 	clr	a
      000284 35*05            [12]  529 	addc	a,(_BEACON_decoding_sloc2_1_0 + 1)
      000286 F5*07            [12]  530 	mov	(_BEACON_decoding_sloc3_1_0 + 1),a
      000288 74 0C            [12]  531 	mov	a,#0x0c
      00028A 29               [12]  532 	add	a,r1
      00028B F8               [12]  533 	mov	r0,a
      00028C E4               [12]  534 	clr	a
      00028D 3A               [12]  535 	addc	a,r2
      00028E FC               [12]  536 	mov	r4,a
      00028F 8B 05            [24]  537 	mov	ar5,r3
      000291 88 82            [24]  538 	mov	dpl,r0
      000293 8C 83            [24]  539 	mov	dph,r4
      000295 8D F0            [24]  540 	mov	b,r5
      000297 12r00r00         [24]  541 	lcall	__gptrget
      00029A F8               [12]  542 	mov	r0,a
      00029B 7D 00            [12]  543 	mov	r5,#0x00
      00029D 88*0A            [24]  544 	mov	(_BEACON_decoding_sloc4_1_0 + 1),r0
                                    545 ;	1-genFromRTrack replaced	mov	_BEACON_decoding_sloc4_1_0,#0x00
      00029F 8D*09            [24]  546 	mov	_BEACON_decoding_sloc4_1_0,r5
      0002A1 74 0D            [12]  547 	mov	a,#0x0d
      0002A3 29               [12]  548 	add	a,r1
      0002A4 F8               [12]  549 	mov	r0,a
      0002A5 E4               [12]  550 	clr	a
      0002A6 3A               [12]  551 	addc	a,r2
      0002A7 FC               [12]  552 	mov	r4,a
      0002A8 8B 05            [24]  553 	mov	ar5,r3
      0002AA 88 82            [24]  554 	mov	dpl,r0
      0002AC 8C 83            [24]  555 	mov	dph,r4
      0002AE 8D F0            [24]  556 	mov	b,r5
      0002B0 12r00r00         [24]  557 	lcall	__gptrget
      0002B3 F8               [12]  558 	mov	r0,a
      0002B4 7D 00            [12]  559 	mov	r5,#0x00
      0002B6 E5*09            [12]  560 	mov	a,_BEACON_decoding_sloc4_1_0
      0002B8 42 00            [12]  561 	orl	ar0,a
      0002BA E5*0A            [12]  562 	mov	a,(_BEACON_decoding_sloc4_1_0 + 1)
      0002BC 42 05            [12]  563 	orl	ar5,a
      0002BE ED               [12]  564 	mov	a,r5
      0002BF FC               [12]  565 	mov	r4,a
      0002C0 33               [12]  566 	rlc	a
      0002C1 95 E0            [12]  567 	subb	a,acc
      0002C3 FD               [12]  568 	mov	r5,a
      0002C4 FF               [12]  569 	mov	r7,a
      0002C5 85*06 82         [24]  570 	mov	dpl,_BEACON_decoding_sloc3_1_0
      0002C8 85*07 83         [24]  571 	mov	dph,(_BEACON_decoding_sloc3_1_0 + 1)
      0002CB E8               [12]  572 	mov	a,r0
      0002CC F0               [24]  573 	movx	@dptr,a
      0002CD EC               [12]  574 	mov	a,r4
      0002CE A3               [24]  575 	inc	dptr
      0002CF F0               [24]  576 	movx	@dptr,a
      0002D0 ED               [12]  577 	mov	a,r5
      0002D1 A3               [24]  578 	inc	dptr
      0002D2 F0               [24]  579 	movx	@dptr,a
      0002D3 EF               [12]  580 	mov	a,r7
      0002D4 A3               [24]  581 	inc	dptr
      0002D5 F0               [24]  582 	movx	@dptr,a
                                    583 ;	peripherals\Beacon.c:65: beacon->CRC = beacon->CRC << 16;
      0002D6 8C*0F            [24]  584 	mov	(_BEACON_decoding_sloc5_1_0 + 3),r4
      0002D8 88*0E            [24]  585 	mov	(_BEACON_decoding_sloc5_1_0 + 2),r0
      0002DA 75*0D 00         [24]  586 	mov	(_BEACON_decoding_sloc5_1_0 + 1),#0x00
      0002DD 75*0C 00         [24]  587 	mov	_BEACON_decoding_sloc5_1_0,#0x00
      0002E0 85*06 82         [24]  588 	mov	dpl,_BEACON_decoding_sloc3_1_0
      0002E3 85*07 83         [24]  589 	mov	dph,(_BEACON_decoding_sloc3_1_0 + 1)
      0002E6 E5*0C            [12]  590 	mov	a,_BEACON_decoding_sloc5_1_0
      0002E8 F0               [24]  591 	movx	@dptr,a
      0002E9 E5*0D            [12]  592 	mov	a,(_BEACON_decoding_sloc5_1_0 + 1)
      0002EB A3               [24]  593 	inc	dptr
      0002EC F0               [24]  594 	movx	@dptr,a
      0002ED E5*0E            [12]  595 	mov	a,(_BEACON_decoding_sloc5_1_0 + 2)
      0002EF A3               [24]  596 	inc	dptr
      0002F0 F0               [24]  597 	movx	@dptr,a
      0002F1 E5*0F            [12]  598 	mov	a,(_BEACON_decoding_sloc5_1_0 + 3)
      0002F3 A3               [24]  599 	inc	dptr
      0002F4 F0               [24]  600 	movx	@dptr,a
                                    601 ;	peripherals\Beacon.c:66: beacon->CRC = beacon->CRC | *(Rxbuffer+POS_CRC+2)<<8 | *(Rxbuffer+POS_CRC+3);
      0002F5 74 0E            [12]  602 	mov	a,#0x0e
      0002F7 29               [12]  603 	add	a,r1
      0002F8 FD               [12]  604 	mov	r5,a
      0002F9 E4               [12]  605 	clr	a
      0002FA 3A               [12]  606 	addc	a,r2
      0002FB FE               [12]  607 	mov	r6,a
      0002FC 8B 07            [24]  608 	mov	ar7,r3
      0002FE 8D 82            [24]  609 	mov	dpl,r5
      000300 8E 83            [24]  610 	mov	dph,r6
      000302 8F F0            [24]  611 	mov	b,r7
      000304 12r00r00         [24]  612 	lcall	__gptrget
      000307 FF               [12]  613 	mov	r7,a
      000308 7D 00            [12]  614 	mov	r5,#0x00
      00030A 33               [12]  615 	rlc	a
      00030B 95 E0            [12]  616 	subb	a,acc
      00030D FE               [12]  617 	mov	r6,a
      00030E FC               [12]  618 	mov	r4,a
      00030F ED               [12]  619 	mov	a,r5
      000310 42*0C            [12]  620 	orl	_BEACON_decoding_sloc5_1_0,a
      000312 EF               [12]  621 	mov	a,r7
      000313 42*0D            [12]  622 	orl	(_BEACON_decoding_sloc5_1_0 + 1),a
      000315 EE               [12]  623 	mov	a,r6
      000316 42*0E            [12]  624 	orl	(_BEACON_decoding_sloc5_1_0 + 2),a
      000318 EC               [12]  625 	mov	a,r4
      000319 42*0F            [12]  626 	orl	(_BEACON_decoding_sloc5_1_0 + 3),a
      00031B 74 0F            [12]  627 	mov	a,#0x0f
      00031D 29               [12]  628 	add	a,r1
      00031E F8               [12]  629 	mov	r0,a
      00031F E4               [12]  630 	clr	a
      000320 3A               [12]  631 	addc	a,r2
      000321 FE               [12]  632 	mov	r6,a
      000322 8B 07            [24]  633 	mov	ar7,r3
      000324 88 82            [24]  634 	mov	dpl,r0
      000326 8E 83            [24]  635 	mov	dph,r6
      000328 8F F0            [24]  636 	mov	b,r7
      00032A 12r00r00         [24]  637 	lcall	__gptrget
      00032D F8               [12]  638 	mov	r0,a
      00032E E4               [12]  639 	clr	a
      00032F FF               [12]  640 	mov	r7,a
      000330 FE               [12]  641 	mov	r6,a
      000331 FD               [12]  642 	mov	r5,a
      000332 E5*0C            [12]  643 	mov	a,_BEACON_decoding_sloc5_1_0
      000334 42 00            [12]  644 	orl	ar0,a
      000336 E5*0D            [12]  645 	mov	a,(_BEACON_decoding_sloc5_1_0 + 1)
      000338 42 07            [12]  646 	orl	ar7,a
      00033A E5*0E            [12]  647 	mov	a,(_BEACON_decoding_sloc5_1_0 + 2)
      00033C 42 06            [12]  648 	orl	ar6,a
      00033E E5*0F            [12]  649 	mov	a,(_BEACON_decoding_sloc5_1_0 + 3)
      000340 42 05            [12]  650 	orl	ar5,a
      000342 85*06 82         [24]  651 	mov	dpl,_BEACON_decoding_sloc3_1_0
      000345 85*07 83         [24]  652 	mov	dph,(_BEACON_decoding_sloc3_1_0 + 1)
      000348 E8               [12]  653 	mov	a,r0
      000349 F0               [24]  654 	movx	@dptr,a
      00034A EF               [12]  655 	mov	a,r7
      00034B A3               [24]  656 	inc	dptr
      00034C F0               [24]  657 	movx	@dptr,a
      00034D EE               [12]  658 	mov	a,r6
      00034E A3               [24]  659 	inc	dptr
      00034F F0               [24]  660 	movx	@dptr,a
      000350 ED               [12]  661 	mov	a,r5
      000351 A3               [24]  662 	inc	dptr
      000352 F0               [24]  663 	movx	@dptr,a
                                    664 ;	peripherals\Beacon.c:68: beacon->HMAC_Msb = *(Rxbuffer+POS_HMAC_MSB)<<8 | *(Rxbuffer+POS_HMAC_MSB+1);
      000353 74 15            [12]  665 	mov	a,#0x15
      000355 25*04            [12]  666 	add	a,_BEACON_decoding_sloc2_1_0
      000357 F5*09            [12]  667 	mov	_BEACON_decoding_sloc4_1_0,a
      000359 E4               [12]  668 	clr	a
      00035A 35*05            [12]  669 	addc	a,(_BEACON_decoding_sloc2_1_0 + 1)
      00035C F5*0A            [12]  670 	mov	(_BEACON_decoding_sloc4_1_0 + 1),a
      00035E 74 10            [12]  671 	mov	a,#0x10
      000360 29               [12]  672 	add	a,r1
      000361 F8               [12]  673 	mov	r0,a
      000362 E4               [12]  674 	clr	a
      000363 3A               [12]  675 	addc	a,r2
      000364 FC               [12]  676 	mov	r4,a
      000365 8B 05            [24]  677 	mov	ar5,r3
      000367 88 82            [24]  678 	mov	dpl,r0
      000369 8C 83            [24]  679 	mov	dph,r4
      00036B 8D F0            [24]  680 	mov	b,r5
      00036D 12r00r00         [24]  681 	lcall	__gptrget
      000370 F8               [12]  682 	mov	r0,a
      000371 7D 00            [12]  683 	mov	r5,#0x00
      000373 88*0D            [24]  684 	mov	(_BEACON_decoding_sloc5_1_0 + 1),r0
                                    685 ;	1-genFromRTrack replaced	mov	_BEACON_decoding_sloc5_1_0,#0x00
      000375 8D*0C            [24]  686 	mov	_BEACON_decoding_sloc5_1_0,r5
      000377 74 11            [12]  687 	mov	a,#0x11
      000379 29               [12]  688 	add	a,r1
      00037A F8               [12]  689 	mov	r0,a
      00037B E4               [12]  690 	clr	a
      00037C 3A               [12]  691 	addc	a,r2
      00037D FC               [12]  692 	mov	r4,a
      00037E 8B 05            [24]  693 	mov	ar5,r3
      000380 88 82            [24]  694 	mov	dpl,r0
      000382 8C 83            [24]  695 	mov	dph,r4
      000384 8D F0            [24]  696 	mov	b,r5
      000386 12r00r00         [24]  697 	lcall	__gptrget
      000389 F8               [12]  698 	mov	r0,a
      00038A 7D 00            [12]  699 	mov	r5,#0x00
      00038C E5*0C            [12]  700 	mov	a,_BEACON_decoding_sloc5_1_0
      00038E 42 00            [12]  701 	orl	ar0,a
      000390 E5*0D            [12]  702 	mov	a,(_BEACON_decoding_sloc5_1_0 + 1)
      000392 42 05            [12]  703 	orl	ar5,a
      000394 ED               [12]  704 	mov	a,r5
      000395 FC               [12]  705 	mov	r4,a
      000396 33               [12]  706 	rlc	a
      000397 95 E0            [12]  707 	subb	a,acc
      000399 FD               [12]  708 	mov	r5,a
      00039A FF               [12]  709 	mov	r7,a
      00039B 85*09 82         [24]  710 	mov	dpl,_BEACON_decoding_sloc4_1_0
      00039E 85*0A 83         [24]  711 	mov	dph,(_BEACON_decoding_sloc4_1_0 + 1)
      0003A1 E8               [12]  712 	mov	a,r0
      0003A2 F0               [24]  713 	movx	@dptr,a
      0003A3 EC               [12]  714 	mov	a,r4
      0003A4 A3               [24]  715 	inc	dptr
      0003A5 F0               [24]  716 	movx	@dptr,a
      0003A6 ED               [12]  717 	mov	a,r5
      0003A7 A3               [24]  718 	inc	dptr
      0003A8 F0               [24]  719 	movx	@dptr,a
      0003A9 EF               [12]  720 	mov	a,r7
      0003AA A3               [24]  721 	inc	dptr
      0003AB F0               [24]  722 	movx	@dptr,a
                                    723 ;	peripherals\Beacon.c:69: beacon->HMAC_Msb = beacon->HMAC_Msb << 16;
      0003AC 8C*0F            [24]  724 	mov	(_BEACON_decoding_sloc5_1_0 + 3),r4
      0003AE 88*0E            [24]  725 	mov	(_BEACON_decoding_sloc5_1_0 + 2),r0
      0003B0 75*0D 00         [24]  726 	mov	(_BEACON_decoding_sloc5_1_0 + 1),#0x00
      0003B3 75*0C 00         [24]  727 	mov	_BEACON_decoding_sloc5_1_0,#0x00
      0003B6 85*09 82         [24]  728 	mov	dpl,_BEACON_decoding_sloc4_1_0
      0003B9 85*0A 83         [24]  729 	mov	dph,(_BEACON_decoding_sloc4_1_0 + 1)
      0003BC E5*0C            [12]  730 	mov	a,_BEACON_decoding_sloc5_1_0
      0003BE F0               [24]  731 	movx	@dptr,a
      0003BF E5*0D            [12]  732 	mov	a,(_BEACON_decoding_sloc5_1_0 + 1)
      0003C1 A3               [24]  733 	inc	dptr
      0003C2 F0               [24]  734 	movx	@dptr,a
      0003C3 E5*0E            [12]  735 	mov	a,(_BEACON_decoding_sloc5_1_0 + 2)
      0003C5 A3               [24]  736 	inc	dptr
      0003C6 F0               [24]  737 	movx	@dptr,a
      0003C7 E5*0F            [12]  738 	mov	a,(_BEACON_decoding_sloc5_1_0 + 3)
      0003C9 A3               [24]  739 	inc	dptr
      0003CA F0               [24]  740 	movx	@dptr,a
                                    741 ;	peripherals\Beacon.c:70: beacon->HMAC_Msb = beacon->HMAC_Msb | (*(Rxbuffer+POS_HMAC_MSB+2)<<8 | *(Rxbuffer+POS_HMAC_MSB+3) & 0x0000FFFF);
      0003CB 74 12            [12]  742 	mov	a,#0x12
      0003CD 29               [12]  743 	add	a,r1
      0003CE FD               [12]  744 	mov	r5,a
      0003CF E4               [12]  745 	clr	a
      0003D0 3A               [12]  746 	addc	a,r2
      0003D1 FE               [12]  747 	mov	r6,a
      0003D2 8B 07            [24]  748 	mov	ar7,r3
      0003D4 8D 82            [24]  749 	mov	dpl,r5
      0003D6 8E 83            [24]  750 	mov	dph,r6
      0003D8 8F F0            [24]  751 	mov	b,r7
      0003DA 12r00r00         [24]  752 	lcall	__gptrget
      0003DD FF               [12]  753 	mov	r7,a
      0003DE 7D 00            [12]  754 	mov	r5,#0x00
      0003E0 74 13            [12]  755 	mov	a,#0x13
      0003E2 29               [12]  756 	add	a,r1
      0003E3 F8               [12]  757 	mov	r0,a
      0003E4 E4               [12]  758 	clr	a
      0003E5 3A               [12]  759 	addc	a,r2
      0003E6 FC               [12]  760 	mov	r4,a
      0003E7 8B 06            [24]  761 	mov	ar6,r3
      0003E9 88 82            [24]  762 	mov	dpl,r0
      0003EB 8C 83            [24]  763 	mov	dph,r4
      0003ED 8E F0            [24]  764 	mov	b,r6
      0003EF 12r00r00         [24]  765 	lcall	__gptrget
      0003F2 FE               [12]  766 	mov	r6,a
      0003F3 78 00            [12]  767 	mov	r0,#0x00
      0003F5 ED               [12]  768 	mov	a,r5
      0003F6 42 06            [12]  769 	orl	ar6,a
      0003F8 EF               [12]  770 	mov	a,r7
      0003F9 42 00            [12]  771 	orl	ar0,a
      0003FB E4               [12]  772 	clr	a
      0003FC FF               [12]  773 	mov	r7,a
      0003FD FD               [12]  774 	mov	r5,a
      0003FE E5*0C            [12]  775 	mov	a,_BEACON_decoding_sloc5_1_0
      000400 42 06            [12]  776 	orl	ar6,a
      000402 E5*0D            [12]  777 	mov	a,(_BEACON_decoding_sloc5_1_0 + 1)
      000404 42 00            [12]  778 	orl	ar0,a
      000406 E5*0E            [12]  779 	mov	a,(_BEACON_decoding_sloc5_1_0 + 2)
      000408 42 07            [12]  780 	orl	ar7,a
      00040A E5*0F            [12]  781 	mov	a,(_BEACON_decoding_sloc5_1_0 + 3)
      00040C 42 05            [12]  782 	orl	ar5,a
      00040E 85*09 82         [24]  783 	mov	dpl,_BEACON_decoding_sloc4_1_0
      000411 85*0A 83         [24]  784 	mov	dph,(_BEACON_decoding_sloc4_1_0 + 1)
      000414 EE               [12]  785 	mov	a,r6
      000415 F0               [24]  786 	movx	@dptr,a
      000416 E8               [12]  787 	mov	a,r0
      000417 A3               [24]  788 	inc	dptr
      000418 F0               [24]  789 	movx	@dptr,a
      000419 EF               [12]  790 	mov	a,r7
      00041A A3               [24]  791 	inc	dptr
      00041B F0               [24]  792 	movx	@dptr,a
      00041C ED               [12]  793 	mov	a,r5
      00041D A3               [24]  794 	inc	dptr
      00041E F0               [24]  795 	movx	@dptr,a
                                    796 ;	peripherals\Beacon.c:72: beacon->HMAC_Lsb = *(Rxbuffer+POS_HMAC_LSB)<<8 | *(Rxbuffer+POS_HMAC_LSB+1);
      00041F 74 19            [12]  797 	mov	a,#0x19
      000421 25*04            [12]  798 	add	a,_BEACON_decoding_sloc2_1_0
      000423 F5*09            [12]  799 	mov	_BEACON_decoding_sloc4_1_0,a
      000425 E4               [12]  800 	clr	a
      000426 35*05            [12]  801 	addc	a,(_BEACON_decoding_sloc2_1_0 + 1)
      000428 F5*0A            [12]  802 	mov	(_BEACON_decoding_sloc4_1_0 + 1),a
      00042A 74 14            [12]  803 	mov	a,#0x14
      00042C 29               [12]  804 	add	a,r1
      00042D F8               [12]  805 	mov	r0,a
      00042E E4               [12]  806 	clr	a
      00042F 3A               [12]  807 	addc	a,r2
      000430 FC               [12]  808 	mov	r4,a
      000431 8B 05            [24]  809 	mov	ar5,r3
      000433 88 82            [24]  810 	mov	dpl,r0
      000435 8C 83            [24]  811 	mov	dph,r4
      000437 8D F0            [24]  812 	mov	b,r5
      000439 12r00r00         [24]  813 	lcall	__gptrget
      00043C F8               [12]  814 	mov	r0,a
      00043D 7D 00            [12]  815 	mov	r5,#0x00
      00043F 88*0D            [24]  816 	mov	(_BEACON_decoding_sloc5_1_0 + 1),r0
                                    817 ;	1-genFromRTrack replaced	mov	_BEACON_decoding_sloc5_1_0,#0x00
      000441 8D*0C            [24]  818 	mov	_BEACON_decoding_sloc5_1_0,r5
      000443 74 15            [12]  819 	mov	a,#0x15
      000445 29               [12]  820 	add	a,r1
      000446 F8               [12]  821 	mov	r0,a
      000447 E4               [12]  822 	clr	a
      000448 3A               [12]  823 	addc	a,r2
      000449 FC               [12]  824 	mov	r4,a
      00044A 8B 05            [24]  825 	mov	ar5,r3
      00044C 88 82            [24]  826 	mov	dpl,r0
      00044E 8C 83            [24]  827 	mov	dph,r4
      000450 8D F0            [24]  828 	mov	b,r5
      000452 12r00r00         [24]  829 	lcall	__gptrget
      000455 F8               [12]  830 	mov	r0,a
      000456 7D 00            [12]  831 	mov	r5,#0x00
      000458 E5*0C            [12]  832 	mov	a,_BEACON_decoding_sloc5_1_0
      00045A 42 00            [12]  833 	orl	ar0,a
      00045C E5*0D            [12]  834 	mov	a,(_BEACON_decoding_sloc5_1_0 + 1)
      00045E 42 05            [12]  835 	orl	ar5,a
      000460 ED               [12]  836 	mov	a,r5
      000461 FC               [12]  837 	mov	r4,a
      000462 33               [12]  838 	rlc	a
      000463 95 E0            [12]  839 	subb	a,acc
      000465 FD               [12]  840 	mov	r5,a
      000466 FF               [12]  841 	mov	r7,a
      000467 85*09 82         [24]  842 	mov	dpl,_BEACON_decoding_sloc4_1_0
      00046A 85*0A 83         [24]  843 	mov	dph,(_BEACON_decoding_sloc4_1_0 + 1)
      00046D E8               [12]  844 	mov	a,r0
      00046E F0               [24]  845 	movx	@dptr,a
      00046F EC               [12]  846 	mov	a,r4
      000470 A3               [24]  847 	inc	dptr
      000471 F0               [24]  848 	movx	@dptr,a
      000472 ED               [12]  849 	mov	a,r5
      000473 A3               [24]  850 	inc	dptr
      000474 F0               [24]  851 	movx	@dptr,a
      000475 EF               [12]  852 	mov	a,r7
      000476 A3               [24]  853 	inc	dptr
      000477 F0               [24]  854 	movx	@dptr,a
                                    855 ;	peripherals\Beacon.c:73: beacon->HMAC_Lsb = beacon->HMAC_Lsb << 16;
      000478 8C*0F            [24]  856 	mov	(_BEACON_decoding_sloc5_1_0 + 3),r4
      00047A 88*0E            [24]  857 	mov	(_BEACON_decoding_sloc5_1_0 + 2),r0
      00047C 75*0D 00         [24]  858 	mov	(_BEACON_decoding_sloc5_1_0 + 1),#0x00
      00047F 75*0C 00         [24]  859 	mov	_BEACON_decoding_sloc5_1_0,#0x00
      000482 85*09 82         [24]  860 	mov	dpl,_BEACON_decoding_sloc4_1_0
      000485 85*0A 83         [24]  861 	mov	dph,(_BEACON_decoding_sloc4_1_0 + 1)
      000488 E5*0C            [12]  862 	mov	a,_BEACON_decoding_sloc5_1_0
      00048A F0               [24]  863 	movx	@dptr,a
      00048B E5*0D            [12]  864 	mov	a,(_BEACON_decoding_sloc5_1_0 + 1)
      00048D A3               [24]  865 	inc	dptr
      00048E F0               [24]  866 	movx	@dptr,a
      00048F E5*0E            [12]  867 	mov	a,(_BEACON_decoding_sloc5_1_0 + 2)
      000491 A3               [24]  868 	inc	dptr
      000492 F0               [24]  869 	movx	@dptr,a
      000493 E5*0F            [12]  870 	mov	a,(_BEACON_decoding_sloc5_1_0 + 3)
      000495 A3               [24]  871 	inc	dptr
      000496 F0               [24]  872 	movx	@dptr,a
                                    873 ;	peripherals\Beacon.c:74: beacon->HMAC_Lsb = beacon->HMAC_Lsb | (*(Rxbuffer+POS_HMAC_LSB+2)<<8 | *(Rxbuffer+POS_HMAC_LSB+3) & 0x0000FFFF);
      000497 74 16            [12]  874 	mov	a,#0x16
      000499 29               [12]  875 	add	a,r1
      00049A FD               [12]  876 	mov	r5,a
      00049B E4               [12]  877 	clr	a
      00049C 3A               [12]  878 	addc	a,r2
      00049D FE               [12]  879 	mov	r6,a
      00049E 8B 07            [24]  880 	mov	ar7,r3
      0004A0 8D 82            [24]  881 	mov	dpl,r5
      0004A2 8E 83            [24]  882 	mov	dph,r6
      0004A4 8F F0            [24]  883 	mov	b,r7
      0004A6 12r00r00         [24]  884 	lcall	__gptrget
      0004A9 FF               [12]  885 	mov	r7,a
      0004AA 7D 00            [12]  886 	mov	r5,#0x00
      0004AC 74 17            [12]  887 	mov	a,#0x17
      0004AE 29               [12]  888 	add	a,r1
      0004AF F9               [12]  889 	mov	r1,a
      0004B0 E4               [12]  890 	clr	a
      0004B1 3A               [12]  891 	addc	a,r2
      0004B2 FA               [12]  892 	mov	r2,a
      0004B3 89 82            [24]  893 	mov	dpl,r1
      0004B5 8A 83            [24]  894 	mov	dph,r2
      0004B7 8B F0            [24]  895 	mov	b,r3
      0004B9 12r00r00         [24]  896 	lcall	__gptrget
      0004BC FE               [12]  897 	mov	r6,a
      0004BD 79 00            [12]  898 	mov	r1,#0x00
      0004BF ED               [12]  899 	mov	a,r5
      0004C0 42 06            [12]  900 	orl	ar6,a
      0004C2 EF               [12]  901 	mov	a,r7
      0004C3 42 01            [12]  902 	orl	ar1,a
      0004C5 E4               [12]  903 	clr	a
      0004C6 FF               [12]  904 	mov	r7,a
      0004C7 FD               [12]  905 	mov	r5,a
      0004C8 E5*0C            [12]  906 	mov	a,_BEACON_decoding_sloc5_1_0
      0004CA 42 06            [12]  907 	orl	ar6,a
      0004CC E5*0D            [12]  908 	mov	a,(_BEACON_decoding_sloc5_1_0 + 1)
      0004CE 42 01            [12]  909 	orl	ar1,a
      0004D0 E5*0E            [12]  910 	mov	a,(_BEACON_decoding_sloc5_1_0 + 2)
      0004D2 42 07            [12]  911 	orl	ar7,a
      0004D4 E5*0F            [12]  912 	mov	a,(_BEACON_decoding_sloc5_1_0 + 3)
      0004D6 42 05            [12]  913 	orl	ar5,a
      0004D8 85*09 82         [24]  914 	mov	dpl,_BEACON_decoding_sloc4_1_0
      0004DB 85*0A 83         [24]  915 	mov	dph,(_BEACON_decoding_sloc4_1_0 + 1)
      0004DE EE               [12]  916 	mov	a,r6
      0004DF F0               [24]  917 	movx	@dptr,a
      0004E0 E9               [12]  918 	mov	a,r1
      0004E1 A3               [24]  919 	inc	dptr
      0004E2 F0               [24]  920 	movx	@dptr,a
      0004E3 EF               [12]  921 	mov	a,r7
      0004E4 A3               [24]  922 	inc	dptr
      0004E5 F0               [24]  923 	movx	@dptr,a
      0004E6 ED               [12]  924 	mov	a,r5
      0004E7 A3               [24]  925 	inc	dptr
      0004E8 F0               [24]  926 	movx	@dptr,a
      0004E9 22               [24]  927 	ret
      0004EA                        928 00108$:
                                    929 ;	peripherals\Beacon.c:75: }else beacon->FlagReceived = INVALID_BEACON;
      0004EA 85*04 82         [24]  930 	mov	dpl,_BEACON_decoding_sloc2_1_0
      0004ED 85*05 83         [24]  931 	mov	dph,(_BEACON_decoding_sloc2_1_0 + 1)
      0004F0 E4               [12]  932 	clr	a
      0004F1 F0               [24]  933 	movx	@dptr,a
      0004F2 22               [24]  934 	ret
                                    935 	.area CSEG    (CODE)
                                    936 	.area CONST   (CODE)
                                    937 	.area XINIT   (CODE)
                                    938 	.area CABS    (ABS,CODE)
