                                      1 ;--------------------------------------------------------
                                      2 ; File Created by SDCC : free open source ANSI-C Compiler
                                      3 ; Version 3.6.0 #9615 (MINGW64)
                                      4 ;--------------------------------------------------------
                                      5 	.module config
                                      6 	.optsdcc -mmcs51 --model-large
                                      7 	
                                      8 ;--------------------------------------------------------
                                      9 ; Public variables in this module
                                     10 ;--------------------------------------------------------
                                     11 	.globl _axradio_sync_slave_rxtimeout
                                     12 	.globl _axradio_sync_slave_rxwindow
                                     13 	.globl _axradio_sync_slave_rxadvance
                                     14 	.globl _axradio_sync_slave_nrrx
                                     15 	.globl _axradio_sync_slave_resyncloss
                                     16 	.globl _axradio_sync_slave_maxperiod
                                     17 	.globl _axradio_sync_slave_syncpause
                                     18 	.globl _axradio_sync_slave_initialsyncwindow
                                     19 	.globl _axradio_sync_slave_syncwindow
                                     20 	.globl _axradio_sync_xoscstartup
                                     21 	.globl _axradio_sync_period
                                     22 	.globl _axradio_wor_period
                                     23 	.globl _axradio_framing_minpayloadlen
                                     24 	.globl _axradio_framing_ack_seqnrpos
                                     25 	.globl _axradio_framing_ack_retransmissions
                                     26 	.globl _axradio_framing_ack_delay
                                     27 	.globl _axradio_framing_ack_timeout
                                     28 	.globl _axradio_framing_enable_sfdcallback
                                     29 	.globl _axradio_framing_syncflags
                                     30 	.globl _axradio_framing_syncword
                                     31 	.globl _axradio_framing_synclen
                                     32 	.globl _axradio_framing_swcrclen
                                     33 	.globl _axradio_framing_lenmask
                                     34 	.globl _axradio_framing_lenoffs
                                     35 	.globl _axradio_framing_lenpos
                                     36 	.globl _axradio_framing_sourceaddrpos
                                     37 	.globl _axradio_framing_destaddrpos
                                     38 	.globl _axradio_framing_addrlen
                                     39 	.globl _axradio_framing_maclen
                                     40 	.globl _axradio_phy_preamble_appendpattern
                                     41 	.globl _axradio_phy_preamble_appendbits
                                     42 	.globl _axradio_phy_preamble_flags
                                     43 	.globl _axradio_phy_preamble_byte
                                     44 	.globl _axradio_phy_preamble_len
                                     45 	.globl _axradio_phy_preamble_longlen
                                     46 	.globl _axradio_phy_preamble_wor_len
                                     47 	.globl _axradio_phy_preamble_wor_longlen
                                     48 	.globl _axradio_phy_lbt_forcetx
                                     49 	.globl _axradio_phy_lbt_retries
                                     50 	.globl _axradio_phy_cs_enabled
                                     51 	.globl _axradio_phy_cs_period
                                     52 	.globl _axradio_phy_channelbusy
                                     53 	.globl _axradio_phy_rssireference
                                     54 	.globl _axradio_phy_rssioffset
                                     55 	.globl _axradio_phy_maxfreqoffset
                                     56 	.globl _axradio_phy_vcocalib
                                     57 	.globl _axradio_phy_chanvcoiinit
                                     58 	.globl _axradio_phy_chanpllrnginit
                                     59 	.globl _axradio_phy_chanfreq
                                     60 	.globl _axradio_phy_nrchannels
                                     61 	.globl _axradio_phy_pn9
                                     62 	.globl _axradio_phy_innerfreqloop
                                     63 	.globl _axradio_byteconv_buffer
                                     64 	.globl _axradio_byteconv
                                     65 	.globl _crc_crc32
                                     66 	.globl _PORTC_7
                                     67 	.globl _PORTC_6
                                     68 	.globl _PORTC_5
                                     69 	.globl _PORTC_4
                                     70 	.globl _PORTC_3
                                     71 	.globl _PORTC_2
                                     72 	.globl _PORTC_1
                                     73 	.globl _PORTC_0
                                     74 	.globl _PORTB_7
                                     75 	.globl _PORTB_6
                                     76 	.globl _PORTB_5
                                     77 	.globl _PORTB_4
                                     78 	.globl _PORTB_3
                                     79 	.globl _PORTB_2
                                     80 	.globl _PORTB_1
                                     81 	.globl _PORTB_0
                                     82 	.globl _PORTA_7
                                     83 	.globl _PORTA_6
                                     84 	.globl _PORTA_5
                                     85 	.globl _PORTA_4
                                     86 	.globl _PORTA_3
                                     87 	.globl _PORTA_2
                                     88 	.globl _PORTA_1
                                     89 	.globl _PORTA_0
                                     90 	.globl _PINC_7
                                     91 	.globl _PINC_6
                                     92 	.globl _PINC_5
                                     93 	.globl _PINC_4
                                     94 	.globl _PINC_3
                                     95 	.globl _PINC_2
                                     96 	.globl _PINC_1
                                     97 	.globl _PINC_0
                                     98 	.globl _PINB_7
                                     99 	.globl _PINB_6
                                    100 	.globl _PINB_5
                                    101 	.globl _PINB_4
                                    102 	.globl _PINB_3
                                    103 	.globl _PINB_2
                                    104 	.globl _PINB_1
                                    105 	.globl _PINB_0
                                    106 	.globl _PINA_7
                                    107 	.globl _PINA_6
                                    108 	.globl _PINA_5
                                    109 	.globl _PINA_4
                                    110 	.globl _PINA_3
                                    111 	.globl _PINA_2
                                    112 	.globl _PINA_1
                                    113 	.globl _PINA_0
                                    114 	.globl _CY
                                    115 	.globl _AC
                                    116 	.globl _F0
                                    117 	.globl _RS1
                                    118 	.globl _RS0
                                    119 	.globl _OV
                                    120 	.globl _F1
                                    121 	.globl _P
                                    122 	.globl _IP_7
                                    123 	.globl _IP_6
                                    124 	.globl _IP_5
                                    125 	.globl _IP_4
                                    126 	.globl _IP_3
                                    127 	.globl _IP_2
                                    128 	.globl _IP_1
                                    129 	.globl _IP_0
                                    130 	.globl _EA
                                    131 	.globl _IE_7
                                    132 	.globl _IE_6
                                    133 	.globl _IE_5
                                    134 	.globl _IE_4
                                    135 	.globl _IE_3
                                    136 	.globl _IE_2
                                    137 	.globl _IE_1
                                    138 	.globl _IE_0
                                    139 	.globl _EIP_7
                                    140 	.globl _EIP_6
                                    141 	.globl _EIP_5
                                    142 	.globl _EIP_4
                                    143 	.globl _EIP_3
                                    144 	.globl _EIP_2
                                    145 	.globl _EIP_1
                                    146 	.globl _EIP_0
                                    147 	.globl _EIE_7
                                    148 	.globl _EIE_6
                                    149 	.globl _EIE_5
                                    150 	.globl _EIE_4
                                    151 	.globl _EIE_3
                                    152 	.globl _EIE_2
                                    153 	.globl _EIE_1
                                    154 	.globl _EIE_0
                                    155 	.globl _E2IP_7
                                    156 	.globl _E2IP_6
                                    157 	.globl _E2IP_5
                                    158 	.globl _E2IP_4
                                    159 	.globl _E2IP_3
                                    160 	.globl _E2IP_2
                                    161 	.globl _E2IP_1
                                    162 	.globl _E2IP_0
                                    163 	.globl _E2IE_7
                                    164 	.globl _E2IE_6
                                    165 	.globl _E2IE_5
                                    166 	.globl _E2IE_4
                                    167 	.globl _E2IE_3
                                    168 	.globl _E2IE_2
                                    169 	.globl _E2IE_1
                                    170 	.globl _E2IE_0
                                    171 	.globl _B_7
                                    172 	.globl _B_6
                                    173 	.globl _B_5
                                    174 	.globl _B_4
                                    175 	.globl _B_3
                                    176 	.globl _B_2
                                    177 	.globl _B_1
                                    178 	.globl _B_0
                                    179 	.globl _ACC_7
                                    180 	.globl _ACC_6
                                    181 	.globl _ACC_5
                                    182 	.globl _ACC_4
                                    183 	.globl _ACC_3
                                    184 	.globl _ACC_2
                                    185 	.globl _ACC_1
                                    186 	.globl _ACC_0
                                    187 	.globl _WTSTAT
                                    188 	.globl _WTIRQEN
                                    189 	.globl _WTEVTD
                                    190 	.globl _WTEVTD1
                                    191 	.globl _WTEVTD0
                                    192 	.globl _WTEVTC
                                    193 	.globl _WTEVTC1
                                    194 	.globl _WTEVTC0
                                    195 	.globl _WTEVTB
                                    196 	.globl _WTEVTB1
                                    197 	.globl _WTEVTB0
                                    198 	.globl _WTEVTA
                                    199 	.globl _WTEVTA1
                                    200 	.globl _WTEVTA0
                                    201 	.globl _WTCNTR1
                                    202 	.globl _WTCNTB
                                    203 	.globl _WTCNTB1
                                    204 	.globl _WTCNTB0
                                    205 	.globl _WTCNTA
                                    206 	.globl _WTCNTA1
                                    207 	.globl _WTCNTA0
                                    208 	.globl _WTCFGB
                                    209 	.globl _WTCFGA
                                    210 	.globl _WDTRESET
                                    211 	.globl _WDTCFG
                                    212 	.globl _U1STATUS
                                    213 	.globl _U1SHREG
                                    214 	.globl _U1MODE
                                    215 	.globl _U1CTRL
                                    216 	.globl _U0STATUS
                                    217 	.globl _U0SHREG
                                    218 	.globl _U0MODE
                                    219 	.globl _U0CTRL
                                    220 	.globl _T2STATUS
                                    221 	.globl _T2PERIOD
                                    222 	.globl _T2PERIOD1
                                    223 	.globl _T2PERIOD0
                                    224 	.globl _T2MODE
                                    225 	.globl _T2CNT
                                    226 	.globl _T2CNT1
                                    227 	.globl _T2CNT0
                                    228 	.globl _T2CLKSRC
                                    229 	.globl _T1STATUS
                                    230 	.globl _T1PERIOD
                                    231 	.globl _T1PERIOD1
                                    232 	.globl _T1PERIOD0
                                    233 	.globl _T1MODE
                                    234 	.globl _T1CNT
                                    235 	.globl _T1CNT1
                                    236 	.globl _T1CNT0
                                    237 	.globl _T1CLKSRC
                                    238 	.globl _T0STATUS
                                    239 	.globl _T0PERIOD
                                    240 	.globl _T0PERIOD1
                                    241 	.globl _T0PERIOD0
                                    242 	.globl _T0MODE
                                    243 	.globl _T0CNT
                                    244 	.globl _T0CNT1
                                    245 	.globl _T0CNT0
                                    246 	.globl _T0CLKSRC
                                    247 	.globl _SPSTATUS
                                    248 	.globl _SPSHREG
                                    249 	.globl _SPMODE
                                    250 	.globl _SPCLKSRC
                                    251 	.globl _RADIOSTAT
                                    252 	.globl _RADIOSTAT1
                                    253 	.globl _RADIOSTAT0
                                    254 	.globl _RADIODATA
                                    255 	.globl _RADIODATA3
                                    256 	.globl _RADIODATA2
                                    257 	.globl _RADIODATA1
                                    258 	.globl _RADIODATA0
                                    259 	.globl _RADIOADDR
                                    260 	.globl _RADIOADDR1
                                    261 	.globl _RADIOADDR0
                                    262 	.globl _RADIOACC
                                    263 	.globl _OC1STATUS
                                    264 	.globl _OC1PIN
                                    265 	.globl _OC1MODE
                                    266 	.globl _OC1COMP
                                    267 	.globl _OC1COMP1
                                    268 	.globl _OC1COMP0
                                    269 	.globl _OC0STATUS
                                    270 	.globl _OC0PIN
                                    271 	.globl _OC0MODE
                                    272 	.globl _OC0COMP
                                    273 	.globl _OC0COMP1
                                    274 	.globl _OC0COMP0
                                    275 	.globl _NVSTATUS
                                    276 	.globl _NVKEY
                                    277 	.globl _NVDATA
                                    278 	.globl _NVDATA1
                                    279 	.globl _NVDATA0
                                    280 	.globl _NVADDR
                                    281 	.globl _NVADDR1
                                    282 	.globl _NVADDR0
                                    283 	.globl _IC1STATUS
                                    284 	.globl _IC1MODE
                                    285 	.globl _IC1CAPT
                                    286 	.globl _IC1CAPT1
                                    287 	.globl _IC1CAPT0
                                    288 	.globl _IC0STATUS
                                    289 	.globl _IC0MODE
                                    290 	.globl _IC0CAPT
                                    291 	.globl _IC0CAPT1
                                    292 	.globl _IC0CAPT0
                                    293 	.globl _PORTR
                                    294 	.globl _PORTC
                                    295 	.globl _PORTB
                                    296 	.globl _PORTA
                                    297 	.globl _PINR
                                    298 	.globl _PINC
                                    299 	.globl _PINB
                                    300 	.globl _PINA
                                    301 	.globl _DIRR
                                    302 	.globl _DIRC
                                    303 	.globl _DIRB
                                    304 	.globl _DIRA
                                    305 	.globl _DBGLNKSTAT
                                    306 	.globl _DBGLNKBUF
                                    307 	.globl _CODECONFIG
                                    308 	.globl _CLKSTAT
                                    309 	.globl _CLKCON
                                    310 	.globl _ANALOGCOMP
                                    311 	.globl _ADCCONV
                                    312 	.globl _ADCCLKSRC
                                    313 	.globl _ADCCH3CONFIG
                                    314 	.globl _ADCCH2CONFIG
                                    315 	.globl _ADCCH1CONFIG
                                    316 	.globl _ADCCH0CONFIG
                                    317 	.globl __XPAGE
                                    318 	.globl _XPAGE
                                    319 	.globl _SP
                                    320 	.globl _PSW
                                    321 	.globl _PCON
                                    322 	.globl _IP
                                    323 	.globl _IE
                                    324 	.globl _EIP
                                    325 	.globl _EIE
                                    326 	.globl _E2IP
                                    327 	.globl _E2IE
                                    328 	.globl _DPS
                                    329 	.globl _DPTR1
                                    330 	.globl _DPTR0
                                    331 	.globl _DPL1
                                    332 	.globl _DPL
                                    333 	.globl _DPH1
                                    334 	.globl _DPH
                                    335 	.globl _B
                                    336 	.globl _ACC
                                    337 	.globl _axradio_phy_chanvcoi
                                    338 	.globl _axradio_phy_chanpllrng
                                    339 	.globl _AX5043_XTALAMPL
                                    340 	.globl _AX5043_XTALOSC
                                    341 	.globl _AX5043_MODCFGP
                                    342 	.globl _AX5043_POWCTRL1
                                    343 	.globl _AX5043_REF
                                    344 	.globl _AX5043_0xF44
                                    345 	.globl _AX5043_0xF35
                                    346 	.globl _AX5043_0xF34
                                    347 	.globl _AX5043_0xF33
                                    348 	.globl _AX5043_0xF32
                                    349 	.globl _AX5043_0xF31
                                    350 	.globl _AX5043_0xF30
                                    351 	.globl _AX5043_0xF26
                                    352 	.globl _AX5043_0xF23
                                    353 	.globl _AX5043_0xF22
                                    354 	.globl _AX5043_0xF21
                                    355 	.globl _AX5043_0xF1C
                                    356 	.globl _AX5043_0xF18
                                    357 	.globl _AX5043_0xF11
                                    358 	.globl _AX5043_0xF10
                                    359 	.globl _AX5043_0xF0C
                                    360 	.globl _AX5043_0xF00
                                    361 	.globl _AX5043_TIMEGAIN3NB
                                    362 	.globl _AX5043_TIMEGAIN2NB
                                    363 	.globl _AX5043_TIMEGAIN1NB
                                    364 	.globl _AX5043_TIMEGAIN0NB
                                    365 	.globl _AX5043_RXPARAMSETSNB
                                    366 	.globl _AX5043_RXPARAMCURSETNB
                                    367 	.globl _AX5043_PKTMAXLENNB
                                    368 	.globl _AX5043_PKTLENOFFSETNB
                                    369 	.globl _AX5043_PKTLENCFGNB
                                    370 	.globl _AX5043_PKTADDRMASK3NB
                                    371 	.globl _AX5043_PKTADDRMASK2NB
                                    372 	.globl _AX5043_PKTADDRMASK1NB
                                    373 	.globl _AX5043_PKTADDRMASK0NB
                                    374 	.globl _AX5043_PKTADDRCFGNB
                                    375 	.globl _AX5043_PKTADDR3NB
                                    376 	.globl _AX5043_PKTADDR2NB
                                    377 	.globl _AX5043_PKTADDR1NB
                                    378 	.globl _AX5043_PKTADDR0NB
                                    379 	.globl _AX5043_PHASEGAIN3NB
                                    380 	.globl _AX5043_PHASEGAIN2NB
                                    381 	.globl _AX5043_PHASEGAIN1NB
                                    382 	.globl _AX5043_PHASEGAIN0NB
                                    383 	.globl _AX5043_FREQUENCYLEAKNB
                                    384 	.globl _AX5043_FREQUENCYGAIND3NB
                                    385 	.globl _AX5043_FREQUENCYGAIND2NB
                                    386 	.globl _AX5043_FREQUENCYGAIND1NB
                                    387 	.globl _AX5043_FREQUENCYGAIND0NB
                                    388 	.globl _AX5043_FREQUENCYGAINC3NB
                                    389 	.globl _AX5043_FREQUENCYGAINC2NB
                                    390 	.globl _AX5043_FREQUENCYGAINC1NB
                                    391 	.globl _AX5043_FREQUENCYGAINC0NB
                                    392 	.globl _AX5043_FREQUENCYGAINB3NB
                                    393 	.globl _AX5043_FREQUENCYGAINB2NB
                                    394 	.globl _AX5043_FREQUENCYGAINB1NB
                                    395 	.globl _AX5043_FREQUENCYGAINB0NB
                                    396 	.globl _AX5043_FREQUENCYGAINA3NB
                                    397 	.globl _AX5043_FREQUENCYGAINA2NB
                                    398 	.globl _AX5043_FREQUENCYGAINA1NB
                                    399 	.globl _AX5043_FREQUENCYGAINA0NB
                                    400 	.globl _AX5043_FREQDEV13NB
                                    401 	.globl _AX5043_FREQDEV12NB
                                    402 	.globl _AX5043_FREQDEV11NB
                                    403 	.globl _AX5043_FREQDEV10NB
                                    404 	.globl _AX5043_FREQDEV03NB
                                    405 	.globl _AX5043_FREQDEV02NB
                                    406 	.globl _AX5043_FREQDEV01NB
                                    407 	.globl _AX5043_FREQDEV00NB
                                    408 	.globl _AX5043_FOURFSK3NB
                                    409 	.globl _AX5043_FOURFSK2NB
                                    410 	.globl _AX5043_FOURFSK1NB
                                    411 	.globl _AX5043_FOURFSK0NB
                                    412 	.globl _AX5043_DRGAIN3NB
                                    413 	.globl _AX5043_DRGAIN2NB
                                    414 	.globl _AX5043_DRGAIN1NB
                                    415 	.globl _AX5043_DRGAIN0NB
                                    416 	.globl _AX5043_BBOFFSRES3NB
                                    417 	.globl _AX5043_BBOFFSRES2NB
                                    418 	.globl _AX5043_BBOFFSRES1NB
                                    419 	.globl _AX5043_BBOFFSRES0NB
                                    420 	.globl _AX5043_AMPLITUDEGAIN3NB
                                    421 	.globl _AX5043_AMPLITUDEGAIN2NB
                                    422 	.globl _AX5043_AMPLITUDEGAIN1NB
                                    423 	.globl _AX5043_AMPLITUDEGAIN0NB
                                    424 	.globl _AX5043_AGCTARGET3NB
                                    425 	.globl _AX5043_AGCTARGET2NB
                                    426 	.globl _AX5043_AGCTARGET1NB
                                    427 	.globl _AX5043_AGCTARGET0NB
                                    428 	.globl _AX5043_AGCMINMAX3NB
                                    429 	.globl _AX5043_AGCMINMAX2NB
                                    430 	.globl _AX5043_AGCMINMAX1NB
                                    431 	.globl _AX5043_AGCMINMAX0NB
                                    432 	.globl _AX5043_AGCGAIN3NB
                                    433 	.globl _AX5043_AGCGAIN2NB
                                    434 	.globl _AX5043_AGCGAIN1NB
                                    435 	.globl _AX5043_AGCGAIN0NB
                                    436 	.globl _AX5043_AGCAHYST3NB
                                    437 	.globl _AX5043_AGCAHYST2NB
                                    438 	.globl _AX5043_AGCAHYST1NB
                                    439 	.globl _AX5043_AGCAHYST0NB
                                    440 	.globl _AX5043_0xF44NB
                                    441 	.globl _AX5043_0xF35NB
                                    442 	.globl _AX5043_0xF34NB
                                    443 	.globl _AX5043_0xF33NB
                                    444 	.globl _AX5043_0xF32NB
                                    445 	.globl _AX5043_0xF31NB
                                    446 	.globl _AX5043_0xF30NB
                                    447 	.globl _AX5043_0xF26NB
                                    448 	.globl _AX5043_0xF23NB
                                    449 	.globl _AX5043_0xF22NB
                                    450 	.globl _AX5043_0xF21NB
                                    451 	.globl _AX5043_0xF1CNB
                                    452 	.globl _AX5043_0xF18NB
                                    453 	.globl _AX5043_0xF0CNB
                                    454 	.globl _AX5043_0xF00NB
                                    455 	.globl _AX5043_XTALSTATUSNB
                                    456 	.globl _AX5043_XTALOSCNB
                                    457 	.globl _AX5043_XTALCAPNB
                                    458 	.globl _AX5043_XTALAMPLNB
                                    459 	.globl _AX5043_WAKEUPXOEARLYNB
                                    460 	.globl _AX5043_WAKEUPTIMER1NB
                                    461 	.globl _AX5043_WAKEUPTIMER0NB
                                    462 	.globl _AX5043_WAKEUPFREQ1NB
                                    463 	.globl _AX5043_WAKEUPFREQ0NB
                                    464 	.globl _AX5043_WAKEUP1NB
                                    465 	.globl _AX5043_WAKEUP0NB
                                    466 	.globl _AX5043_TXRATE2NB
                                    467 	.globl _AX5043_TXRATE1NB
                                    468 	.globl _AX5043_TXRATE0NB
                                    469 	.globl _AX5043_TXPWRCOEFFE1NB
                                    470 	.globl _AX5043_TXPWRCOEFFE0NB
                                    471 	.globl _AX5043_TXPWRCOEFFD1NB
                                    472 	.globl _AX5043_TXPWRCOEFFD0NB
                                    473 	.globl _AX5043_TXPWRCOEFFC1NB
                                    474 	.globl _AX5043_TXPWRCOEFFC0NB
                                    475 	.globl _AX5043_TXPWRCOEFFB1NB
                                    476 	.globl _AX5043_TXPWRCOEFFB0NB
                                    477 	.globl _AX5043_TXPWRCOEFFA1NB
                                    478 	.globl _AX5043_TXPWRCOEFFA0NB
                                    479 	.globl _AX5043_TRKRFFREQ2NB
                                    480 	.globl _AX5043_TRKRFFREQ1NB
                                    481 	.globl _AX5043_TRKRFFREQ0NB
                                    482 	.globl _AX5043_TRKPHASE1NB
                                    483 	.globl _AX5043_TRKPHASE0NB
                                    484 	.globl _AX5043_TRKFSKDEMOD1NB
                                    485 	.globl _AX5043_TRKFSKDEMOD0NB
                                    486 	.globl _AX5043_TRKFREQ1NB
                                    487 	.globl _AX5043_TRKFREQ0NB
                                    488 	.globl _AX5043_TRKDATARATE2NB
                                    489 	.globl _AX5043_TRKDATARATE1NB
                                    490 	.globl _AX5043_TRKDATARATE0NB
                                    491 	.globl _AX5043_TRKAMPLITUDE1NB
                                    492 	.globl _AX5043_TRKAMPLITUDE0NB
                                    493 	.globl _AX5043_TRKAFSKDEMOD1NB
                                    494 	.globl _AX5043_TRKAFSKDEMOD0NB
                                    495 	.globl _AX5043_TMGTXSETTLENB
                                    496 	.globl _AX5043_TMGTXBOOSTNB
                                    497 	.globl _AX5043_TMGRXSETTLENB
                                    498 	.globl _AX5043_TMGRXRSSINB
                                    499 	.globl _AX5043_TMGRXPREAMBLE3NB
                                    500 	.globl _AX5043_TMGRXPREAMBLE2NB
                                    501 	.globl _AX5043_TMGRXPREAMBLE1NB
                                    502 	.globl _AX5043_TMGRXOFFSACQNB
                                    503 	.globl _AX5043_TMGRXCOARSEAGCNB
                                    504 	.globl _AX5043_TMGRXBOOSTNB
                                    505 	.globl _AX5043_TMGRXAGCNB
                                    506 	.globl _AX5043_TIMER2NB
                                    507 	.globl _AX5043_TIMER1NB
                                    508 	.globl _AX5043_TIMER0NB
                                    509 	.globl _AX5043_SILICONREVISIONNB
                                    510 	.globl _AX5043_SCRATCHNB
                                    511 	.globl _AX5043_RXDATARATE2NB
                                    512 	.globl _AX5043_RXDATARATE1NB
                                    513 	.globl _AX5043_RXDATARATE0NB
                                    514 	.globl _AX5043_RSSIREFERENCENB
                                    515 	.globl _AX5043_RSSIABSTHRNB
                                    516 	.globl _AX5043_RSSINB
                                    517 	.globl _AX5043_REFNB
                                    518 	.globl _AX5043_RADIOSTATENB
                                    519 	.globl _AX5043_RADIOEVENTREQ1NB
                                    520 	.globl _AX5043_RADIOEVENTREQ0NB
                                    521 	.globl _AX5043_RADIOEVENTMASK1NB
                                    522 	.globl _AX5043_RADIOEVENTMASK0NB
                                    523 	.globl _AX5043_PWRMODENB
                                    524 	.globl _AX5043_PWRAMPNB
                                    525 	.globl _AX5043_POWSTICKYSTATNB
                                    526 	.globl _AX5043_POWSTATNB
                                    527 	.globl _AX5043_POWIRQMASKNB
                                    528 	.globl _AX5043_POWCTRL1NB
                                    529 	.globl _AX5043_PLLVCOIRNB
                                    530 	.globl _AX5043_PLLVCOINB
                                    531 	.globl _AX5043_PLLVCODIVNB
                                    532 	.globl _AX5043_PLLRNGCLKNB
                                    533 	.globl _AX5043_PLLRANGINGBNB
                                    534 	.globl _AX5043_PLLRANGINGANB
                                    535 	.globl _AX5043_PLLLOOPBOOSTNB
                                    536 	.globl _AX5043_PLLLOOPNB
                                    537 	.globl _AX5043_PLLLOCKDETNB
                                    538 	.globl _AX5043_PLLCPIBOOSTNB
                                    539 	.globl _AX5043_PLLCPINB
                                    540 	.globl _AX5043_PKTSTOREFLAGSNB
                                    541 	.globl _AX5043_PKTMISCFLAGSNB
                                    542 	.globl _AX5043_PKTCHUNKSIZENB
                                    543 	.globl _AX5043_PKTACCEPTFLAGSNB
                                    544 	.globl _AX5043_PINSTATENB
                                    545 	.globl _AX5043_PINFUNCSYSCLKNB
                                    546 	.globl _AX5043_PINFUNCPWRAMPNB
                                    547 	.globl _AX5043_PINFUNCIRQNB
                                    548 	.globl _AX5043_PINFUNCDCLKNB
                                    549 	.globl _AX5043_PINFUNCDATANB
                                    550 	.globl _AX5043_PINFUNCANTSELNB
                                    551 	.globl _AX5043_MODULATIONNB
                                    552 	.globl _AX5043_MODCFGPNB
                                    553 	.globl _AX5043_MODCFGFNB
                                    554 	.globl _AX5043_MODCFGANB
                                    555 	.globl _AX5043_MAXRFOFFSET2NB
                                    556 	.globl _AX5043_MAXRFOFFSET1NB
                                    557 	.globl _AX5043_MAXRFOFFSET0NB
                                    558 	.globl _AX5043_MAXDROFFSET2NB
                                    559 	.globl _AX5043_MAXDROFFSET1NB
                                    560 	.globl _AX5043_MAXDROFFSET0NB
                                    561 	.globl _AX5043_MATCH1PAT1NB
                                    562 	.globl _AX5043_MATCH1PAT0NB
                                    563 	.globl _AX5043_MATCH1MINNB
                                    564 	.globl _AX5043_MATCH1MAXNB
                                    565 	.globl _AX5043_MATCH1LENNB
                                    566 	.globl _AX5043_MATCH0PAT3NB
                                    567 	.globl _AX5043_MATCH0PAT2NB
                                    568 	.globl _AX5043_MATCH0PAT1NB
                                    569 	.globl _AX5043_MATCH0PAT0NB
                                    570 	.globl _AX5043_MATCH0MINNB
                                    571 	.globl _AX5043_MATCH0MAXNB
                                    572 	.globl _AX5043_MATCH0LENNB
                                    573 	.globl _AX5043_LPOSCSTATUSNB
                                    574 	.globl _AX5043_LPOSCREF1NB
                                    575 	.globl _AX5043_LPOSCREF0NB
                                    576 	.globl _AX5043_LPOSCPER1NB
                                    577 	.globl _AX5043_LPOSCPER0NB
                                    578 	.globl _AX5043_LPOSCKFILT1NB
                                    579 	.globl _AX5043_LPOSCKFILT0NB
                                    580 	.globl _AX5043_LPOSCFREQ1NB
                                    581 	.globl _AX5043_LPOSCFREQ0NB
                                    582 	.globl _AX5043_LPOSCCONFIGNB
                                    583 	.globl _AX5043_IRQREQUEST1NB
                                    584 	.globl _AX5043_IRQREQUEST0NB
                                    585 	.globl _AX5043_IRQMASK1NB
                                    586 	.globl _AX5043_IRQMASK0NB
                                    587 	.globl _AX5043_IRQINVERSION1NB
                                    588 	.globl _AX5043_IRQINVERSION0NB
                                    589 	.globl _AX5043_IFFREQ1NB
                                    590 	.globl _AX5043_IFFREQ0NB
                                    591 	.globl _AX5043_GPADCPERIODNB
                                    592 	.globl _AX5043_GPADCCTRLNB
                                    593 	.globl _AX5043_GPADC13VALUE1NB
                                    594 	.globl _AX5043_GPADC13VALUE0NB
                                    595 	.globl _AX5043_FSKDMIN1NB
                                    596 	.globl _AX5043_FSKDMIN0NB
                                    597 	.globl _AX5043_FSKDMAX1NB
                                    598 	.globl _AX5043_FSKDMAX0NB
                                    599 	.globl _AX5043_FSKDEV2NB
                                    600 	.globl _AX5043_FSKDEV1NB
                                    601 	.globl _AX5043_FSKDEV0NB
                                    602 	.globl _AX5043_FREQB3NB
                                    603 	.globl _AX5043_FREQB2NB
                                    604 	.globl _AX5043_FREQB1NB
                                    605 	.globl _AX5043_FREQB0NB
                                    606 	.globl _AX5043_FREQA3NB
                                    607 	.globl _AX5043_FREQA2NB
                                    608 	.globl _AX5043_FREQA1NB
                                    609 	.globl _AX5043_FREQA0NB
                                    610 	.globl _AX5043_FRAMINGNB
                                    611 	.globl _AX5043_FIFOTHRESH1NB
                                    612 	.globl _AX5043_FIFOTHRESH0NB
                                    613 	.globl _AX5043_FIFOSTATNB
                                    614 	.globl _AX5043_FIFOFREE1NB
                                    615 	.globl _AX5043_FIFOFREE0NB
                                    616 	.globl _AX5043_FIFODATANB
                                    617 	.globl _AX5043_FIFOCOUNT1NB
                                    618 	.globl _AX5043_FIFOCOUNT0NB
                                    619 	.globl _AX5043_FECSYNCNB
                                    620 	.globl _AX5043_FECSTATUSNB
                                    621 	.globl _AX5043_FECNB
                                    622 	.globl _AX5043_ENCODINGNB
                                    623 	.globl _AX5043_DIVERSITYNB
                                    624 	.globl _AX5043_DECIMATIONNB
                                    625 	.globl _AX5043_DACVALUE1NB
                                    626 	.globl _AX5043_DACVALUE0NB
                                    627 	.globl _AX5043_DACCONFIGNB
                                    628 	.globl _AX5043_CRCINIT3NB
                                    629 	.globl _AX5043_CRCINIT2NB
                                    630 	.globl _AX5043_CRCINIT1NB
                                    631 	.globl _AX5043_CRCINIT0NB
                                    632 	.globl _AX5043_BGNDRSSITHRNB
                                    633 	.globl _AX5043_BGNDRSSIGAINNB
                                    634 	.globl _AX5043_BGNDRSSINB
                                    635 	.globl _AX5043_BBTUNENB
                                    636 	.globl _AX5043_BBOFFSCAPNB
                                    637 	.globl _AX5043_AMPLFILTERNB
                                    638 	.globl _AX5043_AGCCOUNTERNB
                                    639 	.globl _AX5043_AFSKSPACE1NB
                                    640 	.globl _AX5043_AFSKSPACE0NB
                                    641 	.globl _AX5043_AFSKMARK1NB
                                    642 	.globl _AX5043_AFSKMARK0NB
                                    643 	.globl _AX5043_AFSKCTRLNB
                                    644 	.globl _AX5043_TIMEGAIN3
                                    645 	.globl _AX5043_TIMEGAIN2
                                    646 	.globl _AX5043_TIMEGAIN1
                                    647 	.globl _AX5043_TIMEGAIN0
                                    648 	.globl _AX5043_RXPARAMSETS
                                    649 	.globl _AX5043_RXPARAMCURSET
                                    650 	.globl _AX5043_PKTMAXLEN
                                    651 	.globl _AX5043_PKTLENOFFSET
                                    652 	.globl _AX5043_PKTLENCFG
                                    653 	.globl _AX5043_PKTADDRMASK3
                                    654 	.globl _AX5043_PKTADDRMASK2
                                    655 	.globl _AX5043_PKTADDRMASK1
                                    656 	.globl _AX5043_PKTADDRMASK0
                                    657 	.globl _AX5043_PKTADDRCFG
                                    658 	.globl _AX5043_PKTADDR3
                                    659 	.globl _AX5043_PKTADDR2
                                    660 	.globl _AX5043_PKTADDR1
                                    661 	.globl _AX5043_PKTADDR0
                                    662 	.globl _AX5043_PHASEGAIN3
                                    663 	.globl _AX5043_PHASEGAIN2
                                    664 	.globl _AX5043_PHASEGAIN1
                                    665 	.globl _AX5043_PHASEGAIN0
                                    666 	.globl _AX5043_FREQUENCYLEAK
                                    667 	.globl _AX5043_FREQUENCYGAIND3
                                    668 	.globl _AX5043_FREQUENCYGAIND2
                                    669 	.globl _AX5043_FREQUENCYGAIND1
                                    670 	.globl _AX5043_FREQUENCYGAIND0
                                    671 	.globl _AX5043_FREQUENCYGAINC3
                                    672 	.globl _AX5043_FREQUENCYGAINC2
                                    673 	.globl _AX5043_FREQUENCYGAINC1
                                    674 	.globl _AX5043_FREQUENCYGAINC0
                                    675 	.globl _AX5043_FREQUENCYGAINB3
                                    676 	.globl _AX5043_FREQUENCYGAINB2
                                    677 	.globl _AX5043_FREQUENCYGAINB1
                                    678 	.globl _AX5043_FREQUENCYGAINB0
                                    679 	.globl _AX5043_FREQUENCYGAINA3
                                    680 	.globl _AX5043_FREQUENCYGAINA2
                                    681 	.globl _AX5043_FREQUENCYGAINA1
                                    682 	.globl _AX5043_FREQUENCYGAINA0
                                    683 	.globl _AX5043_FREQDEV13
                                    684 	.globl _AX5043_FREQDEV12
                                    685 	.globl _AX5043_FREQDEV11
                                    686 	.globl _AX5043_FREQDEV10
                                    687 	.globl _AX5043_FREQDEV03
                                    688 	.globl _AX5043_FREQDEV02
                                    689 	.globl _AX5043_FREQDEV01
                                    690 	.globl _AX5043_FREQDEV00
                                    691 	.globl _AX5043_FOURFSK3
                                    692 	.globl _AX5043_FOURFSK2
                                    693 	.globl _AX5043_FOURFSK1
                                    694 	.globl _AX5043_FOURFSK0
                                    695 	.globl _AX5043_DRGAIN3
                                    696 	.globl _AX5043_DRGAIN2
                                    697 	.globl _AX5043_DRGAIN1
                                    698 	.globl _AX5043_DRGAIN0
                                    699 	.globl _AX5043_BBOFFSRES3
                                    700 	.globl _AX5043_BBOFFSRES2
                                    701 	.globl _AX5043_BBOFFSRES1
                                    702 	.globl _AX5043_BBOFFSRES0
                                    703 	.globl _AX5043_AMPLITUDEGAIN3
                                    704 	.globl _AX5043_AMPLITUDEGAIN2
                                    705 	.globl _AX5043_AMPLITUDEGAIN1
                                    706 	.globl _AX5043_AMPLITUDEGAIN0
                                    707 	.globl _AX5043_AGCTARGET3
                                    708 	.globl _AX5043_AGCTARGET2
                                    709 	.globl _AX5043_AGCTARGET1
                                    710 	.globl _AX5043_AGCTARGET0
                                    711 	.globl _AX5043_AGCMINMAX3
                                    712 	.globl _AX5043_AGCMINMAX2
                                    713 	.globl _AX5043_AGCMINMAX1
                                    714 	.globl _AX5043_AGCMINMAX0
                                    715 	.globl _AX5043_AGCGAIN3
                                    716 	.globl _AX5043_AGCGAIN2
                                    717 	.globl _AX5043_AGCGAIN1
                                    718 	.globl _AX5043_AGCGAIN0
                                    719 	.globl _AX5043_AGCAHYST3
                                    720 	.globl _AX5043_AGCAHYST2
                                    721 	.globl _AX5043_AGCAHYST1
                                    722 	.globl _AX5043_AGCAHYST0
                                    723 	.globl _AX5043_XTALSTATUS
                                    724 	.globl _AX5043_XTALCAP
                                    725 	.globl _AX5043_WAKEUPXOEARLY
                                    726 	.globl _AX5043_WAKEUPTIMER1
                                    727 	.globl _AX5043_WAKEUPTIMER0
                                    728 	.globl _AX5043_WAKEUPFREQ1
                                    729 	.globl _AX5043_WAKEUPFREQ0
                                    730 	.globl _AX5043_WAKEUP1
                                    731 	.globl _AX5043_WAKEUP0
                                    732 	.globl _AX5043_TXRATE2
                                    733 	.globl _AX5043_TXRATE1
                                    734 	.globl _AX5043_TXRATE0
                                    735 	.globl _AX5043_TXPWRCOEFFE1
                                    736 	.globl _AX5043_TXPWRCOEFFE0
                                    737 	.globl _AX5043_TXPWRCOEFFD1
                                    738 	.globl _AX5043_TXPWRCOEFFD0
                                    739 	.globl _AX5043_TXPWRCOEFFC1
                                    740 	.globl _AX5043_TXPWRCOEFFC0
                                    741 	.globl _AX5043_TXPWRCOEFFB1
                                    742 	.globl _AX5043_TXPWRCOEFFB0
                                    743 	.globl _AX5043_TXPWRCOEFFA1
                                    744 	.globl _AX5043_TXPWRCOEFFA0
                                    745 	.globl _AX5043_TRKRFFREQ2
                                    746 	.globl _AX5043_TRKRFFREQ1
                                    747 	.globl _AX5043_TRKRFFREQ0
                                    748 	.globl _AX5043_TRKPHASE1
                                    749 	.globl _AX5043_TRKPHASE0
                                    750 	.globl _AX5043_TRKFSKDEMOD1
                                    751 	.globl _AX5043_TRKFSKDEMOD0
                                    752 	.globl _AX5043_TRKFREQ1
                                    753 	.globl _AX5043_TRKFREQ0
                                    754 	.globl _AX5043_TRKDATARATE2
                                    755 	.globl _AX5043_TRKDATARATE1
                                    756 	.globl _AX5043_TRKDATARATE0
                                    757 	.globl _AX5043_TRKAMPLITUDE1
                                    758 	.globl _AX5043_TRKAMPLITUDE0
                                    759 	.globl _AX5043_TRKAFSKDEMOD1
                                    760 	.globl _AX5043_TRKAFSKDEMOD0
                                    761 	.globl _AX5043_TMGTXSETTLE
                                    762 	.globl _AX5043_TMGTXBOOST
                                    763 	.globl _AX5043_TMGRXSETTLE
                                    764 	.globl _AX5043_TMGRXRSSI
                                    765 	.globl _AX5043_TMGRXPREAMBLE3
                                    766 	.globl _AX5043_TMGRXPREAMBLE2
                                    767 	.globl _AX5043_TMGRXPREAMBLE1
                                    768 	.globl _AX5043_TMGRXOFFSACQ
                                    769 	.globl _AX5043_TMGRXCOARSEAGC
                                    770 	.globl _AX5043_TMGRXBOOST
                                    771 	.globl _AX5043_TMGRXAGC
                                    772 	.globl _AX5043_TIMER2
                                    773 	.globl _AX5043_TIMER1
                                    774 	.globl _AX5043_TIMER0
                                    775 	.globl _AX5043_SILICONREVISION
                                    776 	.globl _AX5043_SCRATCH
                                    777 	.globl _AX5043_RXDATARATE2
                                    778 	.globl _AX5043_RXDATARATE1
                                    779 	.globl _AX5043_RXDATARATE0
                                    780 	.globl _AX5043_RSSIREFERENCE
                                    781 	.globl _AX5043_RSSIABSTHR
                                    782 	.globl _AX5043_RSSI
                                    783 	.globl _AX5043_RADIOSTATE
                                    784 	.globl _AX5043_RADIOEVENTREQ1
                                    785 	.globl _AX5043_RADIOEVENTREQ0
                                    786 	.globl _AX5043_RADIOEVENTMASK1
                                    787 	.globl _AX5043_RADIOEVENTMASK0
                                    788 	.globl _AX5043_PWRMODE
                                    789 	.globl _AX5043_PWRAMP
                                    790 	.globl _AX5043_POWSTICKYSTAT
                                    791 	.globl _AX5043_POWSTAT
                                    792 	.globl _AX5043_POWIRQMASK
                                    793 	.globl _AX5043_PLLVCOIR
                                    794 	.globl _AX5043_PLLVCOI
                                    795 	.globl _AX5043_PLLVCODIV
                                    796 	.globl _AX5043_PLLRNGCLK
                                    797 	.globl _AX5043_PLLRANGINGB
                                    798 	.globl _AX5043_PLLRANGINGA
                                    799 	.globl _AX5043_PLLLOOPBOOST
                                    800 	.globl _AX5043_PLLLOOP
                                    801 	.globl _AX5043_PLLLOCKDET
                                    802 	.globl _AX5043_PLLCPIBOOST
                                    803 	.globl _AX5043_PLLCPI
                                    804 	.globl _AX5043_PKTSTOREFLAGS
                                    805 	.globl _AX5043_PKTMISCFLAGS
                                    806 	.globl _AX5043_PKTCHUNKSIZE
                                    807 	.globl _AX5043_PKTACCEPTFLAGS
                                    808 	.globl _AX5043_PINSTATE
                                    809 	.globl _AX5043_PINFUNCSYSCLK
                                    810 	.globl _AX5043_PINFUNCPWRAMP
                                    811 	.globl _AX5043_PINFUNCIRQ
                                    812 	.globl _AX5043_PINFUNCDCLK
                                    813 	.globl _AX5043_PINFUNCDATA
                                    814 	.globl _AX5043_PINFUNCANTSEL
                                    815 	.globl _AX5043_MODULATION
                                    816 	.globl _AX5043_MODCFGF
                                    817 	.globl _AX5043_MODCFGA
                                    818 	.globl _AX5043_MAXRFOFFSET2
                                    819 	.globl _AX5043_MAXRFOFFSET1
                                    820 	.globl _AX5043_MAXRFOFFSET0
                                    821 	.globl _AX5043_MAXDROFFSET2
                                    822 	.globl _AX5043_MAXDROFFSET1
                                    823 	.globl _AX5043_MAXDROFFSET0
                                    824 	.globl _AX5043_MATCH1PAT1
                                    825 	.globl _AX5043_MATCH1PAT0
                                    826 	.globl _AX5043_MATCH1MIN
                                    827 	.globl _AX5043_MATCH1MAX
                                    828 	.globl _AX5043_MATCH1LEN
                                    829 	.globl _AX5043_MATCH0PAT3
                                    830 	.globl _AX5043_MATCH0PAT2
                                    831 	.globl _AX5043_MATCH0PAT1
                                    832 	.globl _AX5043_MATCH0PAT0
                                    833 	.globl _AX5043_MATCH0MIN
                                    834 	.globl _AX5043_MATCH0MAX
                                    835 	.globl _AX5043_MATCH0LEN
                                    836 	.globl _AX5043_LPOSCSTATUS
                                    837 	.globl _AX5043_LPOSCREF1
                                    838 	.globl _AX5043_LPOSCREF0
                                    839 	.globl _AX5043_LPOSCPER1
                                    840 	.globl _AX5043_LPOSCPER0
                                    841 	.globl _AX5043_LPOSCKFILT1
                                    842 	.globl _AX5043_LPOSCKFILT0
                                    843 	.globl _AX5043_LPOSCFREQ1
                                    844 	.globl _AX5043_LPOSCFREQ0
                                    845 	.globl _AX5043_LPOSCCONFIG
                                    846 	.globl _AX5043_IRQREQUEST1
                                    847 	.globl _AX5043_IRQREQUEST0
                                    848 	.globl _AX5043_IRQMASK1
                                    849 	.globl _AX5043_IRQMASK0
                                    850 	.globl _AX5043_IRQINVERSION1
                                    851 	.globl _AX5043_IRQINVERSION0
                                    852 	.globl _AX5043_IFFREQ1
                                    853 	.globl _AX5043_IFFREQ0
                                    854 	.globl _AX5043_GPADCPERIOD
                                    855 	.globl _AX5043_GPADCCTRL
                                    856 	.globl _AX5043_GPADC13VALUE1
                                    857 	.globl _AX5043_GPADC13VALUE0
                                    858 	.globl _AX5043_FSKDMIN1
                                    859 	.globl _AX5043_FSKDMIN0
                                    860 	.globl _AX5043_FSKDMAX1
                                    861 	.globl _AX5043_FSKDMAX0
                                    862 	.globl _AX5043_FSKDEV2
                                    863 	.globl _AX5043_FSKDEV1
                                    864 	.globl _AX5043_FSKDEV0
                                    865 	.globl _AX5043_FREQB3
                                    866 	.globl _AX5043_FREQB2
                                    867 	.globl _AX5043_FREQB1
                                    868 	.globl _AX5043_FREQB0
                                    869 	.globl _AX5043_FREQA3
                                    870 	.globl _AX5043_FREQA2
                                    871 	.globl _AX5043_FREQA1
                                    872 	.globl _AX5043_FREQA0
                                    873 	.globl _AX5043_FRAMING
                                    874 	.globl _AX5043_FIFOTHRESH1
                                    875 	.globl _AX5043_FIFOTHRESH0
                                    876 	.globl _AX5043_FIFOSTAT
                                    877 	.globl _AX5043_FIFOFREE1
                                    878 	.globl _AX5043_FIFOFREE0
                                    879 	.globl _AX5043_FIFODATA
                                    880 	.globl _AX5043_FIFOCOUNT1
                                    881 	.globl _AX5043_FIFOCOUNT0
                                    882 	.globl _AX5043_FECSYNC
                                    883 	.globl _AX5043_FECSTATUS
                                    884 	.globl _AX5043_FEC
                                    885 	.globl _AX5043_ENCODING
                                    886 	.globl _AX5043_DIVERSITY
                                    887 	.globl _AX5043_DECIMATION
                                    888 	.globl _AX5043_DACVALUE1
                                    889 	.globl _AX5043_DACVALUE0
                                    890 	.globl _AX5043_DACCONFIG
                                    891 	.globl _AX5043_CRCINIT3
                                    892 	.globl _AX5043_CRCINIT2
                                    893 	.globl _AX5043_CRCINIT1
                                    894 	.globl _AX5043_CRCINIT0
                                    895 	.globl _AX5043_BGNDRSSITHR
                                    896 	.globl _AX5043_BGNDRSSIGAIN
                                    897 	.globl _AX5043_BGNDRSSI
                                    898 	.globl _AX5043_BBTUNE
                                    899 	.globl _AX5043_BBOFFSCAP
                                    900 	.globl _AX5043_AMPLFILTER
                                    901 	.globl _AX5043_AGCCOUNTER
                                    902 	.globl _AX5043_AFSKSPACE1
                                    903 	.globl _AX5043_AFSKSPACE0
                                    904 	.globl _AX5043_AFSKMARK1
                                    905 	.globl _AX5043_AFSKMARK0
                                    906 	.globl _AX5043_AFSKCTRL
                                    907 	.globl _XWTSTAT
                                    908 	.globl _XWTIRQEN
                                    909 	.globl _XWTEVTD
                                    910 	.globl _XWTEVTD1
                                    911 	.globl _XWTEVTD0
                                    912 	.globl _XWTEVTC
                                    913 	.globl _XWTEVTC1
                                    914 	.globl _XWTEVTC0
                                    915 	.globl _XWTEVTB
                                    916 	.globl _XWTEVTB1
                                    917 	.globl _XWTEVTB0
                                    918 	.globl _XWTEVTA
                                    919 	.globl _XWTEVTA1
                                    920 	.globl _XWTEVTA0
                                    921 	.globl _XWTCNTR1
                                    922 	.globl _XWTCNTB
                                    923 	.globl _XWTCNTB1
                                    924 	.globl _XWTCNTB0
                                    925 	.globl _XWTCNTA
                                    926 	.globl _XWTCNTA1
                                    927 	.globl _XWTCNTA0
                                    928 	.globl _XWTCFGB
                                    929 	.globl _XWTCFGA
                                    930 	.globl _XWDTRESET
                                    931 	.globl _XWDTCFG
                                    932 	.globl _XU1STATUS
                                    933 	.globl _XU1SHREG
                                    934 	.globl _XU1MODE
                                    935 	.globl _XU1CTRL
                                    936 	.globl _XU0STATUS
                                    937 	.globl _XU0SHREG
                                    938 	.globl _XU0MODE
                                    939 	.globl _XU0CTRL
                                    940 	.globl _XT2STATUS
                                    941 	.globl _XT2PERIOD
                                    942 	.globl _XT2PERIOD1
                                    943 	.globl _XT2PERIOD0
                                    944 	.globl _XT2MODE
                                    945 	.globl _XT2CNT
                                    946 	.globl _XT2CNT1
                                    947 	.globl _XT2CNT0
                                    948 	.globl _XT2CLKSRC
                                    949 	.globl _XT1STATUS
                                    950 	.globl _XT1PERIOD
                                    951 	.globl _XT1PERIOD1
                                    952 	.globl _XT1PERIOD0
                                    953 	.globl _XT1MODE
                                    954 	.globl _XT1CNT
                                    955 	.globl _XT1CNT1
                                    956 	.globl _XT1CNT0
                                    957 	.globl _XT1CLKSRC
                                    958 	.globl _XT0STATUS
                                    959 	.globl _XT0PERIOD
                                    960 	.globl _XT0PERIOD1
                                    961 	.globl _XT0PERIOD0
                                    962 	.globl _XT0MODE
                                    963 	.globl _XT0CNT
                                    964 	.globl _XT0CNT1
                                    965 	.globl _XT0CNT0
                                    966 	.globl _XT0CLKSRC
                                    967 	.globl _XSPSTATUS
                                    968 	.globl _XSPSHREG
                                    969 	.globl _XSPMODE
                                    970 	.globl _XSPCLKSRC
                                    971 	.globl _XRADIOSTAT
                                    972 	.globl _XRADIOSTAT1
                                    973 	.globl _XRADIOSTAT0
                                    974 	.globl _XRADIODATA3
                                    975 	.globl _XRADIODATA2
                                    976 	.globl _XRADIODATA1
                                    977 	.globl _XRADIODATA0
                                    978 	.globl _XRADIOADDR1
                                    979 	.globl _XRADIOADDR0
                                    980 	.globl _XRADIOACC
                                    981 	.globl _XOC1STATUS
                                    982 	.globl _XOC1PIN
                                    983 	.globl _XOC1MODE
                                    984 	.globl _XOC1COMP
                                    985 	.globl _XOC1COMP1
                                    986 	.globl _XOC1COMP0
                                    987 	.globl _XOC0STATUS
                                    988 	.globl _XOC0PIN
                                    989 	.globl _XOC0MODE
                                    990 	.globl _XOC0COMP
                                    991 	.globl _XOC0COMP1
                                    992 	.globl _XOC0COMP0
                                    993 	.globl _XNVSTATUS
                                    994 	.globl _XNVKEY
                                    995 	.globl _XNVDATA
                                    996 	.globl _XNVDATA1
                                    997 	.globl _XNVDATA0
                                    998 	.globl _XNVADDR
                                    999 	.globl _XNVADDR1
                                   1000 	.globl _XNVADDR0
                                   1001 	.globl _XIC1STATUS
                                   1002 	.globl _XIC1MODE
                                   1003 	.globl _XIC1CAPT
                                   1004 	.globl _XIC1CAPT1
                                   1005 	.globl _XIC1CAPT0
                                   1006 	.globl _XIC0STATUS
                                   1007 	.globl _XIC0MODE
                                   1008 	.globl _XIC0CAPT
                                   1009 	.globl _XIC0CAPT1
                                   1010 	.globl _XIC0CAPT0
                                   1011 	.globl _XPORTR
                                   1012 	.globl _XPORTC
                                   1013 	.globl _XPORTB
                                   1014 	.globl _XPORTA
                                   1015 	.globl _XPINR
                                   1016 	.globl _XPINC
                                   1017 	.globl _XPINB
                                   1018 	.globl _XPINA
                                   1019 	.globl _XDIRR
                                   1020 	.globl _XDIRC
                                   1021 	.globl _XDIRB
                                   1022 	.globl _XDIRA
                                   1023 	.globl _XDBGLNKSTAT
                                   1024 	.globl _XDBGLNKBUF
                                   1025 	.globl _XCODECONFIG
                                   1026 	.globl _XCLKSTAT
                                   1027 	.globl _XCLKCON
                                   1028 	.globl _XANALOGCOMP
                                   1029 	.globl _XADCCONV
                                   1030 	.globl _XADCCLKSRC
                                   1031 	.globl _XADCCH3CONFIG
                                   1032 	.globl _XADCCH2CONFIG
                                   1033 	.globl _XADCCH1CONFIG
                                   1034 	.globl _XADCCH0CONFIG
                                   1035 	.globl _XPCON
                                   1036 	.globl _XIP
                                   1037 	.globl _XIE
                                   1038 	.globl _XDPTR1
                                   1039 	.globl _XDPTR0
                                   1040 	.globl _XTALREADY
                                   1041 	.globl _XTALOSC
                                   1042 	.globl _XTALAMPL
                                   1043 	.globl _SILICONREV
                                   1044 	.globl _SCRATCH3
                                   1045 	.globl _SCRATCH2
                                   1046 	.globl _SCRATCH1
                                   1047 	.globl _SCRATCH0
                                   1048 	.globl _RADIOMUX
                                   1049 	.globl _RADIOFSTATADDR
                                   1050 	.globl _RADIOFSTATADDR1
                                   1051 	.globl _RADIOFSTATADDR0
                                   1052 	.globl _RADIOFDATAADDR
                                   1053 	.globl _RADIOFDATAADDR1
                                   1054 	.globl _RADIOFDATAADDR0
                                   1055 	.globl _OSCRUN
                                   1056 	.globl _OSCREADY
                                   1057 	.globl _OSCFORCERUN
                                   1058 	.globl _OSCCALIB
                                   1059 	.globl _MISCCTRL
                                   1060 	.globl _LPXOSCGM
                                   1061 	.globl _LPOSCREF
                                   1062 	.globl _LPOSCREF1
                                   1063 	.globl _LPOSCREF0
                                   1064 	.globl _LPOSCPER
                                   1065 	.globl _LPOSCPER1
                                   1066 	.globl _LPOSCPER0
                                   1067 	.globl _LPOSCKFILT
                                   1068 	.globl _LPOSCKFILT1
                                   1069 	.globl _LPOSCKFILT0
                                   1070 	.globl _LPOSCFREQ
                                   1071 	.globl _LPOSCFREQ1
                                   1072 	.globl _LPOSCFREQ0
                                   1073 	.globl _LPOSCCONFIG
                                   1074 	.globl _PINSEL
                                   1075 	.globl _PINCHGC
                                   1076 	.globl _PINCHGB
                                   1077 	.globl _PINCHGA
                                   1078 	.globl _PALTRADIO
                                   1079 	.globl _PALTC
                                   1080 	.globl _PALTB
                                   1081 	.globl _PALTA
                                   1082 	.globl _INTCHGC
                                   1083 	.globl _INTCHGB
                                   1084 	.globl _INTCHGA
                                   1085 	.globl _EXTIRQ
                                   1086 	.globl _GPIOENABLE
                                   1087 	.globl _ANALOGA
                                   1088 	.globl _FRCOSCREF
                                   1089 	.globl _FRCOSCREF1
                                   1090 	.globl _FRCOSCREF0
                                   1091 	.globl _FRCOSCPER
                                   1092 	.globl _FRCOSCPER1
                                   1093 	.globl _FRCOSCPER0
                                   1094 	.globl _FRCOSCKFILT
                                   1095 	.globl _FRCOSCKFILT1
                                   1096 	.globl _FRCOSCKFILT0
                                   1097 	.globl _FRCOSCFREQ
                                   1098 	.globl _FRCOSCFREQ1
                                   1099 	.globl _FRCOSCFREQ0
                                   1100 	.globl _FRCOSCCTRL
                                   1101 	.globl _FRCOSCCONFIG
                                   1102 	.globl _DMA1CONFIG
                                   1103 	.globl _DMA1ADDR
                                   1104 	.globl _DMA1ADDR1
                                   1105 	.globl _DMA1ADDR0
                                   1106 	.globl _DMA0CONFIG
                                   1107 	.globl _DMA0ADDR
                                   1108 	.globl _DMA0ADDR1
                                   1109 	.globl _DMA0ADDR0
                                   1110 	.globl _ADCTUNE2
                                   1111 	.globl _ADCTUNE1
                                   1112 	.globl _ADCTUNE0
                                   1113 	.globl _ADCCH3VAL
                                   1114 	.globl _ADCCH3VAL1
                                   1115 	.globl _ADCCH3VAL0
                                   1116 	.globl _ADCCH2VAL
                                   1117 	.globl _ADCCH2VAL1
                                   1118 	.globl _ADCCH2VAL0
                                   1119 	.globl _ADCCH1VAL
                                   1120 	.globl _ADCCH1VAL1
                                   1121 	.globl _ADCCH1VAL0
                                   1122 	.globl _ADCCH0VAL
                                   1123 	.globl _ADCCH0VAL1
                                   1124 	.globl _ADCCH0VAL0
                                   1125 	.globl _ax5043_set_registers
                                   1126 	.globl _ax5043_set_registers_tx
                                   1127 	.globl _ax5043_set_registers_rx
                                   1128 	.globl _ax5043_set_registers_rxwor
                                   1129 	.globl _ax5043_set_registers_rxcont
                                   1130 	.globl _ax5043_set_registers_rxcont_singleparamset
                                   1131 	.globl _axradio_setup_pincfg1
                                   1132 	.globl _axradio_setup_pincfg2
                                   1133 	.globl _axradio_conv_freq_fromhz
                                   1134 	.globl _axradio_conv_freq_tohz
                                   1135 	.globl _axradio_conv_freq_fromreg
                                   1136 	.globl _axradio_conv_timeinterval_totimer0
                                   1137 	.globl _axradio_framing_check_crc
                                   1138 	.globl _axradio_framing_append_crc
                                   1139 ;--------------------------------------------------------
                                   1140 ; special function registers
                                   1141 ;--------------------------------------------------------
                                   1142 	.area RSEG    (ABS,DATA)
      000000                       1143 	.org 0x0000
                           0000E0  1144 _ACC	=	0x00e0
                           0000F0  1145 _B	=	0x00f0
                           000083  1146 _DPH	=	0x0083
                           000085  1147 _DPH1	=	0x0085
                           000082  1148 _DPL	=	0x0082
                           000084  1149 _DPL1	=	0x0084
                           008382  1150 _DPTR0	=	0x8382
                           008584  1151 _DPTR1	=	0x8584
                           000086  1152 _DPS	=	0x0086
                           0000A0  1153 _E2IE	=	0x00a0
                           0000C0  1154 _E2IP	=	0x00c0
                           000098  1155 _EIE	=	0x0098
                           0000B0  1156 _EIP	=	0x00b0
                           0000A8  1157 _IE	=	0x00a8
                           0000B8  1158 _IP	=	0x00b8
                           000087  1159 _PCON	=	0x0087
                           0000D0  1160 _PSW	=	0x00d0
                           000081  1161 _SP	=	0x0081
                           0000D9  1162 _XPAGE	=	0x00d9
                           0000D9  1163 __XPAGE	=	0x00d9
                           0000CA  1164 _ADCCH0CONFIG	=	0x00ca
                           0000CB  1165 _ADCCH1CONFIG	=	0x00cb
                           0000D2  1166 _ADCCH2CONFIG	=	0x00d2
                           0000D3  1167 _ADCCH3CONFIG	=	0x00d3
                           0000D1  1168 _ADCCLKSRC	=	0x00d1
                           0000C9  1169 _ADCCONV	=	0x00c9
                           0000E1  1170 _ANALOGCOMP	=	0x00e1
                           0000C6  1171 _CLKCON	=	0x00c6
                           0000C7  1172 _CLKSTAT	=	0x00c7
                           000097  1173 _CODECONFIG	=	0x0097
                           0000E3  1174 _DBGLNKBUF	=	0x00e3
                           0000E2  1175 _DBGLNKSTAT	=	0x00e2
                           000089  1176 _DIRA	=	0x0089
                           00008A  1177 _DIRB	=	0x008a
                           00008B  1178 _DIRC	=	0x008b
                           00008E  1179 _DIRR	=	0x008e
                           0000C8  1180 _PINA	=	0x00c8
                           0000E8  1181 _PINB	=	0x00e8
                           0000F8  1182 _PINC	=	0x00f8
                           00008D  1183 _PINR	=	0x008d
                           000080  1184 _PORTA	=	0x0080
                           000088  1185 _PORTB	=	0x0088
                           000090  1186 _PORTC	=	0x0090
                           00008C  1187 _PORTR	=	0x008c
                           0000CE  1188 _IC0CAPT0	=	0x00ce
                           0000CF  1189 _IC0CAPT1	=	0x00cf
                           00CFCE  1190 _IC0CAPT	=	0xcfce
                           0000CC  1191 _IC0MODE	=	0x00cc
                           0000CD  1192 _IC0STATUS	=	0x00cd
                           0000D6  1193 _IC1CAPT0	=	0x00d6
                           0000D7  1194 _IC1CAPT1	=	0x00d7
                           00D7D6  1195 _IC1CAPT	=	0xd7d6
                           0000D4  1196 _IC1MODE	=	0x00d4
                           0000D5  1197 _IC1STATUS	=	0x00d5
                           000092  1198 _NVADDR0	=	0x0092
                           000093  1199 _NVADDR1	=	0x0093
                           009392  1200 _NVADDR	=	0x9392
                           000094  1201 _NVDATA0	=	0x0094
                           000095  1202 _NVDATA1	=	0x0095
                           009594  1203 _NVDATA	=	0x9594
                           000096  1204 _NVKEY	=	0x0096
                           000091  1205 _NVSTATUS	=	0x0091
                           0000BC  1206 _OC0COMP0	=	0x00bc
                           0000BD  1207 _OC0COMP1	=	0x00bd
                           00BDBC  1208 _OC0COMP	=	0xbdbc
                           0000B9  1209 _OC0MODE	=	0x00b9
                           0000BA  1210 _OC0PIN	=	0x00ba
                           0000BB  1211 _OC0STATUS	=	0x00bb
                           0000C4  1212 _OC1COMP0	=	0x00c4
                           0000C5  1213 _OC1COMP1	=	0x00c5
                           00C5C4  1214 _OC1COMP	=	0xc5c4
                           0000C1  1215 _OC1MODE	=	0x00c1
                           0000C2  1216 _OC1PIN	=	0x00c2
                           0000C3  1217 _OC1STATUS	=	0x00c3
                           0000B1  1218 _RADIOACC	=	0x00b1
                           0000B3  1219 _RADIOADDR0	=	0x00b3
                           0000B2  1220 _RADIOADDR1	=	0x00b2
                           00B2B3  1221 _RADIOADDR	=	0xb2b3
                           0000B7  1222 _RADIODATA0	=	0x00b7
                           0000B6  1223 _RADIODATA1	=	0x00b6
                           0000B5  1224 _RADIODATA2	=	0x00b5
                           0000B4  1225 _RADIODATA3	=	0x00b4
                           B4B5B6B7  1226 _RADIODATA	=	0xb4b5b6b7
                           0000BE  1227 _RADIOSTAT0	=	0x00be
                           0000BF  1228 _RADIOSTAT1	=	0x00bf
                           00BFBE  1229 _RADIOSTAT	=	0xbfbe
                           0000DF  1230 _SPCLKSRC	=	0x00df
                           0000DC  1231 _SPMODE	=	0x00dc
                           0000DE  1232 _SPSHREG	=	0x00de
                           0000DD  1233 _SPSTATUS	=	0x00dd
                           00009A  1234 _T0CLKSRC	=	0x009a
                           00009C  1235 _T0CNT0	=	0x009c
                           00009D  1236 _T0CNT1	=	0x009d
                           009D9C  1237 _T0CNT	=	0x9d9c
                           000099  1238 _T0MODE	=	0x0099
                           00009E  1239 _T0PERIOD0	=	0x009e
                           00009F  1240 _T0PERIOD1	=	0x009f
                           009F9E  1241 _T0PERIOD	=	0x9f9e
                           00009B  1242 _T0STATUS	=	0x009b
                           0000A2  1243 _T1CLKSRC	=	0x00a2
                           0000A4  1244 _T1CNT0	=	0x00a4
                           0000A5  1245 _T1CNT1	=	0x00a5
                           00A5A4  1246 _T1CNT	=	0xa5a4
                           0000A1  1247 _T1MODE	=	0x00a1
                           0000A6  1248 _T1PERIOD0	=	0x00a6
                           0000A7  1249 _T1PERIOD1	=	0x00a7
                           00A7A6  1250 _T1PERIOD	=	0xa7a6
                           0000A3  1251 _T1STATUS	=	0x00a3
                           0000AA  1252 _T2CLKSRC	=	0x00aa
                           0000AC  1253 _T2CNT0	=	0x00ac
                           0000AD  1254 _T2CNT1	=	0x00ad
                           00ADAC  1255 _T2CNT	=	0xadac
                           0000A9  1256 _T2MODE	=	0x00a9
                           0000AE  1257 _T2PERIOD0	=	0x00ae
                           0000AF  1258 _T2PERIOD1	=	0x00af
                           00AFAE  1259 _T2PERIOD	=	0xafae
                           0000AB  1260 _T2STATUS	=	0x00ab
                           0000E4  1261 _U0CTRL	=	0x00e4
                           0000E7  1262 _U0MODE	=	0x00e7
                           0000E6  1263 _U0SHREG	=	0x00e6
                           0000E5  1264 _U0STATUS	=	0x00e5
                           0000EC  1265 _U1CTRL	=	0x00ec
                           0000EF  1266 _U1MODE	=	0x00ef
                           0000EE  1267 _U1SHREG	=	0x00ee
                           0000ED  1268 _U1STATUS	=	0x00ed
                           0000DA  1269 _WDTCFG	=	0x00da
                           0000DB  1270 _WDTRESET	=	0x00db
                           0000F1  1271 _WTCFGA	=	0x00f1
                           0000F9  1272 _WTCFGB	=	0x00f9
                           0000F2  1273 _WTCNTA0	=	0x00f2
                           0000F3  1274 _WTCNTA1	=	0x00f3
                           00F3F2  1275 _WTCNTA	=	0xf3f2
                           0000FA  1276 _WTCNTB0	=	0x00fa
                           0000FB  1277 _WTCNTB1	=	0x00fb
                           00FBFA  1278 _WTCNTB	=	0xfbfa
                           0000EB  1279 _WTCNTR1	=	0x00eb
                           0000F4  1280 _WTEVTA0	=	0x00f4
                           0000F5  1281 _WTEVTA1	=	0x00f5
                           00F5F4  1282 _WTEVTA	=	0xf5f4
                           0000F6  1283 _WTEVTB0	=	0x00f6
                           0000F7  1284 _WTEVTB1	=	0x00f7
                           00F7F6  1285 _WTEVTB	=	0xf7f6
                           0000FC  1286 _WTEVTC0	=	0x00fc
                           0000FD  1287 _WTEVTC1	=	0x00fd
                           00FDFC  1288 _WTEVTC	=	0xfdfc
                           0000FE  1289 _WTEVTD0	=	0x00fe
                           0000FF  1290 _WTEVTD1	=	0x00ff
                           00FFFE  1291 _WTEVTD	=	0xfffe
                           0000E9  1292 _WTIRQEN	=	0x00e9
                           0000EA  1293 _WTSTAT	=	0x00ea
                                   1294 ;--------------------------------------------------------
                                   1295 ; special function bits
                                   1296 ;--------------------------------------------------------
                                   1297 	.area RSEG    (ABS,DATA)
      000000                       1298 	.org 0x0000
                           0000E0  1299 _ACC_0	=	0x00e0
                           0000E1  1300 _ACC_1	=	0x00e1
                           0000E2  1301 _ACC_2	=	0x00e2
                           0000E3  1302 _ACC_3	=	0x00e3
                           0000E4  1303 _ACC_4	=	0x00e4
                           0000E5  1304 _ACC_5	=	0x00e5
                           0000E6  1305 _ACC_6	=	0x00e6
                           0000E7  1306 _ACC_7	=	0x00e7
                           0000F0  1307 _B_0	=	0x00f0
                           0000F1  1308 _B_1	=	0x00f1
                           0000F2  1309 _B_2	=	0x00f2
                           0000F3  1310 _B_3	=	0x00f3
                           0000F4  1311 _B_4	=	0x00f4
                           0000F5  1312 _B_5	=	0x00f5
                           0000F6  1313 _B_6	=	0x00f6
                           0000F7  1314 _B_7	=	0x00f7
                           0000A0  1315 _E2IE_0	=	0x00a0
                           0000A1  1316 _E2IE_1	=	0x00a1
                           0000A2  1317 _E2IE_2	=	0x00a2
                           0000A3  1318 _E2IE_3	=	0x00a3
                           0000A4  1319 _E2IE_4	=	0x00a4
                           0000A5  1320 _E2IE_5	=	0x00a5
                           0000A6  1321 _E2IE_6	=	0x00a6
                           0000A7  1322 _E2IE_7	=	0x00a7
                           0000C0  1323 _E2IP_0	=	0x00c0
                           0000C1  1324 _E2IP_1	=	0x00c1
                           0000C2  1325 _E2IP_2	=	0x00c2
                           0000C3  1326 _E2IP_3	=	0x00c3
                           0000C4  1327 _E2IP_4	=	0x00c4
                           0000C5  1328 _E2IP_5	=	0x00c5
                           0000C6  1329 _E2IP_6	=	0x00c6
                           0000C7  1330 _E2IP_7	=	0x00c7
                           000098  1331 _EIE_0	=	0x0098
                           000099  1332 _EIE_1	=	0x0099
                           00009A  1333 _EIE_2	=	0x009a
                           00009B  1334 _EIE_3	=	0x009b
                           00009C  1335 _EIE_4	=	0x009c
                           00009D  1336 _EIE_5	=	0x009d
                           00009E  1337 _EIE_6	=	0x009e
                           00009F  1338 _EIE_7	=	0x009f
                           0000B0  1339 _EIP_0	=	0x00b0
                           0000B1  1340 _EIP_1	=	0x00b1
                           0000B2  1341 _EIP_2	=	0x00b2
                           0000B3  1342 _EIP_3	=	0x00b3
                           0000B4  1343 _EIP_4	=	0x00b4
                           0000B5  1344 _EIP_5	=	0x00b5
                           0000B6  1345 _EIP_6	=	0x00b6
                           0000B7  1346 _EIP_7	=	0x00b7
                           0000A8  1347 _IE_0	=	0x00a8
                           0000A9  1348 _IE_1	=	0x00a9
                           0000AA  1349 _IE_2	=	0x00aa
                           0000AB  1350 _IE_3	=	0x00ab
                           0000AC  1351 _IE_4	=	0x00ac
                           0000AD  1352 _IE_5	=	0x00ad
                           0000AE  1353 _IE_6	=	0x00ae
                           0000AF  1354 _IE_7	=	0x00af
                           0000AF  1355 _EA	=	0x00af
                           0000B8  1356 _IP_0	=	0x00b8
                           0000B9  1357 _IP_1	=	0x00b9
                           0000BA  1358 _IP_2	=	0x00ba
                           0000BB  1359 _IP_3	=	0x00bb
                           0000BC  1360 _IP_4	=	0x00bc
                           0000BD  1361 _IP_5	=	0x00bd
                           0000BE  1362 _IP_6	=	0x00be
                           0000BF  1363 _IP_7	=	0x00bf
                           0000D0  1364 _P	=	0x00d0
                           0000D1  1365 _F1	=	0x00d1
                           0000D2  1366 _OV	=	0x00d2
                           0000D3  1367 _RS0	=	0x00d3
                           0000D4  1368 _RS1	=	0x00d4
                           0000D5  1369 _F0	=	0x00d5
                           0000D6  1370 _AC	=	0x00d6
                           0000D7  1371 _CY	=	0x00d7
                           0000C8  1372 _PINA_0	=	0x00c8
                           0000C9  1373 _PINA_1	=	0x00c9
                           0000CA  1374 _PINA_2	=	0x00ca
                           0000CB  1375 _PINA_3	=	0x00cb
                           0000CC  1376 _PINA_4	=	0x00cc
                           0000CD  1377 _PINA_5	=	0x00cd
                           0000CE  1378 _PINA_6	=	0x00ce
                           0000CF  1379 _PINA_7	=	0x00cf
                           0000E8  1380 _PINB_0	=	0x00e8
                           0000E9  1381 _PINB_1	=	0x00e9
                           0000EA  1382 _PINB_2	=	0x00ea
                           0000EB  1383 _PINB_3	=	0x00eb
                           0000EC  1384 _PINB_4	=	0x00ec
                           0000ED  1385 _PINB_5	=	0x00ed
                           0000EE  1386 _PINB_6	=	0x00ee
                           0000EF  1387 _PINB_7	=	0x00ef
                           0000F8  1388 _PINC_0	=	0x00f8
                           0000F9  1389 _PINC_1	=	0x00f9
                           0000FA  1390 _PINC_2	=	0x00fa
                           0000FB  1391 _PINC_3	=	0x00fb
                           0000FC  1392 _PINC_4	=	0x00fc
                           0000FD  1393 _PINC_5	=	0x00fd
                           0000FE  1394 _PINC_6	=	0x00fe
                           0000FF  1395 _PINC_7	=	0x00ff
                           000080  1396 _PORTA_0	=	0x0080
                           000081  1397 _PORTA_1	=	0x0081
                           000082  1398 _PORTA_2	=	0x0082
                           000083  1399 _PORTA_3	=	0x0083
                           000084  1400 _PORTA_4	=	0x0084
                           000085  1401 _PORTA_5	=	0x0085
                           000086  1402 _PORTA_6	=	0x0086
                           000087  1403 _PORTA_7	=	0x0087
                           000088  1404 _PORTB_0	=	0x0088
                           000089  1405 _PORTB_1	=	0x0089
                           00008A  1406 _PORTB_2	=	0x008a
                           00008B  1407 _PORTB_3	=	0x008b
                           00008C  1408 _PORTB_4	=	0x008c
                           00008D  1409 _PORTB_5	=	0x008d
                           00008E  1410 _PORTB_6	=	0x008e
                           00008F  1411 _PORTB_7	=	0x008f
                           000090  1412 _PORTC_0	=	0x0090
                           000091  1413 _PORTC_1	=	0x0091
                           000092  1414 _PORTC_2	=	0x0092
                           000093  1415 _PORTC_3	=	0x0093
                           000094  1416 _PORTC_4	=	0x0094
                           000095  1417 _PORTC_5	=	0x0095
                           000096  1418 _PORTC_6	=	0x0096
                           000097  1419 _PORTC_7	=	0x0097
                                   1420 ;--------------------------------------------------------
                                   1421 ; overlayable register banks
                                   1422 ;--------------------------------------------------------
                                   1423 	.area REG_BANK_0	(REL,OVR,DATA)
      000000                       1424 	.ds 8
                                   1425 ;--------------------------------------------------------
                                   1426 ; internal ram data
                                   1427 ;--------------------------------------------------------
                                   1428 	.area DSEG    (DATA)
                                   1429 ;--------------------------------------------------------
                                   1430 ; overlayable items in internal ram 
                                   1431 ;--------------------------------------------------------
                                   1432 ;--------------------------------------------------------
                                   1433 ; indirectly addressable internal ram data
                                   1434 ;--------------------------------------------------------
                                   1435 	.area ISEG    (DATA)
                                   1436 ;--------------------------------------------------------
                                   1437 ; absolute internal ram data
                                   1438 ;--------------------------------------------------------
                                   1439 	.area IABS    (ABS,DATA)
                                   1440 	.area IABS    (ABS,DATA)
                                   1441 ;--------------------------------------------------------
                                   1442 ; bit data
                                   1443 ;--------------------------------------------------------
                                   1444 	.area BSEG    (BIT)
                                   1445 ;--------------------------------------------------------
                                   1446 ; paged external ram data
                                   1447 ;--------------------------------------------------------
                                   1448 	.area PSEG    (PAG,XDATA)
                                   1449 ;--------------------------------------------------------
                                   1450 ; external ram data
                                   1451 ;--------------------------------------------------------
                                   1452 	.area XSEG    (XDATA)
                           007020  1453 _ADCCH0VAL0	=	0x7020
                           007021  1454 _ADCCH0VAL1	=	0x7021
                           007020  1455 _ADCCH0VAL	=	0x7020
                           007022  1456 _ADCCH1VAL0	=	0x7022
                           007023  1457 _ADCCH1VAL1	=	0x7023
                           007022  1458 _ADCCH1VAL	=	0x7022
                           007024  1459 _ADCCH2VAL0	=	0x7024
                           007025  1460 _ADCCH2VAL1	=	0x7025
                           007024  1461 _ADCCH2VAL	=	0x7024
                           007026  1462 _ADCCH3VAL0	=	0x7026
                           007027  1463 _ADCCH3VAL1	=	0x7027
                           007026  1464 _ADCCH3VAL	=	0x7026
                           007028  1465 _ADCTUNE0	=	0x7028
                           007029  1466 _ADCTUNE1	=	0x7029
                           00702A  1467 _ADCTUNE2	=	0x702a
                           007010  1468 _DMA0ADDR0	=	0x7010
                           007011  1469 _DMA0ADDR1	=	0x7011
                           007010  1470 _DMA0ADDR	=	0x7010
                           007014  1471 _DMA0CONFIG	=	0x7014
                           007012  1472 _DMA1ADDR0	=	0x7012
                           007013  1473 _DMA1ADDR1	=	0x7013
                           007012  1474 _DMA1ADDR	=	0x7012
                           007015  1475 _DMA1CONFIG	=	0x7015
                           007070  1476 _FRCOSCCONFIG	=	0x7070
                           007071  1477 _FRCOSCCTRL	=	0x7071
                           007076  1478 _FRCOSCFREQ0	=	0x7076
                           007077  1479 _FRCOSCFREQ1	=	0x7077
                           007076  1480 _FRCOSCFREQ	=	0x7076
                           007072  1481 _FRCOSCKFILT0	=	0x7072
                           007073  1482 _FRCOSCKFILT1	=	0x7073
                           007072  1483 _FRCOSCKFILT	=	0x7072
                           007078  1484 _FRCOSCPER0	=	0x7078
                           007079  1485 _FRCOSCPER1	=	0x7079
                           007078  1486 _FRCOSCPER	=	0x7078
                           007074  1487 _FRCOSCREF0	=	0x7074
                           007075  1488 _FRCOSCREF1	=	0x7075
                           007074  1489 _FRCOSCREF	=	0x7074
                           007007  1490 _ANALOGA	=	0x7007
                           00700C  1491 _GPIOENABLE	=	0x700c
                           007003  1492 _EXTIRQ	=	0x7003
                           007000  1493 _INTCHGA	=	0x7000
                           007001  1494 _INTCHGB	=	0x7001
                           007002  1495 _INTCHGC	=	0x7002
                           007008  1496 _PALTA	=	0x7008
                           007009  1497 _PALTB	=	0x7009
                           00700A  1498 _PALTC	=	0x700a
                           007046  1499 _PALTRADIO	=	0x7046
                           007004  1500 _PINCHGA	=	0x7004
                           007005  1501 _PINCHGB	=	0x7005
                           007006  1502 _PINCHGC	=	0x7006
                           00700B  1503 _PINSEL	=	0x700b
                           007060  1504 _LPOSCCONFIG	=	0x7060
                           007066  1505 _LPOSCFREQ0	=	0x7066
                           007067  1506 _LPOSCFREQ1	=	0x7067
                           007066  1507 _LPOSCFREQ	=	0x7066
                           007062  1508 _LPOSCKFILT0	=	0x7062
                           007063  1509 _LPOSCKFILT1	=	0x7063
                           007062  1510 _LPOSCKFILT	=	0x7062
                           007068  1511 _LPOSCPER0	=	0x7068
                           007069  1512 _LPOSCPER1	=	0x7069
                           007068  1513 _LPOSCPER	=	0x7068
                           007064  1514 _LPOSCREF0	=	0x7064
                           007065  1515 _LPOSCREF1	=	0x7065
                           007064  1516 _LPOSCREF	=	0x7064
                           007054  1517 _LPXOSCGM	=	0x7054
                           007F01  1518 _MISCCTRL	=	0x7f01
                           007053  1519 _OSCCALIB	=	0x7053
                           007050  1520 _OSCFORCERUN	=	0x7050
                           007052  1521 _OSCREADY	=	0x7052
                           007051  1522 _OSCRUN	=	0x7051
                           007040  1523 _RADIOFDATAADDR0	=	0x7040
                           007041  1524 _RADIOFDATAADDR1	=	0x7041
                           007040  1525 _RADIOFDATAADDR	=	0x7040
                           007042  1526 _RADIOFSTATADDR0	=	0x7042
                           007043  1527 _RADIOFSTATADDR1	=	0x7043
                           007042  1528 _RADIOFSTATADDR	=	0x7042
                           007044  1529 _RADIOMUX	=	0x7044
                           007084  1530 _SCRATCH0	=	0x7084
                           007085  1531 _SCRATCH1	=	0x7085
                           007086  1532 _SCRATCH2	=	0x7086
                           007087  1533 _SCRATCH3	=	0x7087
                           007F00  1534 _SILICONREV	=	0x7f00
                           007F19  1535 _XTALAMPL	=	0x7f19
                           007F18  1536 _XTALOSC	=	0x7f18
                           007F1A  1537 _XTALREADY	=	0x7f1a
                           003F82  1538 _XDPTR0	=	0x3f82
                           003F84  1539 _XDPTR1	=	0x3f84
                           003FA8  1540 _XIE	=	0x3fa8
                           003FB8  1541 _XIP	=	0x3fb8
                           003F87  1542 _XPCON	=	0x3f87
                           003FCA  1543 _XADCCH0CONFIG	=	0x3fca
                           003FCB  1544 _XADCCH1CONFIG	=	0x3fcb
                           003FD2  1545 _XADCCH2CONFIG	=	0x3fd2
                           003FD3  1546 _XADCCH3CONFIG	=	0x3fd3
                           003FD1  1547 _XADCCLKSRC	=	0x3fd1
                           003FC9  1548 _XADCCONV	=	0x3fc9
                           003FE1  1549 _XANALOGCOMP	=	0x3fe1
                           003FC6  1550 _XCLKCON	=	0x3fc6
                           003FC7  1551 _XCLKSTAT	=	0x3fc7
                           003F97  1552 _XCODECONFIG	=	0x3f97
                           003FE3  1553 _XDBGLNKBUF	=	0x3fe3
                           003FE2  1554 _XDBGLNKSTAT	=	0x3fe2
                           003F89  1555 _XDIRA	=	0x3f89
                           003F8A  1556 _XDIRB	=	0x3f8a
                           003F8B  1557 _XDIRC	=	0x3f8b
                           003F8E  1558 _XDIRR	=	0x3f8e
                           003FC8  1559 _XPINA	=	0x3fc8
                           003FE8  1560 _XPINB	=	0x3fe8
                           003FF8  1561 _XPINC	=	0x3ff8
                           003F8D  1562 _XPINR	=	0x3f8d
                           003F80  1563 _XPORTA	=	0x3f80
                           003F88  1564 _XPORTB	=	0x3f88
                           003F90  1565 _XPORTC	=	0x3f90
                           003F8C  1566 _XPORTR	=	0x3f8c
                           003FCE  1567 _XIC0CAPT0	=	0x3fce
                           003FCF  1568 _XIC0CAPT1	=	0x3fcf
                           003FCE  1569 _XIC0CAPT	=	0x3fce
                           003FCC  1570 _XIC0MODE	=	0x3fcc
                           003FCD  1571 _XIC0STATUS	=	0x3fcd
                           003FD6  1572 _XIC1CAPT0	=	0x3fd6
                           003FD7  1573 _XIC1CAPT1	=	0x3fd7
                           003FD6  1574 _XIC1CAPT	=	0x3fd6
                           003FD4  1575 _XIC1MODE	=	0x3fd4
                           003FD5  1576 _XIC1STATUS	=	0x3fd5
                           003F92  1577 _XNVADDR0	=	0x3f92
                           003F93  1578 _XNVADDR1	=	0x3f93
                           003F92  1579 _XNVADDR	=	0x3f92
                           003F94  1580 _XNVDATA0	=	0x3f94
                           003F95  1581 _XNVDATA1	=	0x3f95
                           003F94  1582 _XNVDATA	=	0x3f94
                           003F96  1583 _XNVKEY	=	0x3f96
                           003F91  1584 _XNVSTATUS	=	0x3f91
                           003FBC  1585 _XOC0COMP0	=	0x3fbc
                           003FBD  1586 _XOC0COMP1	=	0x3fbd
                           003FBC  1587 _XOC0COMP	=	0x3fbc
                           003FB9  1588 _XOC0MODE	=	0x3fb9
                           003FBA  1589 _XOC0PIN	=	0x3fba
                           003FBB  1590 _XOC0STATUS	=	0x3fbb
                           003FC4  1591 _XOC1COMP0	=	0x3fc4
                           003FC5  1592 _XOC1COMP1	=	0x3fc5
                           003FC4  1593 _XOC1COMP	=	0x3fc4
                           003FC1  1594 _XOC1MODE	=	0x3fc1
                           003FC2  1595 _XOC1PIN	=	0x3fc2
                           003FC3  1596 _XOC1STATUS	=	0x3fc3
                           003FB1  1597 _XRADIOACC	=	0x3fb1
                           003FB3  1598 _XRADIOADDR0	=	0x3fb3
                           003FB2  1599 _XRADIOADDR1	=	0x3fb2
                           003FB7  1600 _XRADIODATA0	=	0x3fb7
                           003FB6  1601 _XRADIODATA1	=	0x3fb6
                           003FB5  1602 _XRADIODATA2	=	0x3fb5
                           003FB4  1603 _XRADIODATA3	=	0x3fb4
                           003FBE  1604 _XRADIOSTAT0	=	0x3fbe
                           003FBF  1605 _XRADIOSTAT1	=	0x3fbf
                           003FBE  1606 _XRADIOSTAT	=	0x3fbe
                           003FDF  1607 _XSPCLKSRC	=	0x3fdf
                           003FDC  1608 _XSPMODE	=	0x3fdc
                           003FDE  1609 _XSPSHREG	=	0x3fde
                           003FDD  1610 _XSPSTATUS	=	0x3fdd
                           003F9A  1611 _XT0CLKSRC	=	0x3f9a
                           003F9C  1612 _XT0CNT0	=	0x3f9c
                           003F9D  1613 _XT0CNT1	=	0x3f9d
                           003F9C  1614 _XT0CNT	=	0x3f9c
                           003F99  1615 _XT0MODE	=	0x3f99
                           003F9E  1616 _XT0PERIOD0	=	0x3f9e
                           003F9F  1617 _XT0PERIOD1	=	0x3f9f
                           003F9E  1618 _XT0PERIOD	=	0x3f9e
                           003F9B  1619 _XT0STATUS	=	0x3f9b
                           003FA2  1620 _XT1CLKSRC	=	0x3fa2
                           003FA4  1621 _XT1CNT0	=	0x3fa4
                           003FA5  1622 _XT1CNT1	=	0x3fa5
                           003FA4  1623 _XT1CNT	=	0x3fa4
                           003FA1  1624 _XT1MODE	=	0x3fa1
                           003FA6  1625 _XT1PERIOD0	=	0x3fa6
                           003FA7  1626 _XT1PERIOD1	=	0x3fa7
                           003FA6  1627 _XT1PERIOD	=	0x3fa6
                           003FA3  1628 _XT1STATUS	=	0x3fa3
                           003FAA  1629 _XT2CLKSRC	=	0x3faa
                           003FAC  1630 _XT2CNT0	=	0x3fac
                           003FAD  1631 _XT2CNT1	=	0x3fad
                           003FAC  1632 _XT2CNT	=	0x3fac
                           003FA9  1633 _XT2MODE	=	0x3fa9
                           003FAE  1634 _XT2PERIOD0	=	0x3fae
                           003FAF  1635 _XT2PERIOD1	=	0x3faf
                           003FAE  1636 _XT2PERIOD	=	0x3fae
                           003FAB  1637 _XT2STATUS	=	0x3fab
                           003FE4  1638 _XU0CTRL	=	0x3fe4
                           003FE7  1639 _XU0MODE	=	0x3fe7
                           003FE6  1640 _XU0SHREG	=	0x3fe6
                           003FE5  1641 _XU0STATUS	=	0x3fe5
                           003FEC  1642 _XU1CTRL	=	0x3fec
                           003FEF  1643 _XU1MODE	=	0x3fef
                           003FEE  1644 _XU1SHREG	=	0x3fee
                           003FED  1645 _XU1STATUS	=	0x3fed
                           003FDA  1646 _XWDTCFG	=	0x3fda
                           003FDB  1647 _XWDTRESET	=	0x3fdb
                           003FF1  1648 _XWTCFGA	=	0x3ff1
                           003FF9  1649 _XWTCFGB	=	0x3ff9
                           003FF2  1650 _XWTCNTA0	=	0x3ff2
                           003FF3  1651 _XWTCNTA1	=	0x3ff3
                           003FF2  1652 _XWTCNTA	=	0x3ff2
                           003FFA  1653 _XWTCNTB0	=	0x3ffa
                           003FFB  1654 _XWTCNTB1	=	0x3ffb
                           003FFA  1655 _XWTCNTB	=	0x3ffa
                           003FEB  1656 _XWTCNTR1	=	0x3feb
                           003FF4  1657 _XWTEVTA0	=	0x3ff4
                           003FF5  1658 _XWTEVTA1	=	0x3ff5
                           003FF4  1659 _XWTEVTA	=	0x3ff4
                           003FF6  1660 _XWTEVTB0	=	0x3ff6
                           003FF7  1661 _XWTEVTB1	=	0x3ff7
                           003FF6  1662 _XWTEVTB	=	0x3ff6
                           003FFC  1663 _XWTEVTC0	=	0x3ffc
                           003FFD  1664 _XWTEVTC1	=	0x3ffd
                           003FFC  1665 _XWTEVTC	=	0x3ffc
                           003FFE  1666 _XWTEVTD0	=	0x3ffe
                           003FFF  1667 _XWTEVTD1	=	0x3fff
                           003FFE  1668 _XWTEVTD	=	0x3ffe
                           003FE9  1669 _XWTIRQEN	=	0x3fe9
                           003FEA  1670 _XWTSTAT	=	0x3fea
                           004114  1671 _AX5043_AFSKCTRL	=	0x4114
                           004113  1672 _AX5043_AFSKMARK0	=	0x4113
                           004112  1673 _AX5043_AFSKMARK1	=	0x4112
                           004111  1674 _AX5043_AFSKSPACE0	=	0x4111
                           004110  1675 _AX5043_AFSKSPACE1	=	0x4110
                           004043  1676 _AX5043_AGCCOUNTER	=	0x4043
                           004115  1677 _AX5043_AMPLFILTER	=	0x4115
                           004189  1678 _AX5043_BBOFFSCAP	=	0x4189
                           004188  1679 _AX5043_BBTUNE	=	0x4188
                           004041  1680 _AX5043_BGNDRSSI	=	0x4041
                           00422E  1681 _AX5043_BGNDRSSIGAIN	=	0x422e
                           00422F  1682 _AX5043_BGNDRSSITHR	=	0x422f
                           004017  1683 _AX5043_CRCINIT0	=	0x4017
                           004016  1684 _AX5043_CRCINIT1	=	0x4016
                           004015  1685 _AX5043_CRCINIT2	=	0x4015
                           004014  1686 _AX5043_CRCINIT3	=	0x4014
                           004332  1687 _AX5043_DACCONFIG	=	0x4332
                           004331  1688 _AX5043_DACVALUE0	=	0x4331
                           004330  1689 _AX5043_DACVALUE1	=	0x4330
                           004102  1690 _AX5043_DECIMATION	=	0x4102
                           004042  1691 _AX5043_DIVERSITY	=	0x4042
                           004011  1692 _AX5043_ENCODING	=	0x4011
                           004018  1693 _AX5043_FEC	=	0x4018
                           00401A  1694 _AX5043_FECSTATUS	=	0x401a
                           004019  1695 _AX5043_FECSYNC	=	0x4019
                           00402B  1696 _AX5043_FIFOCOUNT0	=	0x402b
                           00402A  1697 _AX5043_FIFOCOUNT1	=	0x402a
                           004029  1698 _AX5043_FIFODATA	=	0x4029
                           00402D  1699 _AX5043_FIFOFREE0	=	0x402d
                           00402C  1700 _AX5043_FIFOFREE1	=	0x402c
                           004028  1701 _AX5043_FIFOSTAT	=	0x4028
                           00402F  1702 _AX5043_FIFOTHRESH0	=	0x402f
                           00402E  1703 _AX5043_FIFOTHRESH1	=	0x402e
                           004012  1704 _AX5043_FRAMING	=	0x4012
                           004037  1705 _AX5043_FREQA0	=	0x4037
                           004036  1706 _AX5043_FREQA1	=	0x4036
                           004035  1707 _AX5043_FREQA2	=	0x4035
                           004034  1708 _AX5043_FREQA3	=	0x4034
                           00403F  1709 _AX5043_FREQB0	=	0x403f
                           00403E  1710 _AX5043_FREQB1	=	0x403e
                           00403D  1711 _AX5043_FREQB2	=	0x403d
                           00403C  1712 _AX5043_FREQB3	=	0x403c
                           004163  1713 _AX5043_FSKDEV0	=	0x4163
                           004162  1714 _AX5043_FSKDEV1	=	0x4162
                           004161  1715 _AX5043_FSKDEV2	=	0x4161
                           00410D  1716 _AX5043_FSKDMAX0	=	0x410d
                           00410C  1717 _AX5043_FSKDMAX1	=	0x410c
                           00410F  1718 _AX5043_FSKDMIN0	=	0x410f
                           00410E  1719 _AX5043_FSKDMIN1	=	0x410e
                           004309  1720 _AX5043_GPADC13VALUE0	=	0x4309
                           004308  1721 _AX5043_GPADC13VALUE1	=	0x4308
                           004300  1722 _AX5043_GPADCCTRL	=	0x4300
                           004301  1723 _AX5043_GPADCPERIOD	=	0x4301
                           004101  1724 _AX5043_IFFREQ0	=	0x4101
                           004100  1725 _AX5043_IFFREQ1	=	0x4100
                           00400B  1726 _AX5043_IRQINVERSION0	=	0x400b
                           00400A  1727 _AX5043_IRQINVERSION1	=	0x400a
                           004007  1728 _AX5043_IRQMASK0	=	0x4007
                           004006  1729 _AX5043_IRQMASK1	=	0x4006
                           00400D  1730 _AX5043_IRQREQUEST0	=	0x400d
                           00400C  1731 _AX5043_IRQREQUEST1	=	0x400c
                           004310  1732 _AX5043_LPOSCCONFIG	=	0x4310
                           004317  1733 _AX5043_LPOSCFREQ0	=	0x4317
                           004316  1734 _AX5043_LPOSCFREQ1	=	0x4316
                           004313  1735 _AX5043_LPOSCKFILT0	=	0x4313
                           004312  1736 _AX5043_LPOSCKFILT1	=	0x4312
                           004319  1737 _AX5043_LPOSCPER0	=	0x4319
                           004318  1738 _AX5043_LPOSCPER1	=	0x4318
                           004315  1739 _AX5043_LPOSCREF0	=	0x4315
                           004314  1740 _AX5043_LPOSCREF1	=	0x4314
                           004311  1741 _AX5043_LPOSCSTATUS	=	0x4311
                           004214  1742 _AX5043_MATCH0LEN	=	0x4214
                           004216  1743 _AX5043_MATCH0MAX	=	0x4216
                           004215  1744 _AX5043_MATCH0MIN	=	0x4215
                           004213  1745 _AX5043_MATCH0PAT0	=	0x4213
                           004212  1746 _AX5043_MATCH0PAT1	=	0x4212
                           004211  1747 _AX5043_MATCH0PAT2	=	0x4211
                           004210  1748 _AX5043_MATCH0PAT3	=	0x4210
                           00421C  1749 _AX5043_MATCH1LEN	=	0x421c
                           00421E  1750 _AX5043_MATCH1MAX	=	0x421e
                           00421D  1751 _AX5043_MATCH1MIN	=	0x421d
                           004219  1752 _AX5043_MATCH1PAT0	=	0x4219
                           004218  1753 _AX5043_MATCH1PAT1	=	0x4218
                           004108  1754 _AX5043_MAXDROFFSET0	=	0x4108
                           004107  1755 _AX5043_MAXDROFFSET1	=	0x4107
                           004106  1756 _AX5043_MAXDROFFSET2	=	0x4106
                           00410B  1757 _AX5043_MAXRFOFFSET0	=	0x410b
                           00410A  1758 _AX5043_MAXRFOFFSET1	=	0x410a
                           004109  1759 _AX5043_MAXRFOFFSET2	=	0x4109
                           004164  1760 _AX5043_MODCFGA	=	0x4164
                           004160  1761 _AX5043_MODCFGF	=	0x4160
                           004010  1762 _AX5043_MODULATION	=	0x4010
                           004025  1763 _AX5043_PINFUNCANTSEL	=	0x4025
                           004023  1764 _AX5043_PINFUNCDATA	=	0x4023
                           004022  1765 _AX5043_PINFUNCDCLK	=	0x4022
                           004024  1766 _AX5043_PINFUNCIRQ	=	0x4024
                           004026  1767 _AX5043_PINFUNCPWRAMP	=	0x4026
                           004021  1768 _AX5043_PINFUNCSYSCLK	=	0x4021
                           004020  1769 _AX5043_PINSTATE	=	0x4020
                           004233  1770 _AX5043_PKTACCEPTFLAGS	=	0x4233
                           004230  1771 _AX5043_PKTCHUNKSIZE	=	0x4230
                           004231  1772 _AX5043_PKTMISCFLAGS	=	0x4231
                           004232  1773 _AX5043_PKTSTOREFLAGS	=	0x4232
                           004031  1774 _AX5043_PLLCPI	=	0x4031
                           004039  1775 _AX5043_PLLCPIBOOST	=	0x4039
                           004182  1776 _AX5043_PLLLOCKDET	=	0x4182
                           004030  1777 _AX5043_PLLLOOP	=	0x4030
                           004038  1778 _AX5043_PLLLOOPBOOST	=	0x4038
                           004033  1779 _AX5043_PLLRANGINGA	=	0x4033
                           00403B  1780 _AX5043_PLLRANGINGB	=	0x403b
                           004183  1781 _AX5043_PLLRNGCLK	=	0x4183
                           004032  1782 _AX5043_PLLVCODIV	=	0x4032
                           004180  1783 _AX5043_PLLVCOI	=	0x4180
                           004181  1784 _AX5043_PLLVCOIR	=	0x4181
                           004005  1785 _AX5043_POWIRQMASK	=	0x4005
                           004003  1786 _AX5043_POWSTAT	=	0x4003
                           004004  1787 _AX5043_POWSTICKYSTAT	=	0x4004
                           004027  1788 _AX5043_PWRAMP	=	0x4027
                           004002  1789 _AX5043_PWRMODE	=	0x4002
                           004009  1790 _AX5043_RADIOEVENTMASK0	=	0x4009
                           004008  1791 _AX5043_RADIOEVENTMASK1	=	0x4008
                           00400F  1792 _AX5043_RADIOEVENTREQ0	=	0x400f
                           00400E  1793 _AX5043_RADIOEVENTREQ1	=	0x400e
                           00401C  1794 _AX5043_RADIOSTATE	=	0x401c
                           004040  1795 _AX5043_RSSI	=	0x4040
                           00422D  1796 _AX5043_RSSIABSTHR	=	0x422d
                           00422C  1797 _AX5043_RSSIREFERENCE	=	0x422c
                           004105  1798 _AX5043_RXDATARATE0	=	0x4105
                           004104  1799 _AX5043_RXDATARATE1	=	0x4104
                           004103  1800 _AX5043_RXDATARATE2	=	0x4103
                           004001  1801 _AX5043_SCRATCH	=	0x4001
                           004000  1802 _AX5043_SILICONREVISION	=	0x4000
                           00405B  1803 _AX5043_TIMER0	=	0x405b
                           00405A  1804 _AX5043_TIMER1	=	0x405a
                           004059  1805 _AX5043_TIMER2	=	0x4059
                           004227  1806 _AX5043_TMGRXAGC	=	0x4227
                           004223  1807 _AX5043_TMGRXBOOST	=	0x4223
                           004226  1808 _AX5043_TMGRXCOARSEAGC	=	0x4226
                           004225  1809 _AX5043_TMGRXOFFSACQ	=	0x4225
                           004229  1810 _AX5043_TMGRXPREAMBLE1	=	0x4229
                           00422A  1811 _AX5043_TMGRXPREAMBLE2	=	0x422a
                           00422B  1812 _AX5043_TMGRXPREAMBLE3	=	0x422b
                           004228  1813 _AX5043_TMGRXRSSI	=	0x4228
                           004224  1814 _AX5043_TMGRXSETTLE	=	0x4224
                           004220  1815 _AX5043_TMGTXBOOST	=	0x4220
                           004221  1816 _AX5043_TMGTXSETTLE	=	0x4221
                           004055  1817 _AX5043_TRKAFSKDEMOD0	=	0x4055
                           004054  1818 _AX5043_TRKAFSKDEMOD1	=	0x4054
                           004049  1819 _AX5043_TRKAMPLITUDE0	=	0x4049
                           004048  1820 _AX5043_TRKAMPLITUDE1	=	0x4048
                           004047  1821 _AX5043_TRKDATARATE0	=	0x4047
                           004046  1822 _AX5043_TRKDATARATE1	=	0x4046
                           004045  1823 _AX5043_TRKDATARATE2	=	0x4045
                           004051  1824 _AX5043_TRKFREQ0	=	0x4051
                           004050  1825 _AX5043_TRKFREQ1	=	0x4050
                           004053  1826 _AX5043_TRKFSKDEMOD0	=	0x4053
                           004052  1827 _AX5043_TRKFSKDEMOD1	=	0x4052
                           00404B  1828 _AX5043_TRKPHASE0	=	0x404b
                           00404A  1829 _AX5043_TRKPHASE1	=	0x404a
                           00404F  1830 _AX5043_TRKRFFREQ0	=	0x404f
                           00404E  1831 _AX5043_TRKRFFREQ1	=	0x404e
                           00404D  1832 _AX5043_TRKRFFREQ2	=	0x404d
                           004169  1833 _AX5043_TXPWRCOEFFA0	=	0x4169
                           004168  1834 _AX5043_TXPWRCOEFFA1	=	0x4168
                           00416B  1835 _AX5043_TXPWRCOEFFB0	=	0x416b
                           00416A  1836 _AX5043_TXPWRCOEFFB1	=	0x416a
                           00416D  1837 _AX5043_TXPWRCOEFFC0	=	0x416d
                           00416C  1838 _AX5043_TXPWRCOEFFC1	=	0x416c
                           00416F  1839 _AX5043_TXPWRCOEFFD0	=	0x416f
                           00416E  1840 _AX5043_TXPWRCOEFFD1	=	0x416e
                           004171  1841 _AX5043_TXPWRCOEFFE0	=	0x4171
                           004170  1842 _AX5043_TXPWRCOEFFE1	=	0x4170
                           004167  1843 _AX5043_TXRATE0	=	0x4167
                           004166  1844 _AX5043_TXRATE1	=	0x4166
                           004165  1845 _AX5043_TXRATE2	=	0x4165
                           00406B  1846 _AX5043_WAKEUP0	=	0x406b
                           00406A  1847 _AX5043_WAKEUP1	=	0x406a
                           00406D  1848 _AX5043_WAKEUPFREQ0	=	0x406d
                           00406C  1849 _AX5043_WAKEUPFREQ1	=	0x406c
                           004069  1850 _AX5043_WAKEUPTIMER0	=	0x4069
                           004068  1851 _AX5043_WAKEUPTIMER1	=	0x4068
                           00406E  1852 _AX5043_WAKEUPXOEARLY	=	0x406e
                           004184  1853 _AX5043_XTALCAP	=	0x4184
                           00401D  1854 _AX5043_XTALSTATUS	=	0x401d
                           004122  1855 _AX5043_AGCAHYST0	=	0x4122
                           004132  1856 _AX5043_AGCAHYST1	=	0x4132
                           004142  1857 _AX5043_AGCAHYST2	=	0x4142
                           004152  1858 _AX5043_AGCAHYST3	=	0x4152
                           004120  1859 _AX5043_AGCGAIN0	=	0x4120
                           004130  1860 _AX5043_AGCGAIN1	=	0x4130
                           004140  1861 _AX5043_AGCGAIN2	=	0x4140
                           004150  1862 _AX5043_AGCGAIN3	=	0x4150
                           004123  1863 _AX5043_AGCMINMAX0	=	0x4123
                           004133  1864 _AX5043_AGCMINMAX1	=	0x4133
                           004143  1865 _AX5043_AGCMINMAX2	=	0x4143
                           004153  1866 _AX5043_AGCMINMAX3	=	0x4153
                           004121  1867 _AX5043_AGCTARGET0	=	0x4121
                           004131  1868 _AX5043_AGCTARGET1	=	0x4131
                           004141  1869 _AX5043_AGCTARGET2	=	0x4141
                           004151  1870 _AX5043_AGCTARGET3	=	0x4151
                           00412B  1871 _AX5043_AMPLITUDEGAIN0	=	0x412b
                           00413B  1872 _AX5043_AMPLITUDEGAIN1	=	0x413b
                           00414B  1873 _AX5043_AMPLITUDEGAIN2	=	0x414b
                           00415B  1874 _AX5043_AMPLITUDEGAIN3	=	0x415b
                           00412F  1875 _AX5043_BBOFFSRES0	=	0x412f
                           00413F  1876 _AX5043_BBOFFSRES1	=	0x413f
                           00414F  1877 _AX5043_BBOFFSRES2	=	0x414f
                           00415F  1878 _AX5043_BBOFFSRES3	=	0x415f
                           004125  1879 _AX5043_DRGAIN0	=	0x4125
                           004135  1880 _AX5043_DRGAIN1	=	0x4135
                           004145  1881 _AX5043_DRGAIN2	=	0x4145
                           004155  1882 _AX5043_DRGAIN3	=	0x4155
                           00412E  1883 _AX5043_FOURFSK0	=	0x412e
                           00413E  1884 _AX5043_FOURFSK1	=	0x413e
                           00414E  1885 _AX5043_FOURFSK2	=	0x414e
                           00415E  1886 _AX5043_FOURFSK3	=	0x415e
                           00412D  1887 _AX5043_FREQDEV00	=	0x412d
                           00413D  1888 _AX5043_FREQDEV01	=	0x413d
                           00414D  1889 _AX5043_FREQDEV02	=	0x414d
                           00415D  1890 _AX5043_FREQDEV03	=	0x415d
                           00412C  1891 _AX5043_FREQDEV10	=	0x412c
                           00413C  1892 _AX5043_FREQDEV11	=	0x413c
                           00414C  1893 _AX5043_FREQDEV12	=	0x414c
                           00415C  1894 _AX5043_FREQDEV13	=	0x415c
                           004127  1895 _AX5043_FREQUENCYGAINA0	=	0x4127
                           004137  1896 _AX5043_FREQUENCYGAINA1	=	0x4137
                           004147  1897 _AX5043_FREQUENCYGAINA2	=	0x4147
                           004157  1898 _AX5043_FREQUENCYGAINA3	=	0x4157
                           004128  1899 _AX5043_FREQUENCYGAINB0	=	0x4128
                           004138  1900 _AX5043_FREQUENCYGAINB1	=	0x4138
                           004148  1901 _AX5043_FREQUENCYGAINB2	=	0x4148
                           004158  1902 _AX5043_FREQUENCYGAINB3	=	0x4158
                           004129  1903 _AX5043_FREQUENCYGAINC0	=	0x4129
                           004139  1904 _AX5043_FREQUENCYGAINC1	=	0x4139
                           004149  1905 _AX5043_FREQUENCYGAINC2	=	0x4149
                           004159  1906 _AX5043_FREQUENCYGAINC3	=	0x4159
                           00412A  1907 _AX5043_FREQUENCYGAIND0	=	0x412a
                           00413A  1908 _AX5043_FREQUENCYGAIND1	=	0x413a
                           00414A  1909 _AX5043_FREQUENCYGAIND2	=	0x414a
                           00415A  1910 _AX5043_FREQUENCYGAIND3	=	0x415a
                           004116  1911 _AX5043_FREQUENCYLEAK	=	0x4116
                           004126  1912 _AX5043_PHASEGAIN0	=	0x4126
                           004136  1913 _AX5043_PHASEGAIN1	=	0x4136
                           004146  1914 _AX5043_PHASEGAIN2	=	0x4146
                           004156  1915 _AX5043_PHASEGAIN3	=	0x4156
                           004207  1916 _AX5043_PKTADDR0	=	0x4207
                           004206  1917 _AX5043_PKTADDR1	=	0x4206
                           004205  1918 _AX5043_PKTADDR2	=	0x4205
                           004204  1919 _AX5043_PKTADDR3	=	0x4204
                           004200  1920 _AX5043_PKTADDRCFG	=	0x4200
                           00420B  1921 _AX5043_PKTADDRMASK0	=	0x420b
                           00420A  1922 _AX5043_PKTADDRMASK1	=	0x420a
                           004209  1923 _AX5043_PKTADDRMASK2	=	0x4209
                           004208  1924 _AX5043_PKTADDRMASK3	=	0x4208
                           004201  1925 _AX5043_PKTLENCFG	=	0x4201
                           004202  1926 _AX5043_PKTLENOFFSET	=	0x4202
                           004203  1927 _AX5043_PKTMAXLEN	=	0x4203
                           004118  1928 _AX5043_RXPARAMCURSET	=	0x4118
                           004117  1929 _AX5043_RXPARAMSETS	=	0x4117
                           004124  1930 _AX5043_TIMEGAIN0	=	0x4124
                           004134  1931 _AX5043_TIMEGAIN1	=	0x4134
                           004144  1932 _AX5043_TIMEGAIN2	=	0x4144
                           004154  1933 _AX5043_TIMEGAIN3	=	0x4154
                           005114  1934 _AX5043_AFSKCTRLNB	=	0x5114
                           005113  1935 _AX5043_AFSKMARK0NB	=	0x5113
                           005112  1936 _AX5043_AFSKMARK1NB	=	0x5112
                           005111  1937 _AX5043_AFSKSPACE0NB	=	0x5111
                           005110  1938 _AX5043_AFSKSPACE1NB	=	0x5110
                           005043  1939 _AX5043_AGCCOUNTERNB	=	0x5043
                           005115  1940 _AX5043_AMPLFILTERNB	=	0x5115
                           005189  1941 _AX5043_BBOFFSCAPNB	=	0x5189
                           005188  1942 _AX5043_BBTUNENB	=	0x5188
                           005041  1943 _AX5043_BGNDRSSINB	=	0x5041
                           00522E  1944 _AX5043_BGNDRSSIGAINNB	=	0x522e
                           00522F  1945 _AX5043_BGNDRSSITHRNB	=	0x522f
                           005017  1946 _AX5043_CRCINIT0NB	=	0x5017
                           005016  1947 _AX5043_CRCINIT1NB	=	0x5016
                           005015  1948 _AX5043_CRCINIT2NB	=	0x5015
                           005014  1949 _AX5043_CRCINIT3NB	=	0x5014
                           005332  1950 _AX5043_DACCONFIGNB	=	0x5332
                           005331  1951 _AX5043_DACVALUE0NB	=	0x5331
                           005330  1952 _AX5043_DACVALUE1NB	=	0x5330
                           005102  1953 _AX5043_DECIMATIONNB	=	0x5102
                           005042  1954 _AX5043_DIVERSITYNB	=	0x5042
                           005011  1955 _AX5043_ENCODINGNB	=	0x5011
                           005018  1956 _AX5043_FECNB	=	0x5018
                           00501A  1957 _AX5043_FECSTATUSNB	=	0x501a
                           005019  1958 _AX5043_FECSYNCNB	=	0x5019
                           00502B  1959 _AX5043_FIFOCOUNT0NB	=	0x502b
                           00502A  1960 _AX5043_FIFOCOUNT1NB	=	0x502a
                           005029  1961 _AX5043_FIFODATANB	=	0x5029
                           00502D  1962 _AX5043_FIFOFREE0NB	=	0x502d
                           00502C  1963 _AX5043_FIFOFREE1NB	=	0x502c
                           005028  1964 _AX5043_FIFOSTATNB	=	0x5028
                           00502F  1965 _AX5043_FIFOTHRESH0NB	=	0x502f
                           00502E  1966 _AX5043_FIFOTHRESH1NB	=	0x502e
                           005012  1967 _AX5043_FRAMINGNB	=	0x5012
                           005037  1968 _AX5043_FREQA0NB	=	0x5037
                           005036  1969 _AX5043_FREQA1NB	=	0x5036
                           005035  1970 _AX5043_FREQA2NB	=	0x5035
                           005034  1971 _AX5043_FREQA3NB	=	0x5034
                           00503F  1972 _AX5043_FREQB0NB	=	0x503f
                           00503E  1973 _AX5043_FREQB1NB	=	0x503e
                           00503D  1974 _AX5043_FREQB2NB	=	0x503d
                           00503C  1975 _AX5043_FREQB3NB	=	0x503c
                           005163  1976 _AX5043_FSKDEV0NB	=	0x5163
                           005162  1977 _AX5043_FSKDEV1NB	=	0x5162
                           005161  1978 _AX5043_FSKDEV2NB	=	0x5161
                           00510D  1979 _AX5043_FSKDMAX0NB	=	0x510d
                           00510C  1980 _AX5043_FSKDMAX1NB	=	0x510c
                           00510F  1981 _AX5043_FSKDMIN0NB	=	0x510f
                           00510E  1982 _AX5043_FSKDMIN1NB	=	0x510e
                           005309  1983 _AX5043_GPADC13VALUE0NB	=	0x5309
                           005308  1984 _AX5043_GPADC13VALUE1NB	=	0x5308
                           005300  1985 _AX5043_GPADCCTRLNB	=	0x5300
                           005301  1986 _AX5043_GPADCPERIODNB	=	0x5301
                           005101  1987 _AX5043_IFFREQ0NB	=	0x5101
                           005100  1988 _AX5043_IFFREQ1NB	=	0x5100
                           00500B  1989 _AX5043_IRQINVERSION0NB	=	0x500b
                           00500A  1990 _AX5043_IRQINVERSION1NB	=	0x500a
                           005007  1991 _AX5043_IRQMASK0NB	=	0x5007
                           005006  1992 _AX5043_IRQMASK1NB	=	0x5006
                           00500D  1993 _AX5043_IRQREQUEST0NB	=	0x500d
                           00500C  1994 _AX5043_IRQREQUEST1NB	=	0x500c
                           005310  1995 _AX5043_LPOSCCONFIGNB	=	0x5310
                           005317  1996 _AX5043_LPOSCFREQ0NB	=	0x5317
                           005316  1997 _AX5043_LPOSCFREQ1NB	=	0x5316
                           005313  1998 _AX5043_LPOSCKFILT0NB	=	0x5313
                           005312  1999 _AX5043_LPOSCKFILT1NB	=	0x5312
                           005319  2000 _AX5043_LPOSCPER0NB	=	0x5319
                           005318  2001 _AX5043_LPOSCPER1NB	=	0x5318
                           005315  2002 _AX5043_LPOSCREF0NB	=	0x5315
                           005314  2003 _AX5043_LPOSCREF1NB	=	0x5314
                           005311  2004 _AX5043_LPOSCSTATUSNB	=	0x5311
                           005214  2005 _AX5043_MATCH0LENNB	=	0x5214
                           005216  2006 _AX5043_MATCH0MAXNB	=	0x5216
                           005215  2007 _AX5043_MATCH0MINNB	=	0x5215
                           005213  2008 _AX5043_MATCH0PAT0NB	=	0x5213
                           005212  2009 _AX5043_MATCH0PAT1NB	=	0x5212
                           005211  2010 _AX5043_MATCH0PAT2NB	=	0x5211
                           005210  2011 _AX5043_MATCH0PAT3NB	=	0x5210
                           00521C  2012 _AX5043_MATCH1LENNB	=	0x521c
                           00521E  2013 _AX5043_MATCH1MAXNB	=	0x521e
                           00521D  2014 _AX5043_MATCH1MINNB	=	0x521d
                           005219  2015 _AX5043_MATCH1PAT0NB	=	0x5219
                           005218  2016 _AX5043_MATCH1PAT1NB	=	0x5218
                           005108  2017 _AX5043_MAXDROFFSET0NB	=	0x5108
                           005107  2018 _AX5043_MAXDROFFSET1NB	=	0x5107
                           005106  2019 _AX5043_MAXDROFFSET2NB	=	0x5106
                           00510B  2020 _AX5043_MAXRFOFFSET0NB	=	0x510b
                           00510A  2021 _AX5043_MAXRFOFFSET1NB	=	0x510a
                           005109  2022 _AX5043_MAXRFOFFSET2NB	=	0x5109
                           005164  2023 _AX5043_MODCFGANB	=	0x5164
                           005160  2024 _AX5043_MODCFGFNB	=	0x5160
                           005F5F  2025 _AX5043_MODCFGPNB	=	0x5f5f
                           005010  2026 _AX5043_MODULATIONNB	=	0x5010
                           005025  2027 _AX5043_PINFUNCANTSELNB	=	0x5025
                           005023  2028 _AX5043_PINFUNCDATANB	=	0x5023
                           005022  2029 _AX5043_PINFUNCDCLKNB	=	0x5022
                           005024  2030 _AX5043_PINFUNCIRQNB	=	0x5024
                           005026  2031 _AX5043_PINFUNCPWRAMPNB	=	0x5026
                           005021  2032 _AX5043_PINFUNCSYSCLKNB	=	0x5021
                           005020  2033 _AX5043_PINSTATENB	=	0x5020
                           005233  2034 _AX5043_PKTACCEPTFLAGSNB	=	0x5233
                           005230  2035 _AX5043_PKTCHUNKSIZENB	=	0x5230
                           005231  2036 _AX5043_PKTMISCFLAGSNB	=	0x5231
                           005232  2037 _AX5043_PKTSTOREFLAGSNB	=	0x5232
                           005031  2038 _AX5043_PLLCPINB	=	0x5031
                           005039  2039 _AX5043_PLLCPIBOOSTNB	=	0x5039
                           005182  2040 _AX5043_PLLLOCKDETNB	=	0x5182
                           005030  2041 _AX5043_PLLLOOPNB	=	0x5030
                           005038  2042 _AX5043_PLLLOOPBOOSTNB	=	0x5038
                           005033  2043 _AX5043_PLLRANGINGANB	=	0x5033
                           00503B  2044 _AX5043_PLLRANGINGBNB	=	0x503b
                           005183  2045 _AX5043_PLLRNGCLKNB	=	0x5183
                           005032  2046 _AX5043_PLLVCODIVNB	=	0x5032
                           005180  2047 _AX5043_PLLVCOINB	=	0x5180
                           005181  2048 _AX5043_PLLVCOIRNB	=	0x5181
                           005F08  2049 _AX5043_POWCTRL1NB	=	0x5f08
                           005005  2050 _AX5043_POWIRQMASKNB	=	0x5005
                           005003  2051 _AX5043_POWSTATNB	=	0x5003
                           005004  2052 _AX5043_POWSTICKYSTATNB	=	0x5004
                           005027  2053 _AX5043_PWRAMPNB	=	0x5027
                           005002  2054 _AX5043_PWRMODENB	=	0x5002
                           005009  2055 _AX5043_RADIOEVENTMASK0NB	=	0x5009
                           005008  2056 _AX5043_RADIOEVENTMASK1NB	=	0x5008
                           00500F  2057 _AX5043_RADIOEVENTREQ0NB	=	0x500f
                           00500E  2058 _AX5043_RADIOEVENTREQ1NB	=	0x500e
                           00501C  2059 _AX5043_RADIOSTATENB	=	0x501c
                           005F0D  2060 _AX5043_REFNB	=	0x5f0d
                           005040  2061 _AX5043_RSSINB	=	0x5040
                           00522D  2062 _AX5043_RSSIABSTHRNB	=	0x522d
                           00522C  2063 _AX5043_RSSIREFERENCENB	=	0x522c
                           005105  2064 _AX5043_RXDATARATE0NB	=	0x5105
                           005104  2065 _AX5043_RXDATARATE1NB	=	0x5104
                           005103  2066 _AX5043_RXDATARATE2NB	=	0x5103
                           005001  2067 _AX5043_SCRATCHNB	=	0x5001
                           005000  2068 _AX5043_SILICONREVISIONNB	=	0x5000
                           00505B  2069 _AX5043_TIMER0NB	=	0x505b
                           00505A  2070 _AX5043_TIMER1NB	=	0x505a
                           005059  2071 _AX5043_TIMER2NB	=	0x5059
                           005227  2072 _AX5043_TMGRXAGCNB	=	0x5227
                           005223  2073 _AX5043_TMGRXBOOSTNB	=	0x5223
                           005226  2074 _AX5043_TMGRXCOARSEAGCNB	=	0x5226
                           005225  2075 _AX5043_TMGRXOFFSACQNB	=	0x5225
                           005229  2076 _AX5043_TMGRXPREAMBLE1NB	=	0x5229
                           00522A  2077 _AX5043_TMGRXPREAMBLE2NB	=	0x522a
                           00522B  2078 _AX5043_TMGRXPREAMBLE3NB	=	0x522b
                           005228  2079 _AX5043_TMGRXRSSINB	=	0x5228
                           005224  2080 _AX5043_TMGRXSETTLENB	=	0x5224
                           005220  2081 _AX5043_TMGTXBOOSTNB	=	0x5220
                           005221  2082 _AX5043_TMGTXSETTLENB	=	0x5221
                           005055  2083 _AX5043_TRKAFSKDEMOD0NB	=	0x5055
                           005054  2084 _AX5043_TRKAFSKDEMOD1NB	=	0x5054
                           005049  2085 _AX5043_TRKAMPLITUDE0NB	=	0x5049
                           005048  2086 _AX5043_TRKAMPLITUDE1NB	=	0x5048
                           005047  2087 _AX5043_TRKDATARATE0NB	=	0x5047
                           005046  2088 _AX5043_TRKDATARATE1NB	=	0x5046
                           005045  2089 _AX5043_TRKDATARATE2NB	=	0x5045
                           005051  2090 _AX5043_TRKFREQ0NB	=	0x5051
                           005050  2091 _AX5043_TRKFREQ1NB	=	0x5050
                           005053  2092 _AX5043_TRKFSKDEMOD0NB	=	0x5053
                           005052  2093 _AX5043_TRKFSKDEMOD1NB	=	0x5052
                           00504B  2094 _AX5043_TRKPHASE0NB	=	0x504b
                           00504A  2095 _AX5043_TRKPHASE1NB	=	0x504a
                           00504F  2096 _AX5043_TRKRFFREQ0NB	=	0x504f
                           00504E  2097 _AX5043_TRKRFFREQ1NB	=	0x504e
                           00504D  2098 _AX5043_TRKRFFREQ2NB	=	0x504d
                           005169  2099 _AX5043_TXPWRCOEFFA0NB	=	0x5169
                           005168  2100 _AX5043_TXPWRCOEFFA1NB	=	0x5168
                           00516B  2101 _AX5043_TXPWRCOEFFB0NB	=	0x516b
                           00516A  2102 _AX5043_TXPWRCOEFFB1NB	=	0x516a
                           00516D  2103 _AX5043_TXPWRCOEFFC0NB	=	0x516d
                           00516C  2104 _AX5043_TXPWRCOEFFC1NB	=	0x516c
                           00516F  2105 _AX5043_TXPWRCOEFFD0NB	=	0x516f
                           00516E  2106 _AX5043_TXPWRCOEFFD1NB	=	0x516e
                           005171  2107 _AX5043_TXPWRCOEFFE0NB	=	0x5171
                           005170  2108 _AX5043_TXPWRCOEFFE1NB	=	0x5170
                           005167  2109 _AX5043_TXRATE0NB	=	0x5167
                           005166  2110 _AX5043_TXRATE1NB	=	0x5166
                           005165  2111 _AX5043_TXRATE2NB	=	0x5165
                           00506B  2112 _AX5043_WAKEUP0NB	=	0x506b
                           00506A  2113 _AX5043_WAKEUP1NB	=	0x506a
                           00506D  2114 _AX5043_WAKEUPFREQ0NB	=	0x506d
                           00506C  2115 _AX5043_WAKEUPFREQ1NB	=	0x506c
                           005069  2116 _AX5043_WAKEUPTIMER0NB	=	0x5069
                           005068  2117 _AX5043_WAKEUPTIMER1NB	=	0x5068
                           00506E  2118 _AX5043_WAKEUPXOEARLYNB	=	0x506e
                           005F11  2119 _AX5043_XTALAMPLNB	=	0x5f11
                           005184  2120 _AX5043_XTALCAPNB	=	0x5184
                           005F10  2121 _AX5043_XTALOSCNB	=	0x5f10
                           00501D  2122 _AX5043_XTALSTATUSNB	=	0x501d
                           005F00  2123 _AX5043_0xF00NB	=	0x5f00
                           005F0C  2124 _AX5043_0xF0CNB	=	0x5f0c
                           005F18  2125 _AX5043_0xF18NB	=	0x5f18
                           005F1C  2126 _AX5043_0xF1CNB	=	0x5f1c
                           005F21  2127 _AX5043_0xF21NB	=	0x5f21
                           005F22  2128 _AX5043_0xF22NB	=	0x5f22
                           005F23  2129 _AX5043_0xF23NB	=	0x5f23
                           005F26  2130 _AX5043_0xF26NB	=	0x5f26
                           005F30  2131 _AX5043_0xF30NB	=	0x5f30
                           005F31  2132 _AX5043_0xF31NB	=	0x5f31
                           005F32  2133 _AX5043_0xF32NB	=	0x5f32
                           005F33  2134 _AX5043_0xF33NB	=	0x5f33
                           005F34  2135 _AX5043_0xF34NB	=	0x5f34
                           005F35  2136 _AX5043_0xF35NB	=	0x5f35
                           005F44  2137 _AX5043_0xF44NB	=	0x5f44
                           005122  2138 _AX5043_AGCAHYST0NB	=	0x5122
                           005132  2139 _AX5043_AGCAHYST1NB	=	0x5132
                           005142  2140 _AX5043_AGCAHYST2NB	=	0x5142
                           005152  2141 _AX5043_AGCAHYST3NB	=	0x5152
                           005120  2142 _AX5043_AGCGAIN0NB	=	0x5120
                           005130  2143 _AX5043_AGCGAIN1NB	=	0x5130
                           005140  2144 _AX5043_AGCGAIN2NB	=	0x5140
                           005150  2145 _AX5043_AGCGAIN3NB	=	0x5150
                           005123  2146 _AX5043_AGCMINMAX0NB	=	0x5123
                           005133  2147 _AX5043_AGCMINMAX1NB	=	0x5133
                           005143  2148 _AX5043_AGCMINMAX2NB	=	0x5143
                           005153  2149 _AX5043_AGCMINMAX3NB	=	0x5153
                           005121  2150 _AX5043_AGCTARGET0NB	=	0x5121
                           005131  2151 _AX5043_AGCTARGET1NB	=	0x5131
                           005141  2152 _AX5043_AGCTARGET2NB	=	0x5141
                           005151  2153 _AX5043_AGCTARGET3NB	=	0x5151
                           00512B  2154 _AX5043_AMPLITUDEGAIN0NB	=	0x512b
                           00513B  2155 _AX5043_AMPLITUDEGAIN1NB	=	0x513b
                           00514B  2156 _AX5043_AMPLITUDEGAIN2NB	=	0x514b
                           00515B  2157 _AX5043_AMPLITUDEGAIN3NB	=	0x515b
                           00512F  2158 _AX5043_BBOFFSRES0NB	=	0x512f
                           00513F  2159 _AX5043_BBOFFSRES1NB	=	0x513f
                           00514F  2160 _AX5043_BBOFFSRES2NB	=	0x514f
                           00515F  2161 _AX5043_BBOFFSRES3NB	=	0x515f
                           005125  2162 _AX5043_DRGAIN0NB	=	0x5125
                           005135  2163 _AX5043_DRGAIN1NB	=	0x5135
                           005145  2164 _AX5043_DRGAIN2NB	=	0x5145
                           005155  2165 _AX5043_DRGAIN3NB	=	0x5155
                           00512E  2166 _AX5043_FOURFSK0NB	=	0x512e
                           00513E  2167 _AX5043_FOURFSK1NB	=	0x513e
                           00514E  2168 _AX5043_FOURFSK2NB	=	0x514e
                           00515E  2169 _AX5043_FOURFSK3NB	=	0x515e
                           00512D  2170 _AX5043_FREQDEV00NB	=	0x512d
                           00513D  2171 _AX5043_FREQDEV01NB	=	0x513d
                           00514D  2172 _AX5043_FREQDEV02NB	=	0x514d
                           00515D  2173 _AX5043_FREQDEV03NB	=	0x515d
                           00512C  2174 _AX5043_FREQDEV10NB	=	0x512c
                           00513C  2175 _AX5043_FREQDEV11NB	=	0x513c
                           00514C  2176 _AX5043_FREQDEV12NB	=	0x514c
                           00515C  2177 _AX5043_FREQDEV13NB	=	0x515c
                           005127  2178 _AX5043_FREQUENCYGAINA0NB	=	0x5127
                           005137  2179 _AX5043_FREQUENCYGAINA1NB	=	0x5137
                           005147  2180 _AX5043_FREQUENCYGAINA2NB	=	0x5147
                           005157  2181 _AX5043_FREQUENCYGAINA3NB	=	0x5157
                           005128  2182 _AX5043_FREQUENCYGAINB0NB	=	0x5128
                           005138  2183 _AX5043_FREQUENCYGAINB1NB	=	0x5138
                           005148  2184 _AX5043_FREQUENCYGAINB2NB	=	0x5148
                           005158  2185 _AX5043_FREQUENCYGAINB3NB	=	0x5158
                           005129  2186 _AX5043_FREQUENCYGAINC0NB	=	0x5129
                           005139  2187 _AX5043_FREQUENCYGAINC1NB	=	0x5139
                           005149  2188 _AX5043_FREQUENCYGAINC2NB	=	0x5149
                           005159  2189 _AX5043_FREQUENCYGAINC3NB	=	0x5159
                           00512A  2190 _AX5043_FREQUENCYGAIND0NB	=	0x512a
                           00513A  2191 _AX5043_FREQUENCYGAIND1NB	=	0x513a
                           00514A  2192 _AX5043_FREQUENCYGAIND2NB	=	0x514a
                           00515A  2193 _AX5043_FREQUENCYGAIND3NB	=	0x515a
                           005116  2194 _AX5043_FREQUENCYLEAKNB	=	0x5116
                           005126  2195 _AX5043_PHASEGAIN0NB	=	0x5126
                           005136  2196 _AX5043_PHASEGAIN1NB	=	0x5136
                           005146  2197 _AX5043_PHASEGAIN2NB	=	0x5146
                           005156  2198 _AX5043_PHASEGAIN3NB	=	0x5156
                           005207  2199 _AX5043_PKTADDR0NB	=	0x5207
                           005206  2200 _AX5043_PKTADDR1NB	=	0x5206
                           005205  2201 _AX5043_PKTADDR2NB	=	0x5205
                           005204  2202 _AX5043_PKTADDR3NB	=	0x5204
                           005200  2203 _AX5043_PKTADDRCFGNB	=	0x5200
                           00520B  2204 _AX5043_PKTADDRMASK0NB	=	0x520b
                           00520A  2205 _AX5043_PKTADDRMASK1NB	=	0x520a
                           005209  2206 _AX5043_PKTADDRMASK2NB	=	0x5209
                           005208  2207 _AX5043_PKTADDRMASK3NB	=	0x5208
                           005201  2208 _AX5043_PKTLENCFGNB	=	0x5201
                           005202  2209 _AX5043_PKTLENOFFSETNB	=	0x5202
                           005203  2210 _AX5043_PKTMAXLENNB	=	0x5203
                           005118  2211 _AX5043_RXPARAMCURSETNB	=	0x5118
                           005117  2212 _AX5043_RXPARAMSETSNB	=	0x5117
                           005124  2213 _AX5043_TIMEGAIN0NB	=	0x5124
                           005134  2214 _AX5043_TIMEGAIN1NB	=	0x5134
                           005144  2215 _AX5043_TIMEGAIN2NB	=	0x5144
                           005154  2216 _AX5043_TIMEGAIN3NB	=	0x5154
                           004F00  2217 _AX5043_0xF00	=	0x4f00
                           004F0C  2218 _AX5043_0xF0C	=	0x4f0c
                           004F10  2219 _AX5043_0xF10	=	0x4f10
                           004F11  2220 _AX5043_0xF11	=	0x4f11
                           004F18  2221 _AX5043_0xF18	=	0x4f18
                           004F1C  2222 _AX5043_0xF1C	=	0x4f1c
                           004F21  2223 _AX5043_0xF21	=	0x4f21
                           004F22  2224 _AX5043_0xF22	=	0x4f22
                           004F23  2225 _AX5043_0xF23	=	0x4f23
                           004F26  2226 _AX5043_0xF26	=	0x4f26
                           004F30  2227 _AX5043_0xF30	=	0x4f30
                           004F31  2228 _AX5043_0xF31	=	0x4f31
                           004F32  2229 _AX5043_0xF32	=	0x4f32
                           004F33  2230 _AX5043_0xF33	=	0x4f33
                           004F34  2231 _AX5043_0xF34	=	0x4f34
                           004F35  2232 _AX5043_0xF35	=	0x4f35
                           004F44  2233 _AX5043_0xF44	=	0x4f44
                           004F0D  2234 _AX5043_REF	=	0x4f0d
                           004F08  2235 _AX5043_POWCTRL1	=	0x4f08
                           004F5F  2236 _AX5043_MODCFGP	=	0x4f5f
                           004F10  2237 _AX5043_XTALOSC	=	0x4f10
                           004F11  2238 _AX5043_XTALAMPL	=	0x4f11
      000000                       2239 _axradio_conv_timeinterval_totimer0_dt_1_130:
      000000                       2240 	.ds 4
      000004                       2241 _axradio_conv_timeinterval_totimer0_r_1_131:
      000004                       2242 	.ds 4
      000008                       2243 _axradio_phy_chanpllrng::
      000008                       2244 	.ds 1
      000009                       2245 _axradio_phy_chanvcoi::
      000009                       2246 	.ds 1
                                   2247 ;--------------------------------------------------------
                                   2248 ; absolute external ram data
                                   2249 ;--------------------------------------------------------
                                   2250 	.area XABS    (ABS,XDATA)
                                   2251 ;--------------------------------------------------------
                                   2252 ; external initialized ram data
                                   2253 ;--------------------------------------------------------
                                   2254 	.area XISEG   (XDATA)
                                   2255 	.area HOME    (CODE)
                                   2256 	.area GSINIT0 (CODE)
                                   2257 	.area GSINIT1 (CODE)
                                   2258 	.area GSINIT2 (CODE)
                                   2259 	.area GSINIT3 (CODE)
                                   2260 	.area GSINIT4 (CODE)
                                   2261 	.area GSINIT5 (CODE)
                                   2262 	.area GSINIT  (CODE)
                                   2263 	.area GSFINAL (CODE)
                                   2264 	.area CSEG    (CODE)
                                   2265 ;--------------------------------------------------------
                                   2266 ; global & static initialisations
                                   2267 ;--------------------------------------------------------
                                   2268 	.area HOME    (CODE)
                                   2269 	.area GSINIT  (CODE)
                                   2270 	.area GSFINAL (CODE)
                                   2271 	.area GSINIT  (CODE)
                                   2272 ;--------------------------------------------------------
                                   2273 ; Home
                                   2274 ;--------------------------------------------------------
                                   2275 	.area HOME    (CODE)
                                   2276 	.area HOME    (CODE)
                                   2277 ;--------------------------------------------------------
                                   2278 ; code
                                   2279 ;--------------------------------------------------------
                                   2280 	.area CSEG    (CODE)
                                   2281 ;------------------------------------------------------------
                                   2282 ;Allocation info for local variables in function 'ax5043_set_registers'
                                   2283 ;------------------------------------------------------------
                                   2284 ;	atrs\config.c:12: __reentrantb void ax5043_set_registers(void) __reentrant
                                   2285 ;	-----------------------------------------
                                   2286 ;	 function ax5043_set_registers
                                   2287 ;	-----------------------------------------
      000000                       2288 _ax5043_set_registers:
                           000007  2289 	ar7 = 0x07
                           000006  2290 	ar6 = 0x06
                           000005  2291 	ar5 = 0x05
                           000004  2292 	ar4 = 0x04
                           000003  2293 	ar3 = 0x03
                           000002  2294 	ar2 = 0x02
                           000001  2295 	ar1 = 0x01
                           000000  2296 	ar0 = 0x00
                                   2297 ;	atrs\config.c:14: AX5043_MODULATION              = 0x08;
      000000 90 40 10         [24] 2298 	mov	dptr,#_AX5043_MODULATION
      000003 74 08            [12] 2299 	mov	a,#0x08
      000005 F0               [24] 2300 	movx	@dptr,a
                                   2301 ;	atrs\config.c:15: AX5043_ENCODING                = 0x01;
      000006 90 40 11         [24] 2302 	mov	dptr,#_AX5043_ENCODING
      000009 74 01            [12] 2303 	mov	a,#0x01
      00000B F0               [24] 2304 	movx	@dptr,a
                                   2305 ;	atrs\config.c:16: AX5043_FRAMING                 = 0x66;
      00000C 90 40 12         [24] 2306 	mov	dptr,#_AX5043_FRAMING
      00000F 74 66            [12] 2307 	mov	a,#0x66
      000011 F0               [24] 2308 	movx	@dptr,a
                                   2309 ;	atrs\config.c:17: AX5043_PINFUNCSYSCLK           = 0x01;
      000012 90 40 21         [24] 2310 	mov	dptr,#_AX5043_PINFUNCSYSCLK
      000015 74 01            [12] 2311 	mov	a,#0x01
      000017 F0               [24] 2312 	movx	@dptr,a
                                   2313 ;	atrs\config.c:18: AX5043_PINFUNCDCLK             = 0x01;
      000018 90 40 22         [24] 2314 	mov	dptr,#_AX5043_PINFUNCDCLK
      00001B F0               [24] 2315 	movx	@dptr,a
                                   2316 ;	atrs\config.c:19: AX5043_PINFUNCDATA             = 0x01;
      00001C 90 40 23         [24] 2317 	mov	dptr,#_AX5043_PINFUNCDATA
      00001F F0               [24] 2318 	movx	@dptr,a
                                   2319 ;	atrs\config.c:20: AX5043_PINFUNCANTSEL           = 0x04;
      000020 90 40 25         [24] 2320 	mov	dptr,#_AX5043_PINFUNCANTSEL
      000023 74 04            [12] 2321 	mov	a,#0x04
      000025 F0               [24] 2322 	movx	@dptr,a
                                   2323 ;	atrs\config.c:21: AX5043_PINFUNCPWRAMP           = 0x07;
      000026 90 40 26         [24] 2324 	mov	dptr,#_AX5043_PINFUNCPWRAMP
      000029 74 07            [12] 2325 	mov	a,#0x07
      00002B F0               [24] 2326 	movx	@dptr,a
                                   2327 ;	atrs\config.c:22: AX5043_WAKEUPXOEARLY           = 0x01;
      00002C 90 40 6E         [24] 2328 	mov	dptr,#_AX5043_WAKEUPXOEARLY
      00002F 74 01            [12] 2329 	mov	a,#0x01
      000031 F0               [24] 2330 	movx	@dptr,a
                                   2331 ;	atrs\config.c:23: AX5043_IFFREQ1                 = 0x02;
      000032 90 41 00         [24] 2332 	mov	dptr,#_AX5043_IFFREQ1
      000035 04               [12] 2333 	inc	a
      000036 F0               [24] 2334 	movx	@dptr,a
                                   2335 ;	atrs\config.c:24: AX5043_IFFREQ0                 = 0x0C;
      000037 90 41 01         [24] 2336 	mov	dptr,#_AX5043_IFFREQ0
      00003A 74 0C            [12] 2337 	mov	a,#0x0c
      00003C F0               [24] 2338 	movx	@dptr,a
                                   2339 ;	atrs\config.c:25: AX5043_DECIMATION              = 0x14;
      00003D 90 41 02         [24] 2340 	mov	dptr,#_AX5043_DECIMATION
      000040 74 14            [12] 2341 	mov	a,#0x14
      000042 F0               [24] 2342 	movx	@dptr,a
                                   2343 ;	atrs\config.c:26: AX5043_RXDATARATE2             = 0x00;
      000043 90 41 03         [24] 2344 	mov	dptr,#_AX5043_RXDATARATE2
      000046 E4               [12] 2345 	clr	a
      000047 F0               [24] 2346 	movx	@dptr,a
                                   2347 ;	atrs\config.c:27: AX5043_RXDATARATE1             = 0x3E;
      000048 90 41 04         [24] 2348 	mov	dptr,#_AX5043_RXDATARATE1
      00004B 74 3E            [12] 2349 	mov	a,#0x3e
      00004D F0               [24] 2350 	movx	@dptr,a
                                   2351 ;	atrs\config.c:28: AX5043_RXDATARATE0             = 0x80;
      00004E 90 41 05         [24] 2352 	mov	dptr,#_AX5043_RXDATARATE0
      000051 74 80            [12] 2353 	mov	a,#0x80
      000053 F0               [24] 2354 	movx	@dptr,a
                                   2355 ;	atrs\config.c:29: AX5043_MAXDROFFSET2            = 0x00;
      000054 90 41 06         [24] 2356 	mov	dptr,#_AX5043_MAXDROFFSET2
      000057 E4               [12] 2357 	clr	a
      000058 F0               [24] 2358 	movx	@dptr,a
                                   2359 ;	atrs\config.c:30: AX5043_MAXDROFFSET1            = 0x00;
      000059 90 41 07         [24] 2360 	mov	dptr,#_AX5043_MAXDROFFSET1
      00005C F0               [24] 2361 	movx	@dptr,a
                                   2362 ;	atrs\config.c:31: AX5043_MAXDROFFSET0            = 0x00;
      00005D 90 41 08         [24] 2363 	mov	dptr,#_AX5043_MAXDROFFSET0
      000060 F0               [24] 2364 	movx	@dptr,a
                                   2365 ;	atrs\config.c:32: AX5043_MAXRFOFFSET2            = 0x80;
      000061 90 41 09         [24] 2366 	mov	dptr,#_AX5043_MAXRFOFFSET2
      000064 74 80            [12] 2367 	mov	a,#0x80
      000066 F0               [24] 2368 	movx	@dptr,a
                                   2369 ;	atrs\config.c:33: AX5043_MAXRFOFFSET1            = 0x01;
      000067 90 41 0A         [24] 2370 	mov	dptr,#_AX5043_MAXRFOFFSET1
      00006A 23               [12] 2371 	rl	a
      00006B F0               [24] 2372 	movx	@dptr,a
                                   2373 ;	atrs\config.c:34: AX5043_MAXRFOFFSET0            = 0x31;
      00006C 90 41 0B         [24] 2374 	mov	dptr,#_AX5043_MAXRFOFFSET0
      00006F 74 31            [12] 2375 	mov	a,#0x31
      000071 F0               [24] 2376 	movx	@dptr,a
                                   2377 ;	atrs\config.c:35: AX5043_FSKDMAX1                = 0x00;
      000072 90 41 0C         [24] 2378 	mov	dptr,#_AX5043_FSKDMAX1
      000075 E4               [12] 2379 	clr	a
      000076 F0               [24] 2380 	movx	@dptr,a
                                   2381 ;	atrs\config.c:36: AX5043_FSKDMAX0                = 0xA6;
      000077 90 41 0D         [24] 2382 	mov	dptr,#_AX5043_FSKDMAX0
      00007A 74 A6            [12] 2383 	mov	a,#0xa6
      00007C F0               [24] 2384 	movx	@dptr,a
                                   2385 ;	atrs\config.c:37: AX5043_FSKDMIN1                = 0xFF;
      00007D 90 41 0E         [24] 2386 	mov	dptr,#_AX5043_FSKDMIN1
      000080 74 FF            [12] 2387 	mov	a,#0xff
      000082 F0               [24] 2388 	movx	@dptr,a
                                   2389 ;	atrs\config.c:38: AX5043_FSKDMIN0                = 0x5A;
      000083 90 41 0F         [24] 2390 	mov	dptr,#_AX5043_FSKDMIN0
      000086 74 5A            [12] 2391 	mov	a,#0x5a
      000088 F0               [24] 2392 	movx	@dptr,a
                                   2393 ;	atrs\config.c:39: AX5043_AMPLFILTER              = 0x00;
      000089 90 41 15         [24] 2394 	mov	dptr,#_AX5043_AMPLFILTER
      00008C E4               [12] 2395 	clr	a
      00008D F0               [24] 2396 	movx	@dptr,a
                                   2397 ;	atrs\config.c:40: AX5043_RXPARAMSETS             = 0xF4;
      00008E 90 41 17         [24] 2398 	mov	dptr,#_AX5043_RXPARAMSETS
      000091 74 F4            [12] 2399 	mov	a,#0xf4
      000093 F0               [24] 2400 	movx	@dptr,a
                                   2401 ;	atrs\config.c:41: AX5043_AGCGAIN0                = 0xC5;
      000094 90 41 20         [24] 2402 	mov	dptr,#_AX5043_AGCGAIN0
      000097 74 C5            [12] 2403 	mov	a,#0xc5
      000099 F0               [24] 2404 	movx	@dptr,a
                                   2405 ;	atrs\config.c:42: AX5043_AGCTARGET0              = 0x84;
      00009A 90 41 21         [24] 2406 	mov	dptr,#_AX5043_AGCTARGET0
      00009D 74 84            [12] 2407 	mov	a,#0x84
      00009F F0               [24] 2408 	movx	@dptr,a
                                   2409 ;	atrs\config.c:43: AX5043_TIMEGAIN0               = 0xF8;
      0000A0 90 41 24         [24] 2410 	mov	dptr,#_AX5043_TIMEGAIN0
      0000A3 74 F8            [12] 2411 	mov	a,#0xf8
      0000A5 F0               [24] 2412 	movx	@dptr,a
                                   2413 ;	atrs\config.c:44: AX5043_DRGAIN0                 = 0xF2;
      0000A6 90 41 25         [24] 2414 	mov	dptr,#_AX5043_DRGAIN0
      0000A9 74 F2            [12] 2415 	mov	a,#0xf2
      0000AB F0               [24] 2416 	movx	@dptr,a
                                   2417 ;	atrs\config.c:45: AX5043_PHASEGAIN0              = 0xC3;
      0000AC 90 41 26         [24] 2418 	mov	dptr,#_AX5043_PHASEGAIN0
      0000AF 74 C3            [12] 2419 	mov	a,#0xc3
      0000B1 F0               [24] 2420 	movx	@dptr,a
                                   2421 ;	atrs\config.c:46: AX5043_FREQUENCYGAINA0         = 0x0F;
      0000B2 90 41 27         [24] 2422 	mov	dptr,#_AX5043_FREQUENCYGAINA0
      0000B5 74 0F            [12] 2423 	mov	a,#0x0f
      0000B7 F0               [24] 2424 	movx	@dptr,a
                                   2425 ;	atrs\config.c:47: AX5043_FREQUENCYGAINB0         = 0x1F;
      0000B8 90 41 28         [24] 2426 	mov	dptr,#_AX5043_FREQUENCYGAINB0
      0000BB 74 1F            [12] 2427 	mov	a,#0x1f
      0000BD F0               [24] 2428 	movx	@dptr,a
                                   2429 ;	atrs\config.c:48: AX5043_FREQUENCYGAINC0         = 0x08;
      0000BE 90 41 29         [24] 2430 	mov	dptr,#_AX5043_FREQUENCYGAINC0
      0000C1 74 08            [12] 2431 	mov	a,#0x08
      0000C3 F0               [24] 2432 	movx	@dptr,a
                                   2433 ;	atrs\config.c:49: AX5043_FREQUENCYGAIND0         = 0x08;
      0000C4 90 41 2A         [24] 2434 	mov	dptr,#_AX5043_FREQUENCYGAIND0
      0000C7 F0               [24] 2435 	movx	@dptr,a
                                   2436 ;	atrs\config.c:50: AX5043_AMPLITUDEGAIN0          = 0x06;
      0000C8 90 41 2B         [24] 2437 	mov	dptr,#_AX5043_AMPLITUDEGAIN0
      0000CB 74 06            [12] 2438 	mov	a,#0x06
      0000CD F0               [24] 2439 	movx	@dptr,a
                                   2440 ;	atrs\config.c:51: AX5043_FREQDEV10               = 0x00;
      0000CE 90 41 2C         [24] 2441 	mov	dptr,#_AX5043_FREQDEV10
      0000D1 E4               [12] 2442 	clr	a
      0000D2 F0               [24] 2443 	movx	@dptr,a
                                   2444 ;	atrs\config.c:52: AX5043_FREQDEV00               = 0x00;
      0000D3 90 41 2D         [24] 2445 	mov	dptr,#_AX5043_FREQDEV00
      0000D6 F0               [24] 2446 	movx	@dptr,a
                                   2447 ;	atrs\config.c:53: AX5043_BBOFFSRES0              = 0x00;
      0000D7 90 41 2F         [24] 2448 	mov	dptr,#_AX5043_BBOFFSRES0
      0000DA F0               [24] 2449 	movx	@dptr,a
                                   2450 ;	atrs\config.c:54: AX5043_AGCGAIN1                = 0xC5;
      0000DB 90 41 30         [24] 2451 	mov	dptr,#_AX5043_AGCGAIN1
      0000DE 74 C5            [12] 2452 	mov	a,#0xc5
      0000E0 F0               [24] 2453 	movx	@dptr,a
                                   2454 ;	atrs\config.c:55: AX5043_AGCTARGET1              = 0x84;
      0000E1 90 41 31         [24] 2455 	mov	dptr,#_AX5043_AGCTARGET1
      0000E4 74 84            [12] 2456 	mov	a,#0x84
      0000E6 F0               [24] 2457 	movx	@dptr,a
                                   2458 ;	atrs\config.c:56: AX5043_AGCAHYST1               = 0x00;
      0000E7 90 41 32         [24] 2459 	mov	dptr,#_AX5043_AGCAHYST1
      0000EA E4               [12] 2460 	clr	a
      0000EB F0               [24] 2461 	movx	@dptr,a
                                   2462 ;	atrs\config.c:57: AX5043_AGCMINMAX1              = 0x00;
      0000EC 90 41 33         [24] 2463 	mov	dptr,#_AX5043_AGCMINMAX1
      0000EF F0               [24] 2464 	movx	@dptr,a
                                   2465 ;	atrs\config.c:58: AX5043_TIMEGAIN1               = 0xF6;
      0000F0 90 41 34         [24] 2466 	mov	dptr,#_AX5043_TIMEGAIN1
      0000F3 74 F6            [12] 2467 	mov	a,#0xf6
      0000F5 F0               [24] 2468 	movx	@dptr,a
                                   2469 ;	atrs\config.c:59: AX5043_DRGAIN1                 = 0xF1;
      0000F6 90 41 35         [24] 2470 	mov	dptr,#_AX5043_DRGAIN1
      0000F9 74 F1            [12] 2471 	mov	a,#0xf1
      0000FB F0               [24] 2472 	movx	@dptr,a
                                   2473 ;	atrs\config.c:60: AX5043_PHASEGAIN1              = 0xC3;
      0000FC 90 41 36         [24] 2474 	mov	dptr,#_AX5043_PHASEGAIN1
      0000FF 74 C3            [12] 2475 	mov	a,#0xc3
      000101 F0               [24] 2476 	movx	@dptr,a
                                   2477 ;	atrs\config.c:61: AX5043_FREQUENCYGAINA1         = 0x0F;
      000102 90 41 37         [24] 2478 	mov	dptr,#_AX5043_FREQUENCYGAINA1
      000105 74 0F            [12] 2479 	mov	a,#0x0f
      000107 F0               [24] 2480 	movx	@dptr,a
                                   2481 ;	atrs\config.c:62: AX5043_FREQUENCYGAINB1         = 0x1F;
      000108 90 41 38         [24] 2482 	mov	dptr,#_AX5043_FREQUENCYGAINB1
      00010B 74 1F            [12] 2483 	mov	a,#0x1f
      00010D F0               [24] 2484 	movx	@dptr,a
                                   2485 ;	atrs\config.c:63: AX5043_FREQUENCYGAINC1         = 0x08;
      00010E 90 41 39         [24] 2486 	mov	dptr,#_AX5043_FREQUENCYGAINC1
      000111 74 08            [12] 2487 	mov	a,#0x08
      000113 F0               [24] 2488 	movx	@dptr,a
                                   2489 ;	atrs\config.c:64: AX5043_FREQUENCYGAIND1         = 0x08;
      000114 90 41 3A         [24] 2490 	mov	dptr,#_AX5043_FREQUENCYGAIND1
      000117 F0               [24] 2491 	movx	@dptr,a
                                   2492 ;	atrs\config.c:65: AX5043_AMPLITUDEGAIN1          = 0x06;
      000118 90 41 3B         [24] 2493 	mov	dptr,#_AX5043_AMPLITUDEGAIN1
      00011B 74 06            [12] 2494 	mov	a,#0x06
      00011D F0               [24] 2495 	movx	@dptr,a
                                   2496 ;	atrs\config.c:66: AX5043_FREQDEV11               = 0x00;
      00011E 90 41 3C         [24] 2497 	mov	dptr,#_AX5043_FREQDEV11
      000121 E4               [12] 2498 	clr	a
      000122 F0               [24] 2499 	movx	@dptr,a
                                   2500 ;	atrs\config.c:67: AX5043_FREQDEV01               = 0x43;
      000123 90 41 3D         [24] 2501 	mov	dptr,#_AX5043_FREQDEV01
      000126 74 43            [12] 2502 	mov	a,#0x43
      000128 F0               [24] 2503 	movx	@dptr,a
                                   2504 ;	atrs\config.c:68: AX5043_FOURFSK1                = 0x16;
      000129 90 41 3E         [24] 2505 	mov	dptr,#_AX5043_FOURFSK1
      00012C 74 16            [12] 2506 	mov	a,#0x16
      00012E F0               [24] 2507 	movx	@dptr,a
                                   2508 ;	atrs\config.c:69: AX5043_BBOFFSRES1              = 0x00;
      00012F 90 41 3F         [24] 2509 	mov	dptr,#_AX5043_BBOFFSRES1
      000132 E4               [12] 2510 	clr	a
      000133 F0               [24] 2511 	movx	@dptr,a
                                   2512 ;	atrs\config.c:70: AX5043_AGCGAIN3                = 0xFF;
      000134 90 41 50         [24] 2513 	mov	dptr,#_AX5043_AGCGAIN3
      000137 14               [12] 2514 	dec	a
      000138 F0               [24] 2515 	movx	@dptr,a
                                   2516 ;	atrs\config.c:71: AX5043_AGCTARGET3              = 0x84;
      000139 90 41 51         [24] 2517 	mov	dptr,#_AX5043_AGCTARGET3
      00013C 74 84            [12] 2518 	mov	a,#0x84
      00013E F0               [24] 2519 	movx	@dptr,a
                                   2520 ;	atrs\config.c:72: AX5043_AGCAHYST3               = 0x00;
      00013F 90 41 52         [24] 2521 	mov	dptr,#_AX5043_AGCAHYST3
      000142 E4               [12] 2522 	clr	a
      000143 F0               [24] 2523 	movx	@dptr,a
                                   2524 ;	atrs\config.c:73: AX5043_AGCMINMAX3              = 0x00;
      000144 90 41 53         [24] 2525 	mov	dptr,#_AX5043_AGCMINMAX3
      000147 F0               [24] 2526 	movx	@dptr,a
                                   2527 ;	atrs\config.c:74: AX5043_TIMEGAIN3               = 0xF5;
      000148 90 41 54         [24] 2528 	mov	dptr,#_AX5043_TIMEGAIN3
      00014B 74 F5            [12] 2529 	mov	a,#0xf5
      00014D F0               [24] 2530 	movx	@dptr,a
                                   2531 ;	atrs\config.c:75: AX5043_DRGAIN3                 = 0xF0;
      00014E 90 41 55         [24] 2532 	mov	dptr,#_AX5043_DRGAIN3
      000151 74 F0            [12] 2533 	mov	a,#0xf0
      000153 F0               [24] 2534 	movx	@dptr,a
                                   2535 ;	atrs\config.c:76: AX5043_PHASEGAIN3              = 0xC3;
      000154 90 41 56         [24] 2536 	mov	dptr,#_AX5043_PHASEGAIN3
      000157 74 C3            [12] 2537 	mov	a,#0xc3
      000159 F0               [24] 2538 	movx	@dptr,a
                                   2539 ;	atrs\config.c:77: AX5043_FREQUENCYGAINA3         = 0x0F;
      00015A 90 41 57         [24] 2540 	mov	dptr,#_AX5043_FREQUENCYGAINA3
      00015D 74 0F            [12] 2541 	mov	a,#0x0f
      00015F F0               [24] 2542 	movx	@dptr,a
                                   2543 ;	atrs\config.c:78: AX5043_FREQUENCYGAINB3         = 0x1F;
      000160 90 41 58         [24] 2544 	mov	dptr,#_AX5043_FREQUENCYGAINB3
      000163 74 1F            [12] 2545 	mov	a,#0x1f
      000165 F0               [24] 2546 	movx	@dptr,a
                                   2547 ;	atrs\config.c:79: AX5043_FREQUENCYGAINC3         = 0x0C;
      000166 90 41 59         [24] 2548 	mov	dptr,#_AX5043_FREQUENCYGAINC3
      000169 74 0C            [12] 2549 	mov	a,#0x0c
      00016B F0               [24] 2550 	movx	@dptr,a
                                   2551 ;	atrs\config.c:80: AX5043_FREQUENCYGAIND3         = 0x0C;
      00016C 90 41 5A         [24] 2552 	mov	dptr,#_AX5043_FREQUENCYGAIND3
      00016F F0               [24] 2553 	movx	@dptr,a
                                   2554 ;	atrs\config.c:81: AX5043_AMPLITUDEGAIN3          = 0x06;
      000170 90 41 5B         [24] 2555 	mov	dptr,#_AX5043_AMPLITUDEGAIN3
      000173 03               [12] 2556 	rr	a
      000174 F0               [24] 2557 	movx	@dptr,a
                                   2558 ;	atrs\config.c:82: AX5043_FREQDEV13               = 0x00;
      000175 90 41 5C         [24] 2559 	mov	dptr,#_AX5043_FREQDEV13
      000178 E4               [12] 2560 	clr	a
      000179 F0               [24] 2561 	movx	@dptr,a
                                   2562 ;	atrs\config.c:83: AX5043_FREQDEV03               = 0x43;
      00017A 90 41 5D         [24] 2563 	mov	dptr,#_AX5043_FREQDEV03
      00017D 74 43            [12] 2564 	mov	a,#0x43
      00017F F0               [24] 2565 	movx	@dptr,a
                                   2566 ;	atrs\config.c:84: AX5043_FOURFSK3                = 0x16;
      000180 90 41 5E         [24] 2567 	mov	dptr,#_AX5043_FOURFSK3
      000183 74 16            [12] 2568 	mov	a,#0x16
      000185 F0               [24] 2569 	movx	@dptr,a
                                   2570 ;	atrs\config.c:85: AX5043_BBOFFSRES3              = 0x00;
      000186 90 41 5F         [24] 2571 	mov	dptr,#_AX5043_BBOFFSRES3
      000189 E4               [12] 2572 	clr	a
      00018A F0               [24] 2573 	movx	@dptr,a
                                   2574 ;	atrs\config.c:86: AX5043_MODCFGF                 = 0x03;
      00018B 90 41 60         [24] 2575 	mov	dptr,#_AX5043_MODCFGF
      00018E 74 03            [12] 2576 	mov	a,#0x03
      000190 F0               [24] 2577 	movx	@dptr,a
                                   2578 ;	atrs\config.c:87: AX5043_FSKDEV2                 = 0x00;
      000191 90 41 61         [24] 2579 	mov	dptr,#_AX5043_FSKDEV2
      000194 E4               [12] 2580 	clr	a
      000195 F0               [24] 2581 	movx	@dptr,a
                                   2582 ;	atrs\config.c:88: AX5043_FSKDEV1                 = 0x04;
      000196 90 41 62         [24] 2583 	mov	dptr,#_AX5043_FSKDEV1
      000199 74 04            [12] 2584 	mov	a,#0x04
      00019B F0               [24] 2585 	movx	@dptr,a
                                   2586 ;	atrs\config.c:89: AX5043_FSKDEV0                 = 0x5E;
      00019C 90 41 63         [24] 2587 	mov	dptr,#_AX5043_FSKDEV0
      00019F 74 5E            [12] 2588 	mov	a,#0x5e
      0001A1 F0               [24] 2589 	movx	@dptr,a
                                   2590 ;	atrs\config.c:90: AX5043_MODCFGA                 = 0x05;
      0001A2 90 41 64         [24] 2591 	mov	dptr,#_AX5043_MODCFGA
      0001A5 74 05            [12] 2592 	mov	a,#0x05
      0001A7 F0               [24] 2593 	movx	@dptr,a
                                   2594 ;	atrs\config.c:91: AX5043_TXRATE2                 = 0x00;
      0001A8 90 41 65         [24] 2595 	mov	dptr,#_AX5043_TXRATE2
      0001AB E4               [12] 2596 	clr	a
      0001AC F0               [24] 2597 	movx	@dptr,a
                                   2598 ;	atrs\config.c:92: AX5043_TXRATE1                 = 0x0D;
      0001AD 90 41 66         [24] 2599 	mov	dptr,#_AX5043_TXRATE1
      0001B0 74 0D            [12] 2600 	mov	a,#0x0d
      0001B2 F0               [24] 2601 	movx	@dptr,a
                                   2602 ;	atrs\config.c:93: AX5043_TXRATE0                 = 0x1B;
      0001B3 90 41 67         [24] 2603 	mov	dptr,#_AX5043_TXRATE0
      0001B6 74 1B            [12] 2604 	mov	a,#0x1b
      0001B8 F0               [24] 2605 	movx	@dptr,a
                                   2606 ;	atrs\config.c:94: AX5043_TXPWRCOEFFB1            = TX_POWER_COEFF1;
      0001B9 90 41 6A         [24] 2607 	mov	dptr,#_AX5043_TXPWRCOEFFB1
      0001BC 74 0F            [12] 2608 	mov	a,#0x0f
      0001BE F0               [24] 2609 	movx	@dptr,a
                                   2610 ;	atrs\config.c:95: AX5043_TXPWRCOEFFB0            = TX_POWER_COEFF0;
      0001BF 90 41 6B         [24] 2611 	mov	dptr,#_AX5043_TXPWRCOEFFB0
      0001C2 74 FF            [12] 2612 	mov	a,#0xff
      0001C4 F0               [24] 2613 	movx	@dptr,a
                                   2614 ;	atrs\config.c:96: AX5043_PLLVCOI                 = 0x98;
      0001C5 90 41 80         [24] 2615 	mov	dptr,#_AX5043_PLLVCOI
      0001C8 74 98            [12] 2616 	mov	a,#0x98
      0001CA F0               [24] 2617 	movx	@dptr,a
                                   2618 ;	atrs\config.c:97: AX5043_PLLRNGCLK               = 0x05;
      0001CB 90 41 83         [24] 2619 	mov	dptr,#_AX5043_PLLRNGCLK
      0001CE 74 05            [12] 2620 	mov	a,#0x05
      0001D0 F0               [24] 2621 	movx	@dptr,a
                                   2622 ;	atrs\config.c:98: AX5043_BBTUNE                  = 0x0F;
      0001D1 90 41 88         [24] 2623 	mov	dptr,#_AX5043_BBTUNE
      0001D4 74 0F            [12] 2624 	mov	a,#0x0f
      0001D6 F0               [24] 2625 	movx	@dptr,a
                                   2626 ;	atrs\config.c:99: AX5043_BBOFFSCAP               = 0x77;
      0001D7 90 41 89         [24] 2627 	mov	dptr,#_AX5043_BBOFFSCAP
      0001DA 74 77            [12] 2628 	mov	a,#0x77
      0001DC F0               [24] 2629 	movx	@dptr,a
                                   2630 ;	atrs\config.c:100: AX5043_PKTADDRCFG              = 0x01;
      0001DD 90 42 00         [24] 2631 	mov	dptr,#_AX5043_PKTADDRCFG
      0001E0 74 01            [12] 2632 	mov	a,#0x01
      0001E2 F0               [24] 2633 	movx	@dptr,a
                                   2634 ;	atrs\config.c:101: AX5043_PKTLENCFG               = 0x80;
      0001E3 90 42 01         [24] 2635 	mov	dptr,#_AX5043_PKTLENCFG
      0001E6 03               [12] 2636 	rr	a
      0001E7 F0               [24] 2637 	movx	@dptr,a
                                   2638 ;	atrs\config.c:102: AX5043_PKTLENOFFSET            = 0x00;
      0001E8 90 42 02         [24] 2639 	mov	dptr,#_AX5043_PKTLENOFFSET
      0001EB E4               [12] 2640 	clr	a
      0001EC F0               [24] 2641 	movx	@dptr,a
                                   2642 ;	atrs\config.c:103: AX5043_PKTMAXLEN               = 0xC8;
      0001ED 90 42 03         [24] 2643 	mov	dptr,#_AX5043_PKTMAXLEN
      0001F0 74 C8            [12] 2644 	mov	a,#0xc8
      0001F2 F0               [24] 2645 	movx	@dptr,a
                                   2646 ;	atrs\config.c:104: AX5043_MATCH0PAT3              = 0xA5;
      0001F3 90 42 10         [24] 2647 	mov	dptr,#_AX5043_MATCH0PAT3
      0001F6 74 A5            [12] 2648 	mov	a,#0xa5
      0001F8 F0               [24] 2649 	movx	@dptr,a
                                   2650 ;	atrs\config.c:105: AX5043_MATCH0PAT2              = 0x00;
      0001F9 90 42 11         [24] 2651 	mov	dptr,#_AX5043_MATCH0PAT2
      0001FC E4               [12] 2652 	clr	a
      0001FD F0               [24] 2653 	movx	@dptr,a
                                   2654 ;	atrs\config.c:106: AX5043_MATCH0PAT1              = 0x00;
      0001FE 90 42 12         [24] 2655 	mov	dptr,#_AX5043_MATCH0PAT1
      000201 F0               [24] 2656 	movx	@dptr,a
                                   2657 ;	atrs\config.c:107: AX5043_MATCH0PAT0              = 0x00;
      000202 90 42 13         [24] 2658 	mov	dptr,#_AX5043_MATCH0PAT0
      000205 F0               [24] 2659 	movx	@dptr,a
                                   2660 ;	atrs\config.c:108: AX5043_MATCH0LEN               = 0x87;
      000206 90 42 14         [24] 2661 	mov	dptr,#_AX5043_MATCH0LEN
      000209 74 87            [12] 2662 	mov	a,#0x87
      00020B F0               [24] 2663 	movx	@dptr,a
                                   2664 ;	atrs\config.c:109: AX5043_MATCH0MAX               = 0x07;
      00020C 90 42 16         [24] 2665 	mov	dptr,#_AX5043_MATCH0MAX
      00020F 74 07            [12] 2666 	mov	a,#0x07
      000211 F0               [24] 2667 	movx	@dptr,a
                                   2668 ;	atrs\config.c:110: AX5043_MATCH1PAT1              = 0x55;
      000212 90 42 18         [24] 2669 	mov	dptr,#_AX5043_MATCH1PAT1
      000215 74 55            [12] 2670 	mov	a,#0x55
      000217 F0               [24] 2671 	movx	@dptr,a
                                   2672 ;	atrs\config.c:111: AX5043_MATCH1PAT0              = 0x55;
      000218 90 42 19         [24] 2673 	mov	dptr,#_AX5043_MATCH1PAT0
      00021B F0               [24] 2674 	movx	@dptr,a
                                   2675 ;	atrs\config.c:112: AX5043_MATCH1LEN               = 0x8A;
      00021C 90 42 1C         [24] 2676 	mov	dptr,#_AX5043_MATCH1LEN
      00021F 74 8A            [12] 2677 	mov	a,#0x8a
      000221 F0               [24] 2678 	movx	@dptr,a
                                   2679 ;	atrs\config.c:113: AX5043_MATCH1MAX               = 0x0A;
      000222 90 42 1E         [24] 2680 	mov	dptr,#_AX5043_MATCH1MAX
      000225 74 0A            [12] 2681 	mov	a,#0x0a
      000227 F0               [24] 2682 	movx	@dptr,a
                                   2683 ;	atrs\config.c:114: AX5043_TMGTXBOOST              = 0x5B;
      000228 90 42 20         [24] 2684 	mov	dptr,#_AX5043_TMGTXBOOST
      00022B 74 5B            [12] 2685 	mov	a,#0x5b
      00022D F0               [24] 2686 	movx	@dptr,a
                                   2687 ;	atrs\config.c:115: AX5043_TMGTXSETTLE             = 0x3E;
      00022E 90 42 21         [24] 2688 	mov	dptr,#_AX5043_TMGTXSETTLE
      000231 74 3E            [12] 2689 	mov	a,#0x3e
      000233 F0               [24] 2690 	movx	@dptr,a
                                   2691 ;	atrs\config.c:116: AX5043_TMGRXBOOST              = 0x5B;
      000234 90 42 23         [24] 2692 	mov	dptr,#_AX5043_TMGRXBOOST
      000237 74 5B            [12] 2693 	mov	a,#0x5b
      000239 F0               [24] 2694 	movx	@dptr,a
                                   2695 ;	atrs\config.c:117: AX5043_TMGRXSETTLE             = 0x3E;
      00023A 90 42 24         [24] 2696 	mov	dptr,#_AX5043_TMGRXSETTLE
      00023D 74 3E            [12] 2697 	mov	a,#0x3e
      00023F F0               [24] 2698 	movx	@dptr,a
                                   2699 ;	atrs\config.c:118: AX5043_TMGRXOFFSACQ            = 0x00;
      000240 90 42 25         [24] 2700 	mov	dptr,#_AX5043_TMGRXOFFSACQ
      000243 E4               [12] 2701 	clr	a
      000244 F0               [24] 2702 	movx	@dptr,a
                                   2703 ;	atrs\config.c:119: AX5043_TMGRXCOARSEAGC          = 0x9C;
      000245 90 42 26         [24] 2704 	mov	dptr,#_AX5043_TMGRXCOARSEAGC
      000248 74 9C            [12] 2705 	mov	a,#0x9c
      00024A F0               [24] 2706 	movx	@dptr,a
                                   2707 ;	atrs\config.c:120: AX5043_TMGRXRSSI               = 0x03;
      00024B 90 42 28         [24] 2708 	mov	dptr,#_AX5043_TMGRXRSSI
      00024E 74 03            [12] 2709 	mov	a,#0x03
      000250 F0               [24] 2710 	movx	@dptr,a
                                   2711 ;	atrs\config.c:121: AX5043_TMGRXPREAMBLE2          = 0x12;
      000251 90 42 2A         [24] 2712 	mov	dptr,#_AX5043_TMGRXPREAMBLE2
      000254 74 12            [12] 2713 	mov	a,#0x12
      000256 F0               [24] 2714 	movx	@dptr,a
                                   2715 ;	atrs\config.c:122: AX5043_RSSIABSTHR              = 0xE3;
      000257 90 42 2D         [24] 2716 	mov	dptr,#_AX5043_RSSIABSTHR
      00025A 74 E3            [12] 2717 	mov	a,#0xe3
      00025C F0               [24] 2718 	movx	@dptr,a
                                   2719 ;	atrs\config.c:123: AX5043_BGNDRSSITHR             = 0x00;
      00025D 90 42 2F         [24] 2720 	mov	dptr,#_AX5043_BGNDRSSITHR
      000260 E4               [12] 2721 	clr	a
      000261 F0               [24] 2722 	movx	@dptr,a
                                   2723 ;	atrs\config.c:124: AX5043_PKTCHUNKSIZE            = 0x0D;
      000262 90 42 30         [24] 2724 	mov	dptr,#_AX5043_PKTCHUNKSIZE
      000265 74 0D            [12] 2725 	mov	a,#0x0d
      000267 F0               [24] 2726 	movx	@dptr,a
                                   2727 ;	atrs\config.c:125: AX5043_PKTACCEPTFLAGS          = 0x20;
      000268 90 42 33         [24] 2728 	mov	dptr,#_AX5043_PKTACCEPTFLAGS
      00026B 74 20            [12] 2729 	mov	a,#0x20
      00026D F0               [24] 2730 	movx	@dptr,a
                                   2731 ;	atrs\config.c:126: AX5043_DACVALUE1               = 0x00;
      00026E 90 43 30         [24] 2732 	mov	dptr,#_AX5043_DACVALUE1
      000271 E4               [12] 2733 	clr	a
      000272 F0               [24] 2734 	movx	@dptr,a
                                   2735 ;	atrs\config.c:127: AX5043_DACVALUE0               = 0x00;
      000273 90 43 31         [24] 2736 	mov	dptr,#_AX5043_DACVALUE0
      000276 F0               [24] 2737 	movx	@dptr,a
                                   2738 ;	atrs\config.c:128: AX5043_DACCONFIG               = 0x00;
      000277 90 43 32         [24] 2739 	mov	dptr,#_AX5043_DACCONFIG
      00027A F0               [24] 2740 	movx	@dptr,a
                                   2741 ;	atrs\config.c:129: AX5043_REF                     = 0x03;
      00027B 90 4F 0D         [24] 2742 	mov	dptr,#_AX5043_REF
      00027E 74 03            [12] 2743 	mov	a,#0x03
      000280 F0               [24] 2744 	movx	@dptr,a
                                   2745 ;	atrs\config.c:130: AX5043_XTALOSC                 = 0x04;
      000281 90 4F 10         [24] 2746 	mov	dptr,#_AX5043_XTALOSC
      000284 04               [12] 2747 	inc	a
      000285 F0               [24] 2748 	movx	@dptr,a
                                   2749 ;	atrs\config.c:131: AX5043_XTALAMPL                = 0x00;
      000286 90 4F 11         [24] 2750 	mov	dptr,#_AX5043_XTALAMPL
      000289 E4               [12] 2751 	clr	a
      00028A F0               [24] 2752 	movx	@dptr,a
                                   2753 ;	atrs\config.c:132: AX5043_0xF1C                   = 0x07;
      00028B 90 4F 1C         [24] 2754 	mov	dptr,#_AX5043_0xF1C
      00028E 74 07            [12] 2755 	mov	a,#0x07
      000290 F0               [24] 2756 	movx	@dptr,a
                                   2757 ;	atrs\config.c:133: AX5043_0xF21                   = 0x68;
      000291 90 4F 21         [24] 2758 	mov	dptr,#_AX5043_0xF21
      000294 74 68            [12] 2759 	mov	a,#0x68
      000296 F0               [24] 2760 	movx	@dptr,a
                                   2761 ;	atrs\config.c:134: AX5043_0xF22                   = 0xFF;
      000297 90 4F 22         [24] 2762 	mov	dptr,#_AX5043_0xF22
      00029A 74 FF            [12] 2763 	mov	a,#0xff
      00029C F0               [24] 2764 	movx	@dptr,a
                                   2765 ;	atrs\config.c:135: AX5043_0xF23                   = 0x84;
      00029D 90 4F 23         [24] 2766 	mov	dptr,#_AX5043_0xF23
      0002A0 74 84            [12] 2767 	mov	a,#0x84
      0002A2 F0               [24] 2768 	movx	@dptr,a
                                   2769 ;	atrs\config.c:136: AX5043_0xF26                   = 0x98;
      0002A3 90 4F 26         [24] 2770 	mov	dptr,#_AX5043_0xF26
      0002A6 74 98            [12] 2771 	mov	a,#0x98
      0002A8 F0               [24] 2772 	movx	@dptr,a
                                   2773 ;	atrs\config.c:137: AX5043_0xF34                   = 0x28;
      0002A9 90 4F 34         [24] 2774 	mov	dptr,#_AX5043_0xF34
      0002AC 74 28            [12] 2775 	mov	a,#0x28
      0002AE F0               [24] 2776 	movx	@dptr,a
                                   2777 ;	atrs\config.c:138: AX5043_0xF35                   = 0x11;
      0002AF 90 4F 35         [24] 2778 	mov	dptr,#_AX5043_0xF35
      0002B2 74 11            [12] 2779 	mov	a,#0x11
      0002B4 F0               [24] 2780 	movx	@dptr,a
                                   2781 ;	atrs\config.c:139: AX5043_0xF44                   = 0x25;
      0002B5 90 4F 44         [24] 2782 	mov	dptr,#_AX5043_0xF44
      0002B8 74 25            [12] 2783 	mov	a,#0x25
      0002BA F0               [24] 2784 	movx	@dptr,a
      0002BB 22               [24] 2785 	ret
                                   2786 ;------------------------------------------------------------
                                   2787 ;Allocation info for local variables in function 'ax5043_set_registers_tx'
                                   2788 ;------------------------------------------------------------
                                   2789 ;	atrs\config.c:143: __reentrantb void ax5043_set_registers_tx(void) __reentrant
                                   2790 ;	-----------------------------------------
                                   2791 ;	 function ax5043_set_registers_tx
                                   2792 ;	-----------------------------------------
      0002BC                       2793 _ax5043_set_registers_tx:
                                   2794 ;	atrs\config.c:145: AX5043_PLLLOOP                 = 0x09;
      0002BC 90 40 30         [24] 2795 	mov	dptr,#_AX5043_PLLLOOP
      0002BF 74 09            [12] 2796 	mov	a,#0x09
      0002C1 F0               [24] 2797 	movx	@dptr,a
                                   2798 ;	atrs\config.c:146: AX5043_PLLCPI                  = 0x02;
      0002C2 90 40 31         [24] 2799 	mov	dptr,#_AX5043_PLLCPI
      0002C5 74 02            [12] 2800 	mov	a,#0x02
      0002C7 F0               [24] 2801 	movx	@dptr,a
                                   2802 ;	atrs\config.c:147: AX5043_PLLVCODIV               = 0x24;
      0002C8 90 40 32         [24] 2803 	mov	dptr,#_AX5043_PLLVCODIV
      0002CB 74 24            [12] 2804 	mov	a,#0x24
      0002CD F0               [24] 2805 	movx	@dptr,a
                                   2806 ;	atrs\config.c:148: AX5043_XTALCAP                 = 0x00;
      0002CE 90 41 84         [24] 2807 	mov	dptr,#_AX5043_XTALCAP
      0002D1 E4               [12] 2808 	clr	a
      0002D2 F0               [24] 2809 	movx	@dptr,a
                                   2810 ;	atrs\config.c:149: AX5043_0xF00                   = 0x0F;
      0002D3 90 4F 00         [24] 2811 	mov	dptr,#_AX5043_0xF00
      0002D6 74 0F            [12] 2812 	mov	a,#0x0f
      0002D8 F0               [24] 2813 	movx	@dptr,a
                                   2814 ;	atrs\config.c:150: AX5043_0xF18                   = 0x06;
      0002D9 90 4F 18         [24] 2815 	mov	dptr,#_AX5043_0xF18
      0002DC 74 06            [12] 2816 	mov	a,#0x06
      0002DE F0               [24] 2817 	movx	@dptr,a
      0002DF 22               [24] 2818 	ret
                                   2819 ;------------------------------------------------------------
                                   2820 ;Allocation info for local variables in function 'ax5043_set_registers_rx'
                                   2821 ;------------------------------------------------------------
                                   2822 ;	atrs\config.c:154: __reentrantb void ax5043_set_registers_rx(void) __reentrant
                                   2823 ;	-----------------------------------------
                                   2824 ;	 function ax5043_set_registers_rx
                                   2825 ;	-----------------------------------------
      0002E0                       2826 _ax5043_set_registers_rx:
                                   2827 ;	atrs\config.c:156: AX5043_PLLLOOP                 = 0x0B;
      0002E0 90 40 30         [24] 2828 	mov	dptr,#_AX5043_PLLLOOP
      0002E3 74 0B            [12] 2829 	mov	a,#0x0b
      0002E5 F0               [24] 2830 	movx	@dptr,a
                                   2831 ;	atrs\config.c:157: AX5043_PLLCPI                  = 0x10;
      0002E6 90 40 31         [24] 2832 	mov	dptr,#_AX5043_PLLCPI
      0002E9 74 10            [12] 2833 	mov	a,#0x10
      0002EB F0               [24] 2834 	movx	@dptr,a
                                   2835 ;	atrs\config.c:158: AX5043_PLLVCODIV               = 0x25;
      0002EC 90 40 32         [24] 2836 	mov	dptr,#_AX5043_PLLVCODIV
      0002EF 74 25            [12] 2837 	mov	a,#0x25
      0002F1 F0               [24] 2838 	movx	@dptr,a
                                   2839 ;	atrs\config.c:159: AX5043_XTALCAP                 = 0x00;
      0002F2 90 41 84         [24] 2840 	mov	dptr,#_AX5043_XTALCAP
      0002F5 E4               [12] 2841 	clr	a
      0002F6 F0               [24] 2842 	movx	@dptr,a
                                   2843 ;	atrs\config.c:160: AX5043_0xF00                   = 0x0F;
      0002F7 90 4F 00         [24] 2844 	mov	dptr,#_AX5043_0xF00
      0002FA 74 0F            [12] 2845 	mov	a,#0x0f
      0002FC F0               [24] 2846 	movx	@dptr,a
                                   2847 ;	atrs\config.c:161: AX5043_0xF18                   = 0x02;
      0002FD 90 4F 18         [24] 2848 	mov	dptr,#_AX5043_0xF18
      000300 74 02            [12] 2849 	mov	a,#0x02
      000302 F0               [24] 2850 	movx	@dptr,a
      000303 22               [24] 2851 	ret
                                   2852 ;------------------------------------------------------------
                                   2853 ;Allocation info for local variables in function 'ax5043_set_registers_rxwor'
                                   2854 ;------------------------------------------------------------
                                   2855 ;	atrs\config.c:165: __reentrantb void ax5043_set_registers_rxwor(void) __reentrant
                                   2856 ;	-----------------------------------------
                                   2857 ;	 function ax5043_set_registers_rxwor
                                   2858 ;	-----------------------------------------
      000304                       2859 _ax5043_set_registers_rxwor:
                                   2860 ;	atrs\config.c:167: AX5043_TMGRXAGC                = 0x02;
      000304 90 42 27         [24] 2861 	mov	dptr,#_AX5043_TMGRXAGC
      000307 74 02            [12] 2862 	mov	a,#0x02
      000309 F0               [24] 2863 	movx	@dptr,a
                                   2864 ;	atrs\config.c:168: AX5043_TMGRXPREAMBLE1          = 0x19;
      00030A 90 42 29         [24] 2865 	mov	dptr,#_AX5043_TMGRXPREAMBLE1
      00030D 74 19            [12] 2866 	mov	a,#0x19
      00030F F0               [24] 2867 	movx	@dptr,a
                                   2868 ;	atrs\config.c:169: AX5043_PKTMISCFLAGS            = 0x03;
      000310 90 42 31         [24] 2869 	mov	dptr,#_AX5043_PKTMISCFLAGS
      000313 74 03            [12] 2870 	mov	a,#0x03
      000315 F0               [24] 2871 	movx	@dptr,a
      000316 22               [24] 2872 	ret
                                   2873 ;------------------------------------------------------------
                                   2874 ;Allocation info for local variables in function 'ax5043_set_registers_rxcont'
                                   2875 ;------------------------------------------------------------
                                   2876 ;	atrs\config.c:173: __reentrantb void ax5043_set_registers_rxcont(void) __reentrant
                                   2877 ;	-----------------------------------------
                                   2878 ;	 function ax5043_set_registers_rxcont
                                   2879 ;	-----------------------------------------
      000317                       2880 _ax5043_set_registers_rxcont:
                                   2881 ;	atrs\config.c:175: AX5043_TMGRXAGC                = 0x00;
      000317 90 42 27         [24] 2882 	mov	dptr,#_AX5043_TMGRXAGC
      00031A E4               [12] 2883 	clr	a
      00031B F0               [24] 2884 	movx	@dptr,a
                                   2885 ;	atrs\config.c:176: AX5043_TMGRXPREAMBLE1          = 0x00;
      00031C 90 42 29         [24] 2886 	mov	dptr,#_AX5043_TMGRXPREAMBLE1
      00031F F0               [24] 2887 	movx	@dptr,a
                                   2888 ;	atrs\config.c:177: AX5043_PKTMISCFLAGS            = 0x00;
      000320 90 42 31         [24] 2889 	mov	dptr,#_AX5043_PKTMISCFLAGS
      000323 F0               [24] 2890 	movx	@dptr,a
      000324 22               [24] 2891 	ret
                                   2892 ;------------------------------------------------------------
                                   2893 ;Allocation info for local variables in function 'ax5043_set_registers_rxcont_singleparamset'
                                   2894 ;------------------------------------------------------------
                                   2895 ;	atrs\config.c:181: __reentrantb void ax5043_set_registers_rxcont_singleparamset(void) __reentrant
                                   2896 ;	-----------------------------------------
                                   2897 ;	 function ax5043_set_registers_rxcont_singleparamset
                                   2898 ;	-----------------------------------------
      000325                       2899 _ax5043_set_registers_rxcont_singleparamset:
                                   2900 ;	atrs\config.c:183: AX5043_RXPARAMSETS             = 0xFF;
      000325 90 41 17         [24] 2901 	mov	dptr,#_AX5043_RXPARAMSETS
      000328 74 FF            [12] 2902 	mov	a,#0xff
      00032A F0               [24] 2903 	movx	@dptr,a
                                   2904 ;	atrs\config.c:184: AX5043_FREQDEV13               = 0x00;
      00032B 90 41 5C         [24] 2905 	mov	dptr,#_AX5043_FREQDEV13
      00032E E4               [12] 2906 	clr	a
      00032F F0               [24] 2907 	movx	@dptr,a
                                   2908 ;	atrs\config.c:185: AX5043_FREQDEV03               = 0x00;
      000330 90 41 5D         [24] 2909 	mov	dptr,#_AX5043_FREQDEV03
      000333 F0               [24] 2910 	movx	@dptr,a
                                   2911 ;	atrs\config.c:186: AX5043_AGCGAIN3                = 0xE7;
      000334 90 41 50         [24] 2912 	mov	dptr,#_AX5043_AGCGAIN3
      000337 74 E7            [12] 2913 	mov	a,#0xe7
      000339 F0               [24] 2914 	movx	@dptr,a
      00033A 22               [24] 2915 	ret
                                   2916 ;------------------------------------------------------------
                                   2917 ;Allocation info for local variables in function 'axradio_setup_pincfg1'
                                   2918 ;------------------------------------------------------------
                                   2919 ;	atrs\config.c:191: __reentrantb void axradio_setup_pincfg1(void) __reentrant
                                   2920 ;	-----------------------------------------
                                   2921 ;	 function axradio_setup_pincfg1
                                   2922 ;	-----------------------------------------
      00033B                       2923 _axradio_setup_pincfg1:
                                   2924 ;	atrs\config.c:193: PALTRADIO = 0xc0; //pass through PWRAMP -> PB2 ANTSEL -> PB3
      00033B 90 70 46         [24] 2925 	mov	dptr,#_PALTRADIO
      00033E 74 C0            [12] 2926 	mov	a,#0xc0
      000340 F0               [24] 2927 	movx	@dptr,a
      000341 22               [24] 2928 	ret
                                   2929 ;------------------------------------------------------------
                                   2930 ;Allocation info for local variables in function 'axradio_setup_pincfg2'
                                   2931 ;------------------------------------------------------------
                                   2932 ;	atrs\config.c:196: __reentrantb void axradio_setup_pincfg2(void) __reentrant
                                   2933 ;	-----------------------------------------
                                   2934 ;	 function axradio_setup_pincfg2
                                   2935 ;	-----------------------------------------
      000342                       2936 _axradio_setup_pincfg2:
                                   2937 ;	atrs\config.c:198: PORTR = (PORTR & 0x3F) | 0x00; //AX8052F143 --> no pull-ups on PR6, PR7
      000342 53 8C 3F         [24] 2938 	anl	_PORTR,#0x3f
      000345 22               [24] 2939 	ret
                                   2940 ;------------------------------------------------------------
                                   2941 ;Allocation info for local variables in function 'axradio_conv_freq_fromhz'
                                   2942 ;------------------------------------------------------------
                                   2943 ;f                         Allocated with name '_axradio_conv_freq_fromhz_f_1_124'
                                   2944 ;------------------------------------------------------------
                                   2945 ;	atrs\config.c:604: int32_t axradio_conv_freq_fromhz(int32_t f)
                                   2946 ;	-----------------------------------------
                                   2947 ;	 function axradio_conv_freq_fromhz
                                   2948 ;	-----------------------------------------
      000346                       2949 _axradio_conv_freq_fromhz:
                                   2950 ;	atrs\config.c:610: CONSTMULFIX24(0x597a7e);
      000346 A8 82            [24] 2951 	mov r0,dpl 
      000348 A9 83            [24] 2952 	mov r1,dph 
      00034A AA F0            [24] 2953 	mov r2,b 
      00034C FB               [12] 2954 	mov r3,a 
      00034D C0 E0            [24] 2955 	push acc 
      00034F 30 E7 0D         [24] 2956 	jnb acc.7,00000$ 
      000352 C3               [12] 2957 	clr c 
      000353 E4               [12] 2958 	clr a 
      000354 98               [12] 2959 	subb a,r0 
      000355 F8               [12] 2960 	mov r0,a 
      000356 E4               [12] 2961 	clr a 
      000357 99               [12] 2962 	subb a,r1 
      000358 F9               [12] 2963 	mov r1,a 
      000359 E4               [12] 2964 	clr a 
      00035A 9A               [12] 2965 	subb a,r2 
      00035B FA               [12] 2966 	mov r2,a 
      00035C E4               [12] 2967 	clr a 
      00035D 9B               [12] 2968 	subb a,r3 
      00035E FB               [12] 2969 	mov r3,a 
      00035F                       2970 	 00000$:
      00035F E4               [12] 2971 	clr a 
      000360 FC               [12] 2972 	mov r4,a 
      000361 FD               [12] 2973 	mov r5,a 
      000362 FE               [12] 2974 	mov r6,a 
      000363 FF               [12] 2975 	mov r7,a 
                                   2976 ;; stage -1 
                           000001  2977 	.if (((0x597a7e)>>16)&0xff) 
      000364 74 59            [12] 2978 	mov a,# (((0x597a7e)>>16)&0xff) 
      000366 88 F0            [24] 2979 	mov b,r0 
      000368 A4               [48] 2980 	mul ab 
      000369 FF               [12] 2981 	mov r7,a 
      00036A AC F0            [24] 2982 	mov r4,b 
                                   2983 	.endif 
                           000001  2984 	.if (((0x597a7e)>>8)&0xff) 
      00036C 74 7A            [12] 2985 	mov a,# (((0x597a7e)>>8)&0xff) 
      00036E 89 F0            [24] 2986 	mov b,r1 
      000370 A4               [48] 2987 	mul ab 
                           000001  2988 	.if (((0x597a7e)>>16)&0xff) 
      000371 2F               [12] 2989 	add a,r7 
      000372 FF               [12] 2990 	mov r7,a 
      000373 E5 F0            [12] 2991 	mov a,b 
      000375 3C               [12] 2992 	addc a,r4 
      000376 FC               [12] 2993 	mov r4,a 
      000377 E4               [12] 2994 	clr a 
      000378 3D               [12] 2995 	addc a,r5 
      000379 FD               [12] 2996 	mov r5,a 
                           000000  2997 	.else 
                                   2998 	mov r7,a 
                                   2999 	mov r4,b 
                                   3000 	.endif 
                                   3001 	.endif 
                           000001  3002 	.if ((0x597a7e)&0xff) 
      00037A 74 7E            [12] 3003 	mov a,# ((0x597a7e)&0xff) 
      00037C 8A F0            [24] 3004 	mov b,r2 
      00037E A4               [48] 3005 	mul ab 
                           000001  3006 	.if (((0x597a7e)>>8)&0xffff) 
      00037F 2F               [12] 3007 	add a,r7 
      000380 FF               [12] 3008 	mov r7,a 
      000381 E5 F0            [12] 3009 	mov a,b 
      000383 3C               [12] 3010 	addc a,r4 
      000384 FC               [12] 3011 	mov r4,a 
      000385 E4               [12] 3012 	clr a 
      000386 3D               [12] 3013 	addc a,r5 
      000387 FD               [12] 3014 	mov r5,a 
                           000000  3015 	.else 
                                   3016 	mov r7,a 
                                   3017 	mov r4,b 
                                   3018 	.endif 
                                   3019 	.endif 
                                   3020 ;; clear precision extension 
      000388 E4               [12] 3021 	clr a 
      000389 FF               [12] 3022 	mov r7,a 
                                   3023 ;; stage 0 
                           000000  3024 	.if (((0x597a7e)>>24)&0xff) 
                                   3025 	mov a,# (((0x597a7e)>>24)&0xff) 
                                   3026 	mov b,r0 
                                   3027 	mul ab 
                                   3028 	add a,r4 
                                   3029 	mov r4,a 
                                   3030 	mov a,b 
                                   3031 	addc a,r5 
                                   3032 	mov r5,a 
                                   3033 	clr a 
                                   3034 	addc a,r6 
                                   3035 	mov r6,a 
                                   3036 	.endif 
                           000001  3037 	.if (((0x597a7e)>>16)&0xff) 
      00038A 74 59            [12] 3038 	mov a,# (((0x597a7e)>>16)&0xff) 
      00038C 89 F0            [24] 3039 	mov b,r1 
      00038E A4               [48] 3040 	mul ab 
      00038F 2C               [12] 3041 	add a,r4 
      000390 FC               [12] 3042 	mov r4,a 
      000391 E5 F0            [12] 3043 	mov a,b 
      000393 3D               [12] 3044 	addc a,r5 
      000394 FD               [12] 3045 	mov r5,a 
      000395 E4               [12] 3046 	clr a 
      000396 3E               [12] 3047 	addc a,r6 
      000397 FE               [12] 3048 	mov r6,a 
                                   3049 	.endif 
                           000001  3050 	.if (((0x597a7e)>>8)&0xff) 
      000398 74 7A            [12] 3051 	mov a,# (((0x597a7e)>>8)&0xff) 
