                                      1 ;--------------------------------------------------------
                                      2 ; File Created by SDCC : free open source ANSI-C Compiler
                                      3 ; Version 3.6.0 #9615 (MINGW64)
                                      4 ;--------------------------------------------------------
                                      5 	.module main
                                      6 	.optsdcc -mmcs51 --model-large
                                      7 	
                                      8 ;--------------------------------------------------------
                                      9 ; Public variables in this module
                                     10 ;--------------------------------------------------------
                                     11 	.globl _main
                                     12 	.globl __sdcc_external_startup
                                     13 	.globl _GOLDSEQUENCE_Obtain
                                     14 	.globl _GOLDSEQUENCE_Init
                                     15 	.globl _UART_Proc_VerifyIncomingMsg
                                     16 	.globl _UART_Proc_PortInit
                                     17 	.globl _UBLOX_GPS_SendCommand_WaitACK
                                     18 	.globl _UBLOX_GPS_PortInit
                                     19 	.globl _delay_tx
                                     20 	.globl _delay_ms
                                     21 	.globl _axradio_setup_pincfg2
                                     22 	.globl _axradio_setup_pincfg1
                                     23 	.globl _axradio_transmit
                                     24 	.globl _axradio_set_default_remote_address
                                     25 	.globl _axradio_set_local_address
                                     26 	.globl _axradio_set_mode
                                     27 	.globl _axradio_init
                                     28 	.globl _dbglink_writehex16
                                     29 	.globl _dbglink_writestr
                                     30 	.globl _dbglink_init
                                     31 	.globl _free
                                     32 	.globl _malloc
                                     33 	.globl _memcpy
                                     34 	.globl _wtimer_runcallbacks
                                     35 	.globl _wtimer_idle
                                     36 	.globl _wtimer_init
                                     37 	.globl _wtimer1_setconfig
                                     38 	.globl _wtimer0_setconfig
                                     39 	.globl _flash_pageerase
                                     40 	.globl _ax5043_commsleepexit
                                     41 	.globl _PORTC_7
                                     42 	.globl _PORTC_6
                                     43 	.globl _PORTC_5
                                     44 	.globl _PORTC_4
                                     45 	.globl _PORTC_3
                                     46 	.globl _PORTC_2
                                     47 	.globl _PORTC_1
                                     48 	.globl _PORTC_0
                                     49 	.globl _PORTB_7
                                     50 	.globl _PORTB_6
                                     51 	.globl _PORTB_5
                                     52 	.globl _PORTB_4
                                     53 	.globl _PORTB_3
                                     54 	.globl _PORTB_2
                                     55 	.globl _PORTB_1
                                     56 	.globl _PORTB_0
                                     57 	.globl _PORTA_7
                                     58 	.globl _PORTA_6
                                     59 	.globl _PORTA_5
                                     60 	.globl _PORTA_4
                                     61 	.globl _PORTA_3
                                     62 	.globl _PORTA_2
                                     63 	.globl _PORTA_1
                                     64 	.globl _PORTA_0
                                     65 	.globl _PINC_7
                                     66 	.globl _PINC_6
                                     67 	.globl _PINC_5
                                     68 	.globl _PINC_4
                                     69 	.globl _PINC_3
                                     70 	.globl _PINC_2
                                     71 	.globl _PINC_1
                                     72 	.globl _PINC_0
                                     73 	.globl _PINB_7
                                     74 	.globl _PINB_6
                                     75 	.globl _PINB_5
                                     76 	.globl _PINB_4
                                     77 	.globl _PINB_3
                                     78 	.globl _PINB_2
                                     79 	.globl _PINB_1
                                     80 	.globl _PINB_0
                                     81 	.globl _PINA_7
                                     82 	.globl _PINA_6
                                     83 	.globl _PINA_5
                                     84 	.globl _PINA_4
                                     85 	.globl _PINA_3
                                     86 	.globl _PINA_2
                                     87 	.globl _PINA_1
                                     88 	.globl _PINA_0
                                     89 	.globl _CY
                                     90 	.globl _AC
                                     91 	.globl _F0
                                     92 	.globl _RS1
                                     93 	.globl _RS0
                                     94 	.globl _OV
                                     95 	.globl _F1
                                     96 	.globl _P
                                     97 	.globl _IP_7
                                     98 	.globl _IP_6
                                     99 	.globl _IP_5
                                    100 	.globl _IP_4
                                    101 	.globl _IP_3
                                    102 	.globl _IP_2
                                    103 	.globl _IP_1
                                    104 	.globl _IP_0
                                    105 	.globl _EA
                                    106 	.globl _IE_7
                                    107 	.globl _IE_6
                                    108 	.globl _IE_5
                                    109 	.globl _IE_4
                                    110 	.globl _IE_3
                                    111 	.globl _IE_2
                                    112 	.globl _IE_1
                                    113 	.globl _IE_0
                                    114 	.globl _EIP_7
                                    115 	.globl _EIP_6
                                    116 	.globl _EIP_5
                                    117 	.globl _EIP_4
                                    118 	.globl _EIP_3
                                    119 	.globl _EIP_2
                                    120 	.globl _EIP_1
                                    121 	.globl _EIP_0
                                    122 	.globl _EIE_7
                                    123 	.globl _EIE_6
                                    124 	.globl _EIE_5
                                    125 	.globl _EIE_4
                                    126 	.globl _EIE_3
                                    127 	.globl _EIE_2
                                    128 	.globl _EIE_1
                                    129 	.globl _EIE_0
                                    130 	.globl _E2IP_7
                                    131 	.globl _E2IP_6
                                    132 	.globl _E2IP_5
                                    133 	.globl _E2IP_4
                                    134 	.globl _E2IP_3
                                    135 	.globl _E2IP_2
                                    136 	.globl _E2IP_1
                                    137 	.globl _E2IP_0
                                    138 	.globl _E2IE_7
                                    139 	.globl _E2IE_6
                                    140 	.globl _E2IE_5
                                    141 	.globl _E2IE_4
                                    142 	.globl _E2IE_3
                                    143 	.globl _E2IE_2
                                    144 	.globl _E2IE_1
                                    145 	.globl _E2IE_0
                                    146 	.globl _B_7
                                    147 	.globl _B_6
                                    148 	.globl _B_5
                                    149 	.globl _B_4
                                    150 	.globl _B_3
                                    151 	.globl _B_2
                                    152 	.globl _B_1
                                    153 	.globl _B_0
                                    154 	.globl _ACC_7
                                    155 	.globl _ACC_6
                                    156 	.globl _ACC_5
                                    157 	.globl _ACC_4
                                    158 	.globl _ACC_3
                                    159 	.globl _ACC_2
                                    160 	.globl _ACC_1
                                    161 	.globl _ACC_0
                                    162 	.globl _WTSTAT
                                    163 	.globl _WTIRQEN
                                    164 	.globl _WTEVTD
                                    165 	.globl _WTEVTD1
                                    166 	.globl _WTEVTD0
                                    167 	.globl _WTEVTC
                                    168 	.globl _WTEVTC1
                                    169 	.globl _WTEVTC0
                                    170 	.globl _WTEVTB
                                    171 	.globl _WTEVTB1
                                    172 	.globl _WTEVTB0
                                    173 	.globl _WTEVTA
                                    174 	.globl _WTEVTA1
                                    175 	.globl _WTEVTA0
                                    176 	.globl _WTCNTR1
                                    177 	.globl _WTCNTB
                                    178 	.globl _WTCNTB1
                                    179 	.globl _WTCNTB0
                                    180 	.globl _WTCNTA
                                    181 	.globl _WTCNTA1
                                    182 	.globl _WTCNTA0
                                    183 	.globl _WTCFGB
                                    184 	.globl _WTCFGA
                                    185 	.globl _WDTRESET
                                    186 	.globl _WDTCFG
                                    187 	.globl _U1STATUS
                                    188 	.globl _U1SHREG
                                    189 	.globl _U1MODE
                                    190 	.globl _U1CTRL
                                    191 	.globl _U0STATUS
                                    192 	.globl _U0SHREG
                                    193 	.globl _U0MODE
                                    194 	.globl _U0CTRL
                                    195 	.globl _T2STATUS
                                    196 	.globl _T2PERIOD
                                    197 	.globl _T2PERIOD1
                                    198 	.globl _T2PERIOD0
                                    199 	.globl _T2MODE
                                    200 	.globl _T2CNT
                                    201 	.globl _T2CNT1
                                    202 	.globl _T2CNT0
                                    203 	.globl _T2CLKSRC
                                    204 	.globl _T1STATUS
                                    205 	.globl _T1PERIOD
                                    206 	.globl _T1PERIOD1
                                    207 	.globl _T1PERIOD0
                                    208 	.globl _T1MODE
                                    209 	.globl _T1CNT
                                    210 	.globl _T1CNT1
                                    211 	.globl _T1CNT0
                                    212 	.globl _T1CLKSRC
                                    213 	.globl _T0STATUS
                                    214 	.globl _T0PERIOD
                                    215 	.globl _T0PERIOD1
                                    216 	.globl _T0PERIOD0
                                    217 	.globl _T0MODE
                                    218 	.globl _T0CNT
                                    219 	.globl _T0CNT1
                                    220 	.globl _T0CNT0
                                    221 	.globl _T0CLKSRC
                                    222 	.globl _SPSTATUS
                                    223 	.globl _SPSHREG
                                    224 	.globl _SPMODE
                                    225 	.globl _SPCLKSRC
                                    226 	.globl _RADIOSTAT
                                    227 	.globl _RADIOSTAT1
                                    228 	.globl _RADIOSTAT0
                                    229 	.globl _RADIODATA
                                    230 	.globl _RADIODATA3
                                    231 	.globl _RADIODATA2
                                    232 	.globl _RADIODATA1
                                    233 	.globl _RADIODATA0
                                    234 	.globl _RADIOADDR
                                    235 	.globl _RADIOADDR1
                                    236 	.globl _RADIOADDR0
                                    237 	.globl _RADIOACC
                                    238 	.globl _OC1STATUS
                                    239 	.globl _OC1PIN
                                    240 	.globl _OC1MODE
                                    241 	.globl _OC1COMP
                                    242 	.globl _OC1COMP1
                                    243 	.globl _OC1COMP0
                                    244 	.globl _OC0STATUS
                                    245 	.globl _OC0PIN
                                    246 	.globl _OC0MODE
                                    247 	.globl _OC0COMP
                                    248 	.globl _OC0COMP1
                                    249 	.globl _OC0COMP0
                                    250 	.globl _NVSTATUS
                                    251 	.globl _NVKEY
                                    252 	.globl _NVDATA
                                    253 	.globl _NVDATA1
                                    254 	.globl _NVDATA0
                                    255 	.globl _NVADDR
                                    256 	.globl _NVADDR1
                                    257 	.globl _NVADDR0
                                    258 	.globl _IC1STATUS
                                    259 	.globl _IC1MODE
                                    260 	.globl _IC1CAPT
                                    261 	.globl _IC1CAPT1
                                    262 	.globl _IC1CAPT0
                                    263 	.globl _IC0STATUS
                                    264 	.globl _IC0MODE
                                    265 	.globl _IC0CAPT
                                    266 	.globl _IC0CAPT1
                                    267 	.globl _IC0CAPT0
                                    268 	.globl _PORTR
                                    269 	.globl _PORTC
                                    270 	.globl _PORTB
                                    271 	.globl _PORTA
                                    272 	.globl _PINR
                                    273 	.globl _PINC
                                    274 	.globl _PINB
                                    275 	.globl _PINA
                                    276 	.globl _DIRR
                                    277 	.globl _DIRC
                                    278 	.globl _DIRB
                                    279 	.globl _DIRA
                                    280 	.globl _DBGLNKSTAT
                                    281 	.globl _DBGLNKBUF
                                    282 	.globl _CODECONFIG
                                    283 	.globl _CLKSTAT
                                    284 	.globl _CLKCON
                                    285 	.globl _ANALOGCOMP
                                    286 	.globl _ADCCONV
                                    287 	.globl _ADCCLKSRC
                                    288 	.globl _ADCCH3CONFIG
                                    289 	.globl _ADCCH2CONFIG
                                    290 	.globl _ADCCH1CONFIG
                                    291 	.globl _ADCCH0CONFIG
                                    292 	.globl __XPAGE
                                    293 	.globl _XPAGE
                                    294 	.globl _SP
                                    295 	.globl _PSW
                                    296 	.globl _PCON
                                    297 	.globl _IP
                                    298 	.globl _IE
                                    299 	.globl _EIP
                                    300 	.globl _EIE
                                    301 	.globl _E2IP
                                    302 	.globl _E2IE
                                    303 	.globl _DPS
                                    304 	.globl _DPTR1
                                    305 	.globl _DPTR0
                                    306 	.globl _DPL1
                                    307 	.globl _DPL
                                    308 	.globl _DPH1
                                    309 	.globl _DPH
                                    310 	.globl _B
                                    311 	.globl _ACC
                                    312 	.globl _counter
                                    313 	.globl _Tmr0Flg
                                    314 	.globl _RfStateMachine
                                    315 	.globl _i
                                    316 	.globl _RxBuffer
                                    317 	.globl _BeaconRx
                                    318 	.globl _RxIsrFlag
                                    319 	.globl _AX5043_XTALAMPL
                                    320 	.globl _AX5043_XTALOSC
                                    321 	.globl _AX5043_MODCFGP
                                    322 	.globl _AX5043_POWCTRL1
                                    323 	.globl _AX5043_REF
                                    324 	.globl _AX5043_0xF44
                                    325 	.globl _AX5043_0xF35
                                    326 	.globl _AX5043_0xF34
                                    327 	.globl _AX5043_0xF33
                                    328 	.globl _AX5043_0xF32
                                    329 	.globl _AX5043_0xF31
                                    330 	.globl _AX5043_0xF30
                                    331 	.globl _AX5043_0xF26
                                    332 	.globl _AX5043_0xF23
                                    333 	.globl _AX5043_0xF22
                                    334 	.globl _AX5043_0xF21
                                    335 	.globl _AX5043_0xF1C
                                    336 	.globl _AX5043_0xF18
                                    337 	.globl _AX5043_0xF11
                                    338 	.globl _AX5043_0xF10
                                    339 	.globl _AX5043_0xF0C
                                    340 	.globl _AX5043_0xF00
                                    341 	.globl _aligned_alloc_PARM_2
                                    342 	.globl _AX5043_TIMEGAIN3NB
                                    343 	.globl _AX5043_TIMEGAIN2NB
                                    344 	.globl _AX5043_TIMEGAIN1NB
                                    345 	.globl _AX5043_TIMEGAIN0NB
                                    346 	.globl _AX5043_RXPARAMSETSNB
                                    347 	.globl _AX5043_RXPARAMCURSETNB
                                    348 	.globl _AX5043_PKTMAXLENNB
                                    349 	.globl _AX5043_PKTLENOFFSETNB
                                    350 	.globl _AX5043_PKTLENCFGNB
                                    351 	.globl _AX5043_PKTADDRMASK3NB
                                    352 	.globl _AX5043_PKTADDRMASK2NB
                                    353 	.globl _AX5043_PKTADDRMASK1NB
                                    354 	.globl _AX5043_PKTADDRMASK0NB
                                    355 	.globl _AX5043_PKTADDRCFGNB
                                    356 	.globl _AX5043_PKTADDR3NB
                                    357 	.globl _AX5043_PKTADDR2NB
                                    358 	.globl _AX5043_PKTADDR1NB
                                    359 	.globl _AX5043_PKTADDR0NB
                                    360 	.globl _AX5043_PHASEGAIN3NB
                                    361 	.globl _AX5043_PHASEGAIN2NB
                                    362 	.globl _AX5043_PHASEGAIN1NB
                                    363 	.globl _AX5043_PHASEGAIN0NB
                                    364 	.globl _AX5043_FREQUENCYLEAKNB
                                    365 	.globl _AX5043_FREQUENCYGAIND3NB
                                    366 	.globl _AX5043_FREQUENCYGAIND2NB
                                    367 	.globl _AX5043_FREQUENCYGAIND1NB
                                    368 	.globl _AX5043_FREQUENCYGAIND0NB
                                    369 	.globl _AX5043_FREQUENCYGAINC3NB
                                    370 	.globl _AX5043_FREQUENCYGAINC2NB
                                    371 	.globl _AX5043_FREQUENCYGAINC1NB
                                    372 	.globl _AX5043_FREQUENCYGAINC0NB
                                    373 	.globl _AX5043_FREQUENCYGAINB3NB
                                    374 	.globl _AX5043_FREQUENCYGAINB2NB
                                    375 	.globl _AX5043_FREQUENCYGAINB1NB
                                    376 	.globl _AX5043_FREQUENCYGAINB0NB
                                    377 	.globl _AX5043_FREQUENCYGAINA3NB
                                    378 	.globl _AX5043_FREQUENCYGAINA2NB
                                    379 	.globl _AX5043_FREQUENCYGAINA1NB
                                    380 	.globl _AX5043_FREQUENCYGAINA0NB
                                    381 	.globl _AX5043_FREQDEV13NB
                                    382 	.globl _AX5043_FREQDEV12NB
                                    383 	.globl _AX5043_FREQDEV11NB
                                    384 	.globl _AX5043_FREQDEV10NB
                                    385 	.globl _AX5043_FREQDEV03NB
                                    386 	.globl _AX5043_FREQDEV02NB
                                    387 	.globl _AX5043_FREQDEV01NB
                                    388 	.globl _AX5043_FREQDEV00NB
                                    389 	.globl _AX5043_FOURFSK3NB
                                    390 	.globl _AX5043_FOURFSK2NB
                                    391 	.globl _AX5043_FOURFSK1NB
                                    392 	.globl _AX5043_FOURFSK0NB
                                    393 	.globl _AX5043_DRGAIN3NB
                                    394 	.globl _AX5043_DRGAIN2NB
                                    395 	.globl _AX5043_DRGAIN1NB
                                    396 	.globl _AX5043_DRGAIN0NB
                                    397 	.globl _AX5043_BBOFFSRES3NB
                                    398 	.globl _AX5043_BBOFFSRES2NB
                                    399 	.globl _AX5043_BBOFFSRES1NB
                                    400 	.globl _AX5043_BBOFFSRES0NB
                                    401 	.globl _AX5043_AMPLITUDEGAIN3NB
                                    402 	.globl _AX5043_AMPLITUDEGAIN2NB
                                    403 	.globl _AX5043_AMPLITUDEGAIN1NB
                                    404 	.globl _AX5043_AMPLITUDEGAIN0NB
                                    405 	.globl _AX5043_AGCTARGET3NB
                                    406 	.globl _AX5043_AGCTARGET2NB
                                    407 	.globl _AX5043_AGCTARGET1NB
                                    408 	.globl _AX5043_AGCTARGET0NB
                                    409 	.globl _AX5043_AGCMINMAX3NB
                                    410 	.globl _AX5043_AGCMINMAX2NB
                                    411 	.globl _AX5043_AGCMINMAX1NB
                                    412 	.globl _AX5043_AGCMINMAX0NB
                                    413 	.globl _AX5043_AGCGAIN3NB
                                    414 	.globl _AX5043_AGCGAIN2NB
                                    415 	.globl _AX5043_AGCGAIN1NB
                                    416 	.globl _AX5043_AGCGAIN0NB
                                    417 	.globl _AX5043_AGCAHYST3NB
                                    418 	.globl _AX5043_AGCAHYST2NB
                                    419 	.globl _AX5043_AGCAHYST1NB
                                    420 	.globl _AX5043_AGCAHYST0NB
                                    421 	.globl _AX5043_0xF44NB
                                    422 	.globl _AX5043_0xF35NB
                                    423 	.globl _AX5043_0xF34NB
                                    424 	.globl _AX5043_0xF33NB
                                    425 	.globl _AX5043_0xF32NB
                                    426 	.globl _AX5043_0xF31NB
                                    427 	.globl _AX5043_0xF30NB
                                    428 	.globl _AX5043_0xF26NB
                                    429 	.globl _AX5043_0xF23NB
                                    430 	.globl _AX5043_0xF22NB
                                    431 	.globl _AX5043_0xF21NB
                                    432 	.globl _AX5043_0xF1CNB
                                    433 	.globl _AX5043_0xF18NB
                                    434 	.globl _AX5043_0xF0CNB
                                    435 	.globl _AX5043_0xF00NB
                                    436 	.globl _AX5043_XTALSTATUSNB
                                    437 	.globl _AX5043_XTALOSCNB
                                    438 	.globl _AX5043_XTALCAPNB
                                    439 	.globl _AX5043_XTALAMPLNB
                                    440 	.globl _AX5043_WAKEUPXOEARLYNB
                                    441 	.globl _AX5043_WAKEUPTIMER1NB
                                    442 	.globl _AX5043_WAKEUPTIMER0NB
                                    443 	.globl _AX5043_WAKEUPFREQ1NB
                                    444 	.globl _AX5043_WAKEUPFREQ0NB
                                    445 	.globl _AX5043_WAKEUP1NB
                                    446 	.globl _AX5043_WAKEUP0NB
                                    447 	.globl _AX5043_TXRATE2NB
                                    448 	.globl _AX5043_TXRATE1NB
                                    449 	.globl _AX5043_TXRATE0NB
                                    450 	.globl _AX5043_TXPWRCOEFFE1NB
                                    451 	.globl _AX5043_TXPWRCOEFFE0NB
                                    452 	.globl _AX5043_TXPWRCOEFFD1NB
                                    453 	.globl _AX5043_TXPWRCOEFFD0NB
                                    454 	.globl _AX5043_TXPWRCOEFFC1NB
                                    455 	.globl _AX5043_TXPWRCOEFFC0NB
                                    456 	.globl _AX5043_TXPWRCOEFFB1NB
                                    457 	.globl _AX5043_TXPWRCOEFFB0NB
                                    458 	.globl _AX5043_TXPWRCOEFFA1NB
                                    459 	.globl _AX5043_TXPWRCOEFFA0NB
                                    460 	.globl _AX5043_TRKRFFREQ2NB
                                    461 	.globl _AX5043_TRKRFFREQ1NB
                                    462 	.globl _AX5043_TRKRFFREQ0NB
                                    463 	.globl _AX5043_TRKPHASE1NB
                                    464 	.globl _AX5043_TRKPHASE0NB
                                    465 	.globl _AX5043_TRKFSKDEMOD1NB
                                    466 	.globl _AX5043_TRKFSKDEMOD0NB
                                    467 	.globl _AX5043_TRKFREQ1NB
                                    468 	.globl _AX5043_TRKFREQ0NB
                                    469 	.globl _AX5043_TRKDATARATE2NB
                                    470 	.globl _AX5043_TRKDATARATE1NB
                                    471 	.globl _AX5043_TRKDATARATE0NB
                                    472 	.globl _AX5043_TRKAMPLITUDE1NB
                                    473 	.globl _AX5043_TRKAMPLITUDE0NB
                                    474 	.globl _AX5043_TRKAFSKDEMOD1NB
                                    475 	.globl _AX5043_TRKAFSKDEMOD0NB
                                    476 	.globl _AX5043_TMGTXSETTLENB
                                    477 	.globl _AX5043_TMGTXBOOSTNB
                                    478 	.globl _AX5043_TMGRXSETTLENB
                                    479 	.globl _AX5043_TMGRXRSSINB
                                    480 	.globl _AX5043_TMGRXPREAMBLE3NB
                                    481 	.globl _AX5043_TMGRXPREAMBLE2NB
                                    482 	.globl _AX5043_TMGRXPREAMBLE1NB
                                    483 	.globl _AX5043_TMGRXOFFSACQNB
                                    484 	.globl _AX5043_TMGRXCOARSEAGCNB
                                    485 	.globl _AX5043_TMGRXBOOSTNB
                                    486 	.globl _AX5043_TMGRXAGCNB
                                    487 	.globl _AX5043_TIMER2NB
                                    488 	.globl _AX5043_TIMER1NB
                                    489 	.globl _AX5043_TIMER0NB
                                    490 	.globl _AX5043_SILICONREVISIONNB
                                    491 	.globl _AX5043_SCRATCHNB
                                    492 	.globl _AX5043_RXDATARATE2NB
                                    493 	.globl _AX5043_RXDATARATE1NB
                                    494 	.globl _AX5043_RXDATARATE0NB
                                    495 	.globl _AX5043_RSSIREFERENCENB
                                    496 	.globl _AX5043_RSSIABSTHRNB
                                    497 	.globl _AX5043_RSSINB
                                    498 	.globl _AX5043_REFNB
                                    499 	.globl _AX5043_RADIOSTATENB
                                    500 	.globl _AX5043_RADIOEVENTREQ1NB
                                    501 	.globl _AX5043_RADIOEVENTREQ0NB
                                    502 	.globl _AX5043_RADIOEVENTMASK1NB
                                    503 	.globl _AX5043_RADIOEVENTMASK0NB
                                    504 	.globl _AX5043_PWRMODENB
                                    505 	.globl _AX5043_PWRAMPNB
                                    506 	.globl _AX5043_POWSTICKYSTATNB
                                    507 	.globl _AX5043_POWSTATNB
                                    508 	.globl _AX5043_POWIRQMASKNB
                                    509 	.globl _AX5043_POWCTRL1NB
                                    510 	.globl _AX5043_PLLVCOIRNB
                                    511 	.globl _AX5043_PLLVCOINB
                                    512 	.globl _AX5043_PLLVCODIVNB
                                    513 	.globl _AX5043_PLLRNGCLKNB
                                    514 	.globl _AX5043_PLLRANGINGBNB
                                    515 	.globl _AX5043_PLLRANGINGANB
                                    516 	.globl _AX5043_PLLLOOPBOOSTNB
                                    517 	.globl _AX5043_PLLLOOPNB
                                    518 	.globl _AX5043_PLLLOCKDETNB
                                    519 	.globl _AX5043_PLLCPIBOOSTNB
                                    520 	.globl _AX5043_PLLCPINB
                                    521 	.globl _AX5043_PKTSTOREFLAGSNB
                                    522 	.globl _AX5043_PKTMISCFLAGSNB
                                    523 	.globl _AX5043_PKTCHUNKSIZENB
                                    524 	.globl _AX5043_PKTACCEPTFLAGSNB
                                    525 	.globl _AX5043_PINSTATENB
                                    526 	.globl _AX5043_PINFUNCSYSCLKNB
                                    527 	.globl _AX5043_PINFUNCPWRAMPNB
                                    528 	.globl _AX5043_PINFUNCIRQNB
                                    529 	.globl _AX5043_PINFUNCDCLKNB
                                    530 	.globl _AX5043_PINFUNCDATANB
                                    531 	.globl _AX5043_PINFUNCANTSELNB
                                    532 	.globl _AX5043_MODULATIONNB
                                    533 	.globl _AX5043_MODCFGPNB
                                    534 	.globl _AX5043_MODCFGFNB
                                    535 	.globl _AX5043_MODCFGANB
                                    536 	.globl _AX5043_MAXRFOFFSET2NB
                                    537 	.globl _AX5043_MAXRFOFFSET1NB
                                    538 	.globl _AX5043_MAXRFOFFSET0NB
                                    539 	.globl _AX5043_MAXDROFFSET2NB
                                    540 	.globl _AX5043_MAXDROFFSET1NB
                                    541 	.globl _AX5043_MAXDROFFSET0NB
                                    542 	.globl _AX5043_MATCH1PAT1NB
                                    543 	.globl _AX5043_MATCH1PAT0NB
                                    544 	.globl _AX5043_MATCH1MINNB
                                    545 	.globl _AX5043_MATCH1MAXNB
                                    546 	.globl _AX5043_MATCH1LENNB
                                    547 	.globl _AX5043_MATCH0PAT3NB
                                    548 	.globl _AX5043_MATCH0PAT2NB
                                    549 	.globl _AX5043_MATCH0PAT1NB
                                    550 	.globl _AX5043_MATCH0PAT0NB
                                    551 	.globl _AX5043_MATCH0MINNB
                                    552 	.globl _AX5043_MATCH0MAXNB
                                    553 	.globl _AX5043_MATCH0LENNB
                                    554 	.globl _AX5043_LPOSCSTATUSNB
                                    555 	.globl _AX5043_LPOSCREF1NB
                                    556 	.globl _AX5043_LPOSCREF0NB
                                    557 	.globl _AX5043_LPOSCPER1NB
                                    558 	.globl _AX5043_LPOSCPER0NB
                                    559 	.globl _AX5043_LPOSCKFILT1NB
                                    560 	.globl _AX5043_LPOSCKFILT0NB
                                    561 	.globl _AX5043_LPOSCFREQ1NB
                                    562 	.globl _AX5043_LPOSCFREQ0NB
                                    563 	.globl _AX5043_LPOSCCONFIGNB
                                    564 	.globl _AX5043_IRQREQUEST1NB
                                    565 	.globl _AX5043_IRQREQUEST0NB
                                    566 	.globl _AX5043_IRQMASK1NB
                                    567 	.globl _AX5043_IRQMASK0NB
                                    568 	.globl _AX5043_IRQINVERSION1NB
                                    569 	.globl _AX5043_IRQINVERSION0NB
                                    570 	.globl _AX5043_IFFREQ1NB
                                    571 	.globl _AX5043_IFFREQ0NB
                                    572 	.globl _AX5043_GPADCPERIODNB
                                    573 	.globl _AX5043_GPADCCTRLNB
                                    574 	.globl _AX5043_GPADC13VALUE1NB
                                    575 	.globl _AX5043_GPADC13VALUE0NB
                                    576 	.globl _AX5043_FSKDMIN1NB
                                    577 	.globl _AX5043_FSKDMIN0NB
                                    578 	.globl _AX5043_FSKDMAX1NB
                                    579 	.globl _AX5043_FSKDMAX0NB
                                    580 	.globl _AX5043_FSKDEV2NB
                                    581 	.globl _AX5043_FSKDEV1NB
                                    582 	.globl _AX5043_FSKDEV0NB
                                    583 	.globl _AX5043_FREQB3NB
                                    584 	.globl _AX5043_FREQB2NB
                                    585 	.globl _AX5043_FREQB1NB
                                    586 	.globl _AX5043_FREQB0NB
                                    587 	.globl _AX5043_FREQA3NB
                                    588 	.globl _AX5043_FREQA2NB
                                    589 	.globl _AX5043_FREQA1NB
                                    590 	.globl _AX5043_FREQA0NB
                                    591 	.globl _AX5043_FRAMINGNB
                                    592 	.globl _AX5043_FIFOTHRESH1NB
                                    593 	.globl _AX5043_FIFOTHRESH0NB
                                    594 	.globl _AX5043_FIFOSTATNB
                                    595 	.globl _AX5043_FIFOFREE1NB
                                    596 	.globl _AX5043_FIFOFREE0NB
                                    597 	.globl _AX5043_FIFODATANB
                                    598 	.globl _AX5043_FIFOCOUNT1NB
                                    599 	.globl _AX5043_FIFOCOUNT0NB
                                    600 	.globl _AX5043_FECSYNCNB
                                    601 	.globl _AX5043_FECSTATUSNB
                                    602 	.globl _AX5043_FECNB
                                    603 	.globl _AX5043_ENCODINGNB
                                    604 	.globl _AX5043_DIVERSITYNB
                                    605 	.globl _AX5043_DECIMATIONNB
                                    606 	.globl _AX5043_DACVALUE1NB
                                    607 	.globl _AX5043_DACVALUE0NB
                                    608 	.globl _AX5043_DACCONFIGNB
                                    609 	.globl _AX5043_CRCINIT3NB
                                    610 	.globl _AX5043_CRCINIT2NB
                                    611 	.globl _AX5043_CRCINIT1NB
                                    612 	.globl _AX5043_CRCINIT0NB
                                    613 	.globl _AX5043_BGNDRSSITHRNB
                                    614 	.globl _AX5043_BGNDRSSIGAINNB
                                    615 	.globl _AX5043_BGNDRSSINB
                                    616 	.globl _AX5043_BBTUNENB
                                    617 	.globl _AX5043_BBOFFSCAPNB
                                    618 	.globl _AX5043_AMPLFILTERNB
                                    619 	.globl _AX5043_AGCCOUNTERNB
                                    620 	.globl _AX5043_AFSKSPACE1NB
                                    621 	.globl _AX5043_AFSKSPACE0NB
                                    622 	.globl _AX5043_AFSKMARK1NB
                                    623 	.globl _AX5043_AFSKMARK0NB
                                    624 	.globl _AX5043_AFSKCTRLNB
                                    625 	.globl _AX5043_TIMEGAIN3
                                    626 	.globl _AX5043_TIMEGAIN2
                                    627 	.globl _AX5043_TIMEGAIN1
                                    628 	.globl _AX5043_TIMEGAIN0
                                    629 	.globl _AX5043_RXPARAMSETS
                                    630 	.globl _AX5043_RXPARAMCURSET
                                    631 	.globl _AX5043_PKTMAXLEN
                                    632 	.globl _AX5043_PKTLENOFFSET
                                    633 	.globl _AX5043_PKTLENCFG
                                    634 	.globl _AX5043_PKTADDRMASK3
                                    635 	.globl _AX5043_PKTADDRMASK2
                                    636 	.globl _AX5043_PKTADDRMASK1
                                    637 	.globl _AX5043_PKTADDRMASK0
                                    638 	.globl _AX5043_PKTADDRCFG
                                    639 	.globl _AX5043_PKTADDR3
                                    640 	.globl _AX5043_PKTADDR2
                                    641 	.globl _AX5043_PKTADDR1
                                    642 	.globl _AX5043_PKTADDR0
                                    643 	.globl _AX5043_PHASEGAIN3
                                    644 	.globl _AX5043_PHASEGAIN2
                                    645 	.globl _AX5043_PHASEGAIN1
                                    646 	.globl _AX5043_PHASEGAIN0
                                    647 	.globl _AX5043_FREQUENCYLEAK
                                    648 	.globl _AX5043_FREQUENCYGAIND3
                                    649 	.globl _AX5043_FREQUENCYGAIND2
                                    650 	.globl _AX5043_FREQUENCYGAIND1
                                    651 	.globl _AX5043_FREQUENCYGAIND0
                                    652 	.globl _AX5043_FREQUENCYGAINC3
                                    653 	.globl _AX5043_FREQUENCYGAINC2
                                    654 	.globl _AX5043_FREQUENCYGAINC1
                                    655 	.globl _AX5043_FREQUENCYGAINC0
                                    656 	.globl _AX5043_FREQUENCYGAINB3
                                    657 	.globl _AX5043_FREQUENCYGAINB2
                                    658 	.globl _AX5043_FREQUENCYGAINB1
                                    659 	.globl _AX5043_FREQUENCYGAINB0
                                    660 	.globl _AX5043_FREQUENCYGAINA3
                                    661 	.globl _AX5043_FREQUENCYGAINA2
                                    662 	.globl _AX5043_FREQUENCYGAINA1
                                    663 	.globl _AX5043_FREQUENCYGAINA0
                                    664 	.globl _AX5043_FREQDEV13
                                    665 	.globl _AX5043_FREQDEV12
                                    666 	.globl _AX5043_FREQDEV11
                                    667 	.globl _AX5043_FREQDEV10
                                    668 	.globl _AX5043_FREQDEV03
                                    669 	.globl _AX5043_FREQDEV02
                                    670 	.globl _AX5043_FREQDEV01
                                    671 	.globl _AX5043_FREQDEV00
                                    672 	.globl _AX5043_FOURFSK3
                                    673 	.globl _AX5043_FOURFSK2
                                    674 	.globl _AX5043_FOURFSK1
                                    675 	.globl _AX5043_FOURFSK0
                                    676 	.globl _AX5043_DRGAIN3
                                    677 	.globl _AX5043_DRGAIN2
                                    678 	.globl _AX5043_DRGAIN1
                                    679 	.globl _AX5043_DRGAIN0
                                    680 	.globl _AX5043_BBOFFSRES3
                                    681 	.globl _AX5043_BBOFFSRES2
                                    682 	.globl _AX5043_BBOFFSRES1
                                    683 	.globl _AX5043_BBOFFSRES0
                                    684 	.globl _AX5043_AMPLITUDEGAIN3
                                    685 	.globl _AX5043_AMPLITUDEGAIN2
                                    686 	.globl _AX5043_AMPLITUDEGAIN1
                                    687 	.globl _AX5043_AMPLITUDEGAIN0
                                    688 	.globl _AX5043_AGCTARGET3
                                    689 	.globl _AX5043_AGCTARGET2
                                    690 	.globl _AX5043_AGCTARGET1
                                    691 	.globl _AX5043_AGCTARGET0
                                    692 	.globl _AX5043_AGCMINMAX3
                                    693 	.globl _AX5043_AGCMINMAX2
                                    694 	.globl _AX5043_AGCMINMAX1
                                    695 	.globl _AX5043_AGCMINMAX0
                                    696 	.globl _AX5043_AGCGAIN3
                                    697 	.globl _AX5043_AGCGAIN2
                                    698 	.globl _AX5043_AGCGAIN1
                                    699 	.globl _AX5043_AGCGAIN0
                                    700 	.globl _AX5043_AGCAHYST3
                                    701 	.globl _AX5043_AGCAHYST2
                                    702 	.globl _AX5043_AGCAHYST1
                                    703 	.globl _AX5043_AGCAHYST0
                                    704 	.globl _AX5043_XTALSTATUS
                                    705 	.globl _AX5043_XTALCAP
                                    706 	.globl _AX5043_WAKEUPXOEARLY
                                    707 	.globl _AX5043_WAKEUPTIMER1
                                    708 	.globl _AX5043_WAKEUPTIMER0
                                    709 	.globl _AX5043_WAKEUPFREQ1
                                    710 	.globl _AX5043_WAKEUPFREQ0
                                    711 	.globl _AX5043_WAKEUP1
                                    712 	.globl _AX5043_WAKEUP0
                                    713 	.globl _AX5043_TXRATE2
                                    714 	.globl _AX5043_TXRATE1
                                    715 	.globl _AX5043_TXRATE0
                                    716 	.globl _AX5043_TXPWRCOEFFE1
                                    717 	.globl _AX5043_TXPWRCOEFFE0
                                    718 	.globl _AX5043_TXPWRCOEFFD1
                                    719 	.globl _AX5043_TXPWRCOEFFD0
                                    720 	.globl _AX5043_TXPWRCOEFFC1
                                    721 	.globl _AX5043_TXPWRCOEFFC0
                                    722 	.globl _AX5043_TXPWRCOEFFB1
                                    723 	.globl _AX5043_TXPWRCOEFFB0
                                    724 	.globl _AX5043_TXPWRCOEFFA1
                                    725 	.globl _AX5043_TXPWRCOEFFA0
                                    726 	.globl _AX5043_TRKRFFREQ2
                                    727 	.globl _AX5043_TRKRFFREQ1
                                    728 	.globl _AX5043_TRKRFFREQ0
                                    729 	.globl _AX5043_TRKPHASE1
                                    730 	.globl _AX5043_TRKPHASE0
                                    731 	.globl _AX5043_TRKFSKDEMOD1
                                    732 	.globl _AX5043_TRKFSKDEMOD0
                                    733 	.globl _AX5043_TRKFREQ1
                                    734 	.globl _AX5043_TRKFREQ0
                                    735 	.globl _AX5043_TRKDATARATE2
                                    736 	.globl _AX5043_TRKDATARATE1
                                    737 	.globl _AX5043_TRKDATARATE0
                                    738 	.globl _AX5043_TRKAMPLITUDE1
                                    739 	.globl _AX5043_TRKAMPLITUDE0
                                    740 	.globl _AX5043_TRKAFSKDEMOD1
                                    741 	.globl _AX5043_TRKAFSKDEMOD0
                                    742 	.globl _AX5043_TMGTXSETTLE
                                    743 	.globl _AX5043_TMGTXBOOST
                                    744 	.globl _AX5043_TMGRXSETTLE
                                    745 	.globl _AX5043_TMGRXRSSI
                                    746 	.globl _AX5043_TMGRXPREAMBLE3
                                    747 	.globl _AX5043_TMGRXPREAMBLE2
                                    748 	.globl _AX5043_TMGRXPREAMBLE1
                                    749 	.globl _AX5043_TMGRXOFFSACQ
                                    750 	.globl _AX5043_TMGRXCOARSEAGC
                                    751 	.globl _AX5043_TMGRXBOOST
                                    752 	.globl _AX5043_TMGRXAGC
                                    753 	.globl _AX5043_TIMER2
                                    754 	.globl _AX5043_TIMER1
                                    755 	.globl _AX5043_TIMER0
                                    756 	.globl _AX5043_SILICONREVISION
                                    757 	.globl _AX5043_SCRATCH
                                    758 	.globl _AX5043_RXDATARATE2
                                    759 	.globl _AX5043_RXDATARATE1
                                    760 	.globl _AX5043_RXDATARATE0
                                    761 	.globl _AX5043_RSSIREFERENCE
                                    762 	.globl _AX5043_RSSIABSTHR
                                    763 	.globl _AX5043_RSSI
                                    764 	.globl _AX5043_RADIOSTATE
                                    765 	.globl _AX5043_RADIOEVENTREQ1
                                    766 	.globl _AX5043_RADIOEVENTREQ0
                                    767 	.globl _AX5043_RADIOEVENTMASK1
                                    768 	.globl _AX5043_RADIOEVENTMASK0
                                    769 	.globl _AX5043_PWRMODE
                                    770 	.globl _AX5043_PWRAMP
                                    771 	.globl _AX5043_POWSTICKYSTAT
                                    772 	.globl _AX5043_POWSTAT
                                    773 	.globl _AX5043_POWIRQMASK
                                    774 	.globl _AX5043_PLLVCOIR
                                    775 	.globl _AX5043_PLLVCOI
                                    776 	.globl _AX5043_PLLVCODIV
                                    777 	.globl _AX5043_PLLRNGCLK
                                    778 	.globl _AX5043_PLLRANGINGB
                                    779 	.globl _AX5043_PLLRANGINGA
                                    780 	.globl _AX5043_PLLLOOPBOOST
                                    781 	.globl _AX5043_PLLLOOP
                                    782 	.globl _AX5043_PLLLOCKDET
                                    783 	.globl _AX5043_PLLCPIBOOST
                                    784 	.globl _AX5043_PLLCPI
                                    785 	.globl _AX5043_PKTSTOREFLAGS
                                    786 	.globl _AX5043_PKTMISCFLAGS
                                    787 	.globl _AX5043_PKTCHUNKSIZE
                                    788 	.globl _AX5043_PKTACCEPTFLAGS
                                    789 	.globl _AX5043_PINSTATE
                                    790 	.globl _AX5043_PINFUNCSYSCLK
                                    791 	.globl _AX5043_PINFUNCPWRAMP
                                    792 	.globl _AX5043_PINFUNCIRQ
                                    793 	.globl _AX5043_PINFUNCDCLK
                                    794 	.globl _AX5043_PINFUNCDATA
                                    795 	.globl _AX5043_PINFUNCANTSEL
                                    796 	.globl _AX5043_MODULATION
                                    797 	.globl _AX5043_MODCFGF
                                    798 	.globl _AX5043_MODCFGA
                                    799 	.globl _AX5043_MAXRFOFFSET2
                                    800 	.globl _AX5043_MAXRFOFFSET1
                                    801 	.globl _AX5043_MAXRFOFFSET0
                                    802 	.globl _AX5043_MAXDROFFSET2
                                    803 	.globl _AX5043_MAXDROFFSET1
                                    804 	.globl _AX5043_MAXDROFFSET0
                                    805 	.globl _AX5043_MATCH1PAT1
                                    806 	.globl _AX5043_MATCH1PAT0
                                    807 	.globl _AX5043_MATCH1MIN
                                    808 	.globl _AX5043_MATCH1MAX
                                    809 	.globl _AX5043_MATCH1LEN
                                    810 	.globl _AX5043_MATCH0PAT3
                                    811 	.globl _AX5043_MATCH0PAT2
                                    812 	.globl _AX5043_MATCH0PAT1
                                    813 	.globl _AX5043_MATCH0PAT0
                                    814 	.globl _AX5043_MATCH0MIN
                                    815 	.globl _AX5043_MATCH0MAX
                                    816 	.globl _AX5043_MATCH0LEN
                                    817 	.globl _AX5043_LPOSCSTATUS
                                    818 	.globl _AX5043_LPOSCREF1
                                    819 	.globl _AX5043_LPOSCREF0
                                    820 	.globl _AX5043_LPOSCPER1
                                    821 	.globl _AX5043_LPOSCPER0
                                    822 	.globl _AX5043_LPOSCKFILT1
                                    823 	.globl _AX5043_LPOSCKFILT0
                                    824 	.globl _AX5043_LPOSCFREQ1
                                    825 	.globl _AX5043_LPOSCFREQ0
                                    826 	.globl _AX5043_LPOSCCONFIG
                                    827 	.globl _AX5043_IRQREQUEST1
                                    828 	.globl _AX5043_IRQREQUEST0
                                    829 	.globl _AX5043_IRQMASK1
                                    830 	.globl _AX5043_IRQMASK0
                                    831 	.globl _AX5043_IRQINVERSION1
                                    832 	.globl _AX5043_IRQINVERSION0
                                    833 	.globl _AX5043_IFFREQ1
                                    834 	.globl _AX5043_IFFREQ0
                                    835 	.globl _AX5043_GPADCPERIOD
                                    836 	.globl _AX5043_GPADCCTRL
                                    837 	.globl _AX5043_GPADC13VALUE1
                                    838 	.globl _AX5043_GPADC13VALUE0
                                    839 	.globl _AX5043_FSKDMIN1
                                    840 	.globl _AX5043_FSKDMIN0
                                    841 	.globl _AX5043_FSKDMAX1
                                    842 	.globl _AX5043_FSKDMAX0
                                    843 	.globl _AX5043_FSKDEV2
                                    844 	.globl _AX5043_FSKDEV1
                                    845 	.globl _AX5043_FSKDEV0
                                    846 	.globl _AX5043_FREQB3
                                    847 	.globl _AX5043_FREQB2
                                    848 	.globl _AX5043_FREQB1
                                    849 	.globl _AX5043_FREQB0
                                    850 	.globl _AX5043_FREQA3
                                    851 	.globl _AX5043_FREQA2
                                    852 	.globl _AX5043_FREQA1
                                    853 	.globl _AX5043_FREQA0
                                    854 	.globl _AX5043_FRAMING
                                    855 	.globl _AX5043_FIFOTHRESH1
                                    856 	.globl _AX5043_FIFOTHRESH0
                                    857 	.globl _AX5043_FIFOSTAT
                                    858 	.globl _AX5043_FIFOFREE1
                                    859 	.globl _AX5043_FIFOFREE0
                                    860 	.globl _AX5043_FIFODATA
                                    861 	.globl _AX5043_FIFOCOUNT1
                                    862 	.globl _AX5043_FIFOCOUNT0
                                    863 	.globl _AX5043_FECSYNC
                                    864 	.globl _AX5043_FECSTATUS
                                    865 	.globl _AX5043_FEC
                                    866 	.globl _AX5043_ENCODING
                                    867 	.globl _AX5043_DIVERSITY
                                    868 	.globl _AX5043_DECIMATION
                                    869 	.globl _AX5043_DACVALUE1
                                    870 	.globl _AX5043_DACVALUE0
                                    871 	.globl _AX5043_DACCONFIG
                                    872 	.globl _AX5043_CRCINIT3
                                    873 	.globl _AX5043_CRCINIT2
                                    874 	.globl _AX5043_CRCINIT1
                                    875 	.globl _AX5043_CRCINIT0
                                    876 	.globl _AX5043_BGNDRSSITHR
                                    877 	.globl _AX5043_BGNDRSSIGAIN
                                    878 	.globl _AX5043_BGNDRSSI
                                    879 	.globl _AX5043_BBTUNE
                                    880 	.globl _AX5043_BBOFFSCAP
                                    881 	.globl _AX5043_AMPLFILTER
                                    882 	.globl _AX5043_AGCCOUNTER
                                    883 	.globl _AX5043_AFSKSPACE1
                                    884 	.globl _AX5043_AFSKSPACE0
                                    885 	.globl _AX5043_AFSKMARK1
                                    886 	.globl _AX5043_AFSKMARK0
                                    887 	.globl _AX5043_AFSKCTRL
                                    888 	.globl _XWTSTAT
                                    889 	.globl _XWTIRQEN
                                    890 	.globl _XWTEVTD
                                    891 	.globl _XWTEVTD1
                                    892 	.globl _XWTEVTD0
                                    893 	.globl _XWTEVTC
                                    894 	.globl _XWTEVTC1
                                    895 	.globl _XWTEVTC0
                                    896 	.globl _XWTEVTB
                                    897 	.globl _XWTEVTB1
                                    898 	.globl _XWTEVTB0
                                    899 	.globl _XWTEVTA
                                    900 	.globl _XWTEVTA1
                                    901 	.globl _XWTEVTA0
                                    902 	.globl _XWTCNTR1
                                    903 	.globl _XWTCNTB
                                    904 	.globl _XWTCNTB1
                                    905 	.globl _XWTCNTB0
                                    906 	.globl _XWTCNTA
                                    907 	.globl _XWTCNTA1
                                    908 	.globl _XWTCNTA0
                                    909 	.globl _XWTCFGB
                                    910 	.globl _XWTCFGA
                                    911 	.globl _XWDTRESET
                                    912 	.globl _XWDTCFG
                                    913 	.globl _XU1STATUS
                                    914 	.globl _XU1SHREG
                                    915 	.globl _XU1MODE
                                    916 	.globl _XU1CTRL
                                    917 	.globl _XU0STATUS
                                    918 	.globl _XU0SHREG
                                    919 	.globl _XU0MODE
                                    920 	.globl _XU0CTRL
                                    921 	.globl _XT2STATUS
                                    922 	.globl _XT2PERIOD
                                    923 	.globl _XT2PERIOD1
                                    924 	.globl _XT2PERIOD0
                                    925 	.globl _XT2MODE
                                    926 	.globl _XT2CNT
                                    927 	.globl _XT2CNT1
                                    928 	.globl _XT2CNT0
                                    929 	.globl _XT2CLKSRC
                                    930 	.globl _XT1STATUS
                                    931 	.globl _XT1PERIOD
                                    932 	.globl _XT1PERIOD1
                                    933 	.globl _XT1PERIOD0
                                    934 	.globl _XT1MODE
                                    935 	.globl _XT1CNT
                                    936 	.globl _XT1CNT1
                                    937 	.globl _XT1CNT0
                                    938 	.globl _XT1CLKSRC
                                    939 	.globl _XT0STATUS
                                    940 	.globl _XT0PERIOD
                                    941 	.globl _XT0PERIOD1
                                    942 	.globl _XT0PERIOD0
                                    943 	.globl _XT0MODE
                                    944 	.globl _XT0CNT
                                    945 	.globl _XT0CNT1
                                    946 	.globl _XT0CNT0
                                    947 	.globl _XT0CLKSRC
                                    948 	.globl _XSPSTATUS
                                    949 	.globl _XSPSHREG
                                    950 	.globl _XSPMODE
                                    951 	.globl _XSPCLKSRC
                                    952 	.globl _XRADIOSTAT
                                    953 	.globl _XRADIOSTAT1
                                    954 	.globl _XRADIOSTAT0
                                    955 	.globl _XRADIODATA3
                                    956 	.globl _XRADIODATA2
                                    957 	.globl _XRADIODATA1
                                    958 	.globl _XRADIODATA0
                                    959 	.globl _XRADIOADDR1
                                    960 	.globl _XRADIOADDR0
                                    961 	.globl _XRADIOACC
                                    962 	.globl _XOC1STATUS
                                    963 	.globl _XOC1PIN
                                    964 	.globl _XOC1MODE
                                    965 	.globl _XOC1COMP
                                    966 	.globl _XOC1COMP1
                                    967 	.globl _XOC1COMP0
                                    968 	.globl _XOC0STATUS
                                    969 	.globl _XOC0PIN
                                    970 	.globl _XOC0MODE
                                    971 	.globl _XOC0COMP
                                    972 	.globl _XOC0COMP1
                                    973 	.globl _XOC0COMP0
                                    974 	.globl _XNVSTATUS
                                    975 	.globl _XNVKEY
                                    976 	.globl _XNVDATA
                                    977 	.globl _XNVDATA1
                                    978 	.globl _XNVDATA0
                                    979 	.globl _XNVADDR
                                    980 	.globl _XNVADDR1
                                    981 	.globl _XNVADDR0
                                    982 	.globl _XIC1STATUS
                                    983 	.globl _XIC1MODE
                                    984 	.globl _XIC1CAPT
                                    985 	.globl _XIC1CAPT1
                                    986 	.globl _XIC1CAPT0
                                    987 	.globl _XIC0STATUS
                                    988 	.globl _XIC0MODE
                                    989 	.globl _XIC0CAPT
                                    990 	.globl _XIC0CAPT1
                                    991 	.globl _XIC0CAPT0
                                    992 	.globl _XPORTR
                                    993 	.globl _XPORTC
                                    994 	.globl _XPORTB
                                    995 	.globl _XPORTA
                                    996 	.globl _XPINR
                                    997 	.globl _XPINC
                                    998 	.globl _XPINB
                                    999 	.globl _XPINA
                                   1000 	.globl _XDIRR
                                   1001 	.globl _XDIRC
                                   1002 	.globl _XDIRB
                                   1003 	.globl _XDIRA
                                   1004 	.globl _XDBGLNKSTAT
                                   1005 	.globl _XDBGLNKBUF
                                   1006 	.globl _XCODECONFIG
                                   1007 	.globl _XCLKSTAT
                                   1008 	.globl _XCLKCON
                                   1009 	.globl _XANALOGCOMP
                                   1010 	.globl _XADCCONV
                                   1011 	.globl _XADCCLKSRC
                                   1012 	.globl _XADCCH3CONFIG
                                   1013 	.globl _XADCCH2CONFIG
                                   1014 	.globl _XADCCH1CONFIG
                                   1015 	.globl _XADCCH0CONFIG
                                   1016 	.globl _XPCON
                                   1017 	.globl _XIP
                                   1018 	.globl _XIE
                                   1019 	.globl _XDPTR1
                                   1020 	.globl _XDPTR0
                                   1021 	.globl _XTALREADY
                                   1022 	.globl _XTALOSC
                                   1023 	.globl _XTALAMPL
                                   1024 	.globl _SILICONREV
                                   1025 	.globl _SCRATCH3
                                   1026 	.globl _SCRATCH2
                                   1027 	.globl _SCRATCH1
                                   1028 	.globl _SCRATCH0
                                   1029 	.globl _RADIOMUX
                                   1030 	.globl _RADIOFSTATADDR
                                   1031 	.globl _RADIOFSTATADDR1
                                   1032 	.globl _RADIOFSTATADDR0
                                   1033 	.globl _RADIOFDATAADDR
                                   1034 	.globl _RADIOFDATAADDR1
                                   1035 	.globl _RADIOFDATAADDR0
                                   1036 	.globl _OSCRUN
                                   1037 	.globl _OSCREADY
                                   1038 	.globl _OSCFORCERUN
                                   1039 	.globl _OSCCALIB
                                   1040 	.globl _MISCCTRL
                                   1041 	.globl _LPXOSCGM
                                   1042 	.globl _LPOSCREF
                                   1043 	.globl _LPOSCREF1
                                   1044 	.globl _LPOSCREF0
                                   1045 	.globl _LPOSCPER
                                   1046 	.globl _LPOSCPER1
                                   1047 	.globl _LPOSCPER0
                                   1048 	.globl _LPOSCKFILT
                                   1049 	.globl _LPOSCKFILT1
                                   1050 	.globl _LPOSCKFILT0
                                   1051 	.globl _LPOSCFREQ
                                   1052 	.globl _LPOSCFREQ1
                                   1053 	.globl _LPOSCFREQ0
                                   1054 	.globl _LPOSCCONFIG
                                   1055 	.globl _PINSEL
                                   1056 	.globl _PINCHGC
                                   1057 	.globl _PINCHGB
                                   1058 	.globl _PINCHGA
                                   1059 	.globl _PALTRADIO
                                   1060 	.globl _PALTC
                                   1061 	.globl _PALTB
                                   1062 	.globl _PALTA
                                   1063 	.globl _INTCHGC
                                   1064 	.globl _INTCHGB
                                   1065 	.globl _INTCHGA
                                   1066 	.globl _EXTIRQ
                                   1067 	.globl _GPIOENABLE
                                   1068 	.globl _ANALOGA
                                   1069 	.globl _FRCOSCREF
                                   1070 	.globl _FRCOSCREF1
                                   1071 	.globl _FRCOSCREF0
                                   1072 	.globl _FRCOSCPER
                                   1073 	.globl _FRCOSCPER1
                                   1074 	.globl _FRCOSCPER0
                                   1075 	.globl _FRCOSCKFILT
                                   1076 	.globl _FRCOSCKFILT1
                                   1077 	.globl _FRCOSCKFILT0
                                   1078 	.globl _FRCOSCFREQ
                                   1079 	.globl _FRCOSCFREQ1
                                   1080 	.globl _FRCOSCFREQ0
                                   1081 	.globl _FRCOSCCTRL
                                   1082 	.globl _FRCOSCCONFIG
                                   1083 	.globl _DMA1CONFIG
                                   1084 	.globl _DMA1ADDR
                                   1085 	.globl _DMA1ADDR1
                                   1086 	.globl _DMA1ADDR0
                                   1087 	.globl _DMA0CONFIG
                                   1088 	.globl _DMA0ADDR
                                   1089 	.globl _DMA0ADDR1
                                   1090 	.globl _DMA0ADDR0
                                   1091 	.globl _ADCTUNE2
                                   1092 	.globl _ADCTUNE1
                                   1093 	.globl _ADCTUNE0
                                   1094 	.globl _ADCCH3VAL
                                   1095 	.globl _ADCCH3VAL1
                                   1096 	.globl _ADCCH3VAL0
                                   1097 	.globl _ADCCH2VAL
                                   1098 	.globl _ADCCH2VAL1
                                   1099 	.globl _ADCCH2VAL0
                                   1100 	.globl _ADCCH1VAL
                                   1101 	.globl _ADCCH1VAL1
                                   1102 	.globl _ADCCH1VAL0
                                   1103 	.globl _ADCCH0VAL
                                   1104 	.globl _ADCCH0VAL1
                                   1105 	.globl _ADCCH0VAL0
                                   1106 	.globl _coldstart
                                   1107 	.globl _pkt_counter
                                   1108 	.globl _axradio_statuschange
                                   1109 ;--------------------------------------------------------
                                   1110 ; special function registers
                                   1111 ;--------------------------------------------------------
                                   1112 	.area RSEG    (ABS,DATA)
      000000                       1113 	.org 0x0000
                           0000E0  1114 _ACC	=	0x00e0
                           0000F0  1115 _B	=	0x00f0
                           000083  1116 _DPH	=	0x0083
                           000085  1117 _DPH1	=	0x0085
                           000082  1118 _DPL	=	0x0082
                           000084  1119 _DPL1	=	0x0084
                           008382  1120 _DPTR0	=	0x8382
                           008584  1121 _DPTR1	=	0x8584
                           000086  1122 _DPS	=	0x0086
                           0000A0  1123 _E2IE	=	0x00a0
                           0000C0  1124 _E2IP	=	0x00c0
                           000098  1125 _EIE	=	0x0098
                           0000B0  1126 _EIP	=	0x00b0
                           0000A8  1127 _IE	=	0x00a8
                           0000B8  1128 _IP	=	0x00b8
                           000087  1129 _PCON	=	0x0087
                           0000D0  1130 _PSW	=	0x00d0
                           000081  1131 _SP	=	0x0081
                           0000D9  1132 _XPAGE	=	0x00d9
                           0000D9  1133 __XPAGE	=	0x00d9
                           0000CA  1134 _ADCCH0CONFIG	=	0x00ca
                           0000CB  1135 _ADCCH1CONFIG	=	0x00cb
                           0000D2  1136 _ADCCH2CONFIG	=	0x00d2
                           0000D3  1137 _ADCCH3CONFIG	=	0x00d3
                           0000D1  1138 _ADCCLKSRC	=	0x00d1
                           0000C9  1139 _ADCCONV	=	0x00c9
                           0000E1  1140 _ANALOGCOMP	=	0x00e1
                           0000C6  1141 _CLKCON	=	0x00c6
                           0000C7  1142 _CLKSTAT	=	0x00c7
                           000097  1143 _CODECONFIG	=	0x0097
                           0000E3  1144 _DBGLNKBUF	=	0x00e3
                           0000E2  1145 _DBGLNKSTAT	=	0x00e2
                           000089  1146 _DIRA	=	0x0089
                           00008A  1147 _DIRB	=	0x008a
                           00008B  1148 _DIRC	=	0x008b
                           00008E  1149 _DIRR	=	0x008e
                           0000C8  1150 _PINA	=	0x00c8
                           0000E8  1151 _PINB	=	0x00e8
                           0000F8  1152 _PINC	=	0x00f8
                           00008D  1153 _PINR	=	0x008d
                           000080  1154 _PORTA	=	0x0080
                           000088  1155 _PORTB	=	0x0088
                           000090  1156 _PORTC	=	0x0090
                           00008C  1157 _PORTR	=	0x008c
                           0000CE  1158 _IC0CAPT0	=	0x00ce
                           0000CF  1159 _IC0CAPT1	=	0x00cf
                           00CFCE  1160 _IC0CAPT	=	0xcfce
                           0000CC  1161 _IC0MODE	=	0x00cc
                           0000CD  1162 _IC0STATUS	=	0x00cd
                           0000D6  1163 _IC1CAPT0	=	0x00d6
                           0000D7  1164 _IC1CAPT1	=	0x00d7
                           00D7D6  1165 _IC1CAPT	=	0xd7d6
                           0000D4  1166 _IC1MODE	=	0x00d4
                           0000D5  1167 _IC1STATUS	=	0x00d5
                           000092  1168 _NVADDR0	=	0x0092
                           000093  1169 _NVADDR1	=	0x0093
                           009392  1170 _NVADDR	=	0x9392
                           000094  1171 _NVDATA0	=	0x0094
                           000095  1172 _NVDATA1	=	0x0095
                           009594  1173 _NVDATA	=	0x9594
                           000096  1174 _NVKEY	=	0x0096
                           000091  1175 _NVSTATUS	=	0x0091
                           0000BC  1176 _OC0COMP0	=	0x00bc
                           0000BD  1177 _OC0COMP1	=	0x00bd
                           00BDBC  1178 _OC0COMP	=	0xbdbc
                           0000B9  1179 _OC0MODE	=	0x00b9
                           0000BA  1180 _OC0PIN	=	0x00ba
                           0000BB  1181 _OC0STATUS	=	0x00bb
                           0000C4  1182 _OC1COMP0	=	0x00c4
                           0000C5  1183 _OC1COMP1	=	0x00c5
                           00C5C4  1184 _OC1COMP	=	0xc5c4
                           0000C1  1185 _OC1MODE	=	0x00c1
                           0000C2  1186 _OC1PIN	=	0x00c2
                           0000C3  1187 _OC1STATUS	=	0x00c3
                           0000B1  1188 _RADIOACC	=	0x00b1
                           0000B3  1189 _RADIOADDR0	=	0x00b3
                           0000B2  1190 _RADIOADDR1	=	0x00b2
                           00B2B3  1191 _RADIOADDR	=	0xb2b3
                           0000B7  1192 _RADIODATA0	=	0x00b7
                           0000B6  1193 _RADIODATA1	=	0x00b6
                           0000B5  1194 _RADIODATA2	=	0x00b5
                           0000B4  1195 _RADIODATA3	=	0x00b4
                           B4B5B6B7  1196 _RADIODATA	=	0xb4b5b6b7
                           0000BE  1197 _RADIOSTAT0	=	0x00be
                           0000BF  1198 _RADIOSTAT1	=	0x00bf
                           00BFBE  1199 _RADIOSTAT	=	0xbfbe
                           0000DF  1200 _SPCLKSRC	=	0x00df
                           0000DC  1201 _SPMODE	=	0x00dc
                           0000DE  1202 _SPSHREG	=	0x00de
                           0000DD  1203 _SPSTATUS	=	0x00dd
                           00009A  1204 _T0CLKSRC	=	0x009a
                           00009C  1205 _T0CNT0	=	0x009c
                           00009D  1206 _T0CNT1	=	0x009d
                           009D9C  1207 _T0CNT	=	0x9d9c
                           000099  1208 _T0MODE	=	0x0099
                           00009E  1209 _T0PERIOD0	=	0x009e
                           00009F  1210 _T0PERIOD1	=	0x009f
                           009F9E  1211 _T0PERIOD	=	0x9f9e
                           00009B  1212 _T0STATUS	=	0x009b
                           0000A2  1213 _T1CLKSRC	=	0x00a2
                           0000A4  1214 _T1CNT0	=	0x00a4
                           0000A5  1215 _T1CNT1	=	0x00a5
                           00A5A4  1216 _T1CNT	=	0xa5a4
                           0000A1  1217 _T1MODE	=	0x00a1
                           0000A6  1218 _T1PERIOD0	=	0x00a6
                           0000A7  1219 _T1PERIOD1	=	0x00a7
                           00A7A6  1220 _T1PERIOD	=	0xa7a6
                           0000A3  1221 _T1STATUS	=	0x00a3
                           0000AA  1222 _T2CLKSRC	=	0x00aa
                           0000AC  1223 _T2CNT0	=	0x00ac
                           0000AD  1224 _T2CNT1	=	0x00ad
                           00ADAC  1225 _T2CNT	=	0xadac
                           0000A9  1226 _T2MODE	=	0x00a9
                           0000AE  1227 _T2PERIOD0	=	0x00ae
                           0000AF  1228 _T2PERIOD1	=	0x00af
                           00AFAE  1229 _T2PERIOD	=	0xafae
                           0000AB  1230 _T2STATUS	=	0x00ab
                           0000E4  1231 _U0CTRL	=	0x00e4
                           0000E7  1232 _U0MODE	=	0x00e7
                           0000E6  1233 _U0SHREG	=	0x00e6
                           0000E5  1234 _U0STATUS	=	0x00e5
                           0000EC  1235 _U1CTRL	=	0x00ec
                           0000EF  1236 _U1MODE	=	0x00ef
                           0000EE  1237 _U1SHREG	=	0x00ee
                           0000ED  1238 _U1STATUS	=	0x00ed
                           0000DA  1239 _WDTCFG	=	0x00da
                           0000DB  1240 _WDTRESET	=	0x00db
                           0000F1  1241 _WTCFGA	=	0x00f1
                           0000F9  1242 _WTCFGB	=	0x00f9
                           0000F2  1243 _WTCNTA0	=	0x00f2
                           0000F3  1244 _WTCNTA1	=	0x00f3
                           00F3F2  1245 _WTCNTA	=	0xf3f2
                           0000FA  1246 _WTCNTB0	=	0x00fa
                           0000FB  1247 _WTCNTB1	=	0x00fb
                           00FBFA  1248 _WTCNTB	=	0xfbfa
                           0000EB  1249 _WTCNTR1	=	0x00eb
                           0000F4  1250 _WTEVTA0	=	0x00f4
                           0000F5  1251 _WTEVTA1	=	0x00f5
                           00F5F4  1252 _WTEVTA	=	0xf5f4
                           0000F6  1253 _WTEVTB0	=	0x00f6
                           0000F7  1254 _WTEVTB1	=	0x00f7
                           00F7F6  1255 _WTEVTB	=	0xf7f6
                           0000FC  1256 _WTEVTC0	=	0x00fc
                           0000FD  1257 _WTEVTC1	=	0x00fd
                           00FDFC  1258 _WTEVTC	=	0xfdfc
                           0000FE  1259 _WTEVTD0	=	0x00fe
                           0000FF  1260 _WTEVTD1	=	0x00ff
                           00FFFE  1261 _WTEVTD	=	0xfffe
                           0000E9  1262 _WTIRQEN	=	0x00e9
                           0000EA  1263 _WTSTAT	=	0x00ea
                                   1264 ;--------------------------------------------------------
                                   1265 ; special function bits
                                   1266 ;--------------------------------------------------------
                                   1267 	.area RSEG    (ABS,DATA)
      000000                       1268 	.org 0x0000
                           0000E0  1269 _ACC_0	=	0x00e0
                           0000E1  1270 _ACC_1	=	0x00e1
                           0000E2  1271 _ACC_2	=	0x00e2
                           0000E3  1272 _ACC_3	=	0x00e3
                           0000E4  1273 _ACC_4	=	0x00e4
                           0000E5  1274 _ACC_5	=	0x00e5
                           0000E6  1275 _ACC_6	=	0x00e6
                           0000E7  1276 _ACC_7	=	0x00e7
                           0000F0  1277 _B_0	=	0x00f0
                           0000F1  1278 _B_1	=	0x00f1
                           0000F2  1279 _B_2	=	0x00f2
                           0000F3  1280 _B_3	=	0x00f3
                           0000F4  1281 _B_4	=	0x00f4
                           0000F5  1282 _B_5	=	0x00f5
                           0000F6  1283 _B_6	=	0x00f6
                           0000F7  1284 _B_7	=	0x00f7
                           0000A0  1285 _E2IE_0	=	0x00a0
                           0000A1  1286 _E2IE_1	=	0x00a1
                           0000A2  1287 _E2IE_2	=	0x00a2
                           0000A3  1288 _E2IE_3	=	0x00a3
                           0000A4  1289 _E2IE_4	=	0x00a4
                           0000A5  1290 _E2IE_5	=	0x00a5
                           0000A6  1291 _E2IE_6	=	0x00a6
                           0000A7  1292 _E2IE_7	=	0x00a7
                           0000C0  1293 _E2IP_0	=	0x00c0
                           0000C1  1294 _E2IP_1	=	0x00c1
                           0000C2  1295 _E2IP_2	=	0x00c2
                           0000C3  1296 _E2IP_3	=	0x00c3
                           0000C4  1297 _E2IP_4	=	0x00c4
                           0000C5  1298 _E2IP_5	=	0x00c5
                           0000C6  1299 _E2IP_6	=	0x00c6
                           0000C7  1300 _E2IP_7	=	0x00c7
                           000098  1301 _EIE_0	=	0x0098
                           000099  1302 _EIE_1	=	0x0099
                           00009A  1303 _EIE_2	=	0x009a
                           00009B  1304 _EIE_3	=	0x009b
                           00009C  1305 _EIE_4	=	0x009c
                           00009D  1306 _EIE_5	=	0x009d
                           00009E  1307 _EIE_6	=	0x009e
                           00009F  1308 _EIE_7	=	0x009f
                           0000B0  1309 _EIP_0	=	0x00b0
                           0000B1  1310 _EIP_1	=	0x00b1
                           0000B2  1311 _EIP_2	=	0x00b2
                           0000B3  1312 _EIP_3	=	0x00b3
                           0000B4  1313 _EIP_4	=	0x00b4
                           0000B5  1314 _EIP_5	=	0x00b5
                           0000B6  1315 _EIP_6	=	0x00b6
                           0000B7  1316 _EIP_7	=	0x00b7
                           0000A8  1317 _IE_0	=	0x00a8
                           0000A9  1318 _IE_1	=	0x00a9
                           0000AA  1319 _IE_2	=	0x00aa
                           0000AB  1320 _IE_3	=	0x00ab
                           0000AC  1321 _IE_4	=	0x00ac
                           0000AD  1322 _IE_5	=	0x00ad
                           0000AE  1323 _IE_6	=	0x00ae
                           0000AF  1324 _IE_7	=	0x00af
                           0000AF  1325 _EA	=	0x00af
                           0000B8  1326 _IP_0	=	0x00b8
                           0000B9  1327 _IP_1	=	0x00b9
                           0000BA  1328 _IP_2	=	0x00ba
                           0000BB  1329 _IP_3	=	0x00bb
                           0000BC  1330 _IP_4	=	0x00bc
                           0000BD  1331 _IP_5	=	0x00bd
                           0000BE  1332 _IP_6	=	0x00be
                           0000BF  1333 _IP_7	=	0x00bf
                           0000D0  1334 _P	=	0x00d0
                           0000D1  1335 _F1	=	0x00d1
                           0000D2  1336 _OV	=	0x00d2
                           0000D3  1337 _RS0	=	0x00d3
                           0000D4  1338 _RS1	=	0x00d4
                           0000D5  1339 _F0	=	0x00d5
                           0000D6  1340 _AC	=	0x00d6
                           0000D7  1341 _CY	=	0x00d7
                           0000C8  1342 _PINA_0	=	0x00c8
                           0000C9  1343 _PINA_1	=	0x00c9
                           0000CA  1344 _PINA_2	=	0x00ca
                           0000CB  1345 _PINA_3	=	0x00cb
                           0000CC  1346 _PINA_4	=	0x00cc
                           0000CD  1347 _PINA_5	=	0x00cd
                           0000CE  1348 _PINA_6	=	0x00ce
                           0000CF  1349 _PINA_7	=	0x00cf
                           0000E8  1350 _PINB_0	=	0x00e8
                           0000E9  1351 _PINB_1	=	0x00e9
                           0000EA  1352 _PINB_2	=	0x00ea
                           0000EB  1353 _PINB_3	=	0x00eb
                           0000EC  1354 _PINB_4	=	0x00ec
                           0000ED  1355 _PINB_5	=	0x00ed
                           0000EE  1356 _PINB_6	=	0x00ee
                           0000EF  1357 _PINB_7	=	0x00ef
                           0000F8  1358 _PINC_0	=	0x00f8
                           0000F9  1359 _PINC_1	=	0x00f9
                           0000FA  1360 _PINC_2	=	0x00fa
                           0000FB  1361 _PINC_3	=	0x00fb
                           0000FC  1362 _PINC_4	=	0x00fc
                           0000FD  1363 _PINC_5	=	0x00fd
                           0000FE  1364 _PINC_6	=	0x00fe
                           0000FF  1365 _PINC_7	=	0x00ff
                           000080  1366 _PORTA_0	=	0x0080
                           000081  1367 _PORTA_1	=	0x0081
                           000082  1368 _PORTA_2	=	0x0082
                           000083  1369 _PORTA_3	=	0x0083
                           000084  1370 _PORTA_4	=	0x0084
                           000085  1371 _PORTA_5	=	0x0085
                           000086  1372 _PORTA_6	=	0x0086
                           000087  1373 _PORTA_7	=	0x0087
                           000088  1374 _PORTB_0	=	0x0088
                           000089  1375 _PORTB_1	=	0x0089
                           00008A  1376 _PORTB_2	=	0x008a
                           00008B  1377 _PORTB_3	=	0x008b
                           00008C  1378 _PORTB_4	=	0x008c
                           00008D  1379 _PORTB_5	=	0x008d
                           00008E  1380 _PORTB_6	=	0x008e
                           00008F  1381 _PORTB_7	=	0x008f
                           000090  1382 _PORTC_0	=	0x0090
                           000091  1383 _PORTC_1	=	0x0091
                           000092  1384 _PORTC_2	=	0x0092
                           000093  1385 _PORTC_3	=	0x0093
                           000094  1386 _PORTC_4	=	0x0094
                           000095  1387 _PORTC_5	=	0x0095
                           000096  1388 _PORTC_6	=	0x0096
                           000097  1389 _PORTC_7	=	0x0097
                                   1390 ;--------------------------------------------------------
                                   1391 ; overlayable register banks
                                   1392 ;--------------------------------------------------------
                                   1393 	.area REG_BANK_0	(REL,OVR,DATA)
      000000                       1394 	.ds 8
                                   1395 ;--------------------------------------------------------
                                   1396 ; internal ram data
                                   1397 ;--------------------------------------------------------
                                   1398 	.area DSEG    (DATA)
      000000                       1399 _pkt_counter::
      000000                       1400 	.ds 2
      000002                       1401 _coldstart::
      000002                       1402 	.ds 1
                                   1403 ;--------------------------------------------------------
                                   1404 ; overlayable items in internal ram 
                                   1405 ;--------------------------------------------------------
                                   1406 ;--------------------------------------------------------
                                   1407 ; Stack segment in internal ram 
                                   1408 ;--------------------------------------------------------
                                   1409 	.area	SSEG
      000000                       1410 __start__stack:
      000000                       1411 	.ds	1
                                   1412 
                                   1413 ;--------------------------------------------------------
                                   1414 ; indirectly addressable internal ram data
                                   1415 ;--------------------------------------------------------
                                   1416 	.area ISEG    (DATA)
                                   1417 ;--------------------------------------------------------
                                   1418 ; absolute internal ram data
                                   1419 ;--------------------------------------------------------
                                   1420 	.area IABS    (ABS,DATA)
                                   1421 	.area IABS    (ABS,DATA)
                                   1422 ;--------------------------------------------------------
                                   1423 ; bit data
                                   1424 ;--------------------------------------------------------
                                   1425 	.area BSEG    (BIT)
      000000                       1426 __sdcc_external_startup_sloc0_1_0:
      000000                       1427 	.ds 1
                                   1428 ;--------------------------------------------------------
                                   1429 ; paged external ram data
                                   1430 ;--------------------------------------------------------
                                   1431 	.area PSEG    (PAG,XDATA)
                                   1432 ;--------------------------------------------------------
                                   1433 ; external ram data
                                   1434 ;--------------------------------------------------------
                                   1435 	.area XSEG    (XDATA)
                           007020  1436 _ADCCH0VAL0	=	0x7020
                           007021  1437 _ADCCH0VAL1	=	0x7021
                           007020  1438 _ADCCH0VAL	=	0x7020
                           007022  1439 _ADCCH1VAL0	=	0x7022
                           007023  1440 _ADCCH1VAL1	=	0x7023
                           007022  1441 _ADCCH1VAL	=	0x7022
                           007024  1442 _ADCCH2VAL0	=	0x7024
                           007025  1443 _ADCCH2VAL1	=	0x7025
                           007024  1444 _ADCCH2VAL	=	0x7024
                           007026  1445 _ADCCH3VAL0	=	0x7026
                           007027  1446 _ADCCH3VAL1	=	0x7027
                           007026  1447 _ADCCH3VAL	=	0x7026
                           007028  1448 _ADCTUNE0	=	0x7028
                           007029  1449 _ADCTUNE1	=	0x7029
                           00702A  1450 _ADCTUNE2	=	0x702a
                           007010  1451 _DMA0ADDR0	=	0x7010
                           007011  1452 _DMA0ADDR1	=	0x7011
                           007010  1453 _DMA0ADDR	=	0x7010
                           007014  1454 _DMA0CONFIG	=	0x7014
                           007012  1455 _DMA1ADDR0	=	0x7012
                           007013  1456 _DMA1ADDR1	=	0x7013
                           007012  1457 _DMA1ADDR	=	0x7012
                           007015  1458 _DMA1CONFIG	=	0x7015
                           007070  1459 _FRCOSCCONFIG	=	0x7070
                           007071  1460 _FRCOSCCTRL	=	0x7071
                           007076  1461 _FRCOSCFREQ0	=	0x7076
                           007077  1462 _FRCOSCFREQ1	=	0x7077
                           007076  1463 _FRCOSCFREQ	=	0x7076
                           007072  1464 _FRCOSCKFILT0	=	0x7072
                           007073  1465 _FRCOSCKFILT1	=	0x7073
                           007072  1466 _FRCOSCKFILT	=	0x7072
                           007078  1467 _FRCOSCPER0	=	0x7078
                           007079  1468 _FRCOSCPER1	=	0x7079
                           007078  1469 _FRCOSCPER	=	0x7078
                           007074  1470 _FRCOSCREF0	=	0x7074
                           007075  1471 _FRCOSCREF1	=	0x7075
                           007074  1472 _FRCOSCREF	=	0x7074
                           007007  1473 _ANALOGA	=	0x7007
                           00700C  1474 _GPIOENABLE	=	0x700c
                           007003  1475 _EXTIRQ	=	0x7003
                           007000  1476 _INTCHGA	=	0x7000
                           007001  1477 _INTCHGB	=	0x7001
                           007002  1478 _INTCHGC	=	0x7002
                           007008  1479 _PALTA	=	0x7008
                           007009  1480 _PALTB	=	0x7009
                           00700A  1481 _PALTC	=	0x700a
                           007046  1482 _PALTRADIO	=	0x7046
                           007004  1483 _PINCHGA	=	0x7004
                           007005  1484 _PINCHGB	=	0x7005
                           007006  1485 _PINCHGC	=	0x7006
                           00700B  1486 _PINSEL	=	0x700b
                           007060  1487 _LPOSCCONFIG	=	0x7060
                           007066  1488 _LPOSCFREQ0	=	0x7066
                           007067  1489 _LPOSCFREQ1	=	0x7067
                           007066  1490 _LPOSCFREQ	=	0x7066
                           007062  1491 _LPOSCKFILT0	=	0x7062
                           007063  1492 _LPOSCKFILT1	=	0x7063
                           007062  1493 _LPOSCKFILT	=	0x7062
                           007068  1494 _LPOSCPER0	=	0x7068
                           007069  1495 _LPOSCPER1	=	0x7069
                           007068  1496 _LPOSCPER	=	0x7068
                           007064  1497 _LPOSCREF0	=	0x7064
                           007065  1498 _LPOSCREF1	=	0x7065
                           007064  1499 _LPOSCREF	=	0x7064
                           007054  1500 _LPXOSCGM	=	0x7054
                           007F01  1501 _MISCCTRL	=	0x7f01
                           007053  1502 _OSCCALIB	=	0x7053
                           007050  1503 _OSCFORCERUN	=	0x7050
                           007052  1504 _OSCREADY	=	0x7052
                           007051  1505 _OSCRUN	=	0x7051
                           007040  1506 _RADIOFDATAADDR0	=	0x7040
                           007041  1507 _RADIOFDATAADDR1	=	0x7041
                           007040  1508 _RADIOFDATAADDR	=	0x7040
                           007042  1509 _RADIOFSTATADDR0	=	0x7042
                           007043  1510 _RADIOFSTATADDR1	=	0x7043
                           007042  1511 _RADIOFSTATADDR	=	0x7042
                           007044  1512 _RADIOMUX	=	0x7044
                           007084  1513 _SCRATCH0	=	0x7084
                           007085  1514 _SCRATCH1	=	0x7085
                           007086  1515 _SCRATCH2	=	0x7086
                           007087  1516 _SCRATCH3	=	0x7087
                           007F00  1517 _SILICONREV	=	0x7f00
                           007F19  1518 _XTALAMPL	=	0x7f19
                           007F18  1519 _XTALOSC	=	0x7f18
                           007F1A  1520 _XTALREADY	=	0x7f1a
                           003F82  1521 _XDPTR0	=	0x3f82
                           003F84  1522 _XDPTR1	=	0x3f84
                           003FA8  1523 _XIE	=	0x3fa8
                           003FB8  1524 _XIP	=	0x3fb8
                           003F87  1525 _XPCON	=	0x3f87
                           003FCA  1526 _XADCCH0CONFIG	=	0x3fca
                           003FCB  1527 _XADCCH1CONFIG	=	0x3fcb
                           003FD2  1528 _XADCCH2CONFIG	=	0x3fd2
                           003FD3  1529 _XADCCH3CONFIG	=	0x3fd3
                           003FD1  1530 _XADCCLKSRC	=	0x3fd1
                           003FC9  1531 _XADCCONV	=	0x3fc9
                           003FE1  1532 _XANALOGCOMP	=	0x3fe1
                           003FC6  1533 _XCLKCON	=	0x3fc6
                           003FC7  1534 _XCLKSTAT	=	0x3fc7
                           003F97  1535 _XCODECONFIG	=	0x3f97
                           003FE3  1536 _XDBGLNKBUF	=	0x3fe3
                           003FE2  1537 _XDBGLNKSTAT	=	0x3fe2
                           003F89  1538 _XDIRA	=	0x3f89
                           003F8A  1539 _XDIRB	=	0x3f8a
                           003F8B  1540 _XDIRC	=	0x3f8b
                           003F8E  1541 _XDIRR	=	0x3f8e
                           003FC8  1542 _XPINA	=	0x3fc8
                           003FE8  1543 _XPINB	=	0x3fe8
                           003FF8  1544 _XPINC	=	0x3ff8
                           003F8D  1545 _XPINR	=	0x3f8d
                           003F80  1546 _XPORTA	=	0x3f80
                           003F88  1547 _XPORTB	=	0x3f88
                           003F90  1548 _XPORTC	=	0x3f90
                           003F8C  1549 _XPORTR	=	0x3f8c
                           003FCE  1550 _XIC0CAPT0	=	0x3fce
                           003FCF  1551 _XIC0CAPT1	=	0x3fcf
                           003FCE  1552 _XIC0CAPT	=	0x3fce
                           003FCC  1553 _XIC0MODE	=	0x3fcc
                           003FCD  1554 _XIC0STATUS	=	0x3fcd
                           003FD6  1555 _XIC1CAPT0	=	0x3fd6
                           003FD7  1556 _XIC1CAPT1	=	0x3fd7
                           003FD6  1557 _XIC1CAPT	=	0x3fd6
                           003FD4  1558 _XIC1MODE	=	0x3fd4
                           003FD5  1559 _XIC1STATUS	=	0x3fd5
                           003F92  1560 _XNVADDR0	=	0x3f92
                           003F93  1561 _XNVADDR1	=	0x3f93
                           003F92  1562 _XNVADDR	=	0x3f92
                           003F94  1563 _XNVDATA0	=	0x3f94
                           003F95  1564 _XNVDATA1	=	0x3f95
                           003F94  1565 _XNVDATA	=	0x3f94
                           003F96  1566 _XNVKEY	=	0x3f96
                           003F91  1567 _XNVSTATUS	=	0x3f91
                           003FBC  1568 _XOC0COMP0	=	0x3fbc
                           003FBD  1569 _XOC0COMP1	=	0x3fbd
                           003FBC  1570 _XOC0COMP	=	0x3fbc
                           003FB9  1571 _XOC0MODE	=	0x3fb9
                           003FBA  1572 _XOC0PIN	=	0x3fba
                           003FBB  1573 _XOC0STATUS	=	0x3fbb
                           003FC4  1574 _XOC1COMP0	=	0x3fc4
                           003FC5  1575 _XOC1COMP1	=	0x3fc5
                           003FC4  1576 _XOC1COMP	=	0x3fc4
                           003FC1  1577 _XOC1MODE	=	0x3fc1
                           003FC2  1578 _XOC1PIN	=	0x3fc2
                           003FC3  1579 _XOC1STATUS	=	0x3fc3
                           003FB1  1580 _XRADIOACC	=	0x3fb1
                           003FB3  1581 _XRADIOADDR0	=	0x3fb3
                           003FB2  1582 _XRADIOADDR1	=	0x3fb2
                           003FB7  1583 _XRADIODATA0	=	0x3fb7
                           003FB6  1584 _XRADIODATA1	=	0x3fb6
                           003FB5  1585 _XRADIODATA2	=	0x3fb5
                           003FB4  1586 _XRADIODATA3	=	0x3fb4
                           003FBE  1587 _XRADIOSTAT0	=	0x3fbe
                           003FBF  1588 _XRADIOSTAT1	=	0x3fbf
                           003FBE  1589 _XRADIOSTAT	=	0x3fbe
                           003FDF  1590 _XSPCLKSRC	=	0x3fdf
                           003FDC  1591 _XSPMODE	=	0x3fdc
                           003FDE  1592 _XSPSHREG	=	0x3fde
                           003FDD  1593 _XSPSTATUS	=	0x3fdd
                           003F9A  1594 _XT0CLKSRC	=	0x3f9a
                           003F9C  1595 _XT0CNT0	=	0x3f9c
                           003F9D  1596 _XT0CNT1	=	0x3f9d
                           003F9C  1597 _XT0CNT	=	0x3f9c
                           003F99  1598 _XT0MODE	=	0x3f99
                           003F9E  1599 _XT0PERIOD0	=	0x3f9e
                           003F9F  1600 _XT0PERIOD1	=	0x3f9f
                           003F9E  1601 _XT0PERIOD	=	0x3f9e
                           003F9B  1602 _XT0STATUS	=	0x3f9b
                           003FA2  1603 _XT1CLKSRC	=	0x3fa2
                           003FA4  1604 _XT1CNT0	=	0x3fa4
                           003FA5  1605 _XT1CNT1	=	0x3fa5
                           003FA4  1606 _XT1CNT	=	0x3fa4
                           003FA1  1607 _XT1MODE	=	0x3fa1
                           003FA6  1608 _XT1PERIOD0	=	0x3fa6
                           003FA7  1609 _XT1PERIOD1	=	0x3fa7
                           003FA6  1610 _XT1PERIOD	=	0x3fa6
                           003FA3  1611 _XT1STATUS	=	0x3fa3
                           003FAA  1612 _XT2CLKSRC	=	0x3faa
                           003FAC  1613 _XT2CNT0	=	0x3fac
                           003FAD  1614 _XT2CNT1	=	0x3fad
                           003FAC  1615 _XT2CNT	=	0x3fac
                           003FA9  1616 _XT2MODE	=	0x3fa9
                           003FAE  1617 _XT2PERIOD0	=	0x3fae
                           003FAF  1618 _XT2PERIOD1	=	0x3faf
                           003FAE  1619 _XT2PERIOD	=	0x3fae
                           003FAB  1620 _XT2STATUS	=	0x3fab
                           003FE4  1621 _XU0CTRL	=	0x3fe4
                           003FE7  1622 _XU0MODE	=	0x3fe7
                           003FE6  1623 _XU0SHREG	=	0x3fe6
                           003FE5  1624 _XU0STATUS	=	0x3fe5
                           003FEC  1625 _XU1CTRL	=	0x3fec
                           003FEF  1626 _XU1MODE	=	0x3fef
                           003FEE  1627 _XU1SHREG	=	0x3fee
                           003FED  1628 _XU1STATUS	=	0x3fed
                           003FDA  1629 _XWDTCFG	=	0x3fda
                           003FDB  1630 _XWDTRESET	=	0x3fdb
                           003FF1  1631 _XWTCFGA	=	0x3ff1
                           003FF9  1632 _XWTCFGB	=	0x3ff9
                           003FF2  1633 _XWTCNTA0	=	0x3ff2
                           003FF3  1634 _XWTCNTA1	=	0x3ff3
                           003FF2  1635 _XWTCNTA	=	0x3ff2
                           003FFA  1636 _XWTCNTB0	=	0x3ffa
                           003FFB  1637 _XWTCNTB1	=	0x3ffb
                           003FFA  1638 _XWTCNTB	=	0x3ffa
                           003FEB  1639 _XWTCNTR1	=	0x3feb
                           003FF4  1640 _XWTEVTA0	=	0x3ff4
                           003FF5  1641 _XWTEVTA1	=	0x3ff5
                           003FF4  1642 _XWTEVTA	=	0x3ff4
                           003FF6  1643 _XWTEVTB0	=	0x3ff6
                           003FF7  1644 _XWTEVTB1	=	0x3ff7
                           003FF6  1645 _XWTEVTB	=	0x3ff6
                           003FFC  1646 _XWTEVTC0	=	0x3ffc
                           003FFD  1647 _XWTEVTC1	=	0x3ffd
                           003FFC  1648 _XWTEVTC	=	0x3ffc
                           003FFE  1649 _XWTEVTD0	=	0x3ffe
                           003FFF  1650 _XWTEVTD1	=	0x3fff
                           003FFE  1651 _XWTEVTD	=	0x3ffe
                           003FE9  1652 _XWTIRQEN	=	0x3fe9
                           003FEA  1653 _XWTSTAT	=	0x3fea
                           004114  1654 _AX5043_AFSKCTRL	=	0x4114
                           004113  1655 _AX5043_AFSKMARK0	=	0x4113
                           004112  1656 _AX5043_AFSKMARK1	=	0x4112
                           004111  1657 _AX5043_AFSKSPACE0	=	0x4111
                           004110  1658 _AX5043_AFSKSPACE1	=	0x4110
                           004043  1659 _AX5043_AGCCOUNTER	=	0x4043
                           004115  1660 _AX5043_AMPLFILTER	=	0x4115
                           004189  1661 _AX5043_BBOFFSCAP	=	0x4189
                           004188  1662 _AX5043_BBTUNE	=	0x4188
                           004041  1663 _AX5043_BGNDRSSI	=	0x4041
                           00422E  1664 _AX5043_BGNDRSSIGAIN	=	0x422e
                           00422F  1665 _AX5043_BGNDRSSITHR	=	0x422f
                           004017  1666 _AX5043_CRCINIT0	=	0x4017
                           004016  1667 _AX5043_CRCINIT1	=	0x4016
                           004015  1668 _AX5043_CRCINIT2	=	0x4015
                           004014  1669 _AX5043_CRCINIT3	=	0x4014
                           004332  1670 _AX5043_DACCONFIG	=	0x4332
                           004331  1671 _AX5043_DACVALUE0	=	0x4331
                           004330  1672 _AX5043_DACVALUE1	=	0x4330
                           004102  1673 _AX5043_DECIMATION	=	0x4102
                           004042  1674 _AX5043_DIVERSITY	=	0x4042
                           004011  1675 _AX5043_ENCODING	=	0x4011
                           004018  1676 _AX5043_FEC	=	0x4018
                           00401A  1677 _AX5043_FECSTATUS	=	0x401a
                           004019  1678 _AX5043_FECSYNC	=	0x4019
                           00402B  1679 _AX5043_FIFOCOUNT0	=	0x402b
                           00402A  1680 _AX5043_FIFOCOUNT1	=	0x402a
                           004029  1681 _AX5043_FIFODATA	=	0x4029
                           00402D  1682 _AX5043_FIFOFREE0	=	0x402d
                           00402C  1683 _AX5043_FIFOFREE1	=	0x402c
                           004028  1684 _AX5043_FIFOSTAT	=	0x4028
                           00402F  1685 _AX5043_FIFOTHRESH0	=	0x402f
                           00402E  1686 _AX5043_FIFOTHRESH1	=	0x402e
                           004012  1687 _AX5043_FRAMING	=	0x4012
                           004037  1688 _AX5043_FREQA0	=	0x4037
                           004036  1689 _AX5043_FREQA1	=	0x4036
                           004035  1690 _AX5043_FREQA2	=	0x4035
                           004034  1691 _AX5043_FREQA3	=	0x4034
                           00403F  1692 _AX5043_FREQB0	=	0x403f
                           00403E  1693 _AX5043_FREQB1	=	0x403e
                           00403D  1694 _AX5043_FREQB2	=	0x403d
                           00403C  1695 _AX5043_FREQB3	=	0x403c
                           004163  1696 _AX5043_FSKDEV0	=	0x4163
                           004162  1697 _AX5043_FSKDEV1	=	0x4162
                           004161  1698 _AX5043_FSKDEV2	=	0x4161
                           00410D  1699 _AX5043_FSKDMAX0	=	0x410d
                           00410C  1700 _AX5043_FSKDMAX1	=	0x410c
                           00410F  1701 _AX5043_FSKDMIN0	=	0x410f
                           00410E  1702 _AX5043_FSKDMIN1	=	0x410e
                           004309  1703 _AX5043_GPADC13VALUE0	=	0x4309
                           004308  1704 _AX5043_GPADC13VALUE1	=	0x4308
                           004300  1705 _AX5043_GPADCCTRL	=	0x4300
                           004301  1706 _AX5043_GPADCPERIOD	=	0x4301
                           004101  1707 _AX5043_IFFREQ0	=	0x4101
                           004100  1708 _AX5043_IFFREQ1	=	0x4100
                           00400B  1709 _AX5043_IRQINVERSION0	=	0x400b
                           00400A  1710 _AX5043_IRQINVERSION1	=	0x400a
                           004007  1711 _AX5043_IRQMASK0	=	0x4007
                           004006  1712 _AX5043_IRQMASK1	=	0x4006
                           00400D  1713 _AX5043_IRQREQUEST0	=	0x400d
                           00400C  1714 _AX5043_IRQREQUEST1	=	0x400c
                           004310  1715 _AX5043_LPOSCCONFIG	=	0x4310
                           004317  1716 _AX5043_LPOSCFREQ0	=	0x4317
                           004316  1717 _AX5043_LPOSCFREQ1	=	0x4316
                           004313  1718 _AX5043_LPOSCKFILT0	=	0x4313
                           004312  1719 _AX5043_LPOSCKFILT1	=	0x4312
                           004319  1720 _AX5043_LPOSCPER0	=	0x4319
                           004318  1721 _AX5043_LPOSCPER1	=	0x4318
                           004315  1722 _AX5043_LPOSCREF0	=	0x4315
                           004314  1723 _AX5043_LPOSCREF1	=	0x4314
                           004311  1724 _AX5043_LPOSCSTATUS	=	0x4311
                           004214  1725 _AX5043_MATCH0LEN	=	0x4214
                           004216  1726 _AX5043_MATCH0MAX	=	0x4216
                           004215  1727 _AX5043_MATCH0MIN	=	0x4215
                           004213  1728 _AX5043_MATCH0PAT0	=	0x4213
                           004212  1729 _AX5043_MATCH0PAT1	=	0x4212
                           004211  1730 _AX5043_MATCH0PAT2	=	0x4211
                           004210  1731 _AX5043_MATCH0PAT3	=	0x4210
                           00421C  1732 _AX5043_MATCH1LEN	=	0x421c
                           00421E  1733 _AX5043_MATCH1MAX	=	0x421e
                           00421D  1734 _AX5043_MATCH1MIN	=	0x421d
                           004219  1735 _AX5043_MATCH1PAT0	=	0x4219
                           004218  1736 _AX5043_MATCH1PAT1	=	0x4218
                           004108  1737 _AX5043_MAXDROFFSET0	=	0x4108
                           004107  1738 _AX5043_MAXDROFFSET1	=	0x4107
                           004106  1739 _AX5043_MAXDROFFSET2	=	0x4106
                           00410B  1740 _AX5043_MAXRFOFFSET0	=	0x410b
                           00410A  1741 _AX5043_MAXRFOFFSET1	=	0x410a
                           004109  1742 _AX5043_MAXRFOFFSET2	=	0x4109
                           004164  1743 _AX5043_MODCFGA	=	0x4164
                           004160  1744 _AX5043_MODCFGF	=	0x4160
                           004010  1745 _AX5043_MODULATION	=	0x4010
                           004025  1746 _AX5043_PINFUNCANTSEL	=	0x4025
                           004023  1747 _AX5043_PINFUNCDATA	=	0x4023
                           004022  1748 _AX5043_PINFUNCDCLK	=	0x4022
                           004024  1749 _AX5043_PINFUNCIRQ	=	0x4024
                           004026  1750 _AX5043_PINFUNCPWRAMP	=	0x4026
                           004021  1751 _AX5043_PINFUNCSYSCLK	=	0x4021
                           004020  1752 _AX5043_PINSTATE	=	0x4020
                           004233  1753 _AX5043_PKTACCEPTFLAGS	=	0x4233
                           004230  1754 _AX5043_PKTCHUNKSIZE	=	0x4230
                           004231  1755 _AX5043_PKTMISCFLAGS	=	0x4231
                           004232  1756 _AX5043_PKTSTOREFLAGS	=	0x4232
                           004031  1757 _AX5043_PLLCPI	=	0x4031
                           004039  1758 _AX5043_PLLCPIBOOST	=	0x4039
                           004182  1759 _AX5043_PLLLOCKDET	=	0x4182
                           004030  1760 _AX5043_PLLLOOP	=	0x4030
                           004038  1761 _AX5043_PLLLOOPBOOST	=	0x4038
                           004033  1762 _AX5043_PLLRANGINGA	=	0x4033
                           00403B  1763 _AX5043_PLLRANGINGB	=	0x403b
                           004183  1764 _AX5043_PLLRNGCLK	=	0x4183
                           004032  1765 _AX5043_PLLVCODIV	=	0x4032
                           004180  1766 _AX5043_PLLVCOI	=	0x4180
                           004181  1767 _AX5043_PLLVCOIR	=	0x4181
                           004005  1768 _AX5043_POWIRQMASK	=	0x4005
                           004003  1769 _AX5043_POWSTAT	=	0x4003
                           004004  1770 _AX5043_POWSTICKYSTAT	=	0x4004
                           004027  1771 _AX5043_PWRAMP	=	0x4027
                           004002  1772 _AX5043_PWRMODE	=	0x4002
                           004009  1773 _AX5043_RADIOEVENTMASK0	=	0x4009
                           004008  1774 _AX5043_RADIOEVENTMASK1	=	0x4008
                           00400F  1775 _AX5043_RADIOEVENTREQ0	=	0x400f
                           00400E  1776 _AX5043_RADIOEVENTREQ1	=	0x400e
                           00401C  1777 _AX5043_RADIOSTATE	=	0x401c
                           004040  1778 _AX5043_RSSI	=	0x4040
                           00422D  1779 _AX5043_RSSIABSTHR	=	0x422d
                           00422C  1780 _AX5043_RSSIREFERENCE	=	0x422c
                           004105  1781 _AX5043_RXDATARATE0	=	0x4105
                           004104  1782 _AX5043_RXDATARATE1	=	0x4104
                           004103  1783 _AX5043_RXDATARATE2	=	0x4103
                           004001  1784 _AX5043_SCRATCH	=	0x4001
                           004000  1785 _AX5043_SILICONREVISION	=	0x4000
                           00405B  1786 _AX5043_TIMER0	=	0x405b
                           00405A  1787 _AX5043_TIMER1	=	0x405a
                           004059  1788 _AX5043_TIMER2	=	0x4059
                           004227  1789 _AX5043_TMGRXAGC	=	0x4227
                           004223  1790 _AX5043_TMGRXBOOST	=	0x4223
                           004226  1791 _AX5043_TMGRXCOARSEAGC	=	0x4226
                           004225  1792 _AX5043_TMGRXOFFSACQ	=	0x4225
                           004229  1793 _AX5043_TMGRXPREAMBLE1	=	0x4229
                           00422A  1794 _AX5043_TMGRXPREAMBLE2	=	0x422a
                           00422B  1795 _AX5043_TMGRXPREAMBLE3	=	0x422b
                           004228  1796 _AX5043_TMGRXRSSI	=	0x4228
                           004224  1797 _AX5043_TMGRXSETTLE	=	0x4224
                           004220  1798 _AX5043_TMGTXBOOST	=	0x4220
                           004221  1799 _AX5043_TMGTXSETTLE	=	0x4221
                           004055  1800 _AX5043_TRKAFSKDEMOD0	=	0x4055
                           004054  1801 _AX5043_TRKAFSKDEMOD1	=	0x4054
                           004049  1802 _AX5043_TRKAMPLITUDE0	=	0x4049
                           004048  1803 _AX5043_TRKAMPLITUDE1	=	0x4048
                           004047  1804 _AX5043_TRKDATARATE0	=	0x4047
                           004046  1805 _AX5043_TRKDATARATE1	=	0x4046
                           004045  1806 _AX5043_TRKDATARATE2	=	0x4045
                           004051  1807 _AX5043_TRKFREQ0	=	0x4051
                           004050  1808 _AX5043_TRKFREQ1	=	0x4050
                           004053  1809 _AX5043_TRKFSKDEMOD0	=	0x4053
                           004052  1810 _AX5043_TRKFSKDEMOD1	=	0x4052
                           00404B  1811 _AX5043_TRKPHASE0	=	0x404b
                           00404A  1812 _AX5043_TRKPHASE1	=	0x404a
                           00404F  1813 _AX5043_TRKRFFREQ0	=	0x404f
                           00404E  1814 _AX5043_TRKRFFREQ1	=	0x404e
                           00404D  1815 _AX5043_TRKRFFREQ2	=	0x404d
                           004169  1816 _AX5043_TXPWRCOEFFA0	=	0x4169
                           004168  1817 _AX5043_TXPWRCOEFFA1	=	0x4168
                           00416B  1818 _AX5043_TXPWRCOEFFB0	=	0x416b
                           00416A  1819 _AX5043_TXPWRCOEFFB1	=	0x416a
                           00416D  1820 _AX5043_TXPWRCOEFFC0	=	0x416d
                           00416C  1821 _AX5043_TXPWRCOEFFC1	=	0x416c
                           00416F  1822 _AX5043_TXPWRCOEFFD0	=	0x416f
                           00416E  1823 _AX5043_TXPWRCOEFFD1	=	0x416e
                           004171  1824 _AX5043_TXPWRCOEFFE0	=	0x4171
                           004170  1825 _AX5043_TXPWRCOEFFE1	=	0x4170
                           004167  1826 _AX5043_TXRATE0	=	0x4167
                           004166  1827 _AX5043_TXRATE1	=	0x4166
                           004165  1828 _AX5043_TXRATE2	=	0x4165
                           00406B  1829 _AX5043_WAKEUP0	=	0x406b
                           00406A  1830 _AX5043_WAKEUP1	=	0x406a
                           00406D  1831 _AX5043_WAKEUPFREQ0	=	0x406d
                           00406C  1832 _AX5043_WAKEUPFREQ1	=	0x406c
                           004069  1833 _AX5043_WAKEUPTIMER0	=	0x4069
                           004068  1834 _AX5043_WAKEUPTIMER1	=	0x4068
                           00406E  1835 _AX5043_WAKEUPXOEARLY	=	0x406e
                           004184  1836 _AX5043_XTALCAP	=	0x4184
                           00401D  1837 _AX5043_XTALSTATUS	=	0x401d
                           004122  1838 _AX5043_AGCAHYST0	=	0x4122
                           004132  1839 _AX5043_AGCAHYST1	=	0x4132
                           004142  1840 _AX5043_AGCAHYST2	=	0x4142
                           004152  1841 _AX5043_AGCAHYST3	=	0x4152
                           004120  1842 _AX5043_AGCGAIN0	=	0x4120
                           004130  1843 _AX5043_AGCGAIN1	=	0x4130
                           004140  1844 _AX5043_AGCGAIN2	=	0x4140
                           004150  1845 _AX5043_AGCGAIN3	=	0x4150
                           004123  1846 _AX5043_AGCMINMAX0	=	0x4123
                           004133  1847 _AX5043_AGCMINMAX1	=	0x4133
                           004143  1848 _AX5043_AGCMINMAX2	=	0x4143
                           004153  1849 _AX5043_AGCMINMAX3	=	0x4153
                           004121  1850 _AX5043_AGCTARGET0	=	0x4121
                           004131  1851 _AX5043_AGCTARGET1	=	0x4131
                           004141  1852 _AX5043_AGCTARGET2	=	0x4141
                           004151  1853 _AX5043_AGCTARGET3	=	0x4151
                           00412B  1854 _AX5043_AMPLITUDEGAIN0	=	0x412b
                           00413B  1855 _AX5043_AMPLITUDEGAIN1	=	0x413b
                           00414B  1856 _AX5043_AMPLITUDEGAIN2	=	0x414b
                           00415B  1857 _AX5043_AMPLITUDEGAIN3	=	0x415b
                           00412F  1858 _AX5043_BBOFFSRES0	=	0x412f
                           00413F  1859 _AX5043_BBOFFSRES1	=	0x413f
                           00414F  1860 _AX5043_BBOFFSRES2	=	0x414f
                           00415F  1861 _AX5043_BBOFFSRES3	=	0x415f
                           004125  1862 _AX5043_DRGAIN0	=	0x4125
                           004135  1863 _AX5043_DRGAIN1	=	0x4135
                           004145  1864 _AX5043_DRGAIN2	=	0x4145
                           004155  1865 _AX5043_DRGAIN3	=	0x4155
                           00412E  1866 _AX5043_FOURFSK0	=	0x412e
                           00413E  1867 _AX5043_FOURFSK1	=	0x413e
                           00414E  1868 _AX5043_FOURFSK2	=	0x414e
                           00415E  1869 _AX5043_FOURFSK3	=	0x415e
                           00412D  1870 _AX5043_FREQDEV00	=	0x412d
                           00413D  1871 _AX5043_FREQDEV01	=	0x413d
                           00414D  1872 _AX5043_FREQDEV02	=	0x414d
                           00415D  1873 _AX5043_FREQDEV03	=	0x415d
                           00412C  1874 _AX5043_FREQDEV10	=	0x412c
                           00413C  1875 _AX5043_FREQDEV11	=	0x413c
                           00414C  1876 _AX5043_FREQDEV12	=	0x414c
                           00415C  1877 _AX5043_FREQDEV13	=	0x415c
                           004127  1878 _AX5043_FREQUENCYGAINA0	=	0x4127
                           004137  1879 _AX5043_FREQUENCYGAINA1	=	0x4137
                           004147  1880 _AX5043_FREQUENCYGAINA2	=	0x4147
                           004157  1881 _AX5043_FREQUENCYGAINA3	=	0x4157
                           004128  1882 _AX5043_FREQUENCYGAINB0	=	0x4128
                           004138  1883 _AX5043_FREQUENCYGAINB1	=	0x4138
                           004148  1884 _AX5043_FREQUENCYGAINB2	=	0x4148
                           004158  1885 _AX5043_FREQUENCYGAINB3	=	0x4158
                           004129  1886 _AX5043_FREQUENCYGAINC0	=	0x4129
                           004139  1887 _AX5043_FREQUENCYGAINC1	=	0x4139
                           004149  1888 _AX5043_FREQUENCYGAINC2	=	0x4149
                           004159  1889 _AX5043_FREQUENCYGAINC3	=	0x4159
                           00412A  1890 _AX5043_FREQUENCYGAIND0	=	0x412a
                           00413A  1891 _AX5043_FREQUENCYGAIND1	=	0x413a
                           00414A  1892 _AX5043_FREQUENCYGAIND2	=	0x414a
                           00415A  1893 _AX5043_FREQUENCYGAIND3	=	0x415a
                           004116  1894 _AX5043_FREQUENCYLEAK	=	0x4116
                           004126  1895 _AX5043_PHASEGAIN0	=	0x4126
                           004136  1896 _AX5043_PHASEGAIN1	=	0x4136
                           004146  1897 _AX5043_PHASEGAIN2	=	0x4146
                           004156  1898 _AX5043_PHASEGAIN3	=	0x4156
                           004207  1899 _AX5043_PKTADDR0	=	0x4207
                           004206  1900 _AX5043_PKTADDR1	=	0x4206
                           004205  1901 _AX5043_PKTADDR2	=	0x4205
                           004204  1902 _AX5043_PKTADDR3	=	0x4204
                           004200  1903 _AX5043_PKTADDRCFG	=	0x4200
                           00420B  1904 _AX5043_PKTADDRMASK0	=	0x420b
                           00420A  1905 _AX5043_PKTADDRMASK1	=	0x420a
                           004209  1906 _AX5043_PKTADDRMASK2	=	0x4209
                           004208  1907 _AX5043_PKTADDRMASK3	=	0x4208
                           004201  1908 _AX5043_PKTLENCFG	=	0x4201
                           004202  1909 _AX5043_PKTLENOFFSET	=	0x4202
                           004203  1910 _AX5043_PKTMAXLEN	=	0x4203
                           004118  1911 _AX5043_RXPARAMCURSET	=	0x4118
                           004117  1912 _AX5043_RXPARAMSETS	=	0x4117
                           004124  1913 _AX5043_TIMEGAIN0	=	0x4124
                           004134  1914 _AX5043_TIMEGAIN1	=	0x4134
                           004144  1915 _AX5043_TIMEGAIN2	=	0x4144
                           004154  1916 _AX5043_TIMEGAIN3	=	0x4154
                           005114  1917 _AX5043_AFSKCTRLNB	=	0x5114
                           005113  1918 _AX5043_AFSKMARK0NB	=	0x5113
                           005112  1919 _AX5043_AFSKMARK1NB	=	0x5112
                           005111  1920 _AX5043_AFSKSPACE0NB	=	0x5111
                           005110  1921 _AX5043_AFSKSPACE1NB	=	0x5110
                           005043  1922 _AX5043_AGCCOUNTERNB	=	0x5043
                           005115  1923 _AX5043_AMPLFILTERNB	=	0x5115
                           005189  1924 _AX5043_BBOFFSCAPNB	=	0x5189
                           005188  1925 _AX5043_BBTUNENB	=	0x5188
                           005041  1926 _AX5043_BGNDRSSINB	=	0x5041
                           00522E  1927 _AX5043_BGNDRSSIGAINNB	=	0x522e
                           00522F  1928 _AX5043_BGNDRSSITHRNB	=	0x522f
                           005017  1929 _AX5043_CRCINIT0NB	=	0x5017
                           005016  1930 _AX5043_CRCINIT1NB	=	0x5016
                           005015  1931 _AX5043_CRCINIT2NB	=	0x5015
                           005014  1932 _AX5043_CRCINIT3NB	=	0x5014
                           005332  1933 _AX5043_DACCONFIGNB	=	0x5332
                           005331  1934 _AX5043_DACVALUE0NB	=	0x5331
                           005330  1935 _AX5043_DACVALUE1NB	=	0x5330
                           005102  1936 _AX5043_DECIMATIONNB	=	0x5102
                           005042  1937 _AX5043_DIVERSITYNB	=	0x5042
                           005011  1938 _AX5043_ENCODINGNB	=	0x5011
                           005018  1939 _AX5043_FECNB	=	0x5018
                           00501A  1940 _AX5043_FECSTATUSNB	=	0x501a
                           005019  1941 _AX5043_FECSYNCNB	=	0x5019
                           00502B  1942 _AX5043_FIFOCOUNT0NB	=	0x502b
                           00502A  1943 _AX5043_FIFOCOUNT1NB	=	0x502a
                           005029  1944 _AX5043_FIFODATANB	=	0x5029
                           00502D  1945 _AX5043_FIFOFREE0NB	=	0x502d
                           00502C  1946 _AX5043_FIFOFREE1NB	=	0x502c
                           005028  1947 _AX5043_FIFOSTATNB	=	0x5028
                           00502F  1948 _AX5043_FIFOTHRESH0NB	=	0x502f
                           00502E  1949 _AX5043_FIFOTHRESH1NB	=	0x502e
                           005012  1950 _AX5043_FRAMINGNB	=	0x5012
                           005037  1951 _AX5043_FREQA0NB	=	0x5037
                           005036  1952 _AX5043_FREQA1NB	=	0x5036
                           005035  1953 _AX5043_FREQA2NB	=	0x5035
                           005034  1954 _AX5043_FREQA3NB	=	0x5034
                           00503F  1955 _AX5043_FREQB0NB	=	0x503f
                           00503E  1956 _AX5043_FREQB1NB	=	0x503e
                           00503D  1957 _AX5043_FREQB2NB	=	0x503d
                           00503C  1958 _AX5043_FREQB3NB	=	0x503c
                           005163  1959 _AX5043_FSKDEV0NB	=	0x5163
                           005162  1960 _AX5043_FSKDEV1NB	=	0x5162
                           005161  1961 _AX5043_FSKDEV2NB	=	0x5161
                           00510D  1962 _AX5043_FSKDMAX0NB	=	0x510d
                           00510C  1963 _AX5043_FSKDMAX1NB	=	0x510c
                           00510F  1964 _AX5043_FSKDMIN0NB	=	0x510f
                           00510E  1965 _AX5043_FSKDMIN1NB	=	0x510e
                           005309  1966 _AX5043_GPADC13VALUE0NB	=	0x5309
                           005308  1967 _AX5043_GPADC13VALUE1NB	=	0x5308
                           005300  1968 _AX5043_GPADCCTRLNB	=	0x5300
                           005301  1969 _AX5043_GPADCPERIODNB	=	0x5301
                           005101  1970 _AX5043_IFFREQ0NB	=	0x5101
                           005100  1971 _AX5043_IFFREQ1NB	=	0x5100
                           00500B  1972 _AX5043_IRQINVERSION0NB	=	0x500b
                           00500A  1973 _AX5043_IRQINVERSION1NB	=	0x500a
                           005007  1974 _AX5043_IRQMASK0NB	=	0x5007
                           005006  1975 _AX5043_IRQMASK1NB	=	0x5006
                           00500D  1976 _AX5043_IRQREQUEST0NB	=	0x500d
                           00500C  1977 _AX5043_IRQREQUEST1NB	=	0x500c
                           005310  1978 _AX5043_LPOSCCONFIGNB	=	0x5310
                           005317  1979 _AX5043_LPOSCFREQ0NB	=	0x5317
                           005316  1980 _AX5043_LPOSCFREQ1NB	=	0x5316
                           005313  1981 _AX5043_LPOSCKFILT0NB	=	0x5313
                           005312  1982 _AX5043_LPOSCKFILT1NB	=	0x5312
                           005319  1983 _AX5043_LPOSCPER0NB	=	0x5319
                           005318  1984 _AX5043_LPOSCPER1NB	=	0x5318
                           005315  1985 _AX5043_LPOSCREF0NB	=	0x5315
                           005314  1986 _AX5043_LPOSCREF1NB	=	0x5314
                           005311  1987 _AX5043_LPOSCSTATUSNB	=	0x5311
                           005214  1988 _AX5043_MATCH0LENNB	=	0x5214
                           005216  1989 _AX5043_MATCH0MAXNB	=	0x5216
                           005215  1990 _AX5043_MATCH0MINNB	=	0x5215
                           005213  1991 _AX5043_MATCH0PAT0NB	=	0x5213
                           005212  1992 _AX5043_MATCH0PAT1NB	=	0x5212
                           005211  1993 _AX5043_MATCH0PAT2NB	=	0x5211
                           005210  1994 _AX5043_MATCH0PAT3NB	=	0x5210
                           00521C  1995 _AX5043_MATCH1LENNB	=	0x521c
                           00521E  1996 _AX5043_MATCH1MAXNB	=	0x521e
                           00521D  1997 _AX5043_MATCH1MINNB	=	0x521d
                           005219  1998 _AX5043_MATCH1PAT0NB	=	0x5219
                           005218  1999 _AX5043_MATCH1PAT1NB	=	0x5218
                           005108  2000 _AX5043_MAXDROFFSET0NB	=	0x5108
                           005107  2001 _AX5043_MAXDROFFSET1NB	=	0x5107
                           005106  2002 _AX5043_MAXDROFFSET2NB	=	0x5106
                           00510B  2003 _AX5043_MAXRFOFFSET0NB	=	0x510b
                           00510A  2004 _AX5043_MAXRFOFFSET1NB	=	0x510a
                           005109  2005 _AX5043_MAXRFOFFSET2NB	=	0x5109
                           005164  2006 _AX5043_MODCFGANB	=	0x5164
                           005160  2007 _AX5043_MODCFGFNB	=	0x5160
                           005F5F  2008 _AX5043_MODCFGPNB	=	0x5f5f
                           005010  2009 _AX5043_MODULATIONNB	=	0x5010
                           005025  2010 _AX5043_PINFUNCANTSELNB	=	0x5025
                           005023  2011 _AX5043_PINFUNCDATANB	=	0x5023
                           005022  2012 _AX5043_PINFUNCDCLKNB	=	0x5022
                           005024  2013 _AX5043_PINFUNCIRQNB	=	0x5024
                           005026  2014 _AX5043_PINFUNCPWRAMPNB	=	0x5026
                           005021  2015 _AX5043_PINFUNCSYSCLKNB	=	0x5021
                           005020  2016 _AX5043_PINSTATENB	=	0x5020
                           005233  2017 _AX5043_PKTACCEPTFLAGSNB	=	0x5233
                           005230  2018 _AX5043_PKTCHUNKSIZENB	=	0x5230
                           005231  2019 _AX5043_PKTMISCFLAGSNB	=	0x5231
                           005232  2020 _AX5043_PKTSTOREFLAGSNB	=	0x5232
                           005031  2021 _AX5043_PLLCPINB	=	0x5031
                           005039  2022 _AX5043_PLLCPIBOOSTNB	=	0x5039
                           005182  2023 _AX5043_PLLLOCKDETNB	=	0x5182
                           005030  2024 _AX5043_PLLLOOPNB	=	0x5030
                           005038  2025 _AX5043_PLLLOOPBOOSTNB	=	0x5038
                           005033  2026 _AX5043_PLLRANGINGANB	=	0x5033
                           00503B  2027 _AX5043_PLLRANGINGBNB	=	0x503b
                           005183  2028 _AX5043_PLLRNGCLKNB	=	0x5183
                           005032  2029 _AX5043_PLLVCODIVNB	=	0x5032
                           005180  2030 _AX5043_PLLVCOINB	=	0x5180
                           005181  2031 _AX5043_PLLVCOIRNB	=	0x5181
                           005F08  2032 _AX5043_POWCTRL1NB	=	0x5f08
                           005005  2033 _AX5043_POWIRQMASKNB	=	0x5005
                           005003  2034 _AX5043_POWSTATNB	=	0x5003
                           005004  2035 _AX5043_POWSTICKYSTATNB	=	0x5004
                           005027  2036 _AX5043_PWRAMPNB	=	0x5027
                           005002  2037 _AX5043_PWRMODENB	=	0x5002
                           005009  2038 _AX5043_RADIOEVENTMASK0NB	=	0x5009
                           005008  2039 _AX5043_RADIOEVENTMASK1NB	=	0x5008
                           00500F  2040 _AX5043_RADIOEVENTREQ0NB	=	0x500f
                           00500E  2041 _AX5043_RADIOEVENTREQ1NB	=	0x500e
                           00501C  2042 _AX5043_RADIOSTATENB	=	0x501c
                           005F0D  2043 _AX5043_REFNB	=	0x5f0d
                           005040  2044 _AX5043_RSSINB	=	0x5040
                           00522D  2045 _AX5043_RSSIABSTHRNB	=	0x522d
                           00522C  2046 _AX5043_RSSIREFERENCENB	=	0x522c
                           005105  2047 _AX5043_RXDATARATE0NB	=	0x5105
                           005104  2048 _AX5043_RXDATARATE1NB	=	0x5104
                           005103  2049 _AX5043_RXDATARATE2NB	=	0x5103
                           005001  2050 _AX5043_SCRATCHNB	=	0x5001
                           005000  2051 _AX5043_SILICONREVISIONNB	=	0x5000
                           00505B  2052 _AX5043_TIMER0NB	=	0x505b
                           00505A  2053 _AX5043_TIMER1NB	=	0x505a
                           005059  2054 _AX5043_TIMER2NB	=	0x5059
                           005227  2055 _AX5043_TMGRXAGCNB	=	0x5227
                           005223  2056 _AX5043_TMGRXBOOSTNB	=	0x5223
                           005226  2057 _AX5043_TMGRXCOARSEAGCNB	=	0x5226
                           005225  2058 _AX5043_TMGRXOFFSACQNB	=	0x5225
                           005229  2059 _AX5043_TMGRXPREAMBLE1NB	=	0x5229
                           00522A  2060 _AX5043_TMGRXPREAMBLE2NB	=	0x522a
                           00522B  2061 _AX5043_TMGRXPREAMBLE3NB	=	0x522b
                           005228  2062 _AX5043_TMGRXRSSINB	=	0x5228
                           005224  2063 _AX5043_TMGRXSETTLENB	=	0x5224
                           005220  2064 _AX5043_TMGTXBOOSTNB	=	0x5220
                           005221  2065 _AX5043_TMGTXSETTLENB	=	0x5221
                           005055  2066 _AX5043_TRKAFSKDEMOD0NB	=	0x5055
                           005054  2067 _AX5043_TRKAFSKDEMOD1NB	=	0x5054
                           005049  2068 _AX5043_TRKAMPLITUDE0NB	=	0x5049
                           005048  2069 _AX5043_TRKAMPLITUDE1NB	=	0x5048
                           005047  2070 _AX5043_TRKDATARATE0NB	=	0x5047
                           005046  2071 _AX5043_TRKDATARATE1NB	=	0x5046
                           005045  2072 _AX5043_TRKDATARATE2NB	=	0x5045
                           005051  2073 _AX5043_TRKFREQ0NB	=	0x5051
                           005050  2074 _AX5043_TRKFREQ1NB	=	0x5050
                           005053  2075 _AX5043_TRKFSKDEMOD0NB	=	0x5053
                           005052  2076 _AX5043_TRKFSKDEMOD1NB	=	0x5052
                           00504B  2077 _AX5043_TRKPHASE0NB	=	0x504b
                           00504A  2078 _AX5043_TRKPHASE1NB	=	0x504a
                           00504F  2079 _AX5043_TRKRFFREQ0NB	=	0x504f
                           00504E  2080 _AX5043_TRKRFFREQ1NB	=	0x504e
                           00504D  2081 _AX5043_TRKRFFREQ2NB	=	0x504d
                           005169  2082 _AX5043_TXPWRCOEFFA0NB	=	0x5169
                           005168  2083 _AX5043_TXPWRCOEFFA1NB	=	0x5168
                           00516B  2084 _AX5043_TXPWRCOEFFB0NB	=	0x516b
                           00516A  2085 _AX5043_TXPWRCOEFFB1NB	=	0x516a
                           00516D  2086 _AX5043_TXPWRCOEFFC0NB	=	0x516d
                           00516C  2087 _AX5043_TXPWRCOEFFC1NB	=	0x516c
                           00516F  2088 _AX5043_TXPWRCOEFFD0NB	=	0x516f
                           00516E  2089 _AX5043_TXPWRCOEFFD1NB	=	0x516e
                           005171  2090 _AX5043_TXPWRCOEFFE0NB	=	0x5171
                           005170  2091 _AX5043_TXPWRCOEFFE1NB	=	0x5170
                           005167  2092 _AX5043_TXRATE0NB	=	0x5167
                           005166  2093 _AX5043_TXRATE1NB	=	0x5166
                           005165  2094 _AX5043_TXRATE2NB	=	0x5165
                           00506B  2095 _AX5043_WAKEUP0NB	=	0x506b
                           00506A  2096 _AX5043_WAKEUP1NB	=	0x506a
                           00506D  2097 _AX5043_WAKEUPFREQ0NB	=	0x506d
                           00506C  2098 _AX5043_WAKEUPFREQ1NB	=	0x506c
                           005069  2099 _AX5043_WAKEUPTIMER0NB	=	0x5069
                           005068  2100 _AX5043_WAKEUPTIMER1NB	=	0x5068
                           00506E  2101 _AX5043_WAKEUPXOEARLYNB	=	0x506e
                           005F11  2102 _AX5043_XTALAMPLNB	=	0x5f11
                           005184  2103 _AX5043_XTALCAPNB	=	0x5184
                           005F10  2104 _AX5043_XTALOSCNB	=	0x5f10
                           00501D  2105 _AX5043_XTALSTATUSNB	=	0x501d
                           005F00  2106 _AX5043_0xF00NB	=	0x5f00
                           005F0C  2107 _AX5043_0xF0CNB	=	0x5f0c
                           005F18  2108 _AX5043_0xF18NB	=	0x5f18
                           005F1C  2109 _AX5043_0xF1CNB	=	0x5f1c
                           005F21  2110 _AX5043_0xF21NB	=	0x5f21
                           005F22  2111 _AX5043_0xF22NB	=	0x5f22
                           005F23  2112 _AX5043_0xF23NB	=	0x5f23
                           005F26  2113 _AX5043_0xF26NB	=	0x5f26
                           005F30  2114 _AX5043_0xF30NB	=	0x5f30
                           005F31  2115 _AX5043_0xF31NB	=	0x5f31
                           005F32  2116 _AX5043_0xF32NB	=	0x5f32
                           005F33  2117 _AX5043_0xF33NB	=	0x5f33
                           005F34  2118 _AX5043_0xF34NB	=	0x5f34
                           005F35  2119 _AX5043_0xF35NB	=	0x5f35
                           005F44  2120 _AX5043_0xF44NB	=	0x5f44
                           005122  2121 _AX5043_AGCAHYST0NB	=	0x5122
                           005132  2122 _AX5043_AGCAHYST1NB	=	0x5132
                           005142  2123 _AX5043_AGCAHYST2NB	=	0x5142
                           005152  2124 _AX5043_AGCAHYST3NB	=	0x5152
                           005120  2125 _AX5043_AGCGAIN0NB	=	0x5120
                           005130  2126 _AX5043_AGCGAIN1NB	=	0x5130
                           005140  2127 _AX5043_AGCGAIN2NB	=	0x5140
                           005150  2128 _AX5043_AGCGAIN3NB	=	0x5150
                           005123  2129 _AX5043_AGCMINMAX0NB	=	0x5123
                           005133  2130 _AX5043_AGCMINMAX1NB	=	0x5133
                           005143  2131 _AX5043_AGCMINMAX2NB	=	0x5143
                           005153  2132 _AX5043_AGCMINMAX3NB	=	0x5153
                           005121  2133 _AX5043_AGCTARGET0NB	=	0x5121
                           005131  2134 _AX5043_AGCTARGET1NB	=	0x5131
                           005141  2135 _AX5043_AGCTARGET2NB	=	0x5141
                           005151  2136 _AX5043_AGCTARGET3NB	=	0x5151
                           00512B  2137 _AX5043_AMPLITUDEGAIN0NB	=	0x512b
                           00513B  2138 _AX5043_AMPLITUDEGAIN1NB	=	0x513b
                           00514B  2139 _AX5043_AMPLITUDEGAIN2NB	=	0x514b
                           00515B  2140 _AX5043_AMPLITUDEGAIN3NB	=	0x515b
                           00512F  2141 _AX5043_BBOFFSRES0NB	=	0x512f
                           00513F  2142 _AX5043_BBOFFSRES1NB	=	0x513f
                           00514F  2143 _AX5043_BBOFFSRES2NB	=	0x514f
                           00515F  2144 _AX5043_BBOFFSRES3NB	=	0x515f
                           005125  2145 _AX5043_DRGAIN0NB	=	0x5125
                           005135  2146 _AX5043_DRGAIN1NB	=	0x5135
                           005145  2147 _AX5043_DRGAIN2NB	=	0x5145
                           005155  2148 _AX5043_DRGAIN3NB	=	0x5155
                           00512E  2149 _AX5043_FOURFSK0NB	=	0x512e
                           00513E  2150 _AX5043_FOURFSK1NB	=	0x513e
                           00514E  2151 _AX5043_FOURFSK2NB	=	0x514e
                           00515E  2152 _AX5043_FOURFSK3NB	=	0x515e
                           00512D  2153 _AX5043_FREQDEV00NB	=	0x512d
                           00513D  2154 _AX5043_FREQDEV01NB	=	0x513d
                           00514D  2155 _AX5043_FREQDEV02NB	=	0x514d
                           00515D  2156 _AX5043_FREQDEV03NB	=	0x515d
                           00512C  2157 _AX5043_FREQDEV10NB	=	0x512c
                           00513C  2158 _AX5043_FREQDEV11NB	=	0x513c
                           00514C  2159 _AX5043_FREQDEV12NB	=	0x514c
                           00515C  2160 _AX5043_FREQDEV13NB	=	0x515c
                           005127  2161 _AX5043_FREQUENCYGAINA0NB	=	0x5127
                           005137  2162 _AX5043_FREQUENCYGAINA1NB	=	0x5137
                           005147  2163 _AX5043_FREQUENCYGAINA2NB	=	0x5147
                           005157  2164 _AX5043_FREQUENCYGAINA3NB	=	0x5157
                           005128  2165 _AX5043_FREQUENCYGAINB0NB	=	0x5128
                           005138  2166 _AX5043_FREQUENCYGAINB1NB	=	0x5138
                           005148  2167 _AX5043_FREQUENCYGAINB2NB	=	0x5148
                           005158  2168 _AX5043_FREQUENCYGAINB3NB	=	0x5158
                           005129  2169 _AX5043_FREQUENCYGAINC0NB	=	0x5129
                           005139  2170 _AX5043_FREQUENCYGAINC1NB	=	0x5139
                           005149  2171 _AX5043_FREQUENCYGAINC2NB	=	0x5149
                           005159  2172 _AX5043_FREQUENCYGAINC3NB	=	0x5159
                           00512A  2173 _AX5043_FREQUENCYGAIND0NB	=	0x512a
                           00513A  2174 _AX5043_FREQUENCYGAIND1NB	=	0x513a
                           00514A  2175 _AX5043_FREQUENCYGAIND2NB	=	0x514a
                           00515A  2176 _AX5043_FREQUENCYGAIND3NB	=	0x515a
                           005116  2177 _AX5043_FREQUENCYLEAKNB	=	0x5116
                           005126  2178 _AX5043_PHASEGAIN0NB	=	0x5126
                           005136  2179 _AX5043_PHASEGAIN1NB	=	0x5136
                           005146  2180 _AX5043_PHASEGAIN2NB	=	0x5146
                           005156  2181 _AX5043_PHASEGAIN3NB	=	0x5156
                           005207  2182 _AX5043_PKTADDR0NB	=	0x5207
                           005206  2183 _AX5043_PKTADDR1NB	=	0x5206
                           005205  2184 _AX5043_PKTADDR2NB	=	0x5205
                           005204  2185 _AX5043_PKTADDR3NB	=	0x5204
                           005200  2186 _AX5043_PKTADDRCFGNB	=	0x5200
                           00520B  2187 _AX5043_PKTADDRMASK0NB	=	0x520b
                           00520A  2188 _AX5043_PKTADDRMASK1NB	=	0x520a
                           005209  2189 _AX5043_PKTADDRMASK2NB	=	0x5209
                           005208  2190 _AX5043_PKTADDRMASK3NB	=	0x5208
                           005201  2191 _AX5043_PKTLENCFGNB	=	0x5201
                           005202  2192 _AX5043_PKTLENOFFSETNB	=	0x5202
                           005203  2193 _AX5043_PKTMAXLENNB	=	0x5203
                           005118  2194 _AX5043_RXPARAMCURSETNB	=	0x5118
                           005117  2195 _AX5043_RXPARAMSETSNB	=	0x5117
                           005124  2196 _AX5043_TIMEGAIN0NB	=	0x5124
                           005134  2197 _AX5043_TIMEGAIN1NB	=	0x5134
                           005144  2198 _AX5043_TIMEGAIN2NB	=	0x5144
                           005154  2199 _AX5043_TIMEGAIN3NB	=	0x5154
                           00FC06  2200 _flash_deviceid	=	0xfc06
      000000                       2201 _aligned_alloc_PARM_2:
      000000                       2202 	.ds 2
                           004F00  2203 _AX5043_0xF00	=	0x4f00
                           004F0C  2204 _AX5043_0xF0C	=	0x4f0c
                           004F10  2205 _AX5043_0xF10	=	0x4f10
                           004F11  2206 _AX5043_0xF11	=	0x4f11
                           004F18  2207 _AX5043_0xF18	=	0x4f18
                           004F1C  2208 _AX5043_0xF1C	=	0x4f1c
                           004F21  2209 _AX5043_0xF21	=	0x4f21
                           004F22  2210 _AX5043_0xF22	=	0x4f22
                           004F23  2211 _AX5043_0xF23	=	0x4f23
                           004F26  2212 _AX5043_0xF26	=	0x4f26
                           004F30  2213 _AX5043_0xF30	=	0x4f30
                           004F31  2214 _AX5043_0xF31	=	0x4f31
                           004F32  2215 _AX5043_0xF32	=	0x4f32
                           004F33  2216 _AX5043_0xF33	=	0x4f33
                           004F34  2217 _AX5043_0xF34	=	0x4f34
                           004F35  2218 _AX5043_0xF35	=	0x4f35
                           004F44  2219 _AX5043_0xF44	=	0x4f44
                           004F0D  2220 _AX5043_REF	=	0x4f0d
                           004F08  2221 _AX5043_POWCTRL1	=	0x4f08
                           004F5F  2222 _AX5043_MODCFGP	=	0x4f5f
                           004F10  2223 _AX5043_XTALOSC	=	0x4f10
                           004F11  2224 _AX5043_XTALAMPL	=	0x4f11
                           00FC00  2225 _flash_calsector	=	0xfc00
      000002                       2226 _RxIsrFlag::
      000002                       2227 	.ds 2
      000004                       2228 _BeaconRx::
      000004                       2229 	.ds 29
      000021                       2230 _RxBuffer::
      000021                       2231 	.ds 2
      000023                       2232 _i::
      000023                       2233 	.ds 1
      000024                       2234 _pwrmgmt_irq_pc_1_349:
      000024                       2235 	.ds 1
      000025                       2236 _transmit_packet_i_1_351:
      000025                       2237 	.ds 1
      000026                       2238 _transmit_packet_demo_packet__1_351:
      000026                       2239 	.ds 23
      00003D                       2240 _axradio_statuschange_st_1_353:
      00003D                       2241 	.ds 2
      00003F                       2242 _main_PROCD_PayloadLength_1_381:
      00003F                       2243 	.ds 1
      000040                       2244 _main_PROCD_UartRxBuffer_1_381:
      000040                       2245 	.ds 2
      000042                       2246 _main_PROCD_Command_1_381:
      000042                       2247 	.ds 1
      000043                       2248 _main_UBLOX_setNav1_1_381:
      000043                       2249 	.ds 3
      000046                       2250 _main_UBLOX_setNav2_1_381:
      000046                       2251 	.ds 8
      00004E                       2252 _main_UBLOX_setNav3_1_381:
      00004E                       2253 	.ds 8
      000056                       2254 _main_UBLOX_setNav5_1_381:
      000056                       2255 	.ds 36
      00007A                       2256 _main_UBLOX_Rx_Length_1_381:
      00007A                       2257 	.ds 2
                                   2258 ;--------------------------------------------------------
                                   2259 ; absolute external ram data
                                   2260 ;--------------------------------------------------------
                                   2261 	.area XABS    (ABS,XDATA)
                                   2262 ;--------------------------------------------------------
                                   2263 ; external initialized ram data
                                   2264 ;--------------------------------------------------------
                                   2265 	.area XISEG   (XDATA)
      000000                       2266 _RfStateMachine::
      000000                       2267 	.ds 1
      000001                       2268 _Tmr0Flg::
      000001                       2269 	.ds 1
      000002                       2270 _counter::
      000002                       2271 	.ds 1
                                   2272 	.area HOME    (CODE)
                                   2273 	.area GSINIT0 (CODE)
                                   2274 	.area GSINIT1 (CODE)
                                   2275 	.area GSINIT2 (CODE)
                                   2276 	.area GSINIT3 (CODE)
                                   2277 	.area GSINIT4 (CODE)
                                   2278 	.area GSINIT5 (CODE)
                                   2279 	.area GSINIT  (CODE)
                                   2280 	.area GSFINAL (CODE)
                                   2281 	.area CSEG    (CODE)
                                   2282 ;--------------------------------------------------------
                                   2283 ; interrupt vector 
                                   2284 ;--------------------------------------------------------
                                   2285 	.area HOME    (CODE)
      000000                       2286 __interrupt_vect:
      000000 02r00r00         [24] 2287 	ljmp	__sdcc_gsinit_startup
      000003 32               [24] 2288 	reti
      000004                       2289 	.ds	7
      00000B 02r00r00         [24] 2290 	ljmp	_wtimer_irq
      00000E                       2291 	.ds	5
      000013 32               [24] 2292 	reti
      000014                       2293 	.ds	7
      00001B 32               [24] 2294 	reti
      00001C                       2295 	.ds	7
      000023 02r00r00         [24] 2296 	ljmp	_axradio_isr
      000026                       2297 	.ds	5
      00002B 32               [24] 2298 	reti
      00002C                       2299 	.ds	7
      000033 02r00r00         [24] 2300 	ljmp	_pwrmgmt_irq
      000036                       2301 	.ds	5
      00003B 32               [24] 2302 	reti
      00003C                       2303 	.ds	7
      000043 32               [24] 2304 	reti
      000044                       2305 	.ds	7
      00004B 32               [24] 2306 	reti
      00004C                       2307 	.ds	7
      000053 32               [24] 2308 	reti
      000054                       2309 	.ds	7
      00005B 02r00r00         [24] 2310 	ljmp	_uart0_irq
      00005E                       2311 	.ds	5
      000063 02r00r00         [24] 2312 	ljmp	_uart1_irq
      000066                       2313 	.ds	5
      00006B 32               [24] 2314 	reti
      00006C                       2315 	.ds	7
      000073 32               [24] 2316 	reti
      000074                       2317 	.ds	7
      00007B 32               [24] 2318 	reti
      00007C                       2319 	.ds	7
      000083 32               [24] 2320 	reti
      000084                       2321 	.ds	7
      00008B 32               [24] 2322 	reti
      00008C                       2323 	.ds	7
      000093 32               [24] 2324 	reti
      000094                       2325 	.ds	7
      00009B 32               [24] 2326 	reti
      00009C                       2327 	.ds	7
      0000A3 32               [24] 2328 	reti
      0000A4                       2329 	.ds	7
      0000AB 02r00r00         [24] 2330 	ljmp	_dbglink_irq
                                   2331 ;--------------------------------------------------------
                                   2332 ; global & static initialisations
                                   2333 ;--------------------------------------------------------
                                   2334 	.area HOME    (CODE)
                                   2335 	.area GSINIT  (CODE)
                                   2336 	.area GSFINAL (CODE)
                                   2337 	.area GSINIT  (CODE)
                                   2338 	.globl __sdcc_gsinit_startup
                                   2339 	.globl __sdcc_program_startup
                                   2340 	.globl __start__stack
                                   2341 	.globl __mcs51_genXINIT
                                   2342 	.globl __mcs51_genXRAMCLEAR
                                   2343 	.globl __mcs51_genRAMCLEAR
                                   2344 ;------------------------------------------------------------
                                   2345 ;Allocation info for local variables in function 'transmit_packet'
                                   2346 ;------------------------------------------------------------
                                   2347 ;i                         Allocated with name '_transmit_packet_i_1_351'
                                   2348 ;demo_packet_              Allocated with name '_transmit_packet_demo_packet__1_351'
                                   2349 ;------------------------------------------------------------
                                   2350 ;	atrs\main.c:71: static uint8_t i = 0;
      000000 90r00r25         [24] 2351 	mov	dptr,#_transmit_packet_i_1_351
      000003 E4               [12] 2352 	clr	a
      000004 F0               [24] 2353 	movx	@dptr,a
                                   2354 ;	atrs\main.c:53: uint16_t __data pkt_counter = 0;/**< \brief amount of packets received */
      000005 E4               [12] 2355 	clr	a
      000006 F5*00            [12] 2356 	mov	_pkt_counter,a
      000008 F5*01            [12] 2357 	mov	(_pkt_counter + 1),a
                                   2358 ;	atrs\main.c:54: uint8_t __data coldstart = 1; /**< \brief Cold start indicator*/ // caution: initialization with 1 is necessary! Variables are initialized upon _sdcc_external_startup returning 0 -> the coldstart value returned from _sdcc_external startup does not survive in the coldstart case
      00000A 75*02 01         [24] 2359 	mov	_coldstart,#0x01
                                   2360 	.area GSFINAL (CODE)
      000000 02r00rAE         [24] 2361 	ljmp	__sdcc_program_startup
                                   2362 ;--------------------------------------------------------
                                   2363 ; Home
                                   2364 ;--------------------------------------------------------
                                   2365 	.area HOME    (CODE)
                                   2366 	.area HOME    (CODE)
      0000AE                       2367 __sdcc_program_startup:
      0000AE 02r01r90         [24] 2368 	ljmp	_main
                                   2369 ;	return from main will return to caller
                                   2370 ;--------------------------------------------------------
                                   2371 ; code
                                   2372 ;--------------------------------------------------------
                                   2373 	.area CSEG    (CODE)
                                   2374 ;------------------------------------------------------------
                                   2375 ;Allocation info for local variables in function 'pwrmgmt_irq'
                                   2376 ;------------------------------------------------------------
                                   2377 ;pc                        Allocated with name '_pwrmgmt_irq_pc_1_349'
                                   2378 ;------------------------------------------------------------
                                   2379 ;	atrs\main.c:58: static void pwrmgmt_irq(void) __interrupt(INT_POWERMGMT)
                                   2380 ;	-----------------------------------------
                                   2381 ;	 function pwrmgmt_irq
                                   2382 ;	-----------------------------------------
      000000                       2383 _pwrmgmt_irq:
                           000007  2384 	ar7 = 0x07
                           000006  2385 	ar6 = 0x06
                           000005  2386 	ar5 = 0x05
                           000004  2387 	ar4 = 0x04
                           000003  2388 	ar3 = 0x03
                           000002  2389 	ar2 = 0x02
                           000001  2390 	ar1 = 0x01
                           000000  2391 	ar0 = 0x00
      000000 C0 E0            [24] 2392 	push	acc
      000002 C0 82            [24] 2393 	push	dpl
      000004 C0 83            [24] 2394 	push	dph
      000006 C0 07            [24] 2395 	push	ar7
      000008 C0 D0            [24] 2396 	push	psw
      00000A 75 D0 00         [24] 2397 	mov	psw,#0x00
                                   2398 ;	atrs\main.c:60: uint8_t pc = PCON;
      00000D 90r00r24         [24] 2399 	mov	dptr,#_pwrmgmt_irq_pc_1_349
      000010 E5 87            [12] 2400 	mov	a,_PCON
      000012 F0               [24] 2401 	movx	@dptr,a
                                   2402 ;	atrs\main.c:61: if (!(pc & 0x80))
      000013 E0               [24] 2403 	movx	a,@dptr
      000014 FF               [12] 2404 	mov	r7,a
      000015 20 E7 02         [24] 2405 	jb	acc.7,00102$
                                   2406 ;	atrs\main.c:62: return;
      000018 80 10            [24] 2407 	sjmp	00106$
      00001A                       2408 00102$:
                                   2409 ;	atrs\main.c:63: GPIOENABLE = 0;
      00001A 90 70 0C         [24] 2410 	mov	dptr,#_GPIOENABLE
      00001D E4               [12] 2411 	clr	a
      00001E F0               [24] 2412 	movx	@dptr,a
                                   2413 ;	atrs\main.c:64: IE = EIE = E2IE = 0;
                                   2414 ;	1-genFromRTrack replaced	mov	_E2IE,#0x00
      00001F F5 A0            [12] 2415 	mov	_E2IE,a
                                   2416 ;	1-genFromRTrack replaced	mov	_EIE,#0x00
      000021 F5 98            [12] 2417 	mov	_EIE,a
                                   2418 ;	1-genFromRTrack replaced	mov	_IE,#0x00
      000023 F5 A8            [12] 2419 	mov	_IE,a
      000025                       2420 00104$:
                                   2421 ;	atrs\main.c:66: PCON |= 0x01;
      000025 43 87 01         [24] 2422 	orl	_PCON,#0x01
      000028 80 FB            [24] 2423 	sjmp	00104$
      00002A                       2424 00106$:
      00002A D0 D0            [24] 2425 	pop	psw
      00002C D0 07            [24] 2426 	pop	ar7
      00002E D0 83            [24] 2427 	pop	dph
      000030 D0 82            [24] 2428 	pop	dpl
      000032 D0 E0            [24] 2429 	pop	acc
      000034 32               [24] 2430 	reti
                                   2431 ;	eliminated unneeded push/pop b
                                   2432 ;------------------------------------------------------------
                                   2433 ;Allocation info for local variables in function 'transmit_packet'
                                   2434 ;------------------------------------------------------------
                                   2435 ;i                         Allocated with name '_transmit_packet_i_1_351'
                                   2436 ;demo_packet_              Allocated with name '_transmit_packet_demo_packet__1_351'
                                   2437 ;------------------------------------------------------------
                                   2438 ;	atrs\main.c:69: static void transmit_packet(void)
                                   2439 ;	-----------------------------------------
                                   2440 ;	 function transmit_packet
                                   2441 ;	-----------------------------------------
      000035                       2442 _transmit_packet:
                                   2443 ;	atrs\main.c:73: dbglink_writestr("Tx");
      000035 90r00r00         [24] 2444 	mov	dptr,#___str_0
      000038 75 F0 80         [24] 2445 	mov	b,#0x80
      00003B 12r00r00         [24] 2446 	lcall	_dbglink_writestr
                                   2447 ;	atrs\main.c:74: axradio_set_mode(AXRADIO_MODE_ASYNC_TRANSMIT);
      00003E 75 82 10         [24] 2448 	mov	dpl,#0x10
      000041 12r00r00         [24] 2449 	lcall	_axradio_set_mode
                                   2450 ;	atrs\main.c:75: ++pkt_counter;
      000044 05*00            [12] 2451 	inc	_pkt_counter
      000046 E4               [12] 2452 	clr	a
      000047 B5*00 02         [24] 2453 	cjne	a,_pkt_counter,00108$
      00004A 05*01            [12] 2454 	inc	(_pkt_counter + 1)
      00004C                       2455 00108$:
                                   2456 ;	atrs\main.c:76: memcpy(demo_packet_, demo_packet, sizeof(demo_packet));
      00004C 90r00r00         [24] 2457 	mov	dptr,#_memcpy_PARM_2
      00004F 74r00            [12] 2458 	mov	a,#_demo_packet
      000051 F0               [24] 2459 	movx	@dptr,a
      000052 74s00            [12] 2460 	mov	a,#(_demo_packet >> 8)
      000054 A3               [24] 2461 	inc	dptr
      000055 F0               [24] 2462 	movx	@dptr,a
      000056 E4               [12] 2463 	clr	a
      000057 A3               [24] 2464 	inc	dptr
      000058 F0               [24] 2465 	movx	@dptr,a
      000059 90r00r00         [24] 2466 	mov	dptr,#_memcpy_PARM_3
      00005C 74 17            [12] 2467 	mov	a,#0x17
      00005E F0               [24] 2468 	movx	@dptr,a
      00005F E4               [12] 2469 	clr	a
      000060 A3               [24] 2470 	inc	dptr
      000061 F0               [24] 2471 	movx	@dptr,a
      000062 90r00r26         [24] 2472 	mov	dptr,#_transmit_packet_demo_packet__1_351
      000065 75 F0 00         [24] 2473 	mov	b,#0x00
      000068 12r00r00         [24] 2474 	lcall	_memcpy
                                   2475 ;	atrs\main.c:77: if (framing_insert_counter) {
      00006B 90r00r00         [24] 2476 	mov	dptr,#_framing_insert_counter
      00006E E4               [12] 2477 	clr	a
      00006F 93               [24] 2478 	movc	a,@a+dptr
      000070 60 24            [24] 2479 	jz	00102$
                                   2480 ;	atrs\main.c:78: demo_packet_[framing_counter_pos] = pkt_counter & 0xFF ;
      000072 90r00r00         [24] 2481 	mov	dptr,#_framing_counter_pos
      000075 E4               [12] 2482 	clr	a
      000076 93               [24] 2483 	movc	a,@a+dptr
      000077 FF               [12] 2484 	mov	r7,a
      000078 24r26            [12] 2485 	add	a,#_transmit_packet_demo_packet__1_351
      00007A F5 82            [12] 2486 	mov	dpl,a
      00007C E4               [12] 2487 	clr	a
      00007D 34s00            [12] 2488 	addc	a,#(_transmit_packet_demo_packet__1_351 >> 8)
      00007F F5 83            [12] 2489 	mov	dph,a
      000081 AD*00            [24] 2490 	mov	r5,_pkt_counter
      000083 7E 00            [12] 2491 	mov	r6,#0x00
      000085 ED               [12] 2492 	mov	a,r5
      000086 F0               [24] 2493 	movx	@dptr,a
                                   2494 ;	atrs\main.c:79: demo_packet_[framing_counter_pos+1] = (pkt_counter>>8) & 0xFF;
      000087 EF               [12] 2495 	mov	a,r7
      000088 04               [12] 2496 	inc	a
      000089 24r26            [12] 2497 	add	a,#_transmit_packet_demo_packet__1_351
      00008B F5 82            [12] 2498 	mov	dpl,a
      00008D E4               [12] 2499 	clr	a
      00008E 34s00            [12] 2500 	addc	a,#(_transmit_packet_demo_packet__1_351 >> 8)
      000090 F5 83            [12] 2501 	mov	dph,a
      000092 E5*01            [12] 2502 	mov	a,(_pkt_counter + 1)
      000094 FF               [12] 2503 	mov	r7,a
      000095 F0               [24] 2504 	movx	@dptr,a
      000096                       2505 00102$:
                                   2506 ;	atrs\main.c:81: axradio_transmit(&remoteaddr, demo_packet_, sizeof(demo_packet));
      000096 90r00r00         [24] 2507 	mov	dptr,#_axradio_transmit_PARM_2
      000099 74r26            [12] 2508 	mov	a,#_transmit_packet_demo_packet__1_351
      00009B F0               [24] 2509 	movx	@dptr,a
      00009C 74s00            [12] 2510 	mov	a,#(_transmit_packet_demo_packet__1_351 >> 8)
      00009E A3               [24] 2511 	inc	dptr
      00009F F0               [24] 2512 	movx	@dptr,a
      0000A0 E4               [12] 2513 	clr	a
      0000A1 A3               [24] 2514 	inc	dptr
      0000A2 F0               [24] 2515 	movx	@dptr,a
      0000A3 90r00r00         [24] 2516 	mov	dptr,#_axradio_transmit_PARM_3
      0000A6 74 17            [12] 2517 	mov	a,#0x17
      0000A8 F0               [24] 2518 	movx	@dptr,a
      0000A9 E4               [12] 2519 	clr	a
      0000AA A3               [24] 2520 	inc	dptr
      0000AB F0               [24] 2521 	movx	@dptr,a
      0000AC 90r00r00         [24] 2522 	mov	dptr,#_remoteaddr
      0000AF 75 F0 80         [24] 2523 	mov	b,#0x80
      0000B2 02r00r00         [24] 2524 	ljmp	_axradio_transmit
                                   2525 ;------------------------------------------------------------
                                   2526 ;Allocation info for local variables in function 'axradio_statuschange'
                                   2527 ;------------------------------------------------------------
                                   2528 ;st                        Allocated with name '_axradio_statuschange_st_1_353'
                                   2529 ;i                         Allocated with name '_axradio_statuschange_i_1_354'
                                   2530 ;------------------------------------------------------------
                                   2531 ;	atrs\main.c:86: void axradio_statuschange(struct axradio_status __xdata *st)
                                   2532 ;	-----------------------------------------
                                   2533 ;	 function axradio_statuschange
                                   2534 ;	-----------------------------------------
      0000B5                       2535 _axradio_statuschange:
      0000B5 AF 83            [24] 2536 	mov	r7,dph
      0000B7 E5 82            [12] 2537 	mov	a,dpl
      0000B9 90r00r3D         [24] 2538 	mov	dptr,#_axradio_statuschange_st_1_353
      0000BC F0               [24] 2539 	movx	@dptr,a
      0000BD EF               [12] 2540 	mov	a,r7
      0000BE A3               [24] 2541 	inc	dptr
      0000BF F0               [24] 2542 	movx	@dptr,a
                                   2543 ;	atrs\main.c:90: switch (st->status)
      0000C0 90r00r3D         [24] 2544 	mov	dptr,#_axradio_statuschange_st_1_353
      0000C3 E0               [24] 2545 	movx	a,@dptr
      0000C4 FE               [12] 2546 	mov	r6,a
      0000C5 A3               [24] 2547 	inc	dptr
      0000C6 E0               [24] 2548 	movx	a,@dptr
      0000C7 FF               [12] 2549 	mov	r7,a
      0000C8 8E 82            [24] 2550 	mov	dpl,r6
      0000CA 8F 83            [24] 2551 	mov	dph,r7
      0000CC E0               [24] 2552 	movx	a,@dptr
      0000CD FD               [12] 2553 	mov	r5,a
      0000CE BD 02 02         [24] 2554 	cjne	r5,#0x02,00199$
      0000D1 80 36            [24] 2555 	sjmp	00155$
      0000D3                       2556 00199$:
      0000D3 BD 03 02         [24] 2557 	cjne	r5,#0x03,00200$
      0000D6 80 05            [24] 2558 	sjmp	00105$
      0000D8                       2559 00200$:
                                   2560 ;	atrs\main.c:93: led0_on();
      0000D8 BD 04 41         [24] 2561 	cjne	r5,#0x04,00173$
      0000DB 80 0F            [24] 2562 	sjmp	00120$
      0000DD                       2563 00105$:
      0000DD D2 93            [12] 2564 	setb	_PORTC_3
                                   2565 ;	atrs\main.c:94: if (st->error == AXRADIO_ERR_RETRANSMISSION)
      0000DF 8E 82            [24] 2566 	mov	dpl,r6
      0000E1 8F 83            [24] 2567 	mov	dph,r7
      0000E3 A3               [24] 2568 	inc	dptr
      0000E4 E0               [24] 2569 	movx	a,@dptr
      0000E5 FD               [12] 2570 	mov	r5,a
      0000E6 BD 08 33         [24] 2571 	cjne	r5,#0x08,00173$
                                   2572 ;	atrs\main.c:95: led2_on();
      0000E9 D2 82            [12] 2573 	setb	_PORTA_2
                                   2574 ;	atrs\main.c:96: break;
                                   2575 ;	atrs\main.c:99: led0_off();
      0000EB 22               [24] 2576 	ret
      0000EC                       2577 00120$:
      0000EC C2 93            [12] 2578 	clr	_PORTC_3
                                   2579 ;	atrs\main.c:100: if (st->error == AXRADIO_ERR_NOERROR) {
      0000EE 8E 82            [24] 2580 	mov	dpl,r6
      0000F0 8F 83            [24] 2581 	mov	dph,r7
      0000F2 A3               [24] 2582 	inc	dptr
      0000F3 E0               [24] 2583 	movx	a,@dptr
      0000F4 FD               [12] 2584 	mov	r5,a
      0000F5 70 04            [24] 2585 	jnz	00138$
                                   2586 ;	atrs\main.c:101: led2_off();
      0000F7 C2 82            [12] 2587 	clr	_PORTA_2
      0000F9 80 05            [24] 2588 	sjmp	00139$
      0000FB                       2589 00138$:
                                   2590 ;	atrs\main.c:103: } else if (st->error == AXRADIO_ERR_TIMEOUT) {
      0000FB BD 03 02         [24] 2591 	cjne	r5,#0x03,00139$
                                   2592 ;	atrs\main.c:104: led2_on();
      0000FE D2 82            [12] 2593 	setb	_PORTA_2
      000100                       2594 00139$:
                                   2595 ;	atrs\main.c:107: if (st->error == AXRADIO_ERR_BUSY)
      000100 BD 02 03         [24] 2596 	cjne	r5,#0x02,00149$
                                   2597 ;	atrs\main.c:108: led3_on();
      000103 D2 85            [12] 2598 	setb	_PORTA_5
                                   2599 ;	atrs\main.c:110: led3_off();
      000105 22               [24] 2600 	ret
      000106                       2601 00149$:
      000106 C2 85            [12] 2602 	clr	_PORTA_5
                                   2603 ;	atrs\main.c:111: break;
                                   2604 ;	atrs\main.c:121: case AXRADIO_STAT_CHANNELSTATE:
      000108 22               [24] 2605 	ret
      000109                       2606 00155$:
                                   2607 ;	atrs\main.c:122: if (st->u.cs.busy)
      000109 74 08            [12] 2608 	mov	a,#0x08
      00010B 2E               [12] 2609 	add	a,r6
      00010C FE               [12] 2610 	mov	r6,a
      00010D E4               [12] 2611 	clr	a
      00010E 3F               [12] 2612 	addc	a,r7
      00010F FF               [12] 2613 	mov	r7,a
      000110 8E 82            [24] 2614 	mov	dpl,r6
      000112 8F 83            [24] 2615 	mov	dph,r7
      000114 E0               [24] 2616 	movx	a,@dptr
      000115 60 03            [24] 2617 	jz	00165$
                                   2618 ;	atrs\main.c:123: led3_on();
      000117 D2 85            [12] 2619 	setb	_PORTA_5
                                   2620 ;	atrs\main.c:125: led3_off();
      000119 22               [24] 2621 	ret
      00011A                       2622 00165$:
      00011A C2 85            [12] 2623 	clr	_PORTA_5
                                   2624 ;	atrs\main.c:130: }
      00011C                       2625 00173$:
      00011C 22               [24] 2626 	ret
                                   2627 ;------------------------------------------------------------
                                   2628 ;Allocation info for local variables in function '_sdcc_external_startup'
                                   2629 ;------------------------------------------------------------
                                   2630 ;c                         Allocated with name '__sdcc_external_startup_c_2_378'
                                   2631 ;p                         Allocated with name '__sdcc_external_startup_p_2_378'
                                   2632 ;c                         Allocated with name '__sdcc_external_startup_c_2_379'
                                   2633 ;p                         Allocated with name '__sdcc_external_startup_p_2_379'
                                   2634 ;------------------------------------------------------------
                                   2635 ;	atrs\main.c:136: uint8_t _sdcc_external_startup(void)
                                   2636 ;	-----------------------------------------
                                   2637 ;	 function _sdcc_external_startup
                                   2638 ;	-----------------------------------------
      00011D                       2639 __sdcc_external_startup:
                                   2640 ;	atrs\main.c:138: LPXOSCGM = 0x8A;
      00011D 90 70 54         [24] 2641 	mov	dptr,#_LPXOSCGM
      000120 74 8A            [12] 2642 	mov	a,#0x8a
      000122 F0               [24] 2643 	movx	@dptr,a
                                   2644 ;	atrs\main.c:139: wtimer0_setclksrc(WTIMER0_CLKSRC, WTIMER0_PRESCALER);
      000123 75 82 09         [24] 2645 	mov	dpl,#0x09
      000126 12r00r00         [24] 2646 	lcall	_wtimer0_setconfig
                                   2647 ;	atrs\main.c:140: wtimer1_setclksrc(CLKSRC_FRCOSC, 7);
      000129 75 82 38         [24] 2648 	mov	dpl,#0x38
      00012C 12r00r00         [24] 2649 	lcall	_wtimer1_setconfig
                                   2650 ;	atrs\main.c:142: LPOSCCONFIG = 0x09; // Slow, PRESC /1, no cal. Does NOT enable LPOSC. LPOSC is enabled upon configuring WTCFGA (MODE_TX_PERIODIC and receive_ack() )
      00012F 90 70 60         [24] 2651 	mov	dptr,#_LPOSCCONFIG
      000132 74 09            [12] 2652 	mov	a,#0x09
      000134 F0               [24] 2653 	movx	@dptr,a
                                   2654 ;	atrs\main.c:144: coldstart = !(PCON & 0x40);
      000135 E5 87            [12] 2655 	mov	a,_PCON
      000137 A2 E6            [12] 2656 	mov	c,acc[6]
      000139 B3               [12] 2657 	cpl	c
      00013A 92*00            [24] 2658 	mov	__sdcc_external_startup_sloc0_1_0,c
      00013C E4               [12] 2659 	clr	a
      00013D 33               [12] 2660 	rlc	a
      00013E F5*02            [12] 2661 	mov	_coldstart,a
                                   2662 ;	atrs\main.c:146: ANALOGA = 0x18; // PA[3,4] LPXOSC, other PA are used as digital pins
      000140 90 70 07         [24] 2663 	mov	dptr,#_ANALOGA
      000143 74 18            [12] 2664 	mov	a,#0x18
      000145 F0               [24] 2665 	movx	@dptr,a
                                   2666 ;	atrs\main.c:147: PORTA = 0xFF; //
      000146 75 80 FF         [24] 2667 	mov	_PORTA,#0xff
                                   2668 ;	atrs\main.c:148: PORTB = 0xFD | (PINB & 0x02); // init LEDs to previous (frozen) state
      000149 74 02            [12] 2669 	mov	a,#0x02
      00014B 55 E8            [12] 2670 	anl	a,_PINB
      00014D 44 FD            [12] 2671 	orl	a,#0xfd
      00014F F5 88            [12] 2672 	mov	_PORTB,a
                                   2673 ;	atrs\main.c:149: PORTC = 0xFF; //
      000151 75 90 FF         [24] 2674 	mov	_PORTC,#0xff
                                   2675 ;	atrs\main.c:150: PORTR = 0x0B; //
      000154 75 8C 0B         [24] 2676 	mov	_PORTR,#0x0b
                                   2677 ;	atrs\main.c:151: DIRA = 0x00; //
      000157 75 89 00         [24] 2678 	mov	_DIRA,#0x00
                                   2679 ;	atrs\main.c:152: DIRB = 0x0e; //  PB1 = LED; PB2 / PB3 are outputs (in case PWRAMP / ANSTSEL are used)
      00015A 75 8A 0E         [24] 2680 	mov	_DIRB,#0x0e
                                   2681 ;	atrs\main.c:153: DIRC = 0x00; //  PC4 = button
      00015D 75 8B 00         [24] 2682 	mov	_DIRC,#0x00
                                   2683 ;	atrs\main.c:154: DIRR = 0x15; //
      000160 75 8E 15         [24] 2684 	mov	_DIRR,#0x15
                                   2685 ;	atrs\main.c:159: axradio_setup_pincfg1();
      000163 12r00r00         [24] 2686 	lcall	_axradio_setup_pincfg1
                                   2687 ;	atrs\main.c:161: DPS = 0;
      000166 75 86 00         [24] 2688 	mov	_DPS,#0x00
                                   2689 ;	atrs\main.c:162: IE = 0x40;
      000169 75 A8 40         [24] 2690 	mov	_IE,#0x40
                                   2691 ;	atrs\main.c:163: EIE = 0x10;//habilito interrupcion de UART
      00016C 75 98 10         [24] 2692 	mov	_EIE,#0x10
                                   2693 ;	atrs\main.c:164: E2IE = 0x00;// Keep random number generation interrupt disabled, if needed a random number just check the variable, and wait for it
      00016F 75 A0 00         [24] 2694 	mov	_E2IE,#0x00
                                   2695 ;	atrs\main.c:165: UBLOX_GPS_PortInit();
      000172 12r00r00         [24] 2696 	lcall	_UBLOX_GPS_PortInit
                                   2697 ;	atrs\main.c:166: UART_Proc_PortInit();
      000175 12r00r00         [24] 2698 	lcall	_UART_Proc_PortInit
                                   2699 ;	atrs\main.c:167: flash_pageerase(0x02); // for memory init, if its done after in the code it does not work
      000178 90 00 02         [24] 2700 	mov	dptr,#0x0002
      00017B 12r00r00         [24] 2701 	lcall	_flash_pageerase
                                   2702 ;	atrs\main.c:169: GPIOENABLE = 1; // unfreeze GPIO
      00017E 90 70 0C         [24] 2703 	mov	dptr,#_GPIOENABLE
      000181 74 01            [12] 2704 	mov	a,#0x01
      000183 F0               [24] 2705 	movx	@dptr,a
                                   2706 ;	atrs\main.c:173: return !coldstart; // coldstart -> return 0 -> var initialization; start from sleep -> return 1 -> no var initialization
      000184 E5*02            [12] 2707 	mov	a,_coldstart
      000186 B4 01 00         [24] 2708 	cjne	a,#0x01,00109$
      000189                       2709 00109$:
      000189 92*00            [24] 2710 	mov  __sdcc_external_startup_sloc0_1_0,c
      00018B E4               [12] 2711 	clr	a
      00018C 33               [12] 2712 	rlc	a
      00018D F5 82            [12] 2713 	mov	dpl,a
      00018F 22               [24] 2714 	ret
                                   2715 ;------------------------------------------------------------
                                   2716 ;Allocation info for local variables in function 'main'
                                   2717 ;------------------------------------------------------------
                                   2718 ;PROCD_PayloadLength       Allocated with name '_main_PROCD_PayloadLength_1_381'
                                   2719 ;PROCD_UartRxBuffer        Allocated with name '_main_PROCD_UartRxBuffer_1_381'
                                   2720 ;PROCD_Command             Allocated with name '_main_PROCD_Command_1_381'
                                   2721 ;i                         Allocated with name '_main_i_1_381'
                                   2722 ;c                         Allocated with name '_main_c_1_381'
                                   2723 ;UBLOX_setNav1             Allocated with name '_main_UBLOX_setNav1_1_381'
                                   2724 ;UBLOX_setNav2             Allocated with name '_main_UBLOX_setNav2_1_381'
                                   2725 ;UBLOX_setNav3             Allocated with name '_main_UBLOX_setNav3_1_381'
                                   2726 ;UBLOX_setNav5             Allocated with name '_main_UBLOX_setNav5_1_381'
                                   2727 ;UBLOX_Rx_Length           Allocated with name '_main_UBLOX_Rx_Length_1_381'
                                   2728 ;UBLOX_Rx_Payload          Allocated with name '_main_UBLOX_Rx_Payload_1_381'
                                   2729 ;------------------------------------------------------------
                                   2730 ;	atrs\main.c:180: void main(void)
                                   2731 ;	-----------------------------------------
                                   2732 ;	 function main
                                   2733 ;	-----------------------------------------
      000190                       2734 _main:
                                   2735 ;	atrs\main.c:185: volatile uint8_t    PROCD_PayloadLength= 0;     /**< \var length of the payload received from PROC-D*/
      000190 90r00r3F         [24] 2736 	mov	dptr,#_main_PROCD_PayloadLength_1_381
      000193 E4               [12] 2737 	clr	a
      000194 F0               [24] 2738 	movx	@dptr,a
                                   2739 ;	atrs\main.c:192: __xdata uint8_t  UBLOX_setNav1[]= {0xF0 ,0x04 ,0x00};/**< \brief Initial cofiguration for UBLOX GPS*/
      000195 90r00r43         [24] 2740 	mov	dptr,#_main_UBLOX_setNav1_1_381
      000198 74 F0            [12] 2741 	mov	a,#0xf0
      00019A F0               [24] 2742 	movx	@dptr,a
      00019B 90r00r44         [24] 2743 	mov	dptr,#(_main_UBLOX_setNav1_1_381 + 0x0001)
      00019E 74 04            [12] 2744 	mov	a,#0x04
      0001A0 F0               [24] 2745 	movx	@dptr,a
      0001A1 90r00r45         [24] 2746 	mov	dptr,#(_main_UBLOX_setNav1_1_381 + 0x0002)
      0001A4 E4               [12] 2747 	clr	a
      0001A5 F0               [24] 2748 	movx	@dptr,a
                                   2749 ;	atrs\main.c:193: __xdata uint8_t  UBLOX_setNav2[]= {0xF0, 0x01, 0x00, 0x00, 0x00, 0x00, 0x00, 0x01}; /**< \brief Initial cofiguration for UBLOX GPS*/
      0001A6 90r00r46         [24] 2750 	mov	dptr,#_main_UBLOX_setNav2_1_381
      0001A9 74 F0            [12] 2751 	mov	a,#0xf0
      0001AB F0               [24] 2752 	movx	@dptr,a
      0001AC 90r00r47         [24] 2753 	mov	dptr,#(_main_UBLOX_setNav2_1_381 + 0x0001)
      0001AF 74 01            [12] 2754 	mov	a,#0x01
      0001B1 F0               [24] 2755 	movx	@dptr,a
      0001B2 90r00r48         [24] 2756 	mov	dptr,#(_main_UBLOX_setNav2_1_381 + 0x0002)
      0001B5 E4               [12] 2757 	clr	a
      0001B6 F0               [24] 2758 	movx	@dptr,a
      0001B7 90r00r49         [24] 2759 	mov	dptr,#(_main_UBLOX_setNav2_1_381 + 0x0003)
      0001BA F0               [24] 2760 	movx	@dptr,a
      0001BB 90r00r4A         [24] 2761 	mov	dptr,#(_main_UBLOX_setNav2_1_381 + 0x0004)
      0001BE F0               [24] 2762 	movx	@dptr,a
      0001BF 90r00r4B         [24] 2763 	mov	dptr,#(_main_UBLOX_setNav2_1_381 + 0x0005)
      0001C2 F0               [24] 2764 	movx	@dptr,a
      0001C3 90r00r4C         [24] 2765 	mov	dptr,#(_main_UBLOX_setNav2_1_381 + 0x0006)
      0001C6 F0               [24] 2766 	movx	@dptr,a
      0001C7 90r00r4D         [24] 2767 	mov	dptr,#(_main_UBLOX_setNav2_1_381 + 0x0007)
      0001CA 04               [12] 2768 	inc	a
      0001CB F0               [24] 2769 	movx	@dptr,a
                                   2770 ;	atrs\main.c:194: __xdata uint8_t  UBLOX_setNav3[] = {0xF0, 0x04, 0x00, 0x00, 0x00, 0x00, 0x00, 0x01};/**< \brief Initial cofiguration for UBLOX GPS*/
      0001CC 90r00r4E         [24] 2771 	mov	dptr,#_main_UBLOX_setNav3_1_381
      0001CF 74 F0            [12] 2772 	mov	a,#0xf0
      0001D1 F0               [24] 2773 	movx	@dptr,a
      0001D2 90r00r4F         [24] 2774 	mov	dptr,#(_main_UBLOX_setNav3_1_381 + 0x0001)
      0001D5 74 04            [12] 2775 	mov	a,#0x04
      0001D7 F0               [24] 2776 	movx	@dptr,a
      0001D8 90r00r50         [24] 2777 	mov	dptr,#(_main_UBLOX_setNav3_1_381 + 0x0002)
      0001DB E4               [12] 2778 	clr	a
      0001DC F0               [24] 2779 	movx	@dptr,a
      0001DD 90r00r51         [24] 2780 	mov	dptr,#(_main_UBLOX_setNav3_1_381 + 0x0003)
      0001E0 F0               [24] 2781 	movx	@dptr,a
      0001E1 90r00r52         [24] 2782 	mov	dptr,#(_main_UBLOX_setNav3_1_381 + 0x0004)
      0001E4 F0               [24] 2783 	movx	@dptr,a
      0001E5 90r00r53         [24] 2784 	mov	dptr,#(_main_UBLOX_setNav3_1_381 + 0x0005)
      0001E8 F0               [24] 2785 	movx	@dptr,a
      0001E9 90r00r54         [24] 2786 	mov	dptr,#(_main_UBLOX_setNav3_1_381 + 0x0006)
      0001EC F0               [24] 2787 	movx	@dptr,a
      0001ED 90r00r55         [24] 2788 	mov	dptr,#(_main_UBLOX_setNav3_1_381 + 0x0007)
      0001F0 04               [12] 2789 	inc	a
      0001F1 F0               [24] 2790 	movx	@dptr,a
                                   2791 ;	atrs\main.c:195: __xdata uint8_t  UBLOX_setNav5[] ={0xFF, 0xFF, 0x06, 0x03, 0x00, 0x00, 0x00, 0x00, 0x10, 0x27, 0x00, 0x00,
      0001F2 90r00r56         [24] 2792 	mov	dptr,#_main_UBLOX_setNav5_1_381
      0001F5 74 FF            [12] 2793 	mov	a,#0xff
      0001F7 F0               [24] 2794 	movx	@dptr,a
      0001F8 90r00r57         [24] 2795 	mov	dptr,#(_main_UBLOX_setNav5_1_381 + 0x0001)
      0001FB F0               [24] 2796 	movx	@dptr,a
      0001FC 90r00r58         [24] 2797 	mov	dptr,#(_main_UBLOX_setNav5_1_381 + 0x0002)
      0001FF 74 06            [12] 2798 	mov	a,#0x06
      000201 F0               [24] 2799 	movx	@dptr,a
      000202 90r00r59         [24] 2800 	mov	dptr,#(_main_UBLOX_setNav5_1_381 + 0x0003)
      000205 03               [12] 2801 	rr	a
      000206 F0               [24] 2802 	movx	@dptr,a
      000207 90r00r5A         [24] 2803 	mov	dptr,#(_main_UBLOX_setNav5_1_381 + 0x0004)
      00020A E4               [12] 2804 	clr	a
      00020B F0               [24] 2805 	movx	@dptr,a
      00020C 90r00r5B         [24] 2806 	mov	dptr,#(_main_UBLOX_setNav5_1_381 + 0x0005)
      00020F F0               [24] 2807 	movx	@dptr,a
      000210 90r00r5C         [24] 2808 	mov	dptr,#(_main_UBLOX_setNav5_1_381 + 0x0006)
      000213 F0               [24] 2809 	movx	@dptr,a
      000214 90r00r5D         [24] 2810 	mov	dptr,#(_main_UBLOX_setNav5_1_381 + 0x0007)
      000217 F0               [24] 2811 	movx	@dptr,a
      000218 90r00r5E         [24] 2812 	mov	dptr,#(_main_UBLOX_setNav5_1_381 + 0x0008)
      00021B 74 10            [12] 2813 	mov	a,#0x10
      00021D F0               [24] 2814 	movx	@dptr,a
      00021E 90r00r5F         [24] 2815 	mov	dptr,#(_main_UBLOX_setNav5_1_381 + 0x0009)
      000221 74 27            [12] 2816 	mov	a,#0x27
      000223 F0               [24] 2817 	movx	@dptr,a
      000224 90r00r60         [24] 2818 	mov	dptr,#(_main_UBLOX_setNav5_1_381 + 0x000a)
      000227 E4               [12] 2819 	clr	a
      000228 F0               [24] 2820 	movx	@dptr,a
      000229 90r00r61         [24] 2821 	mov	dptr,#(_main_UBLOX_setNav5_1_381 + 0x000b)
      00022C F0               [24] 2822 	movx	@dptr,a
      00022D 90r00r62         [24] 2823 	mov	dptr,#(_main_UBLOX_setNav5_1_381 + 0x000c)
      000230 74 05            [12] 2824 	mov	a,#0x05
      000232 F0               [24] 2825 	movx	@dptr,a
      000233 90r00r63         [24] 2826 	mov	dptr,#(_main_UBLOX_setNav5_1_381 + 0x000d)
      000236 E4               [12] 2827 	clr	a
      000237 F0               [24] 2828 	movx	@dptr,a
      000238 90r00r64         [24] 2829 	mov	dptr,#(_main_UBLOX_setNav5_1_381 + 0x000e)
      00023B 74 FA            [12] 2830 	mov	a,#0xfa
      00023D F0               [24] 2831 	movx	@dptr,a
      00023E 90r00r65         [24] 2832 	mov	dptr,#(_main_UBLOX_setNav5_1_381 + 0x000f)
      000241 E4               [12] 2833 	clr	a
      000242 F0               [24] 2834 	movx	@dptr,a
      000243 90r00r66         [24] 2835 	mov	dptr,#(_main_UBLOX_setNav5_1_381 + 0x0010)
      000246 74 FA            [12] 2836 	mov	a,#0xfa
      000248 F0               [24] 2837 	movx	@dptr,a
      000249 90r00r67         [24] 2838 	mov	dptr,#(_main_UBLOX_setNav5_1_381 + 0x0011)
      00024C E4               [12] 2839 	clr	a
      00024D F0               [24] 2840 	movx	@dptr,a
      00024E 90r00r68         [24] 2841 	mov	dptr,#(_main_UBLOX_setNav5_1_381 + 0x0012)
      000251 74 64            [12] 2842 	mov	a,#0x64
      000253 F0               [24] 2843 	movx	@dptr,a
      000254 90r00r69         [24] 2844 	mov	dptr,#(_main_UBLOX_setNav5_1_381 + 0x0013)
      000257 E4               [12] 2845 	clr	a
      000258 F0               [24] 2846 	movx	@dptr,a
      000259 90r00r6A         [24] 2847 	mov	dptr,#(_main_UBLOX_setNav5_1_381 + 0x0014)
      00025C 74 2C            [12] 2848 	mov	a,#0x2c
      00025E F0               [24] 2849 	movx	@dptr,a
      00025F 90r00r6B         [24] 2850 	mov	dptr,#(_main_UBLOX_setNav5_1_381 + 0x0015)
      000262 74 01            [12] 2851 	mov	a,#0x01
      000264 F0               [24] 2852 	movx	@dptr,a
      000265 90r00r6C         [24] 2853 	mov	dptr,#(_main_UBLOX_setNav5_1_381 + 0x0016)
      000268 E4               [12] 2854 	clr	a
      000269 F0               [24] 2855 	movx	@dptr,a
      00026A 90r00r6D         [24] 2856 	mov	dptr,#(_main_UBLOX_setNav5_1_381 + 0x0017)
      00026D F0               [24] 2857 	movx	@dptr,a
      00026E 90r00r6E         [24] 2858 	mov	dptr,#(_main_UBLOX_setNav5_1_381 + 0x0018)
      000271 F0               [24] 2859 	movx	@dptr,a
      000272 90r00r6F         [24] 2860 	mov	dptr,#(_main_UBLOX_setNav5_1_381 + 0x0019)
      000275 F0               [24] 2861 	movx	@dptr,a
      000276 90r00r70         [24] 2862 	mov	dptr,#(_main_UBLOX_setNav5_1_381 + 0x001a)
      000279 F0               [24] 2863 	movx	@dptr,a
      00027A 90r00r71         [24] 2864 	mov	dptr,#(_main_UBLOX_setNav5_1_381 + 0x001b)
      00027D F0               [24] 2865 	movx	@dptr,a
      00027E 90r00r72         [24] 2866 	mov	dptr,#(_main_UBLOX_setNav5_1_381 + 0x001c)
      000281 F0               [24] 2867 	movx	@dptr,a
      000282 90r00r73         [24] 2868 	mov	dptr,#(_main_UBLOX_setNav5_1_381 + 0x001d)
      000285 F0               [24] 2869 	movx	@dptr,a
      000286 90r00r74         [24] 2870 	mov	dptr,#(_main_UBLOX_setNav5_1_381 + 0x001e)
      000289 F0               [24] 2871 	movx	@dptr,a
      00028A 90r00r75         [24] 2872 	mov	dptr,#(_main_UBLOX_setNav5_1_381 + 0x001f)
      00028D F0               [24] 2873 	movx	@dptr,a
      00028E 90r00r76         [24] 2874 	mov	dptr,#(_main_UBLOX_setNav5_1_381 + 0x0020)
      000291 F0               [24] 2875 	movx	@dptr,a
      000292 90r00r77         [24] 2876 	mov	dptr,#(_main_UBLOX_setNav5_1_381 + 0x0021)
      000295 F0               [24] 2877 	movx	@dptr,a
      000296 90r00r78         [24] 2878 	mov	dptr,#(_main_UBLOX_setNav5_1_381 + 0x0022)
      000299 F0               [24] 2879 	movx	@dptr,a
      00029A 90r00r79         [24] 2880 	mov	dptr,#(_main_UBLOX_setNav5_1_381 + 0x0023)
      00029D F0               [24] 2881 	movx	@dptr,a
                                   2882 ;	atrs\main.c:198: __xdata uint16_t UBLOX_Rx_Length = 0;               /**< \brief UBLOX GPS received data length */
      00029E 90r00r7A         [24] 2883 	mov	dptr,#_main_UBLOX_Rx_Length_1_381
      0002A1 F0               [24] 2884 	movx	@dptr,a
      0002A2 A3               [24] 2885 	inc	dptr
      0002A3 F0               [24] 2886 	movx	@dptr,a
                                   2887 ;	atrs\main.c:212: __endasm;
                           000000  2888 	G$_start__stack$0$0	= __start__stack
                                   2889 	.globl	G$_start__stack$0$0
                                   2890 ;	atrs\main.c:214: RxBuffer =(uint16_t*) malloc(sizeof(uint16_t)*20);
      0002A4 90 00 28         [24] 2891 	mov	dptr,#0x0028
      0002A7 12r00r00         [24] 2892 	lcall	_malloc
      0002AA AE 82            [24] 2893 	mov	r6,dpl
      0002AC AF 83            [24] 2894 	mov	r7,dph
      0002AE 90r00r21         [24] 2895 	mov	dptr,#_RxBuffer
      0002B1 EE               [12] 2896 	mov	a,r6
      0002B2 F0               [24] 2897 	movx	@dptr,a
      0002B3 EF               [12] 2898 	mov	a,r7
      0002B4 A3               [24] 2899 	inc	dptr
      0002B5 F0               [24] 2900 	movx	@dptr,a
                                   2901 ;	atrs\main.c:215: PROCD_UartRxBuffer = (uint8_t*) malloc(sizeof(uint8_t)*50);
      0002B6 90 00 32         [24] 2902 	mov	dptr,#0x0032
      0002B9 12r00r00         [24] 2903 	lcall	_malloc
      0002BC AE 82            [24] 2904 	mov	r6,dpl
      0002BE AF 83            [24] 2905 	mov	r7,dph
                                   2906 ;	atrs\main.c:216: IE_4 = 1;
      0002C0 D2 AC            [12] 2907 	setb	_IE_4
                                   2908 ;	atrs\main.c:217: EA = 1;
      0002C2 D2 AF            [12] 2909 	setb	_EA
                                   2910 ;	atrs\main.c:219: CLKCON = 0x00;
      0002C4 75 C6 00         [24] 2911 	mov	_CLKCON,#0x00
                                   2912 ;	atrs\main.c:220: wtimer_init();
      0002C7 C0 07            [24] 2913 	push	ar7
      0002C9 C0 06            [24] 2914 	push	ar6
      0002CB 12r00r00         [24] 2915 	lcall	_wtimer_init
      0002CE D0 06            [24] 2916 	pop	ar6
      0002D0 D0 07            [24] 2917 	pop	ar7
                                   2918 ;	atrs\main.c:221: dbglink_init();
      0002D2 12r00r00         [24] 2919 	lcall	_dbglink_init
                                   2920 ;	atrs\main.c:223: if (coldstart) {
      0002D5 E5*02            [12] 2921 	mov	a,_coldstart
      0002D7 60 2D            [24] 2922 	jz	00126$
                                   2923 ;	atrs\main.c:225: led0_off();
      0002D9 C2 93            [12] 2924 	clr	_PORTC_3
                                   2925 ;	atrs\main.c:226: led1_off();
      0002DB C2 80            [12] 2926 	clr	_PORTA_0
                                   2927 ;	atrs\main.c:227: led2_off();
      0002DD C2 82            [12] 2928 	clr	_PORTA_2
                                   2929 ;	atrs\main.c:228: led3_off();
      0002DF C2 85            [12] 2930 	clr	_PORTA_5
                                   2931 ;	atrs\main.c:230: i = axradio_init();
      0002E1 C0 07            [24] 2932 	push	ar7
      0002E3 C0 06            [24] 2933 	push	ar6
      0002E5 12r00r00         [24] 2934 	lcall	_axradio_init
                                   2935 ;	atrs\main.c:232: axradio_set_local_address(&localaddr);
      0002E8 90r00r00         [24] 2936 	mov	dptr,#_localaddr
      0002EB 75 F0 80         [24] 2937 	mov	b,#0x80
      0002EE 12r00r00         [24] 2938 	lcall	_axradio_set_local_address
                                   2939 ;	atrs\main.c:233: axradio_set_default_remote_address(&remoteaddr);
      0002F1 90r00r00         [24] 2940 	mov	dptr,#_remoteaddr
      0002F4 75 F0 80         [24] 2941 	mov	b,#0x80
      0002F7 12r00r00         [24] 2942 	lcall	_axradio_set_default_remote_address
                                   2943 ;	atrs\main.c:237: i = axradio_set_mode(RADIO_MODE);
      0002FA 75 82 20         [24] 2944 	mov	dpl,#0x20
      0002FD 12r00r00         [24] 2945 	lcall	_axradio_set_mode
      000300 D0 06            [24] 2946 	pop	ar6
      000302 D0 07            [24] 2947 	pop	ar7
      000304 80 0B            [24] 2948 	sjmp	00127$
      000306                       2949 00126$:
                                   2950 ;	atrs\main.c:241: ax5043_commsleepexit();
      000306 C0 07            [24] 2951 	push	ar7
      000308 C0 06            [24] 2952 	push	ar6
      00030A 12r00r00         [24] 2953 	lcall	_ax5043_commsleepexit
      00030D D0 06            [24] 2954 	pop	ar6
      00030F D0 07            [24] 2955 	pop	ar7
      000311                       2956 00127$:
                                   2957 ;	atrs\main.c:244: axradio_setup_pincfg2();
      000311 C0 07            [24] 2958 	push	ar7
      000313 C0 06            [24] 2959 	push	ar6
      000315 12r00r00         [24] 2960 	lcall	_axradio_setup_pincfg2
                                   2961 ;	atrs\main.c:248: delay_ms(2000);
      000318 90 07 D0         [24] 2962 	mov	dptr,#0x07d0
      00031B 12r00r00         [24] 2963 	lcall	_delay_ms
                                   2964 ;	atrs\main.c:249: transmit_packet();
      00031E 12r00r35         [24] 2965 	lcall	_transmit_packet
                                   2966 ;	atrs\main.c:251: GOLDSEQUENCE_Init();
      000321 12r00r00         [24] 2967 	lcall	_GOLDSEQUENCE_Init
      000324 D0 06            [24] 2968 	pop	ar6
      000326 D0 07            [24] 2969 	pop	ar7
      000328                       2970 00146$:
                                   2971 ;	atrs\main.c:299: switch(RfStateMachine)
      000328 90r00r00         [24] 2972 	mov	dptr,#_RfStateMachine
      00032B E0               [24] 2973 	movx	a,@dptr
      00032C FD               [12] 2974 	mov	r5,a
      00032D 60 05            [24] 2975 	jz	00128$
                                   2976 ;	atrs\main.c:301: case e_WaitTxMessage:
      00032F BD 01 28         [24] 2977 	cjne	r5,#0x01,00134$
      000332 80 0B            [24] 2978 	sjmp	00129$
      000334                       2979 00128$:
                                   2980 ;	atrs\main.c:302: RfStateMachine ++;
      000334 90r00r00         [24] 2981 	mov	dptr,#_RfStateMachine
      000337 ED               [12] 2982 	mov	a,r5
      000338 04               [12] 2983 	inc	a
      000339 F0               [24] 2984 	movx	@dptr,a
                                   2985 ;	atrs\main.c:303: RfStateMachine --;
      00033A E0               [24] 2986 	movx	a,@dptr
      00033B 14               [12] 2987 	dec	a
      00033C F0               [24] 2988 	movx	@dptr,a
                                   2989 ;	atrs\main.c:309: break;
                                   2990 ;	atrs\main.c:311: case e_WaitForBeaconAndMessageSend:
      00033D 80 1B            [24] 2991 	sjmp	00134$
      00033F                       2992 00129$:
                                   2993 ;	atrs\main.c:312: if(RxIsrFlag==0x01)
      00033F 90r00r02         [24] 2994 	mov	dptr,#_RxIsrFlag
      000342 E0               [24] 2995 	movx	a,@dptr
      000343 FC               [12] 2996 	mov	r4,a
      000344 A3               [24] 2997 	inc	dptr
      000345 E0               [24] 2998 	movx	a,@dptr
      000346 FD               [12] 2999 	mov	r5,a
      000347 BC 01 10         [24] 3000 	cjne	r4,#0x01,00134$
      00034A BD 00 0D         [24] 3001 	cjne	r5,#0x00,00134$
                                   3002 ;	atrs\main.c:315: RxIsrFlag=0x00;
      00034D 90r00r02         [24] 3003 	mov	dptr,#_RxIsrFlag
      000350 E4               [12] 3004 	clr	a
      000351 F0               [24] 3005 	movx	@dptr,a
      000352 A3               [24] 3006 	inc	dptr
      000353 F0               [24] 3007 	movx	@dptr,a
                                   3008 ;	atrs\main.c:321: RfStateMachine = e_WaitForACK;
      000354 90r00r00         [24] 3009 	mov	dptr,#_RfStateMachine
      000357 74 02            [12] 3010 	mov	a,#0x02
      000359 F0               [24] 3011 	movx	@dptr,a
                                   3012 ;	atrs\main.c:333: }
      00035A                       3013 00134$:
                                   3014 ;	atrs\main.c:339: if( UART_Proc_VerifyIncomingMsg(&PROCD_Command,PROCD_UartRxBuffer , &PROCD_PayloadLength) == RX_SUCCESFULL)
      00035A 8E 04            [24] 3015 	mov	ar4,r6
      00035C 8F 05            [24] 3016 	mov	ar5,r7
      00035E 7B 00            [12] 3017 	mov	r3,#0x00
      000360 90r00r00         [24] 3018 	mov	dptr,#_UART_Proc_VerifyIncomingMsg_PARM_2
      000363 EC               [12] 3019 	mov	a,r4
      000364 F0               [24] 3020 	movx	@dptr,a
      000365 ED               [12] 3021 	mov	a,r5
      000366 A3               [24] 3022 	inc	dptr
      000367 F0               [24] 3023 	movx	@dptr,a
      000368 EB               [12] 3024 	mov	a,r3
      000369 A3               [24] 3025 	inc	dptr
      00036A F0               [24] 3026 	movx	@dptr,a
      00036B 90r00r00         [24] 3027 	mov	dptr,#_UART_Proc_VerifyIncomingMsg_PARM_3
      00036E 74r3F            [12] 3028 	mov	a,#_main_PROCD_PayloadLength_1_381
      000370 F0               [24] 3029 	movx	@dptr,a
      000371 74s00            [12] 3030 	mov	a,#(_main_PROCD_PayloadLength_1_381 >> 8)
      000373 A3               [24] 3031 	inc	dptr
      000374 F0               [24] 3032 	movx	@dptr,a
      000375 E4               [12] 3033 	clr	a
      000376 A3               [24] 3034 	inc	dptr
      000377 F0               [24] 3035 	movx	@dptr,a
      000378 90r00r42         [24] 3036 	mov	dptr,#_main_PROCD_Command_1_381
      00037B 75 F0 00         [24] 3037 	mov	b,#0x00
      00037E C0 07            [24] 3038 	push	ar7
      000380 C0 06            [24] 3039 	push	ar6
      000382 12r00r00         [24] 3040 	lcall	_UART_Proc_VerifyIncomingMsg
      000385 AD 82            [24] 3041 	mov	r5,dpl
      000387 D0 06            [24] 3042 	pop	ar6
      000389 D0 07            [24] 3043 	pop	ar7
      00038B BD 04 02         [24] 3044 	cjne	r5,#0x04,00187$
      00038E 80 03            [24] 3045 	sjmp	00188$
      000390                       3046 00187$:
      000390 02r04r24         [24] 3047 	ljmp	00137$
      000393                       3048 00188$:
                                   3049 ;	atrs\main.c:342: dbglink_writestr("comando Rx: ");
      000393 90r00r03         [24] 3050 	mov	dptr,#___str_1
      000396 75 F0 80         [24] 3051 	mov	b,#0x80
      000399 C0 07            [24] 3052 	push	ar7
      00039B C0 06            [24] 3053 	push	ar6
      00039D 12r00r00         [24] 3054 	lcall	_dbglink_writestr
                                   3055 ;	atrs\main.c:343: dbglink_writehex16(PROCD_Command,1,WRNUM_PADZERO);
      0003A0 90r00r42         [24] 3056 	mov	dptr,#_main_PROCD_Command_1_381
      0003A3 E0               [24] 3057 	movx	a,@dptr
      0003A4 FD               [12] 3058 	mov	r5,a
      0003A5 7C 00            [12] 3059 	mov	r4,#0x00
      0003A7 74 08            [12] 3060 	mov	a,#0x08
      0003A9 C0 E0            [24] 3061 	push	acc
      0003AB 74 01            [12] 3062 	mov	a,#0x01
      0003AD C0 E0            [24] 3063 	push	acc
      0003AF 8D 82            [24] 3064 	mov	dpl,r5
      0003B1 8C 83            [24] 3065 	mov	dph,r4
      0003B3 12r00r00         [24] 3066 	lcall	_dbglink_writehex16
      0003B6 15 81            [12] 3067 	dec	sp
      0003B8 15 81            [12] 3068 	dec	sp
                                   3069 ;	atrs\main.c:344: dbglink_writestr("\n Longitud Rx: ");
      0003BA 90r00r10         [24] 3070 	mov	dptr,#___str_2
      0003BD 75 F0 80         [24] 3071 	mov	b,#0x80
      0003C0 12r00r00         [24] 3072 	lcall	_dbglink_writestr
                                   3073 ;	atrs\main.c:345: dbglink_writehex16(PROCD_PayloadLength,1,WRNUM_PADZERO);
      0003C3 90r00r3F         [24] 3074 	mov	dptr,#_main_PROCD_PayloadLength_1_381
      0003C6 E0               [24] 3075 	movx	a,@dptr
      0003C7 FD               [12] 3076 	mov	r5,a
      0003C8 7C 00            [12] 3077 	mov	r4,#0x00
      0003CA 74 08            [12] 3078 	mov	a,#0x08
      0003CC C0 E0            [24] 3079 	push	acc
      0003CE 74 01            [12] 3080 	mov	a,#0x01
      0003D0 C0 E0            [24] 3081 	push	acc
      0003D2 8D 82            [24] 3082 	mov	dpl,r5
      0003D4 8C 83            [24] 3083 	mov	dph,r4
      0003D6 12r00r00         [24] 3084 	lcall	_dbglink_writehex16
      0003D9 15 81            [12] 3085 	dec	sp
      0003DB 15 81            [12] 3086 	dec	sp
                                   3087 ;	atrs\main.c:346: dbglink_writestr("\n payload: ");
      0003DD 90r00r20         [24] 3088 	mov	dptr,#___str_3
      0003E0 75 F0 80         [24] 3089 	mov	b,#0x80
      0003E3 12r00r00         [24] 3090 	lcall	_dbglink_writestr
      0003E6 D0 06            [24] 3091 	pop	ar6
      0003E8 D0 07            [24] 3092 	pop	ar7
                                   3093 ;	atrs\main.c:347: for(i=0;i<PROCD_PayloadLength;i++)
      0003EA 7D 00            [12] 3094 	mov	r5,#0x00
      0003EC                       3095 00144$:
      0003EC 90r00r3F         [24] 3096 	mov	dptr,#_main_PROCD_PayloadLength_1_381
      0003EF E0               [24] 3097 	movx	a,@dptr
      0003F0 FC               [12] 3098 	mov	r4,a
      0003F1 C3               [12] 3099 	clr	c
